{"abi":[{"inputs":[{"internalType":"uint256","name":"_minContribution","type":"uint256"}],"name":"createNewCampaign","outputs":[],"stateMutability":"nonpayable","type":"function"},{"inputs":[],"name":"getCampaigns","outputs":[{"internalType":"address[]","name":"","type":"address[]"}],"stateMutability":"view","type":"function"}],"devdoc":{"kind":"dev","methods":{},"version":1},"evm":{"assembly":"    /* \"Campaign.sol\":60:444  contract CampaignFactory{... */\n  mstore(0x40, 0x80)\n  callvalue\n  dup1\n  iszero\n  tag_1\n  jumpi\n  0x00\n  dup1\n  revert\ntag_1:\n  pop\n  dataSize(sub_0)\n  dup1\n  dataOffset(sub_0)\n  0x00\n  codecopy\n  0x00\n  return\nstop\n\nsub_0: assembly {\n        /* \"Campaign.sol\":60:444  contract CampaignFactory{... */\n      mstore(0x40, 0x80)\n      callvalue\n      dup1\n      iszero\n      tag_1\n      jumpi\n      0x00\n      dup1\n      revert\n    tag_1:\n      pop\n      jumpi(tag_2, lt(calldatasize, 0x04))\n      shr(0xe0, calldataload(0x00))\n      dup1\n      0x66661cc5\n      eq\n      tag_3\n      jumpi\n      dup1\n      0xa6b03633\n      eq\n      tag_4\n      jumpi\n    tag_2:\n      0x00\n      dup1\n      revert\n        /* \"Campaign.sol\":129:327  function createNewCampaign(uint _minContribution) public {... */\n    tag_3:\n      tag_5\n      0x04\n      dup1\n      calldatasize\n      sub\n      dup2\n      add\n      swap1\n      tag_6\n      swap2\n      swap1\n      tag_7\n      jump\t// in\n    tag_6:\n      tag_8\n      jump\t// in\n    tag_5:\n      stop\n        /* \"Campaign.sol\":335:441  function getCampaigns() public view returns(address [] memory){... */\n    tag_4:\n      tag_9\n      tag_10\n      jump\t// in\n    tag_9:\n      mload(0x40)\n      tag_11\n      swap2\n      swap1\n      tag_12\n      jump\t// in\n    tag_11:\n      mload(0x40)\n      dup1\n      swap2\n      sub\n      swap1\n      return\n        /* \"Campaign.sol\":129:327  function createNewCampaign(uint _minContribution) public {... */\n    tag_8:\n        /* \"Campaign.sol\":197:217  Campaign contractAdd */\n      0x00\n        /* \"Campaign.sol\":233:249  _minContribution */\n      dup2\n        /* \"Campaign.sol\":251:261  msg.sender */\n      caller\n        /* \"Campaign.sol\":220:262  new Campaign(_minContribution, msg.sender) */\n      mload(0x40)\n      tag_14\n      swap1\n      tag_15\n      jump\t// in\n    tag_14:\n      tag_16\n      swap3\n      swap2\n      swap1\n      tag_17\n      jump\t// in\n    tag_16:\n      mload(0x40)\n      dup1\n      swap2\n      sub\n      swap1\n      0x00\n      create\n      dup1\n      iszero\n      dup1\n      iszero\n      tag_18\n      jumpi\n      returndatasize\n      0x00\n      dup1\n      returndatacopy\n      revert(0x00, returndatasize)\n    tag_18:\n      pop\n        /* \"Campaign.sol\":197:262  Campaign contractAdd = new Campaign(_minContribution, msg.sender) */\n      swap1\n      pop\n        /* \"Campaign.sol\":274:291  campaignAddresses */\n      0x00\n        /* \"Campaign.sol\":305:316  contractAdd */\n      dup2\n        /* \"Campaign.sol\":274:318  campaignAddresses.push(address(contractAdd)) */\n      swap1\n      dup1\n      0x01\n      dup2\n      sload\n      add\n      dup1\n      dup3\n      sstore\n      dup1\n      swap2\n      pop\n      pop\n      0x01\n      swap1\n      sub\n      swap1\n      0x00\n      mstore\n      keccak256(0x00, 0x20)\n      add\n      0x00\n      swap1\n      swap2\n      swap1\n      swap2\n      swap1\n      swap2\n      0x0100\n      exp\n      dup2\n      sload\n      dup2\n      0xffffffffffffffffffffffffffffffffffffffff\n      mul\n      not\n      and\n      swap1\n      dup4\n      0xffffffffffffffffffffffffffffffffffffffff\n      and\n      mul\n      or\n      swap1\n      sstore\n      pop\n        /* \"Campaign.sol\":186:327  {... */\n      pop\n        /* \"Campaign.sol\":129:327  function createNewCampaign(uint _minContribution) public {... */\n      pop\n      jump\t// out\n        /* \"Campaign.sol\":335:441  function getCampaigns() public view returns(address [] memory){... */\n    tag_10:\n        /* \"Campaign.sol\":379:396  address [] memory */\n      0x60\n        /* \"Campaign.sol\":415:432  campaignAddresses */\n      0x00\n        /* \"Campaign.sol\":408:432  return campaignAddresses */\n      dup1\n      sload\n      dup1\n      0x20\n      mul\n      0x20\n      add\n      mload(0x40)\n      swap1\n      dup2\n      add\n      0x40\n      mstore\n      dup1\n      swap3\n      swap2\n      swap1\n      dup2\n      dup2\n      mstore\n      0x20\n      add\n      dup3\n      dup1\n      sload\n      dup1\n      iszero\n      tag_21\n      jumpi\n      0x20\n      mul\n      dup3\n      add\n      swap2\n      swap1\n      0x00\n      mstore\n      keccak256(0x00, 0x20)\n      swap1\n    tag_22:\n      dup2\n      0x00\n      swap1\n      sload\n      swap1\n      0x0100\n      exp\n      swap1\n      div\n      0xffffffffffffffffffffffffffffffffffffffff\n      and\n      0xffffffffffffffffffffffffffffffffffffffff\n      and\n      dup2\n      mstore\n      0x20\n      add\n      swap1\n      0x01\n      add\n      swap1\n      dup1\n      dup4\n      gt\n      tag_22\n      jumpi\n    tag_21:\n      pop\n      pop\n      pop\n      pop\n      pop\n      swap1\n      pop\n        /* \"Campaign.sol\":335:441  function getCampaigns() public view returns(address [] memory){... */\n      swap1\n      jump\t// out\n    tag_15:\n      dataSize(sub_0)\n      dup1\n      dataOffset(sub_0)\n      dup4\n      codecopy\n      add\n      swap1\n      jump\t// out\n        /* \"#utility.yul\":88:205   */\n    tag_24:\n        /* \"#utility.yul\":197:198   */\n      0x00\n        /* \"#utility.yul\":194:195   */\n      dup1\n        /* \"#utility.yul\":187:199   */\n      revert\n        /* \"#utility.yul\":334:411   */\n    tag_26:\n        /* \"#utility.yul\":371:378   */\n      0x00\n        /* \"#utility.yul\":400:405   */\n      dup2\n        /* \"#utility.yul\":389:405   */\n      swap1\n      pop\n        /* \"#utility.yul\":334:411   */\n      swap2\n      swap1\n      pop\n      jump\t// out\n        /* \"#utility.yul\":417:539   */\n    tag_27:\n        /* \"#utility.yul\":490:514   */\n      tag_46\n        /* \"#utility.yul\":508:513   */\n      dup2\n        /* \"#utility.yul\":490:514   */\n      tag_26\n      jump\t// in\n    tag_46:\n        /* \"#utility.yul\":483:488   */\n      dup2\n        /* \"#utility.yul\":480:515   */\n      eq\n        /* \"#utility.yul\":470:533   */\n      tag_47\n      jumpi\n        /* \"#utility.yul\":529:530   */\n      0x00\n        /* \"#utility.yul\":526:527   */\n      dup1\n        /* \"#utility.yul\":519:531   */\n      revert\n        /* \"#utility.yul\":470:533   */\n    tag_47:\n        /* \"#utility.yul\":417:539   */\n      pop\n      jump\t// out\n        /* \"#utility.yul\":545:684   */\n    tag_28:\n        /* \"#utility.yul\":591:596   */\n      0x00\n        /* \"#utility.yul\":629:635   */\n      dup2\n        /* \"#utility.yul\":616:636   */\n      calldataload\n        /* \"#utility.yul\":607:636   */\n      swap1\n      pop\n        /* \"#utility.yul\":645:678   */\n      tag_49\n        /* \"#utility.yul\":672:677   */\n      dup2\n        /* \"#utility.yul\":645:678   */\n      tag_27\n      jump\t// in\n    tag_49:\n        /* \"#utility.yul\":545:684   */\n      swap3\n      swap2\n      pop\n      pop\n      jump\t// out\n        /* \"#utility.yul\":690:1019   */\n    tag_7:\n        /* \"#utility.yul\":749:755   */\n      0x00\n        /* \"#utility.yul\":798:800   */\n      0x20\n        /* \"#utility.yul\":786:795   */\n      dup3\n        /* \"#utility.yul\":777:784   */\n      dup5\n        /* \"#utility.yul\":773:796   */\n      sub\n        /* \"#utility.yul\":769:801   */\n      slt\n        /* \"#utility.yul\":766:885   */\n      iszero\n      tag_51\n      jumpi\n        /* \"#utility.yul\":804:883   */\n      tag_52\n      tag_24\n      jump\t// in\n    tag_52:\n        /* \"#utility.yul\":766:885   */\n    tag_51:\n        /* \"#utility.yul\":924:925   */\n      0x00\n        /* \"#utility.yul\":949:1002   */\n      tag_53\n        /* \"#utility.yul\":994:1001   */\n      dup5\n        /* \"#utility.yul\":985:991   */\n      dup3\n        /* \"#utility.yul\":974:983   */\n      dup6\n        /* \"#utility.yul\":970:992   */\n      add\n        /* \"#utility.yul\":949:1002   */\n      tag_28\n      jump\t// in\n    tag_53:\n        /* \"#utility.yul\":939:1002   */\n      swap2\n      pop\n        /* \"#utility.yul\":895:1012   */\n      pop\n        /* \"#utility.yul\":690:1019   */\n      swap3\n      swap2\n      pop\n      pop\n      jump\t// out\n        /* \"#utility.yul\":1025:1139   */\n    tag_29:\n        /* \"#utility.yul\":1092:1098   */\n      0x00\n        /* \"#utility.yul\":1126:1131   */\n      dup2\n        /* \"#utility.yul\":1120:1132   */\n      mload\n        /* \"#utility.yul\":1110:1132   */\n      swap1\n      pop\n        /* \"#utility.yul\":1025:1139   */\n      swap2\n      swap1\n      pop\n      jump\t// out\n        /* \"#utility.yul\":1145:1329   */\n    tag_30:\n        /* \"#utility.yul\":1244:1255   */\n      0x00\n        /* \"#utility.yul\":1278:1284   */\n      dup3\n        /* \"#utility.yul\":1273:1276   */\n      dup3\n        /* \"#utility.yul\":1266:1285   */\n      mstore\n        /* \"#utility.yul\":1318:1322   */\n      0x20\n        /* \"#utility.yul\":1313:1316   */\n      dup3\n        /* \"#utility.yul\":1309:1323   */\n      add\n        /* \"#utility.yul\":1294:1323   */\n      swap1\n      pop\n        /* \"#utility.yul\":1145:1329   */\n      swap3\n      swap2\n      pop\n      pop\n      jump\t// out\n        /* \"#utility.yul\":1335:1467   */\n    tag_31:\n        /* \"#utility.yul\":1402:1406   */\n      0x00\n        /* \"#utility.yul\":1425:1428   */\n      dup2\n        /* \"#utility.yul\":1417:1428   */\n      swap1\n      pop\n        /* \"#utility.yul\":1455:1459   */\n      0x20\n        /* \"#utility.yul\":1450:1453   */\n      dup3\n        /* \"#utility.yul\":1446:1460   */\n      add\n        /* \"#utility.yul\":1438:1460   */\n      swap1\n      pop\n        /* \"#utility.yul\":1335:1467   */\n      swap2\n      swap1\n      pop\n      jump\t// out\n        /* \"#utility.yul\":1473:1599   */\n    tag_32:\n        /* \"#utility.yul\":1510:1517   */\n      0x00\n        /* \"#utility.yul\":1550:1592   */\n      0xffffffffffffffffffffffffffffffffffffffff\n        /* \"#utility.yul\":1543:1548   */\n      dup3\n        /* \"#utility.yul\":1539:1593   */\n      and\n        /* \"#utility.yul\":1528:1593   */\n      swap1\n      pop\n        /* \"#utility.yul\":1473:1599   */\n      swap2\n      swap1\n      pop\n      jump\t// out\n        /* \"#utility.yul\":1605:1701   */\n    tag_33:\n        /* \"#utility.yul\":1642:1649   */\n      0x00\n        /* \"#utility.yul\":1671:1695   */\n      tag_59\n        /* \"#utility.yul\":1689:1694   */\n      dup3\n        /* \"#utility.yul\":1671:1695   */\n      tag_32\n      jump\t// in\n    tag_59:\n        /* \"#utility.yul\":1660:1695   */\n      swap1\n      pop\n        /* \"#utility.yul\":1605:1701   */\n      swap2\n      swap1\n      pop\n      jump\t// out\n        /* \"#utility.yul\":1707:1815   */\n    tag_34:\n        /* \"#utility.yul\":1784:1808   */\n      tag_61\n        /* \"#utility.yul\":1802:1807   */\n      dup2\n        /* \"#utility.yul\":1784:1808   */\n      tag_33\n      jump\t// in\n    tag_61:\n        /* \"#utility.yul\":1779:1782   */\n      dup3\n        /* \"#utility.yul\":1772:1809   */\n      mstore\n        /* \"#utility.yul\":1707:1815   */\n      pop\n      pop\n      jump\t// out\n        /* \"#utility.yul\":1821:2000   */\n    tag_35:\n        /* \"#utility.yul\":1890:1900   */\n      0x00\n        /* \"#utility.yul\":1911:1957   */\n      tag_63\n        /* \"#utility.yul\":1953:1956   */\n      dup4\n        /* \"#utility.yul\":1945:1951   */\n      dup4\n        /* \"#utility.yul\":1911:1957   */\n      tag_34\n      jump\t// in\n    tag_63:\n        /* \"#utility.yul\":1989:1993   */\n      0x20\n        /* \"#utility.yul\":1984:1987   */\n      dup4\n        /* \"#utility.yul\":1980:1994   */\n      add\n        /* \"#utility.yul\":1966:1994   */\n      swap1\n      pop\n        /* \"#utility.yul\":1821:2000   */\n      swap3\n      swap2\n      pop\n      pop\n      jump\t// out\n        /* \"#utility.yul\":2006:2119   */\n    tag_36:\n        /* \"#utility.yul\":2076:2080   */\n      0x00\n        /* \"#utility.yul\":2108:2112   */\n      0x20\n        /* \"#utility.yul\":2103:2106   */\n      dup3\n        /* \"#utility.yul\":2099:2113   */\n      add\n        /* \"#utility.yul\":2091:2113   */\n      swap1\n      pop\n        /* \"#utility.yul\":2006:2119   */\n      swap2\n      swap1\n      pop\n      jump\t// out\n        /* \"#utility.yul\":2155:2887   */\n    tag_37:\n        /* \"#utility.yul\":2274:2277   */\n      0x00\n        /* \"#utility.yul\":2303:2357   */\n      tag_66\n        /* \"#utility.yul\":2351:2356   */\n      dup3\n        /* \"#utility.yul\":2303:2357   */\n      tag_29\n      jump\t// in\n    tag_66:\n        /* \"#utility.yul\":2373:2459   */\n      tag_67\n        /* \"#utility.yul\":2452:2458   */\n      dup2\n        /* \"#utility.yul\":2447:2450   */\n      dup6\n        /* \"#utility.yul\":2373:2459   */\n      tag_30\n      jump\t// in\n    tag_67:\n        /* \"#utility.yul\":2366:2459   */\n      swap4\n      pop\n        /* \"#utility.yul\":2483:2539   */\n      tag_68\n        /* \"#utility.yul\":2533:2538   */\n      dup4\n        /* \"#utility.yul\":2483:2539   */\n      tag_31\n      jump\t// in\n    tag_68:\n        /* \"#utility.yul\":2562:2569   */\n      dup1\n        /* \"#utility.yul\":2593:2594   */\n      0x00\n        /* \"#utility.yul\":2578:2862   */\n    tag_69:\n        /* \"#utility.yul\":2603:2609   */\n      dup4\n        /* \"#utility.yul\":2600:2601   */\n      dup2\n        /* \"#utility.yul\":2597:2610   */\n      lt\n        /* \"#utility.yul\":2578:2862   */\n      iszero\n      tag_71\n      jumpi\n        /* \"#utility.yul\":2679:2685   */\n      dup2\n        /* \"#utility.yul\":2673:2686   */\n      mload\n        /* \"#utility.yul\":2706:2769   */\n      tag_72\n        /* \"#utility.yul\":2765:2768   */\n      dup9\n        /* \"#utility.yul\":2750:2763   */\n      dup3\n        /* \"#utility.yul\":2706:2769   */\n      tag_35\n      jump\t// in\n    tag_72:\n        /* \"#utility.yul\":2699:2769   */\n      swap8\n      pop\n        /* \"#utility.yul\":2792:2852   */\n      tag_73\n        /* \"#utility.yul\":2845:2851   */\n      dup4\n        /* \"#utility.yul\":2792:2852   */\n      tag_36\n      jump\t// in\n    tag_73:\n        /* \"#utility.yul\":2782:2852   */\n      swap3\n      pop\n        /* \"#utility.yul\":2638:2862   */\n      pop\n        /* \"#utility.yul\":2625:2626   */\n      0x01\n        /* \"#utility.yul\":2622:2623   */\n      dup2\n        /* \"#utility.yul\":2618:2627   */\n      add\n        /* \"#utility.yul\":2613:2627   */\n      swap1\n      pop\n        /* \"#utility.yul\":2578:2862   */\n      jump(tag_69)\n    tag_71:\n        /* \"#utility.yul\":2582:2596   */\n      pop\n        /* \"#utility.yul\":2878:2881   */\n      dup6\n        /* \"#utility.yul\":2871:2881   */\n      swap4\n      pop\n        /* \"#utility.yul\":2279:2887   */\n      pop\n      pop\n      pop\n        /* \"#utility.yul\":2155:2887   */\n      swap3\n      swap2\n      pop\n      pop\n      jump\t// out\n        /* \"#utility.yul\":2893:3266   */\n    tag_12:\n        /* \"#utility.yul\":3036:3040   */\n      0x00\n        /* \"#utility.yul\":3074:3076   */\n      0x20\n        /* \"#utility.yul\":3063:3072   */\n      dup3\n        /* \"#utility.yul\":3059:3077   */\n      add\n        /* \"#utility.yul\":3051:3077   */\n      swap1\n      pop\n        /* \"#utility.yul\":3123:3132   */\n      dup2\n        /* \"#utility.yul\":3117:3121   */\n      dup2\n        /* \"#utility.yul\":3113:3133   */\n      sub\n        /* \"#utility.yul\":3109:3110   */\n      0x00\n        /* \"#utility.yul\":3098:3107   */\n      dup4\n        /* \"#utility.yul\":3094:3111   */\n      add\n        /* \"#utility.yul\":3087:3134   */\n      mstore\n        /* \"#utility.yul\":3151:3259   */\n      tag_75\n        /* \"#utility.yul\":3254:3258   */\n      dup2\n        /* \"#utility.yul\":3245:3251   */\n      dup5\n        /* \"#utility.yul\":3151:3259   */\n      tag_37\n      jump\t// in\n    tag_75:\n        /* \"#utility.yul\":3143:3259   */\n      swap1\n      pop\n        /* \"#utility.yul\":2893:3266   */\n      swap3\n      swap2\n      pop\n      pop\n      jump\t// out\n        /* \"#utility.yul\":3272:3390   */\n    tag_38:\n        /* \"#utility.yul\":3359:3383   */\n      tag_77\n        /* \"#utility.yul\":3377:3382   */\n      dup2\n        /* \"#utility.yul\":3359:3383   */\n      tag_26\n      jump\t// in\n    tag_77:\n        /* \"#utility.yul\":3354:3357   */\n      dup3\n        /* \"#utility.yul\":3347:3384   */\n      mstore\n        /* \"#utility.yul\":3272:3390   */\n      pop\n      pop\n      jump\t// out\n        /* \"#utility.yul\":3396:3514   */\n    tag_39:\n        /* \"#utility.yul\":3483:3507   */\n      tag_79\n        /* \"#utility.yul\":3501:3506   */\n      dup2\n        /* \"#utility.yul\":3483:3507   */\n      tag_33\n      jump\t// in\n    tag_79:\n        /* \"#utility.yul\":3478:3481   */\n      dup3\n        /* \"#utility.yul\":3471:3508   */\n      mstore\n        /* \"#utility.yul\":3396:3514   */\n      pop\n      pop\n      jump\t// out\n        /* \"#utility.yul\":3520:3852   */\n    tag_17:\n        /* \"#utility.yul\":3641:3645   */\n      0x00\n        /* \"#utility.yul\":3679:3681   */\n      0x40\n        /* \"#utility.yul\":3668:3677   */\n      dup3\n        /* \"#utility.yul\":3664:3682   */\n      add\n        /* \"#utility.yul\":3656:3682   */\n      swap1\n      pop\n        /* \"#utility.yul\":3692:3763   */\n      tag_81\n        /* \"#utility.yul\":3760:3761   */\n      0x00\n        /* \"#utility.yul\":3749:3758   */\n      dup4\n        /* \"#utility.yul\":3745:3762   */\n      add\n        /* \"#utility.yul\":3736:3742   */\n      dup6\n        /* \"#utility.yul\":3692:3763   */\n      tag_38\n      jump\t// in\n    tag_81:\n        /* \"#utility.yul\":3773:3845   */\n      tag_82\n        /* \"#utility.yul\":3841:3843   */\n      0x20\n        /* \"#utility.yul\":3830:3839   */\n      dup4\n        /* \"#utility.yul\":3826:3844   */\n      add\n        /* \"#utility.yul\":3817:3823   */\n      dup5\n        /* \"#utility.yul\":3773:3845   */\n      tag_39\n      jump\t// in\n    tag_82:\n        /* \"#utility.yul\":3520:3852   */\n      swap4\n      swap3\n      pop\n      pop\n      pop\n      jump\t// out\n    stop\n\n    sub_0: assembly {\n            /* \"Campaign.sol\":448:3212  contract Campaign{... */\n          mstore(0x40, 0x80)\n            /* \"Campaign.sol\":559:560  0 */\n          0x00\n            /* \"Campaign.sol\":543:560  uint reqCount = 0 */\n          0x02\n          sstore\n            /* \"Campaign.sol\":635:636  0 */\n          0x00\n            /* \"Campaign.sol\":613:636  uint approversCount = 0 */\n          0x04\n          sstore\n            /* \"Campaign.sol\":904:1100  constructor(uint _minimumContribution, address _sender){... */\n          callvalue\n          dup1\n          iszero\n          tag_1\n          jumpi\n          0x00\n          dup1\n          revert\n        tag_1:\n          pop\n          mload(0x40)\n          sub(codesize, bytecodeSize)\n          dup1\n          bytecodeSize\n          dup4\n          codecopy\n          dup2\n          dup2\n          add\n          0x40\n          mstore\n          dup2\n          add\n          swap1\n          tag_2\n          swap2\n          swap1\n          tag_3\n          jump\t// in\n        tag_2:\n            /* \"Campaign.sol\":980:987  _sender */\n          dup1\n            /* \"Campaign.sol\":970:977  manager */\n          0x00\n          dup1\n            /* \"Campaign.sol\":970:987  manager = _sender */\n          0x0100\n          exp\n          dup2\n          sload\n          dup2\n          0xffffffffffffffffffffffffffffffffffffffff\n          mul\n          not\n          and\n          swap1\n          dup4\n          0xffffffffffffffffffffffffffffffffffffffff\n          and\n          mul\n          or\n          swap1\n          sstore\n          pop\n            /* \"Campaign.sol\":1043:1063  _minimumContribution */\n          dup2\n            /* \"Campaign.sol\":1021:1040  minimumContribution */\n          0x01\n            /* \"Campaign.sol\":1021:1063  minimumContribution = _minimumContribution */\n          dup2\n          swap1\n          sstore\n          pop\n            /* \"Campaign.sol\":904:1100  constructor(uint _minimumContribution, address _sender){... */\n          pop\n          pop\n            /* \"Campaign.sol\":448:3212  contract Campaign{... */\n          jump(tag_6)\n            /* \"#utility.yul\":88:205   */\n        tag_8:\n            /* \"#utility.yul\":197:198   */\n          0x00\n            /* \"#utility.yul\":194:195   */\n          dup1\n            /* \"#utility.yul\":187:199   */\n          revert\n            /* \"#utility.yul\":334:411   */\n        tag_10:\n            /* \"#utility.yul\":371:378   */\n          0x00\n            /* \"#utility.yul\":400:405   */\n          dup2\n            /* \"#utility.yul\":389:405   */\n          swap1\n          pop\n            /* \"#utility.yul\":334:411   */\n          swap2\n          swap1\n          pop\n          jump\t// out\n            /* \"#utility.yul\":417:539   */\n        tag_11:\n            /* \"#utility.yul\":490:514   */\n          tag_23\n            /* \"#utility.yul\":508:513   */\n          dup2\n            /* \"#utility.yul\":490:514   */\n          tag_10\n          jump\t// in\n        tag_23:\n            /* \"#utility.yul\":483:488   */\n          dup2\n            /* \"#utility.yul\":480:515   */\n          eq\n            /* \"#utility.yul\":470:533   */\n          tag_24\n          jumpi\n            /* \"#utility.yul\":529:530   */\n          0x00\n            /* \"#utility.yul\":526:527   */\n          dup1\n            /* \"#utility.yul\":519:531   */\n          revert\n            /* \"#utility.yul\":470:533   */\n        tag_24:\n            /* \"#utility.yul\":417:539   */\n          pop\n          jump\t// out\n            /* \"#utility.yul\":545:688   */\n        tag_12:\n            /* \"#utility.yul\":602:607   */\n          0x00\n            /* \"#utility.yul\":633:639   */\n          dup2\n            /* \"#utility.yul\":627:640   */\n          mload\n            /* \"#utility.yul\":618:640   */\n          swap1\n          pop\n            /* \"#utility.yul\":649:682   */\n          tag_26\n            /* \"#utility.yul\":676:681   */\n          dup2\n            /* \"#utility.yul\":649:682   */\n          tag_11\n          jump\t// in\n        tag_26:\n            /* \"#utility.yul\":545:688   */\n          swap3\n          swap2\n          pop\n          pop\n          jump\t// out\n            /* \"#utility.yul\":694:820   */\n        tag_13:\n            /* \"#utility.yul\":731:738   */\n          0x00\n            /* \"#utility.yul\":771:813   */\n          0xffffffffffffffffffffffffffffffffffffffff\n            /* \"#utility.yul\":764:769   */\n          dup3\n            /* \"#utility.yul\":760:814   */\n          and\n            /* \"#utility.yul\":749:814   */\n          swap1\n          pop\n            /* \"#utility.yul\":694:820   */\n          swap2\n          swap1\n          pop\n          jump\t// out\n            /* \"#utility.yul\":826:922   */\n        tag_14:\n            /* \"#utility.yul\":863:870   */\n          0x00\n            /* \"#utility.yul\":892:916   */\n          tag_29\n            /* \"#utility.yul\":910:915   */\n          dup3\n            /* \"#utility.yul\":892:916   */\n          tag_13\n          jump\t// in\n        tag_29:\n            /* \"#utility.yul\":881:916   */\n          swap1\n          pop\n            /* \"#utility.yul\":826:922   */\n          swap2\n          swap1\n          pop\n          jump\t// out\n            /* \"#utility.yul\":928:1050   */\n        tag_15:\n            /* \"#utility.yul\":1001:1025   */\n          tag_31\n            /* \"#utility.yul\":1019:1024   */\n          dup2\n            /* \"#utility.yul\":1001:1025   */\n          tag_14\n          jump\t// in\n        tag_31:\n            /* \"#utility.yul\":994:999   */\n          dup2\n            /* \"#utility.yul\":991:1026   */\n          eq\n            /* \"#utility.yul\":981:1044   */\n          tag_32\n          jumpi\n            /* \"#utility.yul\":1040:1041   */\n          0x00\n            /* \"#utility.yul\":1037:1038   */\n          dup1\n            /* \"#utility.yul\":1030:1042   */\n          revert\n            /* \"#utility.yul\":981:1044   */\n        tag_32:\n            /* \"#utility.yul\":928:1050   */\n          pop\n          jump\t// out\n            /* \"#utility.yul\":1056:1199   */\n        tag_16:\n            /* \"#utility.yul\":1113:1118   */\n          0x00\n            /* \"#utility.yul\":1144:1150   */\n          dup2\n            /* \"#utility.yul\":1138:1151   */\n          mload\n            /* \"#utility.yul\":1129:1151   */\n          swap1\n          pop\n            /* \"#utility.yul\":1160:1193   */\n          tag_34\n            /* \"#utility.yul\":1187:1192   */\n          dup2\n            /* \"#utility.yul\":1160:1193   */\n          tag_15\n          jump\t// in\n        tag_34:\n            /* \"#utility.yul\":1056:1199   */\n          swap3\n          swap2\n          pop\n          pop\n          jump\t// out\n            /* \"#utility.yul\":1205:1712   */\n        tag_3:\n            /* \"#utility.yul\":1284:1290   */\n          0x00\n            /* \"#utility.yul\":1292:1298   */\n          dup1\n            /* \"#utility.yul\":1341:1343   */\n          0x40\n            /* \"#utility.yul\":1329:1338   */\n          dup4\n            /* \"#utility.yul\":1320:1327   */\n          dup6\n            /* \"#utility.yul\":1316:1339   */\n          sub\n            /* \"#utility.yul\":1312:1344   */\n          slt\n            /* \"#utility.yul\":1309:1428   */\n          iszero\n          tag_36\n          jumpi\n            /* \"#utility.yul\":1347:1426   */\n          tag_37\n          tag_8\n          jump\t// in\n        tag_37:\n            /* \"#utility.yul\":1309:1428   */\n        tag_36:\n            /* \"#utility.yul\":1467:1468   */\n          0x00\n            /* \"#utility.yul\":1492:1556   */\n          tag_38\n            /* \"#utility.yul\":1548:1555   */\n          dup6\n            /* \"#utility.yul\":1539:1545   */\n          dup3\n            /* \"#utility.yul\":1528:1537   */\n          dup7\n            /* \"#utility.yul\":1524:1546   */\n          add\n            /* \"#utility.yul\":1492:1556   */\n          tag_12\n          jump\t// in\n        tag_38:\n            /* \"#utility.yul\":1482:1556   */\n          swap3\n          pop\n            /* \"#utility.yul\":1438:1566   */\n          pop\n            /* \"#utility.yul\":1605:1607   */\n          0x20\n            /* \"#utility.yul\":1631:1695   */\n          tag_39\n            /* \"#utility.yul\":1687:1694   */\n          dup6\n            /* \"#utility.yul\":1678:1684   */\n          dup3\n            /* \"#utility.yul\":1667:1676   */\n          dup7\n            /* \"#utility.yul\":1663:1685   */\n          add\n            /* \"#utility.yul\":1631:1695   */\n          tag_16\n          jump\t// in\n        tag_39:\n            /* \"#utility.yul\":1621:1695   */\n          swap2\n          pop\n            /* \"#utility.yul\":1576:1705   */\n          pop\n            /* \"#utility.yul\":1205:1712   */\n          swap3\n          pop\n          swap3\n          swap1\n          pop\n          jump\t// out\n            /* \"Campaign.sol\":448:3212  contract Campaign{... */\n        tag_6:\n          dataSize(sub_0)\n          dup1\n          dataOffset(sub_0)\n          0x00\n          codecopy\n          0x00\n          return\n        stop\n\n        sub_0: assembly {\n                /* \"Campaign.sol\":448:3212  contract Campaign{... */\n              mstore(0x40, 0x80)\n              jumpi(tag_1, lt(calldatasize, 0x04))\n              shr(0xe0, calldataload(0x00))\n              dup1\n              0x921a5b5f\n              gt\n              tag_12\n              jumpi\n              dup1\n              0x921a5b5f\n              eq\n              tag_7\n              jumpi\n              dup1\n              0x92d0d153\n              eq\n              tag_8\n              jumpi\n              dup1\n              0x937e09b1\n              eq\n              tag_9\n              jumpi\n              dup1\n              0xd7bb99ba\n              eq\n              tag_10\n              jumpi\n              dup1\n              0xd7d1bbdb\n              eq\n              tag_11\n              jumpi\n              jump(tag_1)\n            tag_12:\n              dup1\n              0x03441006\n              eq\n              tag_2\n              jumpi\n              dup1\n              0x3410452a\n              eq\n              tag_3\n              jumpi\n              dup1\n              0x481c6a75\n              eq\n              tag_4\n              jumpi\n              dup1\n              0x81d12c58\n              eq\n              tag_5\n              jumpi\n              dup1\n              0x8ec266f8\n              eq\n              tag_6\n              jumpi\n            tag_1:\n              0x00\n              dup1\n              revert\n                /* \"Campaign.sol\":2342:2853  function finalizeRequest(uint _index) public payable onlyManager {... */\n            tag_2:\n              tag_13\n              0x04\n              dup1\n              calldatasize\n              sub\n              dup2\n              add\n              swap1\n              tag_14\n              swap2\n              swap1\n              tag_15\n              jump\t// in\n            tag_14:\n              tag_16\n              jump\t// in\n            tag_13:\n              stop\n                /* \"Campaign.sol\":2861:2950  function getRequestsCount() public view returns(uint) {... */\n            tag_3:\n              callvalue\n              dup1\n              iszero\n              tag_17\n              jumpi\n              0x00\n              dup1\n              revert\n            tag_17:\n              pop\n              tag_18\n              tag_19\n              jump\t// in\n            tag_18:\n              mload(0x40)\n              tag_20\n              swap2\n              swap1\n              tag_21\n              jump\t// in\n            tag_20:\n              mload(0x40)\n              dup1\n              swap2\n              sub\n              swap1\n              return\n                /* \"Campaign.sol\":474:496  address public manager */\n            tag_4:\n              callvalue\n              dup1\n              iszero\n              tag_22\n              jumpi\n              0x00\n              dup1\n              revert\n            tag_22:\n              pop\n              tag_23\n              tag_24\n              jump\t// in\n            tag_23:\n              mload(0x40)\n              tag_25\n              swap2\n              swap1\n              tag_26\n              jump\t// in\n            tag_25:\n              mload(0x40)\n              dup1\n              swap2\n              sub\n              swap1\n              return\n                /* \"Campaign.sol\":868:894  Request [] public requests */\n            tag_5:\n              callvalue\n              dup1\n              iszero\n              tag_27\n              jumpi\n              0x00\n              dup1\n              revert\n            tag_27:\n              pop\n              tag_28\n              0x04\n              dup1\n              calldatasize\n              sub\n              dup2\n              add\n              swap1\n              tag_29\n              swap2\n              swap1\n              tag_15\n              jump\t// in\n            tag_29:\n              tag_30\n              jump\t// in\n            tag_28:\n              mload(0x40)\n              tag_31\n              swap6\n              swap5\n              swap4\n              swap3\n              swap2\n              swap1\n              tag_32\n              jump\t// in\n            tag_31:\n              mload(0x40)\n              dup1\n              swap2\n              sub\n              swap1\n              return\n                /* \"Campaign.sol\":2958:3123  function getApproveRequestCount(uint _index) public view returns(uint){... */\n            tag_6:\n              callvalue\n              dup1\n              iszero\n              tag_33\n              jumpi\n              0x00\n              dup1\n              revert\n            tag_33:\n              pop\n              tag_34\n              0x04\n              dup1\n              calldatasize\n              sub\n              dup2\n              add\n              swap1\n              tag_35\n              swap2\n              swap1\n              tag_15\n              jump\t// in\n            tag_35:\n              tag_36\n              jump\t// in\n            tag_34:\n              mload(0x40)\n              tag_37\n              swap2\n              swap1\n              tag_21\n              jump\t// in\n            tag_37:\n              mload(0x40)\n              dup1\n              swap2\n              sub\n              swap1\n              return\n                /* \"Campaign.sol\":1555:1964  function request(uint _value, string memory _description, address payable _recipient) public onlyManager{... */\n            tag_7:\n              callvalue\n              dup1\n              iszero\n              tag_38\n              jumpi\n              0x00\n              dup1\n              revert\n            tag_38:\n              pop\n              tag_39\n              0x04\n              dup1\n              calldatasize\n              sub\n              dup2\n              add\n              swap1\n              tag_40\n              swap2\n              swap1\n              tag_41\n              jump\t// in\n            tag_40:\n              tag_42\n              jump\t// in\n            tag_39:\n              stop\n                /* \"Campaign.sol\":3131:3209  function t() public view returns(address){... */\n            tag_8:\n              callvalue\n              dup1\n              iszero\n              tag_43\n              jumpi\n              0x00\n              dup1\n              revert\n            tag_43:\n              pop\n              tag_44\n              tag_45\n              jump\t// in\n            tag_44:\n              mload(0x40)\n              tag_46\n              swap2\n              swap1\n              tag_26\n              jump\t// in\n            tag_46:\n              mload(0x40)\n              dup1\n              swap2\n              sub\n              swap1\n              return\n                /* \"Campaign.sol\":504:535  uint public minimumContribution */\n            tag_9:\n              callvalue\n              dup1\n              iszero\n              tag_47\n              jumpi\n              0x00\n              dup1\n              revert\n            tag_47:\n              pop\n              tag_48\n              tag_49\n              jump\t// in\n            tag_48:\n              mload(0x40)\n              tag_50\n              swap2\n              swap1\n              tag_21\n              jump\t// in\n            tag_50:\n              mload(0x40)\n              dup1\n              swap2\n              sub\n              swap1\n              return\n                /* \"Campaign.sol\":1261:1547  function contribute() public payable {... */\n            tag_10:\n              tag_51\n              tag_52\n              jump\t// in\n            tag_51:\n              stop\n                /* \"Campaign.sol\":1972:2319  function approveRequest(uint _index) public {... */\n            tag_11:\n              callvalue\n              dup1\n              iszero\n              tag_53\n              jumpi\n              0x00\n              dup1\n              revert\n            tag_53:\n              pop\n              tag_54\n              0x04\n              dup1\n              calldatasize\n              sub\n              dup2\n              add\n              swap1\n              tag_55\n              swap2\n              swap1\n              tag_15\n              jump\t// in\n            tag_55:\n              tag_56\n              jump\t// in\n            tag_54:\n              stop\n                /* \"Campaign.sol\":2342:2853  function finalizeRequest(uint _index) public payable onlyManager {... */\n            tag_16:\n                /* \"Campaign.sol\":1182:1189  manager */\n              0x00\n              dup1\n              sload\n              swap1\n              0x0100\n              exp\n              swap1\n              div\n              0xffffffffffffffffffffffffffffffffffffffff\n              and\n                /* \"Campaign.sol\":1168:1189  msg.sender == manager */\n              0xffffffffffffffffffffffffffffffffffffffff\n              and\n                /* \"Campaign.sol\":1168:1178  msg.sender */\n              caller\n                /* \"Campaign.sol\":1168:1189  msg.sender == manager */\n              0xffffffffffffffffffffffffffffffffffffffff\n              and\n              eq\n                /* \"Campaign.sol\":1160:1232  require(msg.sender == manager, \"Only manager can access this functions\") */\n              tag_58\n              jumpi\n              mload(0x40)\n              0x08c379a000000000000000000000000000000000000000000000000000000000\n              dup2\n              mstore\n              0x04\n              add\n              tag_59\n              swap1\n              tag_60\n              jump\t// in\n            tag_59:\n              mload(0x40)\n              dup1\n              swap2\n              sub\n              swap1\n              revert\n            tag_58:\n                /* \"Campaign.sol\":2418:2437  Request storage req */\n              0x00\n                /* \"Campaign.sol\":2440:2448  requests */\n              0x05\n                /* \"Campaign.sol\":2449:2455  _index */\n              dup3\n                /* \"Campaign.sol\":2440:2456  requests[_index] */\n              dup2\n              sload\n              dup2\n              lt\n              tag_62\n              jumpi\n              tag_63\n              tag_64\n              jump\t// in\n            tag_63:\n            tag_62:\n              swap1\n              0x00\n              mstore\n              keccak256(0x00, 0x20)\n              swap1\n              0x06\n              mul\n              add\n                /* \"Campaign.sol\":2418:2456  Request storage req = requests[_index] */\n              swap1\n              pop\n                /* \"Campaign.sol\":2511:2512  2 */\n              0x02\n                /* \"Campaign.sol\":2496:2510  approversCount */\n              sload(0x04)\n                /* \"Campaign.sol\":2496:2512  approversCount/2 */\n              tag_66\n              swap2\n              swap1\n              tag_67\n              jump\t// in\n            tag_66:\n                /* \"Campaign.sol\":2476:2479  req */\n              dup2\n                /* \"Campaign.sol\":2476:2493  req.approvalCount */\n              0x04\n              add\n              sload\n                /* \"Campaign.sol\":2476:2512  req.approvalCount > approversCount/2 */\n              gt\n                /* \"Campaign.sol\":2468:2545  require(req.approvalCount > approversCount/2, \"Request needs more approvals\") */\n              tag_68\n              jumpi\n              mload(0x40)\n              0x08c379a000000000000000000000000000000000000000000000000000000000\n              dup2\n              mstore\n              0x04\n              add\n              tag_69\n              swap1\n              tag_70\n              jump\t// in\n            tag_69:\n              mload(0x40)\n              dup1\n              swap2\n              sub\n              swap1\n              revert\n            tag_68:\n                /* \"Campaign.sol\":2614:2617  req */\n              dup1\n                /* \"Campaign.sol\":2614:2628  req.isComplete */\n              0x03\n              add\n              0x00\n              swap1\n              sload\n              swap1\n              0x0100\n              exp\n              swap1\n              div\n              0xff\n              and\n                /* \"Campaign.sol\":2613:2628  !req.isComplete */\n              iszero\n                /* \"Campaign.sol\":2605:2666  require(!req.isComplete, \"Request has been already approved\") */\n              tag_71\n              jumpi\n              mload(0x40)\n              0x08c379a000000000000000000000000000000000000000000000000000000000\n              dup2\n              mstore\n              0x04\n              add\n              tag_72\n              swap1\n              tag_73\n              jump\t// in\n            tag_72:\n              mload(0x40)\n              dup1\n              swap2\n              sub\n              swap1\n              revert\n            tag_71:\n                /* \"Campaign.sol\":2711:2714  req */\n              dup1\n                /* \"Campaign.sol\":2711:2724  req.recipient */\n              0x01\n              add\n              0x00\n              swap1\n              sload\n              swap1\n              0x0100\n              exp\n              swap1\n              div\n              0xffffffffffffffffffffffffffffffffffffffff\n              and\n                /* \"Campaign.sol\":2711:2733  req.recipient.transfer */\n              0xffffffffffffffffffffffffffffffffffffffff\n              and\n                /* \"Campaign.sol\":2711:2744  req.recipient.transfer(req.value) */\n              0x08fc\n                /* \"Campaign.sol\":2734:2737  req */\n              dup3\n                /* \"Campaign.sol\":2734:2743  req.value */\n              0x02\n              add\n              sload\n                /* \"Campaign.sol\":2711:2744  req.recipient.transfer(req.value) */\n              swap1\n              dup2\n              iszero\n              mul\n              swap1\n              mload(0x40)\n              0x00\n              mload(0x40)\n              dup1\n              dup4\n              sub\n              dup2\n              dup6\n              dup9\n              dup9\n              call\n              swap4\n              pop\n              pop\n              pop\n              pop\n              iszero\n              dup1\n              iszero\n              tag_75\n              jumpi\n              returndatasize\n              0x00\n              dup1\n              returndatacopy\n              revert(0x00, returndatasize)\n            tag_75:\n              pop\n                /* \"Campaign.sol\":2807:2811  true */\n              0x01\n                /* \"Campaign.sol\":2790:2793  req */\n              dup2\n                /* \"Campaign.sol\":2790:2804  req.isComplete */\n              0x03\n              add\n              0x00\n                /* \"Campaign.sol\":2790:2811  req.isComplete = true */\n              0x0100\n              exp\n              dup2\n              sload\n              dup2\n              0xff\n              mul\n              not\n              and\n              swap1\n              dup4\n              iszero\n              iszero\n              mul\n              or\n              swap1\n              sstore\n              pop\n                /* \"Campaign.sol\":2407:2853  {... */\n              pop\n                /* \"Campaign.sol\":2342:2853  function finalizeRequest(uint _index) public payable onlyManager {... */\n              pop\n              jump\t// out\n                /* \"Campaign.sol\":2861:2950  function getRequestsCount() public view returns(uint) {... */\n            tag_19:\n                /* \"Campaign.sol\":2909:2913  uint */\n              0x00\n                /* \"Campaign.sol\":2933:2941  reqCount */\n              sload(0x02)\n                /* \"Campaign.sol\":2926:2941  return reqCount */\n              swap1\n              pop\n                /* \"Campaign.sol\":2861:2950  function getRequestsCount() public view returns(uint) {... */\n              swap1\n              jump\t// out\n                /* \"Campaign.sol\":474:496  address public manager */\n            tag_24:\n              0x00\n              dup1\n              sload\n              swap1\n              0x0100\n              exp\n              swap1\n              div\n              0xffffffffffffffffffffffffffffffffffffffff\n              and\n              dup2\n              jump\t// out\n                /* \"Campaign.sol\":868:894  Request [] public requests */\n            tag_30:\n              0x05\n              dup2\n              dup2\n              sload\n              dup2\n              lt\n              tag_77\n              jumpi\n              0x00\n              dup1\n              revert\n            tag_77:\n              swap1\n              0x00\n              mstore\n              keccak256(0x00, 0x20)\n              swap1\n              0x06\n              mul\n              add\n              0x00\n              swap2\n              pop\n              swap1\n              pop\n              dup1\n              0x00\n              add\n              dup1\n              sload\n              tag_79\n              swap1\n              tag_80\n              jump\t// in\n            tag_79:\n              dup1\n              0x1f\n              add\n              0x20\n              dup1\n              swap2\n              div\n              mul\n              0x20\n              add\n              mload(0x40)\n              swap1\n              dup2\n              add\n              0x40\n              mstore\n              dup1\n              swap3\n              swap2\n              swap1\n              dup2\n              dup2\n              mstore\n              0x20\n              add\n              dup3\n              dup1\n              sload\n              tag_81\n              swap1\n              tag_80\n              jump\t// in\n            tag_81:\n              dup1\n              iszero\n              tag_82\n              jumpi\n              dup1\n              0x1f\n              lt\n              tag_83\n              jumpi\n              0x0100\n              dup1\n              dup4\n              sload\n              div\n              mul\n              dup4\n              mstore\n              swap2\n              0x20\n              add\n              swap2\n              jump(tag_82)\n            tag_83:\n              dup3\n              add\n              swap2\n              swap1\n              0x00\n              mstore\n              keccak256(0x00, 0x20)\n              swap1\n            tag_84:\n              dup2\n              sload\n              dup2\n              mstore\n              swap1\n              0x01\n              add\n              swap1\n              0x20\n              add\n              dup1\n              dup4\n              gt\n              tag_84\n              jumpi\n              dup3\n              swap1\n              sub\n              0x1f\n              and\n              dup3\n              add\n              swap2\n            tag_82:\n              pop\n              pop\n              pop\n              pop\n              pop\n              swap1\n              dup1\n              0x01\n              add\n              0x00\n              swap1\n              sload\n              swap1\n              0x0100\n              exp\n              swap1\n              div\n              0xffffffffffffffffffffffffffffffffffffffff\n              and\n              swap1\n              dup1\n              0x02\n              add\n              sload\n              swap1\n              dup1\n              0x03\n              add\n              0x00\n              swap1\n              sload\n              swap1\n              0x0100\n              exp\n              swap1\n              div\n              0xff\n              and\n              swap1\n              dup1\n              0x04\n              add\n              sload\n              swap1\n              pop\n              dup6\n              jump\t// out\n                /* \"Campaign.sol\":2958:3123  function getApproveRequestCount(uint _index) public view returns(uint){... */\n            tag_36:\n                /* \"Campaign.sol\":3023:3027  uint */\n              0x00\n                /* \"Campaign.sol\":3039:3058  Request storage req */\n              dup1\n                /* \"Campaign.sol\":3061:3069  requests */\n              0x05\n                /* \"Campaign.sol\":3070:3076  _index */\n              dup4\n                /* \"Campaign.sol\":3061:3077  requests[_index] */\n              dup2\n              sload\n              dup2\n              lt\n              tag_86\n              jumpi\n              tag_87\n              tag_64\n              jump\t// in\n            tag_87:\n            tag_86:\n              swap1\n              0x00\n              mstore\n              keccak256(0x00, 0x20)\n              swap1\n              0x06\n              mul\n              add\n                /* \"Campaign.sol\":3039:3077  Request storage req = requests[_index] */\n              swap1\n              pop\n                /* \"Campaign.sol\":3096:3099  req */\n              dup1\n                /* \"Campaign.sol\":3096:3113  req.approvalCount */\n              0x04\n              add\n              sload\n                /* \"Campaign.sol\":3089:3113  return req.approvalCount */\n              swap2\n              pop\n              pop\n                /* \"Campaign.sol\":2958:3123  function getApproveRequestCount(uint _index) public view returns(uint){... */\n              swap2\n              swap1\n              pop\n              jump\t// out\n                /* \"Campaign.sol\":1555:1964  function request(uint _value, string memory _description, address payable _recipient) public onlyManager{... */\n            tag_42:\n                /* \"Campaign.sol\":1182:1189  manager */\n              0x00\n              dup1\n              sload\n              swap1\n              0x0100\n              exp\n              swap1\n              div\n              0xffffffffffffffffffffffffffffffffffffffff\n              and\n                /* \"Campaign.sol\":1168:1189  msg.sender == manager */\n              0xffffffffffffffffffffffffffffffffffffffff\n              and\n                /* \"Campaign.sol\":1168:1178  msg.sender */\n              caller\n                /* \"Campaign.sol\":1168:1189  msg.sender == manager */\n              0xffffffffffffffffffffffffffffffffffffffff\n              and\n              eq\n                /* \"Campaign.sol\":1160:1232  require(msg.sender == manager, \"Only manager can access this functions\") */\n              tag_90\n              jumpi\n              mload(0x40)\n              0x08c379a000000000000000000000000000000000000000000000000000000000\n              dup2\n              mstore\n              0x04\n              add\n              tag_91\n              swap1\n              tag_60\n              jump\t// in\n            tag_91:\n              mload(0x40)\n              dup1\n              swap2\n              sub\n              swap1\n              revert\n            tag_90:\n                /* \"Campaign.sol\":1716:1733  Request storage r */\n              0x00\n                /* \"Campaign.sol\":1736:1744  requests */\n              0x05\n                /* \"Campaign.sol\":1736:1751  requests.push() */\n              0x01\n              dup2\n              0x01\n              dup2\n              sload\n              add\n              dup1\n              dup3\n              sstore\n              dup1\n              swap2\n              pop\n              pop\n              sub\n              swap1\n              0x00\n              mstore\n              keccak256(0x00, 0x20)\n              swap1\n              0x06\n              mul\n              add\n                /* \"Campaign.sol\":1716:1751  Request storage r = requests.push() */\n              swap1\n              pop\n                /* \"Campaign.sol\":1794:1806  _description */\n              dup3\n                /* \"Campaign.sol\":1778:1779  r */\n              dup2\n                /* \"Campaign.sol\":1778:1791  r.description */\n              0x00\n              add\n                /* \"Campaign.sol\":1778:1806  r.description = _description */\n              swap1\n              dup2\n              tag_94\n              swap2\n              swap1\n              tag_95\n              jump\t// in\n            tag_94:\n              pop\n                /* \"Campaign.sol\":1828:1834  _value */\n              dup4\n                /* \"Campaign.sol\":1818:1819  r */\n              dup2\n                /* \"Campaign.sol\":1818:1825  r.value */\n              0x02\n              add\n                /* \"Campaign.sol\":1818:1834  r.value = _value */\n              dup2\n              swap1\n              sstore\n              pop\n                /* \"Campaign.sol\":1860:1870  _recipient */\n              dup2\n                /* \"Campaign.sol\":1846:1847  r */\n              dup2\n                /* \"Campaign.sol\":1846:1857  r.recipient */\n              0x01\n              add\n              0x00\n                /* \"Campaign.sol\":1846:1870  r.recipient = _recipient */\n              0x0100\n              exp\n              dup2\n              sload\n              dup2\n              0xffffffffffffffffffffffffffffffffffffffff\n              mul\n              not\n              and\n              swap1\n              dup4\n              0xffffffffffffffffffffffffffffffffffffffff\n              and\n              mul\n              or\n              swap1\n              sstore\n              pop\n                /* \"Campaign.sol\":1897:1902  false */\n              0x00\n                /* \"Campaign.sol\":1882:1883  r */\n              dup2\n                /* \"Campaign.sol\":1882:1894  r.isComplete */\n              0x03\n              add\n              0x00\n                /* \"Campaign.sol\":1882:1902  r.isComplete = false */\n              0x0100\n              exp\n              dup2\n              sload\n              dup2\n              0xff\n              mul\n              not\n              and\n              swap1\n              dup4\n              iszero\n              iszero\n              mul\n              or\n              swap1\n              sstore\n              pop\n                /* \"Campaign.sol\":1932:1933  0 */\n              0x00\n                /* \"Campaign.sol\":1914:1915  r */\n              dup2\n                /* \"Campaign.sol\":1914:1929  r.approvalCount */\n              0x04\n              add\n                /* \"Campaign.sol\":1914:1933  r.approvalCount = 0 */\n              dup2\n              swap1\n              sstore\n              pop\n                /* \"Campaign.sol\":1945:1953  reqCount */\n              0x02\n              0x00\n                /* \"Campaign.sol\":1945:1955  reqCount++ */\n              dup2\n              sload\n              dup1\n              swap3\n              swap2\n              swap1\n              tag_96\n              swap1\n              tag_97\n              jump\t// in\n            tag_96:\n              swap2\n              swap1\n              pop\n              sstore\n              pop\n                /* \"Campaign.sol\":1659:1964  {... */\n              pop\n                /* \"Campaign.sol\":1555:1964  function request(uint _value, string memory _description, address payable _recipient) public onlyManager{... */\n              pop\n              pop\n              pop\n              jump\t// out\n                /* \"Campaign.sol\":3131:3209  function t() public view returns(address){... */\n            tag_45:\n                /* \"Campaign.sol\":3164:3171  address */\n              0x00\n                /* \"Campaign.sol\":3190:3200  msg.sender */\n              caller\n                /* \"Campaign.sol\":3183:3200  return msg.sender */\n              swap1\n              pop\n                /* \"Campaign.sol\":3131:3209  function t() public view returns(address){... */\n              swap1\n              jump\t// out\n                /* \"Campaign.sol\":504:535  uint public minimumContribution */\n            tag_49:\n              sload(0x01)\n              dup2\n              jump\t// out\n                /* \"Campaign.sol\":1261:1547  function contribute() public payable {... */\n            tag_52:\n                /* \"Campaign.sol\":1416:1435  minimumContribution */\n              sload(0x01)\n                /* \"Campaign.sol\":1403:1412  msg.value */\n              callvalue\n                /* \"Campaign.sol\":1403:1435  msg.value >= minimumContribution */\n              lt\n              iszero\n                /* \"Campaign.sol\":1395:1436  require(msg.value >= minimumContribution) */\n              tag_100\n              jumpi\n              0x00\n              dup1\n              revert\n            tag_100:\n                /* \"Campaign.sol\":1531:1536  false */\n              0x00\n                /* \"Campaign.sol\":1504:1516  contributors */\n              0x03\n                /* \"Campaign.sol\":1504:1528  contributors[msg.sender] */\n              0x00\n                /* \"Campaign.sol\":1517:1527  msg.sender */\n              caller\n                /* \"Campaign.sol\":1504:1528  contributors[msg.sender] */\n              0xffffffffffffffffffffffffffffffffffffffff\n              and\n              0xffffffffffffffffffffffffffffffffffffffff\n              and\n              dup2\n              mstore\n              0x20\n              add\n              swap1\n              dup2\n              mstore\n              0x20\n              add\n              0x00\n              keccak256\n              0x00\n                /* \"Campaign.sol\":1504:1536  contributors[msg.sender] = false */\n              0x0100\n              exp\n              dup2\n              sload\n              dup2\n              0xff\n              mul\n              not\n              and\n              swap1\n              dup4\n              iszero\n              iszero\n              mul\n              or\n              swap1\n              sstore\n              pop\n                /* \"Campaign.sol\":1261:1547  function contribute() public payable {... */\n              jump\t// out\n                /* \"Campaign.sol\":1972:2319  function approveRequest(uint _index) public {... */\n            tag_56:\n                /* \"Campaign.sol\":2038:2050  contributors */\n              0x03\n                /* \"Campaign.sol\":2038:2062  contributors[msg.sender] */\n              0x00\n                /* \"Campaign.sol\":2051:2061  msg.sender */\n              caller\n                /* \"Campaign.sol\":2038:2062  contributors[msg.sender] */\n              0xffffffffffffffffffffffffffffffffffffffff\n              and\n              0xffffffffffffffffffffffffffffffffffffffff\n              and\n              dup2\n              mstore\n              0x20\n              add\n              swap1\n              dup2\n              mstore\n              0x20\n              add\n              0x00\n              keccak256\n              0x00\n              swap1\n              sload\n              swap1\n              0x0100\n              exp\n              swap1\n              div\n              0xff\n              and\n                /* \"Campaign.sol\":2037:2062  !contributors[msg.sender] */\n              iszero\n                /* \"Campaign.sol\":2029:2093  require(!contributors[msg.sender], \"Only Contributers can vote\") */\n              tag_102\n              jumpi\n              mload(0x40)\n              0x08c379a000000000000000000000000000000000000000000000000000000000\n              dup2\n              mstore\n              0x04\n              add\n              tag_103\n              swap1\n              tag_104\n              jump\t// in\n            tag_103:\n              mload(0x40)\n              dup1\n              swap2\n              sub\n              swap1\n              revert\n            tag_102:\n                /* \"Campaign.sol\":2104:2123  Request storage req */\n              0x00\n                /* \"Campaign.sol\":2126:2134  requests */\n              0x05\n                /* \"Campaign.sol\":2135:2141  _index */\n              dup3\n                /* \"Campaign.sol\":2126:2142  requests[_index] */\n              dup2\n              sload\n              dup2\n              lt\n              tag_105\n              jumpi\n              tag_106\n              tag_64\n              jump\t// in\n            tag_106:\n            tag_105:\n              swap1\n              0x00\n              mstore\n              keccak256(0x00, 0x20)\n              swap1\n              0x06\n              mul\n              add\n                /* \"Campaign.sol\":2104:2142  Request storage req = requests[_index] */\n              swap1\n              pop\n                /* \"Campaign.sol\":2163:2166  req */\n              dup1\n                /* \"Campaign.sol\":2163:2176  req.approvals */\n              0x05\n              add\n                /* \"Campaign.sol\":2163:2188  req.approvals[msg.sender] */\n              0x00\n                /* \"Campaign.sol\":2177:2187  msg.sender */\n              caller\n                /* \"Campaign.sol\":2163:2188  req.approvals[msg.sender] */\n              0xffffffffffffffffffffffffffffffffffffffff\n              and\n              0xffffffffffffffffffffffffffffffffffffffff\n              and\n              dup2\n              mstore\n              0x20\n              add\n              swap1\n              dup2\n              mstore\n              0x20\n              add\n              0x00\n              keccak256\n              0x00\n              swap1\n              sload\n              swap1\n              0x0100\n              exp\n              swap1\n              div\n              0xff\n              and\n                /* \"Campaign.sol\":2162:2188  !req.approvals[msg.sender] */\n              iszero\n                /* \"Campaign.sol\":2154:2215  require(!req.approvals[msg.sender], \"You have already Voted\") */\n              tag_108\n              jumpi\n              mload(0x40)\n              0x08c379a000000000000000000000000000000000000000000000000000000000\n              dup2\n              mstore\n              0x04\n              add\n              tag_109\n              swap1\n              tag_110\n              jump\t// in\n            tag_109:\n              mload(0x40)\n              dup1\n              swap2\n              sub\n              swap1\n              revert\n            tag_108:\n                /* \"Campaign.sol\":2256:2260  true */\n              0x01\n                /* \"Campaign.sol\":2228:2231  req */\n              dup2\n                /* \"Campaign.sol\":2228:2241  req.approvals */\n              0x05\n              add\n                /* \"Campaign.sol\":2228:2253  req.approvals[msg.sender] */\n              0x00\n                /* \"Campaign.sol\":2242:2252  msg.sender */\n              caller\n                /* \"Campaign.sol\":2228:2253  req.approvals[msg.sender] */\n              0xffffffffffffffffffffffffffffffffffffffff\n              and\n              0xffffffffffffffffffffffffffffffffffffffff\n              and\n              dup2\n              mstore\n              0x20\n              add\n              swap1\n              dup2\n              mstore\n              0x20\n              add\n              0x00\n              keccak256\n              0x00\n                /* \"Campaign.sol\":2228:2260  req.approvals[msg.sender] = true */\n              0x0100\n              exp\n              dup2\n              sload\n              dup2\n              0xff\n              mul\n              not\n              and\n              swap1\n              dup4\n              iszero\n              iszero\n              mul\n              or\n              swap1\n              sstore\n              pop\n                /* \"Campaign.sol\":2291:2294  req */\n              dup1\n                /* \"Campaign.sol\":2291:2308  req.approvalCount */\n              0x04\n              add\n              0x00\n                /* \"Campaign.sol\":2291:2310  req.approvalCount++ */\n              dup2\n              sload\n              dup1\n              swap3\n              swap2\n              swap1\n              tag_111\n              swap1\n              tag_97\n              jump\t// in\n            tag_111:\n              swap2\n              swap1\n              pop\n              sstore\n              pop\n                /* \"Campaign.sol\":2016:2319  {... */\n              pop\n                /* \"Campaign.sol\":1972:2319  function approveRequest(uint _index) public {... */\n              pop\n              jump\t// out\n                /* \"#utility.yul\":7:82   */\n            tag_112:\n                /* \"#utility.yul\":40:46   */\n              0x00\n                /* \"#utility.yul\":73:75   */\n              0x40\n                /* \"#utility.yul\":67:76   */\n              mload\n                /* \"#utility.yul\":57:76   */\n              swap1\n              pop\n                /* \"#utility.yul\":7:82   */\n              swap1\n              jump\t// out\n                /* \"#utility.yul\":88:205   */\n            tag_113:\n                /* \"#utility.yul\":197:198   */\n              0x00\n                /* \"#utility.yul\":194:195   */\n              dup1\n                /* \"#utility.yul\":187:199   */\n              revert\n                /* \"#utility.yul\":211:328   */\n            tag_114:\n                /* \"#utility.yul\":320:321   */\n              0x00\n                /* \"#utility.yul\":317:318   */\n              dup1\n                /* \"#utility.yul\":310:322   */\n              revert\n                /* \"#utility.yul\":334:411   */\n            tag_115:\n                /* \"#utility.yul\":371:378   */\n              0x00\n                /* \"#utility.yul\":400:405   */\n              dup2\n                /* \"#utility.yul\":389:405   */\n              swap1\n              pop\n                /* \"#utility.yul\":334:411   */\n              swap2\n              swap1\n              pop\n              jump\t// out\n                /* \"#utility.yul\":417:539   */\n            tag_116:\n                /* \"#utility.yul\":490:514   */\n              tag_176\n                /* \"#utility.yul\":508:513   */\n              dup2\n                /* \"#utility.yul\":490:514   */\n              tag_115\n              jump\t// in\n            tag_176:\n                /* \"#utility.yul\":483:488   */\n              dup2\n                /* \"#utility.yul\":480:515   */\n              eq\n                /* \"#utility.yul\":470:533   */\n              tag_177\n              jumpi\n                /* \"#utility.yul\":529:530   */\n              0x00\n                /* \"#utility.yul\":526:527   */\n              dup1\n                /* \"#utility.yul\":519:531   */\n              revert\n                /* \"#utility.yul\":470:533   */\n            tag_177:\n                /* \"#utility.yul\":417:539   */\n              pop\n              jump\t// out\n                /* \"#utility.yul\":545:684   */\n            tag_117:\n                /* \"#utility.yul\":591:596   */\n              0x00\n                /* \"#utility.yul\":629:635   */\n              dup2\n                /* \"#utility.yul\":616:636   */\n              calldataload\n                /* \"#utility.yul\":607:636   */\n              swap1\n              pop\n                /* \"#utility.yul\":645:678   */\n              tag_179\n                /* \"#utility.yul\":672:677   */\n              dup2\n                /* \"#utility.yul\":645:678   */\n              tag_116\n              jump\t// in\n            tag_179:\n                /* \"#utility.yul\":545:684   */\n              swap3\n              swap2\n              pop\n              pop\n              jump\t// out\n                /* \"#utility.yul\":690:1019   */\n            tag_15:\n                /* \"#utility.yul\":749:755   */\n              0x00\n                /* \"#utility.yul\":798:800   */\n              0x20\n                /* \"#utility.yul\":786:795   */\n              dup3\n                /* \"#utility.yul\":777:784   */\n              dup5\n                /* \"#utility.yul\":773:796   */\n              sub\n                /* \"#utility.yul\":769:801   */\n              slt\n                /* \"#utility.yul\":766:885   */\n              iszero\n              tag_181\n              jumpi\n                /* \"#utility.yul\":804:883   */\n              tag_182\n              tag_113\n              jump\t// in\n            tag_182:\n                /* \"#utility.yul\":766:885   */\n            tag_181:\n                /* \"#utility.yul\":924:925   */\n              0x00\n                /* \"#utility.yul\":949:1002   */\n              tag_183\n                /* \"#utility.yul\":994:1001   */\n              dup5\n                /* \"#utility.yul\":985:991   */\n              dup3\n                /* \"#utility.yul\":974:983   */\n              dup6\n                /* \"#utility.yul\":970:992   */\n              add\n                /* \"#utility.yul\":949:1002   */\n              tag_117\n              jump\t// in\n            tag_183:\n                /* \"#utility.yul\":939:1002   */\n              swap2\n              pop\n                /* \"#utility.yul\":895:1012   */\n              pop\n                /* \"#utility.yul\":690:1019   */\n              swap3\n              swap2\n              pop\n              pop\n              jump\t// out\n                /* \"#utility.yul\":1025:1143   */\n            tag_118:\n                /* \"#utility.yul\":1112:1136   */\n              tag_185\n                /* \"#utility.yul\":1130:1135   */\n              dup2\n                /* \"#utility.yul\":1112:1136   */\n              tag_115\n              jump\t// in\n            tag_185:\n                /* \"#utility.yul\":1107:1110   */\n              dup3\n                /* \"#utility.yul\":1100:1137   */\n              mstore\n                /* \"#utility.yul\":1025:1143   */\n              pop\n              pop\n              jump\t// out\n                /* \"#utility.yul\":1149:1371   */\n            tag_21:\n                /* \"#utility.yul\":1242:1246   */\n              0x00\n                /* \"#utility.yul\":1280:1282   */\n              0x20\n                /* \"#utility.yul\":1269:1278   */\n              dup3\n                /* \"#utility.yul\":1265:1283   */\n              add\n                /* \"#utility.yul\":1257:1283   */\n              swap1\n              pop\n                /* \"#utility.yul\":1293:1364   */\n              tag_187\n                /* \"#utility.yul\":1361:1362   */\n              0x00\n                /* \"#utility.yul\":1350:1359   */\n              dup4\n                /* \"#utility.yul\":1346:1363   */\n              add\n                /* \"#utility.yul\":1337:1343   */\n              dup5\n                /* \"#utility.yul\":1293:1364   */\n              tag_118\n              jump\t// in\n            tag_187:\n                /* \"#utility.yul\":1149:1371   */\n              swap3\n              swap2\n              pop\n              pop\n              jump\t// out\n                /* \"#utility.yul\":1377:1503   */\n            tag_119:\n                /* \"#utility.yul\":1414:1421   */\n              0x00\n                /* \"#utility.yul\":1454:1496   */\n              0xffffffffffffffffffffffffffffffffffffffff\n                /* \"#utility.yul\":1447:1452   */\n              dup3\n                /* \"#utility.yul\":1443:1497   */\n              and\n                /* \"#utility.yul\":1432:1497   */\n              swap1\n              pop\n                /* \"#utility.yul\":1377:1503   */\n              swap2\n              swap1\n              pop\n              jump\t// out\n                /* \"#utility.yul\":1509:1605   */\n            tag_120:\n                /* \"#utility.yul\":1546:1553   */\n              0x00\n                /* \"#utility.yul\":1575:1599   */\n              tag_190\n                /* \"#utility.yul\":1593:1598   */\n              dup3\n                /* \"#utility.yul\":1575:1599   */\n              tag_119\n              jump\t// in\n            tag_190:\n                /* \"#utility.yul\":1564:1599   */\n              swap1\n              pop\n                /* \"#utility.yul\":1509:1605   */\n              swap2\n              swap1\n              pop\n              jump\t// out\n                /* \"#utility.yul\":1611:1729   */\n            tag_121:\n                /* \"#utility.yul\":1698:1722   */\n              tag_192\n                /* \"#utility.yul\":1716:1721   */\n              dup2\n                /* \"#utility.yul\":1698:1722   */\n              tag_120\n              jump\t// in\n            tag_192:\n                /* \"#utility.yul\":1693:1696   */\n              dup3\n                /* \"#utility.yul\":1686:1723   */\n              mstore\n                /* \"#utility.yul\":1611:1729   */\n              pop\n              pop\n              jump\t// out\n                /* \"#utility.yul\":1735:1957   */\n            tag_26:\n                /* \"#utility.yul\":1828:1832   */\n              0x00\n                /* \"#utility.yul\":1866:1868   */\n              0x20\n                /* \"#utility.yul\":1855:1864   */\n              dup3\n                /* \"#utility.yul\":1851:1869   */\n              add\n                /* \"#utility.yul\":1843:1869   */\n              swap1\n              pop\n                /* \"#utility.yul\":1879:1950   */\n              tag_194\n                /* \"#utility.yul\":1947:1948   */\n              0x00\n                /* \"#utility.yul\":1936:1945   */\n              dup4\n                /* \"#utility.yul\":1932:1949   */\n              add\n                /* \"#utility.yul\":1923:1929   */\n              dup5\n                /* \"#utility.yul\":1879:1950   */\n              tag_121\n              jump\t// in\n            tag_194:\n                /* \"#utility.yul\":1735:1957   */\n              swap3\n              swap2\n              pop\n              pop\n              jump\t// out\n                /* \"#utility.yul\":1963:2062   */\n            tag_122:\n                /* \"#utility.yul\":2015:2021   */\n              0x00\n                /* \"#utility.yul\":2049:2054   */\n              dup2\n                /* \"#utility.yul\":2043:2055   */\n              mload\n                /* \"#utility.yul\":2033:2055   */\n              swap1\n              pop\n                /* \"#utility.yul\":1963:2062   */\n              swap2\n              swap1\n              pop\n              jump\t// out\n                /* \"#utility.yul\":2068:2237   */\n            tag_123:\n                /* \"#utility.yul\":2152:2163   */\n              0x00\n                /* \"#utility.yul\":2186:2192   */\n              dup3\n                /* \"#utility.yul\":2181:2184   */\n              dup3\n                /* \"#utility.yul\":2174:2193   */\n              mstore\n                /* \"#utility.yul\":2226:2230   */\n              0x20\n                /* \"#utility.yul\":2221:2224   */\n              dup3\n                /* \"#utility.yul\":2217:2231   */\n              add\n                /* \"#utility.yul\":2202:2231   */\n              swap1\n              pop\n                /* \"#utility.yul\":2068:2237   */\n              swap3\n              swap2\n              pop\n              pop\n              jump\t// out\n                /* \"#utility.yul\":2243:2489   */\n            tag_124:\n                /* \"#utility.yul\":2324:2325   */\n              0x00\n                /* \"#utility.yul\":2334:2447   */\n            tag_198:\n                /* \"#utility.yul\":2348:2354   */\n              dup4\n                /* \"#utility.yul\":2345:2346   */\n              dup2\n                /* \"#utility.yul\":2342:2355   */\n              lt\n                /* \"#utility.yul\":2334:2447   */\n              iszero\n              tag_200\n              jumpi\n                /* \"#utility.yul\":2433:2434   */\n              dup1\n                /* \"#utility.yul\":2428:2431   */\n              dup3\n                /* \"#utility.yul\":2424:2435   */\n              add\n                /* \"#utility.yul\":2418:2436   */\n              mload\n                /* \"#utility.yul\":2414:2415   */\n              dup2\n                /* \"#utility.yul\":2409:2412   */\n              dup5\n                /* \"#utility.yul\":2405:2416   */\n              add\n                /* \"#utility.yul\":2398:2437   */\n              mstore\n                /* \"#utility.yul\":2370:2372   */\n              0x20\n                /* \"#utility.yul\":2367:2368   */\n              dup2\n                /* \"#utility.yul\":2363:2373   */\n              add\n                /* \"#utility.yul\":2358:2373   */\n              swap1\n              pop\n                /* \"#utility.yul\":2334:2447   */\n              jump(tag_198)\n            tag_200:\n                /* \"#utility.yul\":2481:2482   */\n              0x00\n                /* \"#utility.yul\":2472:2478   */\n              dup5\n                /* \"#utility.yul\":2467:2470   */\n              dup5\n                /* \"#utility.yul\":2463:2479   */\n              add\n                /* \"#utility.yul\":2456:2483   */\n              mstore\n                /* \"#utility.yul\":2305:2489   */\n              pop\n                /* \"#utility.yul\":2243:2489   */\n              pop\n              pop\n              pop\n              jump\t// out\n                /* \"#utility.yul\":2495:2597   */\n            tag_125:\n                /* \"#utility.yul\":2536:2542   */\n              0x00\n                /* \"#utility.yul\":2587:2589   */\n              0x1f\n                /* \"#utility.yul\":2583:2590   */\n              not\n                /* \"#utility.yul\":2578:2580   */\n              0x1f\n                /* \"#utility.yul\":2571:2576   */\n              dup4\n                /* \"#utility.yul\":2567:2581   */\n              add\n                /* \"#utility.yul\":2563:2591   */\n              and\n                /* \"#utility.yul\":2553:2591   */\n              swap1\n              pop\n                /* \"#utility.yul\":2495:2597   */\n              swap2\n              swap1\n              pop\n              jump\t// out\n                /* \"#utility.yul\":2603:2980   */\n            tag_126:\n                /* \"#utility.yul\":2691:2694   */\n              0x00\n                /* \"#utility.yul\":2719:2758   */\n              tag_203\n                /* \"#utility.yul\":2752:2757   */\n              dup3\n                /* \"#utility.yul\":2719:2758   */\n              tag_122\n              jump\t// in\n            tag_203:\n                /* \"#utility.yul\":2774:2845   */\n              tag_204\n                /* \"#utility.yul\":2838:2844   */\n              dup2\n                /* \"#utility.yul\":2833:2836   */\n              dup6\n                /* \"#utility.yul\":2774:2845   */\n              tag_123\n              jump\t// in\n            tag_204:\n                /* \"#utility.yul\":2767:2845   */\n              swap4\n              pop\n                /* \"#utility.yul\":2854:2919   */\n              tag_205\n                /* \"#utility.yul\":2912:2918   */\n              dup2\n                /* \"#utility.yul\":2907:2910   */\n              dup6\n                /* \"#utility.yul\":2900:2904   */\n              0x20\n                /* \"#utility.yul\":2893:2898   */\n              dup7\n                /* \"#utility.yul\":2889:2905   */\n              add\n                /* \"#utility.yul\":2854:2919   */\n              tag_124\n              jump\t// in\n            tag_205:\n                /* \"#utility.yul\":2944:2973   */\n              tag_206\n                /* \"#utility.yul\":2966:2972   */\n              dup2\n                /* \"#utility.yul\":2944:2973   */\n              tag_125\n              jump\t// in\n            tag_206:\n                /* \"#utility.yul\":2939:2942   */\n              dup5\n                /* \"#utility.yul\":2935:2974   */\n              add\n                /* \"#utility.yul\":2928:2974   */\n              swap2\n              pop\n                /* \"#utility.yul\":2695:2980   */\n              pop\n                /* \"#utility.yul\":2603:2980   */\n              swap3\n              swap2\n              pop\n              pop\n              jump\t// out\n                /* \"#utility.yul\":2986:3090   */\n            tag_127:\n                /* \"#utility.yul\":3031:3038   */\n              0x00\n                /* \"#utility.yul\":3060:3084   */\n              tag_208\n                /* \"#utility.yul\":3078:3083   */\n              dup3\n                /* \"#utility.yul\":3060:3084   */\n              tag_119\n              jump\t// in\n            tag_208:\n                /* \"#utility.yul\":3049:3084   */\n              swap1\n              pop\n                /* \"#utility.yul\":2986:3090   */\n              swap2\n              swap1\n              pop\n              jump\t// out\n                /* \"#utility.yul\":3096:3238   */\n            tag_128:\n                /* \"#utility.yul\":3199:3231   */\n              tag_210\n                /* \"#utility.yul\":3225:3230   */\n              dup2\n                /* \"#utility.yul\":3199:3231   */\n              tag_127\n              jump\t// in\n            tag_210:\n                /* \"#utility.yul\":3194:3197   */\n              dup3\n                /* \"#utility.yul\":3187:3232   */\n              mstore\n                /* \"#utility.yul\":3096:3238   */\n              pop\n              pop\n              jump\t// out\n                /* \"#utility.yul\":3244:3334   */\n            tag_129:\n                /* \"#utility.yul\":3278:3285   */\n              0x00\n                /* \"#utility.yul\":3321:3326   */\n              dup2\n                /* \"#utility.yul\":3314:3327   */\n              iszero\n                /* \"#utility.yul\":3307:3328   */\n              iszero\n                /* \"#utility.yul\":3296:3328   */\n              swap1\n              pop\n                /* \"#utility.yul\":3244:3334   */\n              swap2\n              swap1\n              pop\n              jump\t// out\n                /* \"#utility.yul\":3340:3449   */\n            tag_130:\n                /* \"#utility.yul\":3421:3442   */\n              tag_213\n                /* \"#utility.yul\":3436:3441   */\n              dup2\n                /* \"#utility.yul\":3421:3442   */\n              tag_129\n              jump\t// in\n            tag_213:\n                /* \"#utility.yul\":3416:3419   */\n              dup3\n                /* \"#utility.yul\":3409:3443   */\n              mstore\n                /* \"#utility.yul\":3340:3449   */\n              pop\n              pop\n              jump\t// out\n                /* \"#utility.yul\":3455:4230   */\n            tag_32:\n                /* \"#utility.yul\":3690:3694   */\n              0x00\n                /* \"#utility.yul\":3728:3731   */\n              0xa0\n                /* \"#utility.yul\":3717:3726   */\n              dup3\n                /* \"#utility.yul\":3713:3732   */\n              add\n                /* \"#utility.yul\":3705:3732   */\n              swap1\n              pop\n                /* \"#utility.yul\":3778:3787   */\n              dup2\n                /* \"#utility.yul\":3772:3776   */\n              dup2\n                /* \"#utility.yul\":3768:3788   */\n              sub\n                /* \"#utility.yul\":3764:3765   */\n              0x00\n                /* \"#utility.yul\":3753:3762   */\n              dup4\n                /* \"#utility.yul\":3749:3766   */\n              add\n                /* \"#utility.yul\":3742:3789   */\n              mstore\n                /* \"#utility.yul\":3806:3884   */\n              tag_215\n                /* \"#utility.yul\":3879:3883   */\n              dup2\n                /* \"#utility.yul\":3870:3876   */\n              dup9\n                /* \"#utility.yul\":3806:3884   */\n              tag_126\n              jump\t// in\n            tag_215:\n                /* \"#utility.yul\":3798:3884   */\n              swap1\n              pop\n                /* \"#utility.yul\":3894:3982   */\n              tag_216\n                /* \"#utility.yul\":3978:3980   */\n              0x20\n                /* \"#utility.yul\":3967:3976   */\n              dup4\n                /* \"#utility.yul\":3963:3981   */\n              add\n                /* \"#utility.yul\":3954:3960   */\n              dup8\n                /* \"#utility.yul\":3894:3982   */\n              tag_128\n              jump\t// in\n            tag_216:\n                /* \"#utility.yul\":3992:4064   */\n              tag_217\n                /* \"#utility.yul\":4060:4062   */\n              0x40\n                /* \"#utility.yul\":4049:4058   */\n              dup4\n                /* \"#utility.yul\":4045:4063   */\n              add\n                /* \"#utility.yul\":4036:4042   */\n              dup7\n                /* \"#utility.yul\":3992:4064   */\n              tag_118\n              jump\t// in\n            tag_217:\n                /* \"#utility.yul\":4074:4140   */\n              tag_218\n                /* \"#utility.yul\":4136:4138   */\n              0x60\n                /* \"#utility.yul\":4125:4134   */\n              dup4\n                /* \"#utility.yul\":4121:4139   */\n              add\n                /* \"#utility.yul\":4112:4118   */\n              dup6\n                /* \"#utility.yul\":4074:4140   */\n              tag_130\n              jump\t// in\n            tag_218:\n                /* \"#utility.yul\":4150:4223   */\n              tag_219\n                /* \"#utility.yul\":4218:4221   */\n              0x80\n                /* \"#utility.yul\":4207:4216   */\n              dup4\n                /* \"#utility.yul\":4203:4222   */\n              add\n                /* \"#utility.yul\":4194:4200   */\n              dup5\n                /* \"#utility.yul\":4150:4223   */\n              tag_118\n              jump\t// in\n            tag_219:\n                /* \"#utility.yul\":3455:4230   */\n              swap7\n              swap6\n              pop\n              pop\n              pop\n              pop\n              pop\n              pop\n              jump\t// out\n                /* \"#utility.yul\":4236:4353   */\n            tag_131:\n                /* \"#utility.yul\":4345:4346   */\n              0x00\n                /* \"#utility.yul\":4342:4343   */\n              dup1\n                /* \"#utility.yul\":4335:4347   */\n              revert\n                /* \"#utility.yul\":4359:4476   */\n            tag_132:\n                /* \"#utility.yul\":4468:4469   */\n              0x00\n                /* \"#utility.yul\":4465:4466   */\n              dup1\n                /* \"#utility.yul\":4458:4470   */\n              revert\n                /* \"#utility.yul\":4482:4662   */\n            tag_133:\n                /* \"#utility.yul\":4530:4607   */\n              0x4e487b7100000000000000000000000000000000000000000000000000000000\n                /* \"#utility.yul\":4527:4528   */\n              0x00\n                /* \"#utility.yul\":4520:4608   */\n              mstore\n                /* \"#utility.yul\":4627:4631   */\n              0x41\n                /* \"#utility.yul\":4624:4625   */\n              0x04\n                /* \"#utility.yul\":4617:4632   */\n              mstore\n                /* \"#utility.yul\":4651:4655   */\n              0x24\n                /* \"#utility.yul\":4648:4649   */\n              0x00\n                /* \"#utility.yul\":4641:4656   */\n              revert\n                /* \"#utility.yul\":4668:4949   */\n            tag_134:\n                /* \"#utility.yul\":4751:4778   */\n              tag_224\n                /* \"#utility.yul\":4773:4777   */\n              dup3\n                /* \"#utility.yul\":4751:4778   */\n              tag_125\n              jump\t// in\n            tag_224:\n                /* \"#utility.yul\":4743:4749   */\n              dup2\n                /* \"#utility.yul\":4739:4779   */\n              add\n                /* \"#utility.yul\":4881:4887   */\n              dup2\n                /* \"#utility.yul\":4869:4879   */\n              dup2\n                /* \"#utility.yul\":4866:4888   */\n              lt\n                /* \"#utility.yul\":4845:4863   */\n              0xffffffffffffffff\n                /* \"#utility.yul\":4833:4843   */\n              dup3\n                /* \"#utility.yul\":4830:4864   */\n              gt\n                /* \"#utility.yul\":4827:4889   */\n              or\n                /* \"#utility.yul\":4824:4912   */\n              iszero\n              tag_225\n              jumpi\n                /* \"#utility.yul\":4892:4910   */\n              tag_226\n              tag_133\n              jump\t// in\n            tag_226:\n                /* \"#utility.yul\":4824:4912   */\n            tag_225:\n                /* \"#utility.yul\":4932:4942   */\n              dup1\n                /* \"#utility.yul\":4928:4930   */\n              0x40\n                /* \"#utility.yul\":4921:4943   */\n              mstore\n                /* \"#utility.yul\":4711:4949   */\n              pop\n                /* \"#utility.yul\":4668:4949   */\n              pop\n              pop\n              jump\t// out\n                /* \"#utility.yul\":4955:5084   */\n            tag_135:\n                /* \"#utility.yul\":4989:4995   */\n              0x00\n                /* \"#utility.yul\":5016:5036   */\n              tag_228\n              tag_112\n              jump\t// in\n            tag_228:\n                /* \"#utility.yul\":5006:5036   */\n              swap1\n              pop\n                /* \"#utility.yul\":5045:5078   */\n              tag_229\n                /* \"#utility.yul\":5073:5077   */\n              dup3\n                /* \"#utility.yul\":5065:5071   */\n              dup3\n                /* \"#utility.yul\":5045:5078   */\n              tag_134\n              jump\t// in\n            tag_229:\n                /* \"#utility.yul\":4955:5084   */\n              swap2\n              swap1\n              pop\n              jump\t// out\n                /* \"#utility.yul\":5090:5398   */\n            tag_136:\n                /* \"#utility.yul\":5152:5156   */\n              0x00\n                /* \"#utility.yul\":5242:5260   */\n              0xffffffffffffffff\n                /* \"#utility.yul\":5234:5240   */\n              dup3\n                /* \"#utility.yul\":5231:5261   */\n              gt\n                /* \"#utility.yul\":5228:5284   */\n              iszero\n              tag_231\n              jumpi\n                /* \"#utility.yul\":5264:5282   */\n              tag_232\n              tag_133\n              jump\t// in\n            tag_232:\n                /* \"#utility.yul\":5228:5284   */\n            tag_231:\n                /* \"#utility.yul\":5302:5331   */\n              tag_233\n                /* \"#utility.yul\":5324:5330   */\n              dup3\n                /* \"#utility.yul\":5302:5331   */\n              tag_125\n              jump\t// in\n            tag_233:\n                /* \"#utility.yul\":5294:5331   */\n              swap1\n              pop\n                /* \"#utility.yul\":5386:5390   */\n              0x20\n                /* \"#utility.yul\":5380:5384   */\n              dup2\n                /* \"#utility.yul\":5376:5391   */\n              add\n                /* \"#utility.yul\":5368:5391   */\n              swap1\n              pop\n                /* \"#utility.yul\":5090:5398   */\n              swap2\n              swap1\n              pop\n              jump\t// out\n                /* \"#utility.yul\":5404:5550   */\n            tag_137:\n                /* \"#utility.yul\":5501:5507   */\n              dup3\n                /* \"#utility.yul\":5496:5499   */\n              dup2\n                /* \"#utility.yul\":5491:5494   */\n              dup4\n                /* \"#utility.yul\":5478:5508   */\n              calldatacopy\n                /* \"#utility.yul\":5542:5543   */\n              0x00\n                /* \"#utility.yul\":5533:5539   */\n              dup4\n                /* \"#utility.yul\":5528:5531   */\n              dup4\n                /* \"#utility.yul\":5524:5540   */\n              add\n                /* \"#utility.yul\":5517:5544   */\n              mstore\n                /* \"#utility.yul\":5404:5550   */\n              pop\n              pop\n              pop\n              jump\t// out\n                /* \"#utility.yul\":5556:5981   */\n            tag_138:\n                /* \"#utility.yul\":5634:5639   */\n              0x00\n                /* \"#utility.yul\":5659:5725   */\n              tag_236\n                /* \"#utility.yul\":5675:5724   */\n              tag_237\n                /* \"#utility.yul\":5717:5723   */\n              dup5\n                /* \"#utility.yul\":5675:5724   */\n              tag_136\n              jump\t// in\n            tag_237:\n                /* \"#utility.yul\":5659:5725   */\n              tag_135\n              jump\t// in\n            tag_236:\n                /* \"#utility.yul\":5650:5725   */\n              swap1\n              pop\n                /* \"#utility.yul\":5748:5754   */\n              dup3\n                /* \"#utility.yul\":5741:5746   */\n              dup2\n                /* \"#utility.yul\":5734:5755   */\n              mstore\n                /* \"#utility.yul\":5786:5790   */\n              0x20\n                /* \"#utility.yul\":5779:5784   */\n              dup2\n                /* \"#utility.yul\":5775:5791   */\n              add\n                /* \"#utility.yul\":5824:5827   */\n              dup5\n                /* \"#utility.yul\":5815:5821   */\n              dup5\n                /* \"#utility.yul\":5810:5813   */\n              dup5\n                /* \"#utility.yul\":5806:5822   */\n              add\n                /* \"#utility.yul\":5803:5828   */\n              gt\n                /* \"#utility.yul\":5800:5912   */\n              iszero\n              tag_238\n              jumpi\n                /* \"#utility.yul\":5831:5910   */\n              tag_239\n              tag_132\n              jump\t// in\n            tag_239:\n                /* \"#utility.yul\":5800:5912   */\n            tag_238:\n                /* \"#utility.yul\":5921:5975   */\n              tag_240\n                /* \"#utility.yul\":5968:5974   */\n              dup5\n                /* \"#utility.yul\":5963:5966   */\n              dup3\n                /* \"#utility.yul\":5958:5961   */\n              dup6\n                /* \"#utility.yul\":5921:5975   */\n              tag_137\n              jump\t// in\n            tag_240:\n                /* \"#utility.yul\":5640:5981   */\n              pop\n                /* \"#utility.yul\":5556:5981   */\n              swap4\n              swap3\n              pop\n              pop\n              pop\n              jump\t// out\n                /* \"#utility.yul\":6001:6341   */\n            tag_139:\n                /* \"#utility.yul\":6057:6062   */\n              0x00\n                /* \"#utility.yul\":6106:6109   */\n              dup3\n                /* \"#utility.yul\":6099:6103   */\n              0x1f\n                /* \"#utility.yul\":6091:6097   */\n              dup4\n                /* \"#utility.yul\":6087:6104   */\n              add\n                /* \"#utility.yul\":6083:6110   */\n              slt\n                /* \"#utility.yul\":6073:6195   */\n              tag_242\n              jumpi\n                /* \"#utility.yul\":6114:6193   */\n              tag_243\n              tag_131\n              jump\t// in\n            tag_243:\n                /* \"#utility.yul\":6073:6195   */\n            tag_242:\n                /* \"#utility.yul\":6231:6237   */\n              dup2\n                /* \"#utility.yul\":6218:6238   */\n              calldataload\n                /* \"#utility.yul\":6256:6335   */\n              tag_244\n                /* \"#utility.yul\":6331:6334   */\n              dup5\n                /* \"#utility.yul\":6323:6329   */\n              dup3\n                /* \"#utility.yul\":6316:6320   */\n              0x20\n                /* \"#utility.yul\":6308:6314   */\n              dup7\n                /* \"#utility.yul\":6304:6321   */\n              add\n                /* \"#utility.yul\":6256:6335   */\n              tag_138\n              jump\t// in\n            tag_244:\n                /* \"#utility.yul\":6247:6335   */\n              swap2\n              pop\n                /* \"#utility.yul\":6063:6341   */\n              pop\n                /* \"#utility.yul\":6001:6341   */\n              swap3\n              swap2\n              pop\n              pop\n              jump\t// out\n                /* \"#utility.yul\":6347:6485   */\n            tag_140:\n                /* \"#utility.yul\":6428:6460   */\n              tag_246\n                /* \"#utility.yul\":6454:6459   */\n              dup2\n                /* \"#utility.yul\":6428:6460   */\n              tag_127\n              jump\t// in\n            tag_246:\n                /* \"#utility.yul\":6421:6426   */\n              dup2\n                /* \"#utility.yul\":6418:6461   */\n              eq\n                /* \"#utility.yul\":6408:6479   */\n              tag_247\n              jumpi\n                /* \"#utility.yul\":6475:6476   */\n              0x00\n                /* \"#utility.yul\":6472:6473   */\n              dup1\n                /* \"#utility.yul\":6465:6477   */\n              revert\n                /* \"#utility.yul\":6408:6479   */\n            tag_247:\n                /* \"#utility.yul\":6347:6485   */\n              pop\n              jump\t// out\n                /* \"#utility.yul\":6491:6646   */\n            tag_141:\n                /* \"#utility.yul\":6545:6550   */\n              0x00\n                /* \"#utility.yul\":6583:6589   */\n              dup2\n                /* \"#utility.yul\":6570:6590   */\n              calldataload\n                /* \"#utility.yul\":6561:6590   */\n              swap1\n              pop\n                /* \"#utility.yul\":6599:6640   */\n              tag_249\n                /* \"#utility.yul\":6634:6639   */\n              dup2\n                /* \"#utility.yul\":6599:6640   */\n              tag_140\n              jump\t// in\n            tag_249:\n                /* \"#utility.yul\":6491:6646   */\n              swap3\n              swap2\n              pop\n              pop\n              jump\t// out\n                /* \"#utility.yul\":6652:7467   */\n            tag_41:\n                /* \"#utility.yul\":6747:6753   */\n              0x00\n                /* \"#utility.yul\":6755:6761   */\n              dup1\n                /* \"#utility.yul\":6763:6769   */\n              0x00\n                /* \"#utility.yul\":6812:6814   */\n              0x60\n                /* \"#utility.yul\":6800:6809   */\n              dup5\n                /* \"#utility.yul\":6791:6798   */\n              dup7\n                /* \"#utility.yul\":6787:6810   */\n              sub\n                /* \"#utility.yul\":6783:6815   */\n              slt\n                /* \"#utility.yul\":6780:6899   */\n              iszero\n              tag_251\n              jumpi\n                /* \"#utility.yul\":6818:6897   */\n              tag_252\n              tag_113\n              jump\t// in\n            tag_252:\n                /* \"#utility.yul\":6780:6899   */\n            tag_251:\n                /* \"#utility.yul\":6938:6939   */\n              0x00\n                /* \"#utility.yul\":6963:7016   */\n              tag_253\n                /* \"#utility.yul\":7008:7015   */\n              dup7\n                /* \"#utility.yul\":6999:7005   */\n              dup3\n                /* \"#utility.yul\":6988:6997   */\n              dup8\n                /* \"#utility.yul\":6984:7006   */\n              add\n                /* \"#utility.yul\":6963:7016   */\n              tag_117\n              jump\t// in\n            tag_253:\n                /* \"#utility.yul\":6953:7016   */\n              swap4\n              pop\n                /* \"#utility.yul\":6909:7026   */\n              pop\n                /* \"#utility.yul\":7093:7095   */\n              0x20\n                /* \"#utility.yul\":7082:7091   */\n              dup5\n                /* \"#utility.yul\":7078:7096   */\n              add\n                /* \"#utility.yul\":7065:7097   */\n              calldataload\n                /* \"#utility.yul\":7124:7142   */\n              0xffffffffffffffff\n                /* \"#utility.yul\":7116:7122   */\n              dup2\n                /* \"#utility.yul\":7113:7143   */\n              gt\n                /* \"#utility.yul\":7110:7227   */\n              iszero\n              tag_254\n              jumpi\n                /* \"#utility.yul\":7146:7225   */\n              tag_255\n              tag_114\n              jump\t// in\n            tag_255:\n                /* \"#utility.yul\":7110:7227   */\n            tag_254:\n                /* \"#utility.yul\":7251:7314   */\n              tag_256\n                /* \"#utility.yul\":7306:7313   */\n              dup7\n                /* \"#utility.yul\":7297:7303   */\n              dup3\n                /* \"#utility.yul\":7286:7295   */\n              dup8\n                /* \"#utility.yul\":7282:7304   */\n              add\n                /* \"#utility.yul\":7251:7314   */\n              tag_139\n              jump\t// in\n            tag_256:\n                /* \"#utility.yul\":7241:7314   */\n              swap3\n              pop\n                /* \"#utility.yul\":7036:7324   */\n              pop\n                /* \"#utility.yul\":7363:7365   */\n              0x40\n                /* \"#utility.yul\":7389:7450   */\n              tag_257\n                /* \"#utility.yul\":7442:7449   */\n              dup7\n                /* \"#utility.yul\":7433:7439   */\n              dup3\n                /* \"#utility.yul\":7422:7431   */\n              dup8\n                /* \"#utility.yul\":7418:7440   */\n              add\n                /* \"#utility.yul\":7389:7450   */\n              tag_141\n              jump\t// in\n            tag_257:\n                /* \"#utility.yul\":7379:7450   */\n              swap2\n              pop\n                /* \"#utility.yul\":7334:7460   */\n              pop\n                /* \"#utility.yul\":6652:7467   */\n              swap3\n              pop\n              swap3\n              pop\n              swap3\n              jump\t// out\n                /* \"#utility.yul\":7473:7698   */\n            tag_142:\n                /* \"#utility.yul\":7613:7647   */\n              0x4f6e6c79206d616e616765722063616e2061636365737320746869732066756e\n                /* \"#utility.yul\":7609:7610   */\n              0x00\n                /* \"#utility.yul\":7601:7607   */\n              dup3\n                /* \"#utility.yul\":7597:7611   */\n              add\n                /* \"#utility.yul\":7590:7648   */\n              mstore\n                /* \"#utility.yul\":7682:7690   */\n              0x6374696f6e730000000000000000000000000000000000000000000000000000\n                /* \"#utility.yul\":7677:7679   */\n              0x20\n                /* \"#utility.yul\":7669:7675   */\n              dup3\n                /* \"#utility.yul\":7665:7680   */\n              add\n                /* \"#utility.yul\":7658:7691   */\n              mstore\n                /* \"#utility.yul\":7473:7698   */\n              pop\n              jump\t// out\n                /* \"#utility.yul\":7704:8070   */\n            tag_143:\n                /* \"#utility.yul\":7846:7849   */\n              0x00\n                /* \"#utility.yul\":7867:7934   */\n              tag_260\n                /* \"#utility.yul\":7931:7933   */\n              0x26\n                /* \"#utility.yul\":7926:7929   */\n              dup4\n                /* \"#utility.yul\":7867:7934   */\n              tag_123\n              jump\t// in\n            tag_260:\n                /* \"#utility.yul\":7860:7934   */\n              swap2\n              pop\n                /* \"#utility.yul\":7943:8036   */\n              tag_261\n                /* \"#utility.yul\":8032:8035   */\n              dup3\n                /* \"#utility.yul\":7943:8036   */\n              tag_142\n              jump\t// in\n            tag_261:\n                /* \"#utility.yul\":8061:8063   */\n              0x40\n                /* \"#utility.yul\":8056:8059   */\n              dup3\n                /* \"#utility.yul\":8052:8064   */\n              add\n                /* \"#utility.yul\":8045:8064   */\n              swap1\n              pop\n                /* \"#utility.yul\":7704:8070   */\n              swap2\n              swap1\n              pop\n              jump\t// out\n                /* \"#utility.yul\":8076:8495   */\n            tag_60:\n                /* \"#utility.yul\":8242:8246   */\n              0x00\n                /* \"#utility.yul\":8280:8282   */\n              0x20\n                /* \"#utility.yul\":8269:8278   */\n              dup3\n                /* \"#utility.yul\":8265:8283   */\n              add\n                /* \"#utility.yul\":8257:8283   */\n              swap1\n              pop\n                /* \"#utility.yul\":8329:8338   */\n              dup2\n                /* \"#utility.yul\":8323:8327   */\n              dup2\n                /* \"#utility.yul\":8319:8339   */\n              sub\n                /* \"#utility.yul\":8315:8316   */\n              0x00\n                /* \"#utility.yul\":8304:8313   */\n              dup4\n                /* \"#utility.yul\":8300:8317   */\n              add\n                /* \"#utility.yul\":8293:8340   */\n              mstore\n                /* \"#utility.yul\":8357:8488   */\n              tag_263\n                /* \"#utility.yul\":8483:8487   */\n              dup2\n                /* \"#utility.yul\":8357:8488   */\n              tag_143\n              jump\t// in\n            tag_263:\n                /* \"#utility.yul\":8349:8488   */\n              swap1\n              pop\n                /* \"#utility.yul\":8076:8495   */\n              swap2\n              swap1\n              pop\n              jump\t// out\n                /* \"#utility.yul\":8501:8681   */\n            tag_64:\n                /* \"#utility.yul\":8549:8626   */\n              0x4e487b7100000000000000000000000000000000000000000000000000000000\n                /* \"#utility.yul\":8546:8547   */\n              0x00\n                /* \"#utility.yul\":8539:8627   */\n              mstore\n                /* \"#utility.yul\":8646:8650   */\n              0x32\n                /* \"#utility.yul\":8643:8644   */\n              0x04\n                /* \"#utility.yul\":8636:8651   */\n              mstore\n                /* \"#utility.yul\":8670:8674   */\n              0x24\n                /* \"#utility.yul\":8667:8668   */\n              0x00\n                /* \"#utility.yul\":8660:8675   */\n              revert\n                /* \"#utility.yul\":8687:8867   */\n            tag_144:\n                /* \"#utility.yul\":8735:8812   */\n              0x4e487b7100000000000000000000000000000000000000000000000000000000\n                /* \"#utility.yul\":8732:8733   */\n              0x00\n                /* \"#utility.yul\":8725:8813   */\n              mstore\n                /* \"#utility.yul\":8832:8836   */\n              0x12\n                /* \"#utility.yul\":8829:8830   */\n              0x04\n                /* \"#utility.yul\":8822:8837   */\n              mstore\n                /* \"#utility.yul\":8856:8860   */\n              0x24\n                /* \"#utility.yul\":8853:8854   */\n              0x00\n                /* \"#utility.yul\":8846:8861   */\n              revert\n                /* \"#utility.yul\":8873:9053   */\n            tag_145:\n                /* \"#utility.yul\":8921:8998   */\n              0x4e487b7100000000000000000000000000000000000000000000000000000000\n                /* \"#utility.yul\":8918:8919   */\n              0x00\n                /* \"#utility.yul\":8911:8999   */\n              mstore\n                /* \"#utility.yul\":9018:9022   */\n              0x11\n                /* \"#utility.yul\":9015:9016   */\n              0x04\n                /* \"#utility.yul\":9008:9023   */\n              mstore\n                /* \"#utility.yul\":9042:9046   */\n              0x24\n                /* \"#utility.yul\":9039:9040   */\n              0x00\n                /* \"#utility.yul\":9032:9047   */\n              revert\n                /* \"#utility.yul\":9059:9244   */\n            tag_67:\n                /* \"#utility.yul\":9099:9100   */\n              0x00\n                /* \"#utility.yul\":9116:9136   */\n              tag_268\n                /* \"#utility.yul\":9134:9135   */\n              dup3\n                /* \"#utility.yul\":9116:9136   */\n              tag_115\n              jump\t// in\n            tag_268:\n                /* \"#utility.yul\":9111:9136   */\n              swap2\n              pop\n                /* \"#utility.yul\":9150:9170   */\n              tag_269\n                /* \"#utility.yul\":9168:9169   */\n              dup4\n                /* \"#utility.yul\":9150:9170   */\n              tag_115\n              jump\t// in\n            tag_269:\n                /* \"#utility.yul\":9145:9170   */\n              swap3\n              pop\n                /* \"#utility.yul\":9189:9190   */\n              dup3\n                /* \"#utility.yul\":9179:9214   */\n              tag_270\n              jumpi\n                /* \"#utility.yul\":9194:9212   */\n              tag_271\n              tag_144\n              jump\t// in\n            tag_271:\n                /* \"#utility.yul\":9179:9214   */\n            tag_270:\n                /* \"#utility.yul\":9236:9237   */\n              dup3\n                /* \"#utility.yul\":9233:9234   */\n              dup3\n                /* \"#utility.yul\":9229:9238   */\n              div\n                /* \"#utility.yul\":9224:9238   */\n              swap1\n              pop\n                /* \"#utility.yul\":9059:9244   */\n              swap3\n              swap2\n              pop\n              pop\n              jump\t// out\n                /* \"#utility.yul\":9250:9428   */\n            tag_146:\n                /* \"#utility.yul\":9390:9420   */\n              0x52657175657374206e65656473206d6f726520617070726f76616c7300000000\n                /* \"#utility.yul\":9386:9387   */\n              0x00\n                /* \"#utility.yul\":9378:9384   */\n              dup3\n                /* \"#utility.yul\":9374:9388   */\n              add\n                /* \"#utility.yul\":9367:9421   */\n              mstore\n                /* \"#utility.yul\":9250:9428   */\n              pop\n              jump\t// out\n                /* \"#utility.yul\":9434:9800   */\n            tag_147:\n                /* \"#utility.yul\":9576:9579   */\n              0x00\n                /* \"#utility.yul\":9597:9664   */\n              tag_274\n                /* \"#utility.yul\":9661:9663   */\n              0x1c\n                /* \"#utility.yul\":9656:9659   */\n              dup4\n                /* \"#utility.yul\":9597:9664   */\n              tag_123\n              jump\t// in\n            tag_274:\n                /* \"#utility.yul\":9590:9664   */\n              swap2\n              pop\n                /* \"#utility.yul\":9673:9766   */\n              tag_275\n                /* \"#utility.yul\":9762:9765   */\n              dup3\n                /* \"#utility.yul\":9673:9766   */\n              tag_146\n              jump\t// in\n            tag_275:\n                /* \"#utility.yul\":9791:9793   */\n              0x20\n                /* \"#utility.yul\":9786:9789   */\n              dup3\n                /* \"#utility.yul\":9782:9794   */\n              add\n                /* \"#utility.yul\":9775:9794   */\n              swap1\n              pop\n                /* \"#utility.yul\":9434:9800   */\n              swap2\n              swap1\n              pop\n              jump\t// out\n                /* \"#utility.yul\":9806:10225   */\n            tag_70:\n                /* \"#utility.yul\":9972:9976   */\n              0x00\n                /* \"#utility.yul\":10010:10012   */\n              0x20\n                /* \"#utility.yul\":9999:10008   */\n              dup3\n                /* \"#utility.yul\":9995:10013   */\n              add\n                /* \"#utility.yul\":9987:10013   */\n              swap1\n              pop\n                /* \"#utility.yul\":10059:10068   */\n              dup2\n                /* \"#utility.yul\":10053:10057   */\n              dup2\n                /* \"#utility.yul\":10049:10069   */\n              sub\n                /* \"#utility.yul\":10045:10046   */\n              0x00\n                /* \"#utility.yul\":10034:10043   */\n              dup4\n                /* \"#utility.yul\":10030:10047   */\n              add\n                /* \"#utility.yul\":10023:10070   */\n              mstore\n                /* \"#utility.yul\":10087:10218   */\n              tag_277\n                /* \"#utility.yul\":10213:10217   */\n              dup2\n                /* \"#utility.yul\":10087:10218   */\n              tag_147\n              jump\t// in\n            tag_277:\n                /* \"#utility.yul\":10079:10218   */\n              swap1\n              pop\n                /* \"#utility.yul\":9806:10225   */\n              swap2\n              swap1\n              pop\n              jump\t// out\n                /* \"#utility.yul\":10231:10451   */\n            tag_148:\n                /* \"#utility.yul\":10371:10405   */\n              0x5265717565737420686173206265656e20616c726561647920617070726f7665\n                /* \"#utility.yul\":10367:10368   */\n              0x00\n                /* \"#utility.yul\":10359:10365   */\n              dup3\n                /* \"#utility.yul\":10355:10369   */\n              add\n                /* \"#utility.yul\":10348:10406   */\n              mstore\n                /* \"#utility.yul\":10440:10443   */\n              0x6400000000000000000000000000000000000000000000000000000000000000\n                /* \"#utility.yul\":10435:10437   */\n              0x20\n                /* \"#utility.yul\":10427:10433   */\n              dup3\n                /* \"#utility.yul\":10423:10438   */\n              add\n                /* \"#utility.yul\":10416:10444   */\n              mstore\n                /* \"#utility.yul\":10231:10451   */\n              pop\n              jump\t// out\n                /* \"#utility.yul\":10457:10823   */\n            tag_149:\n                /* \"#utility.yul\":10599:10602   */\n              0x00\n                /* \"#utility.yul\":10620:10687   */\n              tag_280\n                /* \"#utility.yul\":10684:10686   */\n              0x21\n                /* \"#utility.yul\":10679:10682   */\n              dup4\n                /* \"#utility.yul\":10620:10687   */\n              tag_123\n              jump\t// in\n            tag_280:\n                /* \"#utility.yul\":10613:10687   */\n              swap2\n              pop\n                /* \"#utility.yul\":10696:10789   */\n              tag_281\n                /* \"#utility.yul\":10785:10788   */\n              dup3\n                /* \"#utility.yul\":10696:10789   */\n              tag_148\n              jump\t// in\n            tag_281:\n                /* \"#utility.yul\":10814:10816   */\n              0x40\n                /* \"#utility.yul\":10809:10812   */\n              dup3\n                /* \"#utility.yul\":10805:10817   */\n              add\n                /* \"#utility.yul\":10798:10817   */\n              swap1\n              pop\n                /* \"#utility.yul\":10457:10823   */\n              swap2\n              swap1\n              pop\n              jump\t// out\n                /* \"#utility.yul\":10829:11248   */\n            tag_73:\n                /* \"#utility.yul\":10995:10999   */\n              0x00\n                /* \"#utility.yul\":11033:11035   */\n              0x20\n                /* \"#utility.yul\":11022:11031   */\n              dup3\n                /* \"#utility.yul\":11018:11036   */\n              add\n                /* \"#utility.yul\":11010:11036   */\n              swap1\n              pop\n                /* \"#utility.yul\":11082:11091   */\n              dup2\n                /* \"#utility.yul\":11076:11080   */\n              dup2\n                /* \"#utility.yul\":11072:11092   */\n              sub\n                /* \"#utility.yul\":11068:11069   */\n              0x00\n                /* \"#utility.yul\":11057:11066   */\n              dup4\n                /* \"#utility.yul\":11053:11070   */\n              add\n                /* \"#utility.yul\":11046:11093   */\n              mstore\n                /* \"#utility.yul\":11110:11241   */\n              tag_283\n                /* \"#utility.yul\":11236:11240   */\n              dup2\n                /* \"#utility.yul\":11110:11241   */\n              tag_149\n              jump\t// in\n            tag_283:\n                /* \"#utility.yul\":11102:11241   */\n              swap1\n              pop\n                /* \"#utility.yul\":10829:11248   */\n              swap2\n              swap1\n              pop\n              jump\t// out\n                /* \"#utility.yul\":11254:11434   */\n            tag_150:\n                /* \"#utility.yul\":11302:11379   */\n              0x4e487b7100000000000000000000000000000000000000000000000000000000\n                /* \"#utility.yul\":11299:11300   */\n              0x00\n                /* \"#utility.yul\":11292:11380   */\n              mstore\n                /* \"#utility.yul\":11399:11403   */\n              0x22\n                /* \"#utility.yul\":11396:11397   */\n              0x04\n                /* \"#utility.yul\":11389:11404   */\n              mstore\n                /* \"#utility.yul\":11423:11427   */\n              0x24\n                /* \"#utility.yul\":11420:11421   */\n              0x00\n                /* \"#utility.yul\":11413:11428   */\n              revert\n                /* \"#utility.yul\":11440:11760   */\n            tag_80:\n                /* \"#utility.yul\":11484:11490   */\n              0x00\n                /* \"#utility.yul\":11521:11522   */\n              0x02\n                /* \"#utility.yul\":11515:11519   */\n              dup3\n                /* \"#utility.yul\":11511:11523   */\n              div\n                /* \"#utility.yul\":11501:11523   */\n              swap1\n              pop\n                /* \"#utility.yul\":11568:11569   */\n              0x01\n                /* \"#utility.yul\":11562:11566   */\n              dup3\n                /* \"#utility.yul\":11558:11570   */\n              and\n                /* \"#utility.yul\":11589:11607   */\n              dup1\n                /* \"#utility.yul\":11579:11660   */\n              tag_286\n              jumpi\n                /* \"#utility.yul\":11645:11649   */\n              0x7f\n                /* \"#utility.yul\":11637:11643   */\n              dup3\n                /* \"#utility.yul\":11633:11650   */\n              and\n                /* \"#utility.yul\":11623:11650   */\n              swap2\n              pop\n                /* \"#utility.yul\":11579:11660   */\n            tag_286:\n                /* \"#utility.yul\":11707:11709   */\n              0x20\n                /* \"#utility.yul\":11699:11705   */\n              dup3\n                /* \"#utility.yul\":11696:11710   */\n              lt\n                /* \"#utility.yul\":11676:11694   */\n              dup2\n                /* \"#utility.yul\":11673:11711   */\n              sub\n                /* \"#utility.yul\":11670:11754   */\n              tag_287\n              jumpi\n                /* \"#utility.yul\":11726:11744   */\n              tag_288\n              tag_150\n              jump\t// in\n            tag_288:\n                /* \"#utility.yul\":11670:11754   */\n            tag_287:\n                /* \"#utility.yul\":11491:11760   */\n              pop\n                /* \"#utility.yul\":11440:11760   */\n              swap2\n              swap1\n              pop\n              jump\t// out\n                /* \"#utility.yul\":11766:11907   */\n            tag_151:\n                /* \"#utility.yul\":11815:11819   */\n              0x00\n                /* \"#utility.yul\":11838:11841   */\n              dup2\n                /* \"#utility.yul\":11830:11841   */\n              swap1\n              pop\n                /* \"#utility.yul\":11861:11864   */\n              dup2\n                /* \"#utility.yul\":11858:11859   */\n              0x00\n                /* \"#utility.yul\":11851:11865   */\n              mstore\n                /* \"#utility.yul\":11895:11899   */\n              0x20\n                /* \"#utility.yul\":11892:11893   */\n              0x00\n                /* \"#utility.yul\":11882:11900   */\n              keccak256\n                /* \"#utility.yul\":11874:11900   */\n              swap1\n              pop\n                /* \"#utility.yul\":11766:11907   */\n              swap2\n              swap1\n              pop\n              jump\t// out\n                /* \"#utility.yul\":11913:12006   */\n            tag_152:\n                /* \"#utility.yul\":11950:11956   */\n              0x00\n                /* \"#utility.yul\":11997:11999   */\n              0x20\n                /* \"#utility.yul\":11992:11994   */\n              0x1f\n                /* \"#utility.yul\":11985:11990   */\n              dup4\n                /* \"#utility.yul\":11981:11995   */\n              add\n                /* \"#utility.yul\":11977:12000   */\n              div\n                /* \"#utility.yul\":11967:12000   */\n              swap1\n              pop\n                /* \"#utility.yul\":11913:12006   */\n              swap2\n              swap1\n              pop\n              jump\t// out\n                /* \"#utility.yul\":12012:12119   */\n            tag_153:\n                /* \"#utility.yul\":12056:12064   */\n              0x00\n                /* \"#utility.yul\":12106:12111   */\n              dup3\n                /* \"#utility.yul\":12100:12104   */\n              dup3\n                /* \"#utility.yul\":12096:12112   */\n              shl\n                /* \"#utility.yul\":12075:12112   */\n              swap1\n              pop\n                /* \"#utility.yul\":12012:12119   */\n              swap3\n              swap2\n              pop\n              pop\n              jump\t// out\n                /* \"#utility.yul\":12125:12518   */\n            tag_154:\n                /* \"#utility.yul\":12194:12200   */\n              0x00\n                /* \"#utility.yul\":12244:12245   */\n              0x08\n                /* \"#utility.yul\":12232:12242   */\n              dup4\n                /* \"#utility.yul\":12228:12246   */\n              mul\n                /* \"#utility.yul\":12267:12364   */\n              tag_293\n                /* \"#utility.yul\":12297:12363   */\n              0xffffffffffffffffffffffffffffffffffffffffffffffffffffffffffffffff\n                /* \"#utility.yul\":12286:12295   */\n              dup3\n                /* \"#utility.yul\":12267:12364   */\n              tag_153\n              jump\t// in\n            tag_293:\n                /* \"#utility.yul\":12385:12424   */\n              tag_294\n                /* \"#utility.yul\":12415:12423   */\n              dup7\n                /* \"#utility.yul\":12404:12413   */\n              dup4\n                /* \"#utility.yul\":12385:12424   */\n              tag_153\n              jump\t// in\n            tag_294:\n                /* \"#utility.yul\":12373:12424   */\n              swap6\n              pop\n                /* \"#utility.yul\":12457:12461   */\n              dup1\n                /* \"#utility.yul\":12453:12462   */\n              not\n                /* \"#utility.yul\":12446:12451   */\n              dup5\n                /* \"#utility.yul\":12442:12463   */\n              and\n                /* \"#utility.yul\":12433:12463   */\n              swap4\n              pop\n                /* \"#utility.yul\":12506:12510   */\n              dup1\n                /* \"#utility.yul\":12496:12504   */\n              dup7\n                /* \"#utility.yul\":12492:12511   */\n              and\n                /* \"#utility.yul\":12485:12490   */\n              dup5\n                /* \"#utility.yul\":12482:12512   */\n              or\n                /* \"#utility.yul\":12472:12512   */\n              swap3\n              pop\n                /* \"#utility.yul\":12201:12518   */\n              pop\n              pop\n                /* \"#utility.yul\":12125:12518   */\n              swap4\n              swap3\n              pop\n              pop\n              pop\n              jump\t// out\n                /* \"#utility.yul\":12524:12584   */\n            tag_155:\n                /* \"#utility.yul\":12552:12555   */\n              0x00\n                /* \"#utility.yul\":12573:12578   */\n              dup2\n                /* \"#utility.yul\":12566:12578   */\n              swap1\n              pop\n                /* \"#utility.yul\":12524:12584   */\n              swap2\n              swap1\n              pop\n              jump\t// out\n                /* \"#utility.yul\":12590:12732   */\n            tag_156:\n                /* \"#utility.yul\":12640:12649   */\n              0x00\n                /* \"#utility.yul\":12673:12726   */\n              tag_297\n                /* \"#utility.yul\":12691:12725   */\n              tag_298\n                /* \"#utility.yul\":12700:12724   */\n              tag_299\n                /* \"#utility.yul\":12718:12723   */\n              dup5\n                /* \"#utility.yul\":12700:12724   */\n              tag_115\n              jump\t// in\n            tag_299:\n                /* \"#utility.yul\":12691:12725   */\n              tag_155\n              jump\t// in\n            tag_298:\n                /* \"#utility.yul\":12673:12726   */\n              tag_115\n              jump\t// in\n            tag_297:\n                /* \"#utility.yul\":12660:12726   */\n              swap1\n              pop\n                /* \"#utility.yul\":12590:12732   */\n              swap2\n              swap1\n              pop\n              jump\t// out\n                /* \"#utility.yul\":12738:12813   */\n            tag_157:\n                /* \"#utility.yul\":12781:12784   */\n              0x00\n                /* \"#utility.yul\":12802:12807   */\n              dup2\n                /* \"#utility.yul\":12795:12807   */\n              swap1\n              pop\n                /* \"#utility.yul\":12738:12813   */\n              swap2\n              swap1\n              pop\n              jump\t// out\n                /* \"#utility.yul\":12819:13088   */\n            tag_158:\n                /* \"#utility.yul\":12929:12968   */\n              tag_302\n                /* \"#utility.yul\":12960:12967   */\n              dup4\n                /* \"#utility.yul\":12929:12968   */\n              tag_156\n              jump\t// in\n            tag_302:\n                /* \"#utility.yul\":12990:13081   */\n              tag_303\n                /* \"#utility.yul\":13039:13080   */\n              tag_304\n                /* \"#utility.yul\":13063:13079   */\n              dup3\n                /* \"#utility.yul\":13039:13080   */\n              tag_157\n              jump\t// in\n            tag_304:\n                /* \"#utility.yul\":13031:13037   */\n              dup5\n                /* \"#utility.yul\":13024:13028   */\n              dup5\n                /* \"#utility.yul\":13018:13029   */\n              sload\n                /* \"#utility.yul\":12990:13081   */\n              tag_154\n              jump\t// in\n            tag_303:\n                /* \"#utility.yul\":12984:12988   */\n              dup3\n                /* \"#utility.yul\":12977:13082   */\n              sstore\n                /* \"#utility.yul\":12895:13088   */\n              pop\n                /* \"#utility.yul\":12819:13088   */\n              pop\n              pop\n              pop\n              jump\t// out\n                /* \"#utility.yul\":13094:13167   */\n            tag_159:\n                /* \"#utility.yul\":13139:13142   */\n              0x00\n                /* \"#utility.yul\":13094:13167   */\n              swap1\n              jump\t// out\n                /* \"#utility.yul\":13173:13362   */\n            tag_160:\n                /* \"#utility.yul\":13250:13282   */\n              tag_307\n              tag_159\n              jump\t// in\n            tag_307:\n                /* \"#utility.yul\":13291:13356   */\n              tag_308\n                /* \"#utility.yul\":13349:13355   */\n              dup2\n                /* \"#utility.yul\":13341:13347   */\n              dup5\n                /* \"#utility.yul\":13335:13339   */\n              dup5\n                /* \"#utility.yul\":13291:13356   */\n              tag_158\n              jump\t// in\n            tag_308:\n                /* \"#utility.yul\":13226:13362   */\n              pop\n                /* \"#utility.yul\":13173:13362   */\n              pop\n              pop\n              jump\t// out\n                /* \"#utility.yul\":13368:13554   */\n            tag_161:\n                /* \"#utility.yul\":13428:13548   */\n            tag_310:\n                /* \"#utility.yul\":13445:13448   */\n              dup2\n                /* \"#utility.yul\":13438:13443   */\n              dup2\n                /* \"#utility.yul\":13435:13449   */\n              lt\n                /* \"#utility.yul\":13428:13548   */\n              iszero\n              tag_312\n              jumpi\n                /* \"#utility.yul\":13499:13538   */\n              tag_313\n                /* \"#utility.yul\":13536:13537   */\n              0x00\n                /* \"#utility.yul\":13529:13534   */\n              dup3\n                /* \"#utility.yul\":13499:13538   */\n              tag_160\n              jump\t// in\n            tag_313:\n                /* \"#utility.yul\":13472:13473   */\n              0x01\n                /* \"#utility.yul\":13465:13470   */\n              dup2\n                /* \"#utility.yul\":13461:13474   */\n              add\n                /* \"#utility.yul\":13452:13474   */\n              swap1\n              pop\n                /* \"#utility.yul\":13428:13548   */\n              jump(tag_310)\n            tag_312:\n                /* \"#utility.yul\":13368:13554   */\n              pop\n              pop\n              jump\t// out\n                /* \"#utility.yul\":13560:14103   */\n            tag_162:\n                /* \"#utility.yul\":13661:13663   */\n              0x1f\n                /* \"#utility.yul\":13656:13659   */\n              dup3\n                /* \"#utility.yul\":13653:13664   */\n              gt\n                /* \"#utility.yul\":13650:14096   */\n              iszero\n              tag_315\n              jumpi\n                /* \"#utility.yul\":13695:13733   */\n              tag_316\n                /* \"#utility.yul\":13727:13732   */\n              dup2\n                /* \"#utility.yul\":13695:13733   */\n              tag_151\n              jump\t// in\n            tag_316:\n                /* \"#utility.yul\":13779:13808   */\n              tag_317\n                /* \"#utility.yul\":13797:13807   */\n              dup5\n                /* \"#utility.yul\":13779:13808   */\n              tag_152\n              jump\t// in\n            tag_317:\n                /* \"#utility.yul\":13769:13777   */\n              dup2\n                /* \"#utility.yul\":13765:13809   */\n              add\n                /* \"#utility.yul\":13962:13964   */\n              0x20\n                /* \"#utility.yul\":13950:13960   */\n              dup6\n                /* \"#utility.yul\":13947:13965   */\n              lt\n                /* \"#utility.yul\":13944:13993   */\n              iszero\n              tag_318\n              jumpi\n                /* \"#utility.yul\":13983:13991   */\n              dup2\n                /* \"#utility.yul\":13968:13991   */\n              swap1\n              pop\n                /* \"#utility.yul\":13944:13993   */\n            tag_318:\n                /* \"#utility.yul\":14006:14086   */\n              tag_319\n                /* \"#utility.yul\":14062:14084   */\n              tag_320\n                /* \"#utility.yul\":14080:14083   */\n              dup6\n                /* \"#utility.yul\":14062:14084   */\n              tag_152\n              jump\t// in\n            tag_320:\n                /* \"#utility.yul\":14052:14060   */\n              dup4\n                /* \"#utility.yul\":14048:14085   */\n              add\n                /* \"#utility.yul\":14035:14046   */\n              dup3\n                /* \"#utility.yul\":14006:14086   */\n              tag_161\n              jump\t// in\n            tag_319:\n                /* \"#utility.yul\":13665:14096   */\n              pop\n              pop\n                /* \"#utility.yul\":13650:14096   */\n            tag_315:\n                /* \"#utility.yul\":13560:14103   */\n              pop\n              pop\n              pop\n              jump\t// out\n                /* \"#utility.yul\":14109:14226   */\n            tag_163:\n                /* \"#utility.yul\":14163:14171   */\n              0x00\n                /* \"#utility.yul\":14213:14218   */\n              dup3\n                /* \"#utility.yul\":14207:14211   */\n              dup3\n                /* \"#utility.yul\":14203:14219   */\n              shr\n                /* \"#utility.yul\":14182:14219   */\n              swap1\n              pop\n                /* \"#utility.yul\":14109:14226   */\n              swap3\n              swap2\n              pop\n              pop\n              jump\t// out\n                /* \"#utility.yul\":14232:14401   */\n            tag_164:\n                /* \"#utility.yul\":14276:14282   */\n              0x00\n                /* \"#utility.yul\":14309:14360   */\n              tag_323\n                /* \"#utility.yul\":14357:14358   */\n              0x00\n                /* \"#utility.yul\":14353:14359   */\n              not\n                /* \"#utility.yul\":14345:14350   */\n              dup5\n                /* \"#utility.yul\":14342:14343   */\n              0x08\n                /* \"#utility.yul\":14338:14351   */\n              mul\n                /* \"#utility.yul\":14309:14360   */\n              tag_163\n              jump\t// in\n            tag_323:\n                /* \"#utility.yul\":14305:14361   */\n              not\n                /* \"#utility.yul\":14390:14394   */\n              dup1\n                /* \"#utility.yul\":14384:14388   */\n              dup4\n                /* \"#utility.yul\":14380:14395   */\n              and\n                /* \"#utility.yul\":14370:14395   */\n              swap2\n              pop\n                /* \"#utility.yul\":14283:14401   */\n              pop\n                /* \"#utility.yul\":14232:14401   */\n              swap3\n              swap2\n              pop\n              pop\n              jump\t// out\n                /* \"#utility.yul\":14406:14701   */\n            tag_165:\n                /* \"#utility.yul\":14482:14486   */\n              0x00\n                /* \"#utility.yul\":14628:14657   */\n              tag_325\n                /* \"#utility.yul\":14653:14656   */\n              dup4\n                /* \"#utility.yul\":14647:14651   */\n              dup4\n                /* \"#utility.yul\":14628:14657   */\n              tag_164\n              jump\t// in\n            tag_325:\n                /* \"#utility.yul\":14620:14657   */\n              swap2\n              pop\n                /* \"#utility.yul\":14690:14693   */\n              dup3\n                /* \"#utility.yul\":14687:14688   */\n              0x02\n                /* \"#utility.yul\":14683:14694   */\n              mul\n                /* \"#utility.yul\":14677:14681   */\n              dup3\n                /* \"#utility.yul\":14674:14695   */\n              or\n                /* \"#utility.yul\":14666:14695   */\n              swap1\n              pop\n                /* \"#utility.yul\":14406:14701   */\n              swap3\n              swap2\n              pop\n              pop\n              jump\t// out\n                /* \"#utility.yul\":14706:16101   */\n            tag_95:\n                /* \"#utility.yul\":14823:14860   */\n              tag_327\n                /* \"#utility.yul\":14856:14859   */\n              dup3\n                /* \"#utility.yul\":14823:14860   */\n              tag_122\n              jump\t// in\n            tag_327:\n                /* \"#utility.yul\":14925:14943   */\n              0xffffffffffffffff\n                /* \"#utility.yul\":14917:14923   */\n              dup2\n                /* \"#utility.yul\":14914:14944   */\n              gt\n                /* \"#utility.yul\":14911:14967   */\n              iszero\n              tag_328\n              jumpi\n                /* \"#utility.yul\":14947:14965   */\n              tag_329\n              tag_133\n              jump\t// in\n            tag_329:\n                /* \"#utility.yul\":14911:14967   */\n            tag_328:\n                /* \"#utility.yul\":14991:15029   */\n              tag_330\n                /* \"#utility.yul\":15023:15027   */\n              dup3\n                /* \"#utility.yul\":15017:15028   */\n              sload\n                /* \"#utility.yul\":14991:15029   */\n              tag_80\n              jump\t// in\n            tag_330:\n                /* \"#utility.yul\":15076:15143   */\n              tag_331\n                /* \"#utility.yul\":15136:15142   */\n              dup3\n                /* \"#utility.yul\":15128:15134   */\n              dup3\n                /* \"#utility.yul\":15122:15126   */\n              dup6\n                /* \"#utility.yul\":15076:15143   */\n              tag_162\n              jump\t// in\n            tag_331:\n                /* \"#utility.yul\":15170:15171   */\n              0x00\n                /* \"#utility.yul\":15194:15198   */\n              0x20\n                /* \"#utility.yul\":15181:15198   */\n              swap1\n              pop\n                /* \"#utility.yul\":15226:15228   */\n              0x1f\n                /* \"#utility.yul\":15218:15224   */\n              dup4\n                /* \"#utility.yul\":15215:15229   */\n              gt\n                /* \"#utility.yul\":15243:15244   */\n              0x01\n                /* \"#utility.yul\":15238:15856   */\n              dup2\n              eq\n              tag_333\n              jumpi\n                /* \"#utility.yul\":15900:15901   */\n              0x00\n                /* \"#utility.yul\":15917:15923   */\n              dup5\n                /* \"#utility.yul\":15914:15991   */\n              iszero\n              tag_334\n              jumpi\n                /* \"#utility.yul\":15966:15975   */\n              dup3\n                /* \"#utility.yul\":15961:15964   */\n              dup8\n                /* \"#utility.yul\":15957:15976   */\n              add\n                /* \"#utility.yul\":15951:15977   */\n              mload\n                /* \"#utility.yul\":15942:15977   */\n              swap1\n              pop\n                /* \"#utility.yul\":15914:15991   */\n            tag_334:\n                /* \"#utility.yul\":16017:16084   */\n              tag_335\n                /* \"#utility.yul\":16077:16083   */\n              dup6\n                /* \"#utility.yul\":16070:16075   */\n              dup3\n                /* \"#utility.yul\":16017:16084   */\n              tag_165\n              jump\t// in\n            tag_335:\n                /* \"#utility.yul\":16011:16015   */\n              dup7\n                /* \"#utility.yul\":16004:16085   */\n              sstore\n                /* \"#utility.yul\":15873:16095   */\n              pop\n                /* \"#utility.yul\":15208:16095   */\n              jump(tag_332)\n                /* \"#utility.yul\":15238:15856   */\n            tag_333:\n                /* \"#utility.yul\":15290:15294   */\n              0x1f\n                /* \"#utility.yul\":15286:15295   */\n              not\n                /* \"#utility.yul\":15278:15284   */\n              dup5\n                /* \"#utility.yul\":15274:15296   */\n              and\n                /* \"#utility.yul\":15324:15361   */\n              tag_336\n                /* \"#utility.yul\":15356:15360   */\n              dup7\n                /* \"#utility.yul\":15324:15361   */\n              tag_151\n              jump\t// in\n            tag_336:\n                /* \"#utility.yul\":15383:15384   */\n              0x00\n                /* \"#utility.yul\":15397:15605   */\n            tag_337:\n                /* \"#utility.yul\":15411:15418   */\n              dup3\n                /* \"#utility.yul\":15408:15409   */\n              dup2\n                /* \"#utility.yul\":15405:15419   */\n              lt\n                /* \"#utility.yul\":15397:15605   */\n              iszero\n              tag_339\n              jumpi\n                /* \"#utility.yul\":15490:15499   */\n              dup5\n                /* \"#utility.yul\":15485:15488   */\n              dup10\n                /* \"#utility.yul\":15481:15500   */\n              add\n                /* \"#utility.yul\":15475:15501   */\n              mload\n                /* \"#utility.yul\":15467:15473   */\n              dup3\n                /* \"#utility.yul\":15460:15502   */\n              sstore\n                /* \"#utility.yul\":15541:15542   */\n              0x01\n                /* \"#utility.yul\":15533:15539   */\n              dup3\n                /* \"#utility.yul\":15529:15543   */\n              add\n                /* \"#utility.yul\":15519:15543   */\n              swap2\n              pop\n                /* \"#utility.yul\":15588:15590   */\n              0x20\n                /* \"#utility.yul\":15577:15586   */\n              dup6\n                /* \"#utility.yul\":15573:15591   */\n              add\n                /* \"#utility.yul\":15560:15591   */\n              swap5\n              pop\n                /* \"#utility.yul\":15434:15438   */\n              0x20\n                /* \"#utility.yul\":15431:15432   */\n              dup2\n                /* \"#utility.yul\":15427:15439   */\n              add\n                /* \"#utility.yul\":15422:15439   */\n              swap1\n              pop\n                /* \"#utility.yul\":15397:15605   */\n              jump(tag_337)\n            tag_339:\n                /* \"#utility.yul\":15633:15639   */\n              dup7\n                /* \"#utility.yul\":15624:15631   */\n              dup4\n                /* \"#utility.yul\":15621:15640   */\n              lt\n                /* \"#utility.yul\":15618:15797   */\n              iszero\n              tag_340\n              jumpi\n                /* \"#utility.yul\":15691:15700   */\n              dup5\n                /* \"#utility.yul\":15686:15689   */\n              dup10\n                /* \"#utility.yul\":15682:15701   */\n              add\n                /* \"#utility.yul\":15676:15702   */\n              mload\n                /* \"#utility.yul\":15734:15782   */\n              tag_341\n                /* \"#utility.yul\":15776:15780   */\n              0x1f\n                /* \"#utility.yul\":15768:15774   */\n              dup10\n                /* \"#utility.yul\":15764:15781   */\n              and\n                /* \"#utility.yul\":15753:15762   */\n              dup3\n                /* \"#utility.yul\":15734:15782   */\n              tag_164\n              jump\t// in\n            tag_341:\n                /* \"#utility.yul\":15726:15732   */\n              dup4\n                /* \"#utility.yul\":15719:15783   */\n              sstore\n                /* \"#utility.yul\":15641:15797   */\n              pop\n                /* \"#utility.yul\":15618:15797   */\n            tag_340:\n                /* \"#utility.yul\":15843:15844   */\n              0x01\n                /* \"#utility.yul\":15839:15840   */\n              0x02\n                /* \"#utility.yul\":15831:15837   */\n              dup9\n                /* \"#utility.yul\":15827:15841   */\n              mul\n                /* \"#utility.yul\":15823:15845   */\n              add\n                /* \"#utility.yul\":15817:15821   */\n              dup9\n                /* \"#utility.yul\":15810:15846   */\n              sstore\n                /* \"#utility.yul\":15245:15856   */\n              pop\n              pop\n              pop\n                /* \"#utility.yul\":15208:16095   */\n            tag_332:\n              pop\n                /* \"#utility.yul\":14798:16101   */\n              pop\n              pop\n              pop\n                /* \"#utility.yul\":14706:16101   */\n              pop\n              pop\n              jump\t// out\n                /* \"#utility.yul\":16107:16340   */\n            tag_97:\n                /* \"#utility.yul\":16146:16149   */\n              0x00\n                /* \"#utility.yul\":16169:16193   */\n              tag_343\n                /* \"#utility.yul\":16187:16192   */\n              dup3\n                /* \"#utility.yul\":16169:16193   */\n              tag_115\n              jump\t// in\n            tag_343:\n                /* \"#utility.yul\":16160:16193   */\n              swap2\n              pop\n                /* \"#utility.yul\":16215:16281   */\n              0xffffffffffffffffffffffffffffffffffffffffffffffffffffffffffffffff\n                /* \"#utility.yul\":16208:16213   */\n              dup3\n                /* \"#utility.yul\":16205:16282   */\n              sub\n                /* \"#utility.yul\":16202:16305   */\n              tag_344\n              jumpi\n                /* \"#utility.yul\":16285:16303   */\n              tag_345\n              tag_145\n              jump\t// in\n            tag_345:\n                /* \"#utility.yul\":16202:16305   */\n            tag_344:\n                /* \"#utility.yul\":16332:16333   */\n              0x01\n                /* \"#utility.yul\":16325:16330   */\n              dup3\n                /* \"#utility.yul\":16321:16334   */\n              add\n                /* \"#utility.yul\":16314:16334   */\n              swap1\n              pop\n                /* \"#utility.yul\":16107:16340   */\n              swap2\n              swap1\n              pop\n              jump\t// out\n                /* \"#utility.yul\":16346:16522   */\n            tag_166:\n                /* \"#utility.yul\":16486:16514   */\n              0x4f6e6c7920436f6e7472696275746572732063616e20766f7465000000000000\n                /* \"#utility.yul\":16482:16483   */\n              0x00\n                /* \"#utility.yul\":16474:16480   */\n              dup3\n                /* \"#utility.yul\":16470:16484   */\n              add\n                /* \"#utility.yul\":16463:16515   */\n              mstore\n                /* \"#utility.yul\":16346:16522   */\n              pop\n              jump\t// out\n                /* \"#utility.yul\":16528:16894   */\n            tag_167:\n                /* \"#utility.yul\":16670:16673   */\n              0x00\n                /* \"#utility.yul\":16691:16758   */\n              tag_348\n                /* \"#utility.yul\":16755:16757   */\n              0x1a\n                /* \"#utility.yul\":16750:16753   */\n              dup4\n                /* \"#utility.yul\":16691:16758   */\n              tag_123\n              jump\t// in\n            tag_348:\n                /* \"#utility.yul\":16684:16758   */\n              swap2\n              pop\n                /* \"#utility.yul\":16767:16860   */\n              tag_349\n                /* \"#utility.yul\":16856:16859   */\n              dup3\n                /* \"#utility.yul\":16767:16860   */\n              tag_166\n              jump\t// in\n            tag_349:\n                /* \"#utility.yul\":16885:16887   */\n              0x20\n                /* \"#utility.yul\":16880:16883   */\n              dup3\n                /* \"#utility.yul\":16876:16888   */\n              add\n                /* \"#utility.yul\":16869:16888   */\n              swap1\n              pop\n                /* \"#utility.yul\":16528:16894   */\n              swap2\n              swap1\n              pop\n              jump\t// out\n                /* \"#utility.yul\":16900:17319   */\n            tag_104:\n                /* \"#utility.yul\":17066:17070   */\n              0x00\n                /* \"#utility.yul\":17104:17106   */\n              0x20\n                /* \"#utility.yul\":17093:17102   */\n              dup3\n                /* \"#utility.yul\":17089:17107   */\n              add\n                /* \"#utility.yul\":17081:17107   */\n              swap1\n              pop\n                /* \"#utility.yul\":17153:17162   */\n              dup2\n                /* \"#utility.yul\":17147:17151   */\n              dup2\n                /* \"#utility.yul\":17143:17163   */\n              sub\n                /* \"#utility.yul\":17139:17140   */\n              0x00\n                /* \"#utility.yul\":17128:17137   */\n              dup4\n                /* \"#utility.yul\":17124:17141   */\n              add\n                /* \"#utility.yul\":17117:17164   */\n              mstore\n                /* \"#utility.yul\":17181:17312   */\n              tag_351\n                /* \"#utility.yul\":17307:17311   */\n              dup2\n                /* \"#utility.yul\":17181:17312   */\n              tag_167\n              jump\t// in\n            tag_351:\n                /* \"#utility.yul\":17173:17312   */\n              swap1\n              pop\n                /* \"#utility.yul\":16900:17319   */\n              swap2\n              swap1\n              pop\n              jump\t// out\n                /* \"#utility.yul\":17325:17497   */\n            tag_168:\n                /* \"#utility.yul\":17465:17489   */\n              0x596f75206861766520616c726561647920566f74656400000000000000000000\n                /* \"#utility.yul\":17461:17462   */\n              0x00\n                /* \"#utility.yul\":17453:17459   */\n              dup3\n                /* \"#utility.yul\":17449:17463   */\n              add\n                /* \"#utility.yul\":17442:17490   */\n              mstore\n                /* \"#utility.yul\":17325:17497   */\n              pop\n              jump\t// out\n                /* \"#utility.yul\":17503:17869   */\n            tag_169:\n                /* \"#utility.yul\":17645:17648   */\n              0x00\n                /* \"#utility.yul\":17666:17733   */\n              tag_354\n                /* \"#utility.yul\":17730:17732   */\n              0x16\n                /* \"#utility.yul\":17725:17728   */\n              dup4\n                /* \"#utility.yul\":17666:17733   */\n              tag_123\n              jump\t// in\n            tag_354:\n                /* \"#utility.yul\":17659:17733   */\n              swap2\n              pop\n                /* \"#utility.yul\":17742:17835   */\n              tag_355\n                /* \"#utility.yul\":17831:17834   */\n              dup3\n                /* \"#utility.yul\":17742:17835   */\n              tag_168\n              jump\t// in\n            tag_355:\n                /* \"#utility.yul\":17860:17862   */\n              0x20\n                /* \"#utility.yul\":17855:17858   */\n              dup3\n                /* \"#utility.yul\":17851:17863   */\n              add\n                /* \"#utility.yul\":17844:17863   */\n              swap1\n              pop\n                /* \"#utility.yul\":17503:17869   */\n              swap2\n              swap1\n              pop\n              jump\t// out\n                /* \"#utility.yul\":17875:18294   */\n            tag_110:\n                /* \"#utility.yul\":18041:18045   */\n              0x00\n                /* \"#utility.yul\":18079:18081   */\n              0x20\n                /* \"#utility.yul\":18068:18077   */\n              dup3\n                /* \"#utility.yul\":18064:18082   */\n              add\n                /* \"#utility.yul\":18056:18082   */\n              swap1\n              pop\n                /* \"#utility.yul\":18128:18137   */\n              dup2\n                /* \"#utility.yul\":18122:18126   */\n              dup2\n                /* \"#utility.yul\":18118:18138   */\n              sub\n                /* \"#utility.yul\":18114:18115   */\n              0x00\n                /* \"#utility.yul\":18103:18112   */\n              dup4\n                /* \"#utility.yul\":18099:18116   */\n              add\n                /* \"#utility.yul\":18092:18139   */\n              mstore\n                /* \"#utility.yul\":18156:18287   */\n              tag_357\n                /* \"#utility.yul\":18282:18286   */\n              dup2\n                /* \"#utility.yul\":18156:18287   */\n              tag_169\n              jump\t// in\n            tag_357:\n                /* \"#utility.yul\":18148:18287   */\n              swap1\n              pop\n                /* \"#utility.yul\":17875:18294   */\n              swap2\n              swap1\n              pop\n              jump\t// out\n\n            auxdata: 0xa26469706673582212205641325b432bf6b0e6355a405c966020afedfc407501050b7231b89286c73ea964736f6c63430008140033\n        }\n    }\n\n    auxdata: 0xa2646970667358221220d06f1288e62ec3706af672ed78f5ccb863a68024ccf552ba87235954078f195664736f6c63430008140033\n}\n","bytecode":{"linkReferences":{},"object":"608060405234801561000f575f80fd5b506117e68061001d5f395ff3fe608060405234801561000f575f80fd5b5060043610610034575f3560e01c806366661cc514610038578063a6b0363314610054575b5f80fd5b610052600480360381019061004d91906101d9565b610072565b005b61005c61010b565b60405161006991906102eb565b60405180910390f35b5f813360405161008190610195565b61008c929190610329565b604051809103905ff0801580156100a5573d5f803e3d5ffd5b5090505f81908060018154018082558091505060019003905f5260205f20015f9091909190916101000a81548173ffffffffffffffffffffffffffffffffffffffff021916908373ffffffffffffffffffffffffffffffffffffffff1602179055505050565b60605f80548060200260200160405190810160405280929190818152602001828054801561018b57602002820191905f5260205f20905b815f9054906101000a900473ffffffffffffffffffffffffffffffffffffffff1673ffffffffffffffffffffffffffffffffffffffff1681526020019060010190808311610142575b5050505050905090565b6114608061035183390190565b5f80fd5b5f819050919050565b6101b8816101a6565b81146101c2575f80fd5b50565b5f813590506101d3816101af565b92915050565b5f602082840312156101ee576101ed6101a2565b5b5f6101fb848285016101c5565b91505092915050565b5f81519050919050565b5f82825260208201905092915050565b5f819050602082019050919050565b5f73ffffffffffffffffffffffffffffffffffffffff82169050919050565b5f6102568261022d565b9050919050565b6102668161024c565b82525050565b5f610277838361025d565b60208301905092915050565b5f602082019050919050565b5f61029982610204565b6102a3818561020e565b93506102ae8361021e565b805f5b838110156102de5781516102c5888261026c565b97506102d083610283565b9250506001810190506102b1565b5085935050505092915050565b5f6020820190508181035f830152610303818461028f565b905092915050565b610314816101a6565b82525050565b6103238161024c565b82525050565b5f60408201905061033c5f83018561030b565b610349602083018461031a565b939250505056fe60806040525f6002555f60045534801562000018575f80fd5b50604051620014603803806200146083398181016040528101906200003e919062000129565b805f806101000a81548173ffffffffffffffffffffffffffffffffffffffff021916908373ffffffffffffffffffffffffffffffffffffffff1602179055508160018190555050506200016e565b5f80fd5b5f819050919050565b620000a48162000090565b8114620000af575f80fd5b50565b5f81519050620000c28162000099565b92915050565b5f73ffffffffffffffffffffffffffffffffffffffff82169050919050565b5f620000f382620000c8565b9050919050565b6200010581620000e7565b811462000110575f80fd5b50565b5f815190506200012381620000fa565b92915050565b5f80604083850312156200014257620001416200008c565b5b5f6200015185828601620000b2565b9250506020620001648582860162000113565b9150509250929050565b6112e4806200017c5f395ff3fe608060405260043610610090575f3560e01c8063921a5b5f11610058578063921a5b5f1461018057806392d0d153146101a8578063937e09b1146101d2578063d7bb99ba146101fc578063d7d1bbdb1461020657610090565b806303441006146100945780633410452a146100b0578063481c6a75146100da57806381d12c58146101045780638ec266f814610144575b5f80fd5b6100ae60048036038101906100a9919061090a565b61022e565b005b3480156100bb575f80fd5b506100c461040e565b6040516100d19190610944565b60405180910390f35b3480156100e5575f80fd5b506100ee610417565b6040516100fb919061099c565b60405180910390f35b34801561010f575f80fd5b5061012a6004803603810190610125919061090a565b61043a565b60405161013b959493929190610a79565b60405180910390f35b34801561014f575f80fd5b5061016a6004803603810190610165919061090a565b61052c565b6040516101779190610944565b60405180910390f35b34801561018b575f80fd5b506101a660048036038101906101a19190610c27565b61055d565b005b3480156101b3575f80fd5b506101bc6106a8565b6040516101c9919061099c565b60405180910390f35b3480156101dd575f80fd5b506101e66106af565b6040516101f39190610944565b60405180910390f35b6102046106b5565b005b348015610211575f80fd5b5061022c6004803603810190610227919061090a565b610719565b005b5f8054906101000a900473ffffffffffffffffffffffffffffffffffffffff1673ffffffffffffffffffffffffffffffffffffffff163373ffffffffffffffffffffffffffffffffffffffff16146102bb576040517f08c379a00000000000000000000000000000000000000000000000000000000081526004016102b290610d03565b60405180910390fd5b5f600582815481106102d0576102cf610d21565b5b905f5260205f209060060201905060026004546102ed9190610da8565b816004015411610332576040517f08c379a000000000000000000000000000000000000000000000000000000000815260040161032990610e22565b60405180910390fd5b806003015f9054906101000a900460ff1615610383576040517f08c379a000000000000000000000000000000000000000000000000000000000815260040161037a90610eb0565b60405180910390fd5b806001015f9054906101000a900473ffffffffffffffffffffffffffffffffffffffff1673ffffffffffffffffffffffffffffffffffffffff166108fc826002015490811502906040515f60405180830381858888f193505050501580156103ed573d5f803e3d5ffd5b506001816003015f6101000a81548160ff0219169083151502179055505050565b5f600254905090565b5f8054906101000a900473ffffffffffffffffffffffffffffffffffffffff1681565b60058181548110610449575f80fd5b905f5260205f2090600602015f91509050805f01805461046890610efb565b80601f016020809104026020016040519081016040528092919081815260200182805461049490610efb565b80156104df5780601f106104b6576101008083540402835291602001916104df565b820191905f5260205f20905b8154815290600101906020018083116104c257829003601f168201915b505050505090806001015f9054906101000a900473ffffffffffffffffffffffffffffffffffffffff1690806002015490806003015f9054906101000a900460ff16908060040154905085565b5f806005838154811061054257610541610d21565b5b905f5260205f20906006020190508060040154915050919050565b5f8054906101000a900473ffffffffffffffffffffffffffffffffffffffff1673ffffffffffffffffffffffffffffffffffffffff163373ffffffffffffffffffffffffffffffffffffffff16146105ea576040517f08c379a00000000000000000000000000000000000000000000000000000000081526004016105e190610d03565b60405180910390fd5b5f600560018160018154018082558091505003905f5260205f209060060201905082815f01908161061b91906110c8565b5083816002018190555081816001015f6101000a81548173ffffffffffffffffffffffffffffffffffffffff021916908373ffffffffffffffffffffffffffffffffffffffff1602179055505f816003015f6101000a81548160ff0219169083151502179055505f816004018190555060025f81548092919061069d90611197565b919050555050505050565b5f33905090565b60015481565b6001543410156106c3575f80fd5b5f60035f3373ffffffffffffffffffffffffffffffffffffffff1673ffffffffffffffffffffffffffffffffffffffff1681526020019081526020015f205f6101000a81548160ff021916908315150217905550565b60035f3373ffffffffffffffffffffffffffffffffffffffff1673ffffffffffffffffffffffffffffffffffffffff1681526020019081526020015f205f9054906101000a900460ff16156107a3576040517f08c379a000000000000000000000000000000000000000000000000000000000815260040161079a90611228565b60405180910390fd5b5f600582815481106107b8576107b7610d21565b5b905f5260205f2090600602019050806005015f3373ffffffffffffffffffffffffffffffffffffffff1673ffffffffffffffffffffffffffffffffffffffff1681526020019081526020015f205f9054906101000a900460ff1615610852576040517f08c379a000000000000000000000000000000000000000000000000000000000815260040161084990611290565b60405180910390fd5b6001816005015f3373ffffffffffffffffffffffffffffffffffffffff1673ffffffffffffffffffffffffffffffffffffffff1681526020019081526020015f205f6101000a81548160ff021916908315150217905550806004015f8154809291906108bd90611197565b91905055505050565b5f604051905090565b5f80fd5b5f80fd5b5f819050919050565b6108e9816108d7565b81146108f3575f80fd5b50565b5f81359050610904816108e0565b92915050565b5f6020828403121561091f5761091e6108cf565b5b5f61092c848285016108f6565b91505092915050565b61093e816108d7565b82525050565b5f6020820190506109575f830184610935565b92915050565b5f73ffffffffffffffffffffffffffffffffffffffff82169050919050565b5f6109868261095d565b9050919050565b6109968161097c565b82525050565b5f6020820190506109af5f83018461098d565b92915050565b5f81519050919050565b5f82825260208201905092915050565b5f5b838110156109ec5780820151818401526020810190506109d1565b5f8484015250505050565b5f601f19601f8301169050919050565b5f610a11826109b5565b610a1b81856109bf565b9350610a2b8185602086016109cf565b610a34816109f7565b840191505092915050565b5f610a498261095d565b9050919050565b610a5981610a3f565b82525050565b5f8115159050919050565b610a7381610a5f565b82525050565b5f60a0820190508181035f830152610a918188610a07565b9050610aa06020830187610a50565b610aad6040830186610935565b610aba6060830185610a6a565b610ac76080830184610935565b9695505050505050565b5f80fd5b5f80fd5b7f4e487b71000000000000000000000000000000000000000000000000000000005f52604160045260245ffd5b610b0f826109f7565b810181811067ffffffffffffffff82111715610b2e57610b2d610ad9565b5b80604052505050565b5f610b406108c6565b9050610b4c8282610b06565b919050565b5f67ffffffffffffffff821115610b6b57610b6a610ad9565b5b610b74826109f7565b9050602081019050919050565b828183375f83830152505050565b5f610ba1610b9c84610b51565b610b37565b905082815260208101848484011115610bbd57610bbc610ad5565b5b610bc8848285610b81565b509392505050565b5f82601f830112610be457610be3610ad1565b5b8135610bf4848260208601610b8f565b91505092915050565b610c0681610a3f565b8114610c10575f80fd5b50565b5f81359050610c2181610bfd565b92915050565b5f805f60608486031215610c3e57610c3d6108cf565b5b5f610c4b868287016108f6565b935050602084013567ffffffffffffffff811115610c6c57610c6b6108d3565b5b610c7886828701610bd0565b9250506040610c8986828701610c13565b9150509250925092565b7f4f6e6c79206d616e616765722063616e2061636365737320746869732066756e5f8201527f6374696f6e730000000000000000000000000000000000000000000000000000602082015250565b5f610ced6026836109bf565b9150610cf882610c93565b604082019050919050565b5f6020820190508181035f830152610d1a81610ce1565b9050919050565b7f4e487b71000000000000000000000000000000000000000000000000000000005f52603260045260245ffd5b7f4e487b71000000000000000000000000000000000000000000000000000000005f52601260045260245ffd5b7f4e487b71000000000000000000000000000000000000000000000000000000005f52601160045260245ffd5b5f610db2826108d7565b9150610dbd836108d7565b925082610dcd57610dcc610d4e565b5b828204905092915050565b7f52657175657374206e65656473206d6f726520617070726f76616c73000000005f82015250565b5f610e0c601c836109bf565b9150610e1782610dd8565b602082019050919050565b5f6020820190508181035f830152610e3981610e00565b9050919050565b7f5265717565737420686173206265656e20616c726561647920617070726f76655f8201527f6400000000000000000000000000000000000000000000000000000000000000602082015250565b5f610e9a6021836109bf565b9150610ea582610e40565b604082019050919050565b5f6020820190508181035f830152610ec781610e8e565b9050919050565b7f4e487b71000000000000000000000000000000000000000000000000000000005f52602260045260245ffd5b5f6002820490506001821680610f1257607f821691505b602082108103610f2557610f24610ece565b5b50919050565b5f819050815f5260205f209050919050565b5f6020601f8301049050919050565b5f82821b905092915050565b5f60088302610f877fffffffffffffffffffffffffffffffffffffffffffffffffffffffffffffffff82610f4c565b610f918683610f4c565b95508019841693508086168417925050509392505050565b5f819050919050565b5f610fcc610fc7610fc2846108d7565b610fa9565b6108d7565b9050919050565b5f819050919050565b610fe583610fb2565b610ff9610ff182610fd3565b848454610f58565b825550505050565b5f90565b61100d611001565b611018818484610fdc565b505050565b5b8181101561103b576110305f82611005565b60018101905061101e565b5050565b601f8211156110805761105181610f2b565b61105a84610f3d565b81016020851015611069578190505b61107d61107585610f3d565b83018261101d565b50505b505050565b5f82821c905092915050565b5f6110a05f1984600802611085565b1980831691505092915050565b5f6110b88383611091565b9150826002028217905092915050565b6110d1826109b5565b67ffffffffffffffff8111156110ea576110e9610ad9565b5b6110f48254610efb565b6110ff82828561103f565b5f60209050601f831160018114611130575f841561111e578287015190505b61112885826110ad565b86555061118f565b601f19841661113e86610f2b565b5f5b8281101561116557848901518255600182019150602085019450602081019050611140565b86831015611182578489015161117e601f891682611091565b8355505b6001600288020188555050505b505050505050565b5f6111a1826108d7565b91507fffffffffffffffffffffffffffffffffffffffffffffffffffffffffffffffff82036111d3576111d2610d7b565b5b600182019050919050565b7f4f6e6c7920436f6e7472696275746572732063616e20766f74650000000000005f82015250565b5f611212601a836109bf565b915061121d826111de565b602082019050919050565b5f6020820190508181035f83015261123f81611206565b9050919050565b7f596f75206861766520616c726561647920566f746564000000000000000000005f82015250565b5f61127a6016836109bf565b915061128582611246565b602082019050919050565b5f6020820190508181035f8301526112a78161126e565b905091905056fea26469706673582212205641325b432bf6b0e6355a405c966020afedfc407501050b7231b89286c73ea964736f6c63430008140033a2646970667358221220d06f1288e62ec3706af672ed78f5ccb863a68024ccf552ba87235954078f195664736f6c63430008140033","opcodes":"PUSH1 0x80 PUSH1 0x40 MSTORE CALLVALUE DUP1 ISZERO PUSH2 0xF JUMPI PUSH0 DUP1 REVERT JUMPDEST POP PUSH2 0x17E6 DUP1 PUSH2 0x1D PUSH0 CODECOPY PUSH0 RETURN INVALID PUSH1 0x80 PUSH1 0x40 MSTORE CALLVALUE DUP1 ISZERO PUSH2 0xF JUMPI PUSH0 DUP1 REVERT JUMPDEST POP PUSH1 0x4 CALLDATASIZE LT PUSH2 0x34 JUMPI PUSH0 CALLDATALOAD PUSH1 0xE0 SHR DUP1 PUSH4 0x66661CC5 EQ PUSH2 0x38 JUMPI DUP1 PUSH4 0xA6B03633 EQ PUSH2 0x54 JUMPI JUMPDEST PUSH0 DUP1 REVERT JUMPDEST PUSH2 0x52 PUSH1 0x4 DUP1 CALLDATASIZE SUB DUP2 ADD SWAP1 PUSH2 0x4D SWAP2 SWAP1 PUSH2 0x1D9 JUMP JUMPDEST PUSH2 0x72 JUMP JUMPDEST STOP JUMPDEST PUSH2 0x5C PUSH2 0x10B JUMP JUMPDEST PUSH1 0x40 MLOAD PUSH2 0x69 SWAP2 SWAP1 PUSH2 0x2EB JUMP JUMPDEST PUSH1 0x40 MLOAD DUP1 SWAP2 SUB SWAP1 RETURN JUMPDEST PUSH0 DUP2 CALLER PUSH1 0x40 MLOAD PUSH2 0x81 SWAP1 PUSH2 0x195 JUMP JUMPDEST PUSH2 0x8C SWAP3 SWAP2 SWAP1 PUSH2 0x329 JUMP JUMPDEST PUSH1 0x40 MLOAD DUP1 SWAP2 SUB SWAP1 PUSH0 CREATE DUP1 ISZERO DUP1 ISZERO PUSH2 0xA5 JUMPI RETURNDATASIZE PUSH0 DUP1 RETURNDATACOPY RETURNDATASIZE PUSH0 REVERT JUMPDEST POP SWAP1 POP PUSH0 DUP2 SWAP1 DUP1 PUSH1 0x1 DUP2 SLOAD ADD DUP1 DUP3 SSTORE DUP1 SWAP2 POP POP PUSH1 0x1 SWAP1 SUB SWAP1 PUSH0 MSTORE PUSH1 0x20 PUSH0 KECCAK256 ADD PUSH0 SWAP1 SWAP2 SWAP1 SWAP2 SWAP1 SWAP2 PUSH2 0x100 EXP DUP2 SLOAD DUP2 PUSH20 0xFFFFFFFFFFFFFFFFFFFFFFFFFFFFFFFFFFFFFFFF MUL NOT AND SWAP1 DUP4 PUSH20 0xFFFFFFFFFFFFFFFFFFFFFFFFFFFFFFFFFFFFFFFF AND MUL OR SWAP1 SSTORE POP POP POP JUMP JUMPDEST PUSH1 0x60 PUSH0 DUP1 SLOAD DUP1 PUSH1 0x20 MUL PUSH1 0x20 ADD PUSH1 0x40 MLOAD SWAP1 DUP2 ADD PUSH1 0x40 MSTORE DUP1 SWAP3 SWAP2 SWAP1 DUP2 DUP2 MSTORE PUSH1 0x20 ADD DUP3 DUP1 SLOAD DUP1 ISZERO PUSH2 0x18B JUMPI PUSH1 0x20 MUL DUP3 ADD SWAP2 SWAP1 PUSH0 MSTORE PUSH1 0x20 PUSH0 KECCAK256 SWAP1 JUMPDEST DUP2 PUSH0 SWAP1 SLOAD SWAP1 PUSH2 0x100 EXP SWAP1 DIV PUSH20 0xFFFFFFFFFFFFFFFFFFFFFFFFFFFFFFFFFFFFFFFF AND PUSH20 0xFFFFFFFFFFFFFFFFFFFFFFFFFFFFFFFFFFFFFFFF AND DUP2 MSTORE PUSH1 0x20 ADD SWAP1 PUSH1 0x1 ADD SWAP1 DUP1 DUP4 GT PUSH2 0x142 JUMPI JUMPDEST POP POP POP POP POP SWAP1 POP SWAP1 JUMP JUMPDEST PUSH2 0x1460 DUP1 PUSH2 0x351 DUP4 CODECOPY ADD SWAP1 JUMP JUMPDEST PUSH0 DUP1 REVERT JUMPDEST PUSH0 DUP2 SWAP1 POP SWAP2 SWAP1 POP JUMP JUMPDEST PUSH2 0x1B8 DUP2 PUSH2 0x1A6 JUMP JUMPDEST DUP2 EQ PUSH2 0x1C2 JUMPI PUSH0 DUP1 REVERT JUMPDEST POP JUMP JUMPDEST PUSH0 DUP2 CALLDATALOAD SWAP1 POP PUSH2 0x1D3 DUP2 PUSH2 0x1AF JUMP JUMPDEST SWAP3 SWAP2 POP POP JUMP JUMPDEST PUSH0 PUSH1 0x20 DUP3 DUP5 SUB SLT ISZERO PUSH2 0x1EE JUMPI PUSH2 0x1ED PUSH2 0x1A2 JUMP JUMPDEST JUMPDEST PUSH0 PUSH2 0x1FB DUP5 DUP3 DUP6 ADD PUSH2 0x1C5 JUMP JUMPDEST SWAP2 POP POP SWAP3 SWAP2 POP POP JUMP JUMPDEST PUSH0 DUP2 MLOAD SWAP1 POP SWAP2 SWAP1 POP JUMP JUMPDEST PUSH0 DUP3 DUP3 MSTORE PUSH1 0x20 DUP3 ADD SWAP1 POP SWAP3 SWAP2 POP POP JUMP JUMPDEST PUSH0 DUP2 SWAP1 POP PUSH1 0x20 DUP3 ADD SWAP1 POP SWAP2 SWAP1 POP JUMP JUMPDEST PUSH0 PUSH20 0xFFFFFFFFFFFFFFFFFFFFFFFFFFFFFFFFFFFFFFFF DUP3 AND SWAP1 POP SWAP2 SWAP1 POP JUMP JUMPDEST PUSH0 PUSH2 0x256 DUP3 PUSH2 0x22D JUMP JUMPDEST SWAP1 POP SWAP2 SWAP1 POP JUMP JUMPDEST PUSH2 0x266 DUP2 PUSH2 0x24C JUMP JUMPDEST DUP3 MSTORE POP POP JUMP JUMPDEST PUSH0 PUSH2 0x277 DUP4 DUP4 PUSH2 0x25D JUMP JUMPDEST PUSH1 0x20 DUP4 ADD SWAP1 POP SWAP3 SWAP2 POP POP JUMP JUMPDEST PUSH0 PUSH1 0x20 DUP3 ADD SWAP1 POP SWAP2 SWAP1 POP JUMP JUMPDEST PUSH0 PUSH2 0x299 DUP3 PUSH2 0x204 JUMP JUMPDEST PUSH2 0x2A3 DUP2 DUP6 PUSH2 0x20E JUMP JUMPDEST SWAP4 POP PUSH2 0x2AE DUP4 PUSH2 0x21E JUMP JUMPDEST DUP1 PUSH0 JUMPDEST DUP4 DUP2 LT ISZERO PUSH2 0x2DE JUMPI DUP2 MLOAD PUSH2 0x2C5 DUP9 DUP3 PUSH2 0x26C JUMP JUMPDEST SWAP8 POP PUSH2 0x2D0 DUP4 PUSH2 0x283 JUMP JUMPDEST SWAP3 POP POP PUSH1 0x1 DUP2 ADD SWAP1 POP PUSH2 0x2B1 JUMP JUMPDEST POP DUP6 SWAP4 POP POP POP POP SWAP3 SWAP2 POP POP JUMP JUMPDEST PUSH0 PUSH1 0x20 DUP3 ADD SWAP1 POP DUP2 DUP2 SUB PUSH0 DUP4 ADD MSTORE PUSH2 0x303 DUP2 DUP5 PUSH2 0x28F JUMP JUMPDEST SWAP1 POP SWAP3 SWAP2 POP POP JUMP JUMPDEST PUSH2 0x314 DUP2 PUSH2 0x1A6 JUMP JUMPDEST DUP3 MSTORE POP POP JUMP JUMPDEST PUSH2 0x323 DUP2 PUSH2 0x24C JUMP JUMPDEST DUP3 MSTORE POP POP JUMP JUMPDEST PUSH0 PUSH1 0x40 DUP3 ADD SWAP1 POP PUSH2 0x33C PUSH0 DUP4 ADD DUP6 PUSH2 0x30B JUMP JUMPDEST PUSH2 0x349 PUSH1 0x20 DUP4 ADD DUP5 PUSH2 0x31A JUMP JUMPDEST SWAP4 SWAP3 POP POP POP JUMP INVALID PUSH1 0x80 PUSH1 0x40 MSTORE PUSH0 PUSH1 0x2 SSTORE PUSH0 PUSH1 0x4 SSTORE CALLVALUE DUP1 ISZERO PUSH3 0x18 JUMPI PUSH0 DUP1 REVERT JUMPDEST POP PUSH1 0x40 MLOAD PUSH3 0x1460 CODESIZE SUB DUP1 PUSH3 0x1460 DUP4 CODECOPY DUP2 DUP2 ADD PUSH1 0x40 MSTORE DUP2 ADD SWAP1 PUSH3 0x3E SWAP2 SWAP1 PUSH3 0x129 JUMP JUMPDEST DUP1 PUSH0 DUP1 PUSH2 0x100 EXP DUP2 SLOAD DUP2 PUSH20 0xFFFFFFFFFFFFFFFFFFFFFFFFFFFFFFFFFFFFFFFF MUL NOT AND SWAP1 DUP4 PUSH20 0xFFFFFFFFFFFFFFFFFFFFFFFFFFFFFFFFFFFFFFFF AND MUL OR SWAP1 SSTORE POP DUP2 PUSH1 0x1 DUP2 SWAP1 SSTORE POP POP POP PUSH3 0x16E JUMP JUMPDEST PUSH0 DUP1 REVERT JUMPDEST PUSH0 DUP2 SWAP1 POP SWAP2 SWAP1 POP JUMP JUMPDEST PUSH3 0xA4 DUP2 PUSH3 0x90 JUMP JUMPDEST DUP2 EQ PUSH3 0xAF JUMPI PUSH0 DUP1 REVERT JUMPDEST POP JUMP JUMPDEST PUSH0 DUP2 MLOAD SWAP1 POP PUSH3 0xC2 DUP2 PUSH3 0x99 JUMP JUMPDEST SWAP3 SWAP2 POP POP JUMP JUMPDEST PUSH0 PUSH20 0xFFFFFFFFFFFFFFFFFFFFFFFFFFFFFFFFFFFFFFFF DUP3 AND SWAP1 POP SWAP2 SWAP1 POP JUMP JUMPDEST PUSH0 PUSH3 0xF3 DUP3 PUSH3 0xC8 JUMP JUMPDEST SWAP1 POP SWAP2 SWAP1 POP JUMP JUMPDEST PUSH3 0x105 DUP2 PUSH3 0xE7 JUMP JUMPDEST DUP2 EQ PUSH3 0x110 JUMPI PUSH0 DUP1 REVERT JUMPDEST POP JUMP JUMPDEST PUSH0 DUP2 MLOAD SWAP1 POP PUSH3 0x123 DUP2 PUSH3 0xFA JUMP JUMPDEST SWAP3 SWAP2 POP POP JUMP JUMPDEST PUSH0 DUP1 PUSH1 0x40 DUP4 DUP6 SUB SLT ISZERO PUSH3 0x142 JUMPI PUSH3 0x141 PUSH3 0x8C JUMP JUMPDEST JUMPDEST PUSH0 PUSH3 0x151 DUP6 DUP3 DUP7 ADD PUSH3 0xB2 JUMP JUMPDEST SWAP3 POP POP PUSH1 0x20 PUSH3 0x164 DUP6 DUP3 DUP7 ADD PUSH3 0x113 JUMP JUMPDEST SWAP2 POP POP SWAP3 POP SWAP3 SWAP1 POP JUMP JUMPDEST PUSH2 0x12E4 DUP1 PUSH3 0x17C PUSH0 CODECOPY PUSH0 RETURN INVALID PUSH1 0x80 PUSH1 0x40 MSTORE PUSH1 0x4 CALLDATASIZE LT PUSH2 0x90 JUMPI PUSH0 CALLDATALOAD PUSH1 0xE0 SHR DUP1 PUSH4 0x921A5B5F GT PUSH2 0x58 JUMPI DUP1 PUSH4 0x921A5B5F EQ PUSH2 0x180 JUMPI DUP1 PUSH4 0x92D0D153 EQ PUSH2 0x1A8 JUMPI DUP1 PUSH4 0x937E09B1 EQ PUSH2 0x1D2 JUMPI DUP1 PUSH4 0xD7BB99BA EQ PUSH2 0x1FC JUMPI DUP1 PUSH4 0xD7D1BBDB EQ PUSH2 0x206 JUMPI PUSH2 0x90 JUMP JUMPDEST DUP1 PUSH4 0x3441006 EQ PUSH2 0x94 JUMPI DUP1 PUSH4 0x3410452A EQ PUSH2 0xB0 JUMPI DUP1 PUSH4 0x481C6A75 EQ PUSH2 0xDA JUMPI DUP1 PUSH4 0x81D12C58 EQ PUSH2 0x104 JUMPI DUP1 PUSH4 0x8EC266F8 EQ PUSH2 0x144 JUMPI JUMPDEST PUSH0 DUP1 REVERT JUMPDEST PUSH2 0xAE PUSH1 0x4 DUP1 CALLDATASIZE SUB DUP2 ADD SWAP1 PUSH2 0xA9 SWAP2 SWAP1 PUSH2 0x90A JUMP JUMPDEST PUSH2 0x22E JUMP JUMPDEST STOP JUMPDEST CALLVALUE DUP1 ISZERO PUSH2 0xBB JUMPI PUSH0 DUP1 REVERT JUMPDEST POP PUSH2 0xC4 PUSH2 0x40E JUMP JUMPDEST PUSH1 0x40 MLOAD PUSH2 0xD1 SWAP2 SWAP1 PUSH2 0x944 JUMP JUMPDEST PUSH1 0x40 MLOAD DUP1 SWAP2 SUB SWAP1 RETURN JUMPDEST CALLVALUE DUP1 ISZERO PUSH2 0xE5 JUMPI PUSH0 DUP1 REVERT JUMPDEST POP PUSH2 0xEE PUSH2 0x417 JUMP JUMPDEST PUSH1 0x40 MLOAD PUSH2 0xFB SWAP2 SWAP1 PUSH2 0x99C JUMP JUMPDEST PUSH1 0x40 MLOAD DUP1 SWAP2 SUB SWAP1 RETURN JUMPDEST CALLVALUE DUP1 ISZERO PUSH2 0x10F JUMPI PUSH0 DUP1 REVERT JUMPDEST POP PUSH2 0x12A PUSH1 0x4 DUP1 CALLDATASIZE SUB DUP2 ADD SWAP1 PUSH2 0x125 SWAP2 SWAP1 PUSH2 0x90A JUMP JUMPDEST PUSH2 0x43A JUMP JUMPDEST PUSH1 0x40 MLOAD PUSH2 0x13B SWAP6 SWAP5 SWAP4 SWAP3 SWAP2 SWAP1 PUSH2 0xA79 JUMP JUMPDEST PUSH1 0x40 MLOAD DUP1 SWAP2 SUB SWAP1 RETURN JUMPDEST CALLVALUE DUP1 ISZERO PUSH2 0x14F JUMPI PUSH0 DUP1 REVERT JUMPDEST POP PUSH2 0x16A PUSH1 0x4 DUP1 CALLDATASIZE SUB DUP2 ADD SWAP1 PUSH2 0x165 SWAP2 SWAP1 PUSH2 0x90A JUMP JUMPDEST PUSH2 0x52C JUMP JUMPDEST PUSH1 0x40 MLOAD PUSH2 0x177 SWAP2 SWAP1 PUSH2 0x944 JUMP JUMPDEST PUSH1 0x40 MLOAD DUP1 SWAP2 SUB SWAP1 RETURN JUMPDEST CALLVALUE DUP1 ISZERO PUSH2 0x18B JUMPI PUSH0 DUP1 REVERT JUMPDEST POP PUSH2 0x1A6 PUSH1 0x4 DUP1 CALLDATASIZE SUB DUP2 ADD SWAP1 PUSH2 0x1A1 SWAP2 SWAP1 PUSH2 0xC27 JUMP JUMPDEST PUSH2 0x55D JUMP JUMPDEST STOP JUMPDEST CALLVALUE DUP1 ISZERO PUSH2 0x1B3 JUMPI PUSH0 DUP1 REVERT JUMPDEST POP PUSH2 0x1BC PUSH2 0x6A8 JUMP JUMPDEST PUSH1 0x40 MLOAD PUSH2 0x1C9 SWAP2 SWAP1 PUSH2 0x99C JUMP JUMPDEST PUSH1 0x40 MLOAD DUP1 SWAP2 SUB SWAP1 RETURN JUMPDEST CALLVALUE DUP1 ISZERO PUSH2 0x1DD JUMPI PUSH0 DUP1 REVERT JUMPDEST POP PUSH2 0x1E6 PUSH2 0x6AF JUMP JUMPDEST PUSH1 0x40 MLOAD PUSH2 0x1F3 SWAP2 SWAP1 PUSH2 0x944 JUMP JUMPDEST PUSH1 0x40 MLOAD DUP1 SWAP2 SUB SWAP1 RETURN JUMPDEST PUSH2 0x204 PUSH2 0x6B5 JUMP JUMPDEST STOP JUMPDEST CALLVALUE DUP1 ISZERO PUSH2 0x211 JUMPI PUSH0 DUP1 REVERT JUMPDEST POP PUSH2 0x22C PUSH1 0x4 DUP1 CALLDATASIZE SUB DUP2 ADD SWAP1 PUSH2 0x227 SWAP2 SWAP1 PUSH2 0x90A JUMP JUMPDEST PUSH2 0x719 JUMP JUMPDEST STOP JUMPDEST PUSH0 DUP1 SLOAD SWAP1 PUSH2 0x100 EXP SWAP1 DIV PUSH20 0xFFFFFFFFFFFFFFFFFFFFFFFFFFFFFFFFFFFFFFFF AND PUSH20 0xFFFFFFFFFFFFFFFFFFFFFFFFFFFFFFFFFFFFFFFF AND CALLER PUSH20 0xFFFFFFFFFFFFFFFFFFFFFFFFFFFFFFFFFFFFFFFF AND EQ PUSH2 0x2BB JUMPI PUSH1 0x40 MLOAD PUSH32 0x8C379A000000000000000000000000000000000000000000000000000000000 DUP2 MSTORE PUSH1 0x4 ADD PUSH2 0x2B2 SWAP1 PUSH2 0xD03 JUMP JUMPDEST PUSH1 0x40 MLOAD DUP1 SWAP2 SUB SWAP1 REVERT JUMPDEST PUSH0 PUSH1 0x5 DUP3 DUP2 SLOAD DUP2 LT PUSH2 0x2D0 JUMPI PUSH2 0x2CF PUSH2 0xD21 JUMP JUMPDEST JUMPDEST SWAP1 PUSH0 MSTORE PUSH1 0x20 PUSH0 KECCAK256 SWAP1 PUSH1 0x6 MUL ADD SWAP1 POP PUSH1 0x2 PUSH1 0x4 SLOAD PUSH2 0x2ED SWAP2 SWAP1 PUSH2 0xDA8 JUMP JUMPDEST DUP2 PUSH1 0x4 ADD SLOAD GT PUSH2 0x332 JUMPI PUSH1 0x40 MLOAD PUSH32 0x8C379A000000000000000000000000000000000000000000000000000000000 DUP2 MSTORE PUSH1 0x4 ADD PUSH2 0x329 SWAP1 PUSH2 0xE22 JUMP JUMPDEST PUSH1 0x40 MLOAD DUP1 SWAP2 SUB SWAP1 REVERT JUMPDEST DUP1 PUSH1 0x3 ADD PUSH0 SWAP1 SLOAD SWAP1 PUSH2 0x100 EXP SWAP1 DIV PUSH1 0xFF AND ISZERO PUSH2 0x383 JUMPI PUSH1 0x40 MLOAD PUSH32 0x8C379A000000000000000000000000000000000000000000000000000000000 DUP2 MSTORE PUSH1 0x4 ADD PUSH2 0x37A SWAP1 PUSH2 0xEB0 JUMP JUMPDEST PUSH1 0x40 MLOAD DUP1 SWAP2 SUB SWAP1 REVERT JUMPDEST DUP1 PUSH1 0x1 ADD PUSH0 SWAP1 SLOAD SWAP1 PUSH2 0x100 EXP SWAP1 DIV PUSH20 0xFFFFFFFFFFFFFFFFFFFFFFFFFFFFFFFFFFFFFFFF AND PUSH20 0xFFFFFFFFFFFFFFFFFFFFFFFFFFFFFFFFFFFFFFFF AND PUSH2 0x8FC DUP3 PUSH1 0x2 ADD SLOAD SWAP1 DUP2 ISZERO MUL SWAP1 PUSH1 0x40 MLOAD PUSH0 PUSH1 0x40 MLOAD DUP1 DUP4 SUB DUP2 DUP6 DUP9 DUP9 CALL SWAP4 POP POP POP POP ISZERO DUP1 ISZERO PUSH2 0x3ED JUMPI RETURNDATASIZE PUSH0 DUP1 RETURNDATACOPY RETURNDATASIZE PUSH0 REVERT JUMPDEST POP PUSH1 0x1 DUP2 PUSH1 0x3 ADD PUSH0 PUSH2 0x100 EXP DUP2 SLOAD DUP2 PUSH1 0xFF MUL NOT AND SWAP1 DUP4 ISZERO ISZERO MUL OR SWAP1 SSTORE POP POP POP JUMP JUMPDEST PUSH0 PUSH1 0x2 SLOAD SWAP1 POP SWAP1 JUMP JUMPDEST PUSH0 DUP1 SLOAD SWAP1 PUSH2 0x100 EXP SWAP1 DIV PUSH20 0xFFFFFFFFFFFFFFFFFFFFFFFFFFFFFFFFFFFFFFFF AND DUP2 JUMP JUMPDEST PUSH1 0x5 DUP2 DUP2 SLOAD DUP2 LT PUSH2 0x449 JUMPI PUSH0 DUP1 REVERT JUMPDEST SWAP1 PUSH0 MSTORE PUSH1 0x20 PUSH0 KECCAK256 SWAP1 PUSH1 0x6 MUL ADD PUSH0 SWAP2 POP SWAP1 POP DUP1 PUSH0 ADD DUP1 SLOAD PUSH2 0x468 SWAP1 PUSH2 0xEFB JUMP JUMPDEST DUP1 PUSH1 0x1F ADD PUSH1 0x20 DUP1 SWAP2 DIV MUL PUSH1 0x20 ADD PUSH1 0x40 MLOAD SWAP1 DUP2 ADD PUSH1 0x40 MSTORE DUP1 SWAP3 SWAP2 SWAP1 DUP2 DUP2 MSTORE PUSH1 0x20 ADD DUP3 DUP1 SLOAD PUSH2 0x494 SWAP1 PUSH2 0xEFB JUMP JUMPDEST DUP1 ISZERO PUSH2 0x4DF JUMPI DUP1 PUSH1 0x1F LT PUSH2 0x4B6 JUMPI PUSH2 0x100 DUP1 DUP4 SLOAD DIV MUL DUP4 MSTORE SWAP2 PUSH1 0x20 ADD SWAP2 PUSH2 0x4DF JUMP JUMPDEST DUP3 ADD SWAP2 SWAP1 PUSH0 MSTORE PUSH1 0x20 PUSH0 KECCAK256 SWAP1 JUMPDEST DUP2 SLOAD DUP2 MSTORE SWAP1 PUSH1 0x1 ADD SWAP1 PUSH1 0x20 ADD DUP1 DUP4 GT PUSH2 0x4C2 JUMPI DUP3 SWAP1 SUB PUSH1 0x1F AND DUP3 ADD SWAP2 JUMPDEST POP POP POP POP POP SWAP1 DUP1 PUSH1 0x1 ADD PUSH0 SWAP1 SLOAD SWAP1 PUSH2 0x100 EXP SWAP1 DIV PUSH20 0xFFFFFFFFFFFFFFFFFFFFFFFFFFFFFFFFFFFFFFFF AND SWAP1 DUP1 PUSH1 0x2 ADD SLOAD SWAP1 DUP1 PUSH1 0x3 ADD PUSH0 SWAP1 SLOAD SWAP1 PUSH2 0x100 EXP SWAP1 DIV PUSH1 0xFF AND SWAP1 DUP1 PUSH1 0x4 ADD SLOAD SWAP1 POP DUP6 JUMP JUMPDEST PUSH0 DUP1 PUSH1 0x5 DUP4 DUP2 SLOAD DUP2 LT PUSH2 0x542 JUMPI PUSH2 0x541 PUSH2 0xD21 JUMP JUMPDEST JUMPDEST SWAP1 PUSH0 MSTORE PUSH1 0x20 PUSH0 KECCAK256 SWAP1 PUSH1 0x6 MUL ADD SWAP1 POP DUP1 PUSH1 0x4 ADD SLOAD SWAP2 POP POP SWAP2 SWAP1 POP JUMP JUMPDEST PUSH0 DUP1 SLOAD SWAP1 PUSH2 0x100 EXP SWAP1 DIV PUSH20 0xFFFFFFFFFFFFFFFFFFFFFFFFFFFFFFFFFFFFFFFF AND PUSH20 0xFFFFFFFFFFFFFFFFFFFFFFFFFFFFFFFFFFFFFFFF AND CALLER PUSH20 0xFFFFFFFFFFFFFFFFFFFFFFFFFFFFFFFFFFFFFFFF AND EQ PUSH2 0x5EA JUMPI PUSH1 0x40 MLOAD PUSH32 0x8C379A000000000000000000000000000000000000000000000000000000000 DUP2 MSTORE PUSH1 0x4 ADD PUSH2 0x5E1 SWAP1 PUSH2 0xD03 JUMP JUMPDEST PUSH1 0x40 MLOAD DUP1 SWAP2 SUB SWAP1 REVERT JUMPDEST PUSH0 PUSH1 0x5 PUSH1 0x1 DUP2 PUSH1 0x1 DUP2 SLOAD ADD DUP1 DUP3 SSTORE DUP1 SWAP2 POP POP SUB SWAP1 PUSH0 MSTORE PUSH1 0x20 PUSH0 KECCAK256 SWAP1 PUSH1 0x6 MUL ADD SWAP1 POP DUP3 DUP2 PUSH0 ADD SWAP1 DUP2 PUSH2 0x61B SWAP2 SWAP1 PUSH2 0x10C8 JUMP JUMPDEST POP DUP4 DUP2 PUSH1 0x2 ADD DUP2 SWAP1 SSTORE POP DUP2 DUP2 PUSH1 0x1 ADD PUSH0 PUSH2 0x100 EXP DUP2 SLOAD DUP2 PUSH20 0xFFFFFFFFFFFFFFFFFFFFFFFFFFFFFFFFFFFFFFFF MUL NOT AND SWAP1 DUP4 PUSH20 0xFFFFFFFFFFFFFFFFFFFFFFFFFFFFFFFFFFFFFFFF AND MUL OR SWAP1 SSTORE POP PUSH0 DUP2 PUSH1 0x3 ADD PUSH0 PUSH2 0x100 EXP DUP2 SLOAD DUP2 PUSH1 0xFF MUL NOT AND SWAP1 DUP4 ISZERO ISZERO MUL OR SWAP1 SSTORE POP PUSH0 DUP2 PUSH1 0x4 ADD DUP2 SWAP1 SSTORE POP PUSH1 0x2 PUSH0 DUP2 SLOAD DUP1 SWAP3 SWAP2 SWAP1 PUSH2 0x69D SWAP1 PUSH2 0x1197 JUMP JUMPDEST SWAP2 SWAP1 POP SSTORE POP POP POP POP POP JUMP JUMPDEST PUSH0 CALLER SWAP1 POP SWAP1 JUMP JUMPDEST PUSH1 0x1 SLOAD DUP2 JUMP JUMPDEST PUSH1 0x1 SLOAD CALLVALUE LT ISZERO PUSH2 0x6C3 JUMPI PUSH0 DUP1 REVERT JUMPDEST PUSH0 PUSH1 0x3 PUSH0 CALLER PUSH20 0xFFFFFFFFFFFFFFFFFFFFFFFFFFFFFFFFFFFFFFFF AND PUSH20 0xFFFFFFFFFFFFFFFFFFFFFFFFFFFFFFFFFFFFFFFF AND DUP2 MSTORE PUSH1 0x20 ADD SWAP1 DUP2 MSTORE PUSH1 0x20 ADD PUSH0 KECCAK256 PUSH0 PUSH2 0x100 EXP DUP2 SLOAD DUP2 PUSH1 0xFF MUL NOT AND SWAP1 DUP4 ISZERO ISZERO MUL OR SWAP1 SSTORE POP JUMP JUMPDEST PUSH1 0x3 PUSH0 CALLER PUSH20 0xFFFFFFFFFFFFFFFFFFFFFFFFFFFFFFFFFFFFFFFF AND PUSH20 0xFFFFFFFFFFFFFFFFFFFFFFFFFFFFFFFFFFFFFFFF AND DUP2 MSTORE PUSH1 0x20 ADD SWAP1 DUP2 MSTORE PUSH1 0x20 ADD PUSH0 KECCAK256 PUSH0 SWAP1 SLOAD SWAP1 PUSH2 0x100 EXP SWAP1 DIV PUSH1 0xFF AND ISZERO PUSH2 0x7A3 JUMPI PUSH1 0x40 MLOAD PUSH32 0x8C379A000000000000000000000000000000000000000000000000000000000 DUP2 MSTORE PUSH1 0x4 ADD PUSH2 0x79A SWAP1 PUSH2 0x1228 JUMP JUMPDEST PUSH1 0x40 MLOAD DUP1 SWAP2 SUB SWAP1 REVERT JUMPDEST PUSH0 PUSH1 0x5 DUP3 DUP2 SLOAD DUP2 LT PUSH2 0x7B8 JUMPI PUSH2 0x7B7 PUSH2 0xD21 JUMP JUMPDEST JUMPDEST SWAP1 PUSH0 MSTORE PUSH1 0x20 PUSH0 KECCAK256 SWAP1 PUSH1 0x6 MUL ADD SWAP1 POP DUP1 PUSH1 0x5 ADD PUSH0 CALLER PUSH20 0xFFFFFFFFFFFFFFFFFFFFFFFFFFFFFFFFFFFFFFFF AND PUSH20 0xFFFFFFFFFFFFFFFFFFFFFFFFFFFFFFFFFFFFFFFF AND DUP2 MSTORE PUSH1 0x20 ADD SWAP1 DUP2 MSTORE PUSH1 0x20 ADD PUSH0 KECCAK256 PUSH0 SWAP1 SLOAD SWAP1 PUSH2 0x100 EXP SWAP1 DIV PUSH1 0xFF AND ISZERO PUSH2 0x852 JUMPI PUSH1 0x40 MLOAD PUSH32 0x8C379A000000000000000000000000000000000000000000000000000000000 DUP2 MSTORE PUSH1 0x4 ADD PUSH2 0x849 SWAP1 PUSH2 0x1290 JUMP JUMPDEST PUSH1 0x40 MLOAD DUP1 SWAP2 SUB SWAP1 REVERT JUMPDEST PUSH1 0x1 DUP2 PUSH1 0x5 ADD PUSH0 CALLER PUSH20 0xFFFFFFFFFFFFFFFFFFFFFFFFFFFFFFFFFFFFFFFF AND PUSH20 0xFFFFFFFFFFFFFFFFFFFFFFFFFFFFFFFFFFFFFFFF AND DUP2 MSTORE PUSH1 0x20 ADD SWAP1 DUP2 MSTORE PUSH1 0x20 ADD PUSH0 KECCAK256 PUSH0 PUSH2 0x100 EXP DUP2 SLOAD DUP2 PUSH1 0xFF MUL NOT AND SWAP1 DUP4 ISZERO ISZERO MUL OR SWAP1 SSTORE POP DUP1 PUSH1 0x4 ADD PUSH0 DUP2 SLOAD DUP1 SWAP3 SWAP2 SWAP1 PUSH2 0x8BD SWAP1 PUSH2 0x1197 JUMP JUMPDEST SWAP2 SWAP1 POP SSTORE POP POP POP JUMP JUMPDEST PUSH0 PUSH1 0x40 MLOAD SWAP1 POP SWAP1 JUMP JUMPDEST PUSH0 DUP1 REVERT JUMPDEST PUSH0 DUP1 REVERT JUMPDEST PUSH0 DUP2 SWAP1 POP SWAP2 SWAP1 POP JUMP JUMPDEST PUSH2 0x8E9 DUP2 PUSH2 0x8D7 JUMP JUMPDEST DUP2 EQ PUSH2 0x8F3 JUMPI PUSH0 DUP1 REVERT JUMPDEST POP JUMP JUMPDEST PUSH0 DUP2 CALLDATALOAD SWAP1 POP PUSH2 0x904 DUP2 PUSH2 0x8E0 JUMP JUMPDEST SWAP3 SWAP2 POP POP JUMP JUMPDEST PUSH0 PUSH1 0x20 DUP3 DUP5 SUB SLT ISZERO PUSH2 0x91F JUMPI PUSH2 0x91E PUSH2 0x8CF JUMP JUMPDEST JUMPDEST PUSH0 PUSH2 0x92C DUP5 DUP3 DUP6 ADD PUSH2 0x8F6 JUMP JUMPDEST SWAP2 POP POP SWAP3 SWAP2 POP POP JUMP JUMPDEST PUSH2 0x93E DUP2 PUSH2 0x8D7 JUMP JUMPDEST DUP3 MSTORE POP POP JUMP JUMPDEST PUSH0 PUSH1 0x20 DUP3 ADD SWAP1 POP PUSH2 0x957 PUSH0 DUP4 ADD DUP5 PUSH2 0x935 JUMP JUMPDEST SWAP3 SWAP2 POP POP JUMP JUMPDEST PUSH0 PUSH20 0xFFFFFFFFFFFFFFFFFFFFFFFFFFFFFFFFFFFFFFFF DUP3 AND SWAP1 POP SWAP2 SWAP1 POP JUMP JUMPDEST PUSH0 PUSH2 0x986 DUP3 PUSH2 0x95D JUMP JUMPDEST SWAP1 POP SWAP2 SWAP1 POP JUMP JUMPDEST PUSH2 0x996 DUP2 PUSH2 0x97C JUMP JUMPDEST DUP3 MSTORE POP POP JUMP JUMPDEST PUSH0 PUSH1 0x20 DUP3 ADD SWAP1 POP PUSH2 0x9AF PUSH0 DUP4 ADD DUP5 PUSH2 0x98D JUMP JUMPDEST SWAP3 SWAP2 POP POP JUMP JUMPDEST PUSH0 DUP2 MLOAD SWAP1 POP SWAP2 SWAP1 POP JUMP JUMPDEST PUSH0 DUP3 DUP3 MSTORE PUSH1 0x20 DUP3 ADD SWAP1 POP SWAP3 SWAP2 POP POP JUMP JUMPDEST PUSH0 JUMPDEST DUP4 DUP2 LT ISZERO PUSH2 0x9EC JUMPI DUP1 DUP3 ADD MLOAD DUP2 DUP5 ADD MSTORE PUSH1 0x20 DUP2 ADD SWAP1 POP PUSH2 0x9D1 JUMP JUMPDEST PUSH0 DUP5 DUP5 ADD MSTORE POP POP POP POP JUMP JUMPDEST PUSH0 PUSH1 0x1F NOT PUSH1 0x1F DUP4 ADD AND SWAP1 POP SWAP2 SWAP1 POP JUMP JUMPDEST PUSH0 PUSH2 0xA11 DUP3 PUSH2 0x9B5 JUMP JUMPDEST PUSH2 0xA1B DUP2 DUP6 PUSH2 0x9BF JUMP JUMPDEST SWAP4 POP PUSH2 0xA2B DUP2 DUP6 PUSH1 0x20 DUP7 ADD PUSH2 0x9CF JUMP JUMPDEST PUSH2 0xA34 DUP2 PUSH2 0x9F7 JUMP JUMPDEST DUP5 ADD SWAP2 POP POP SWAP3 SWAP2 POP POP JUMP JUMPDEST PUSH0 PUSH2 0xA49 DUP3 PUSH2 0x95D JUMP JUMPDEST SWAP1 POP SWAP2 SWAP1 POP JUMP JUMPDEST PUSH2 0xA59 DUP2 PUSH2 0xA3F JUMP JUMPDEST DUP3 MSTORE POP POP JUMP JUMPDEST PUSH0 DUP2 ISZERO ISZERO SWAP1 POP SWAP2 SWAP1 POP JUMP JUMPDEST PUSH2 0xA73 DUP2 PUSH2 0xA5F JUMP JUMPDEST DUP3 MSTORE POP POP JUMP JUMPDEST PUSH0 PUSH1 0xA0 DUP3 ADD SWAP1 POP DUP2 DUP2 SUB PUSH0 DUP4 ADD MSTORE PUSH2 0xA91 DUP2 DUP9 PUSH2 0xA07 JUMP JUMPDEST SWAP1 POP PUSH2 0xAA0 PUSH1 0x20 DUP4 ADD DUP8 PUSH2 0xA50 JUMP JUMPDEST PUSH2 0xAAD PUSH1 0x40 DUP4 ADD DUP7 PUSH2 0x935 JUMP JUMPDEST PUSH2 0xABA PUSH1 0x60 DUP4 ADD DUP6 PUSH2 0xA6A JUMP JUMPDEST PUSH2 0xAC7 PUSH1 0x80 DUP4 ADD DUP5 PUSH2 0x935 JUMP JUMPDEST SWAP7 SWAP6 POP POP POP POP POP POP JUMP JUMPDEST PUSH0 DUP1 REVERT JUMPDEST PUSH0 DUP1 REVERT JUMPDEST PUSH32 0x4E487B7100000000000000000000000000000000000000000000000000000000 PUSH0 MSTORE PUSH1 0x41 PUSH1 0x4 MSTORE PUSH1 0x24 PUSH0 REVERT JUMPDEST PUSH2 0xB0F DUP3 PUSH2 0x9F7 JUMP JUMPDEST DUP2 ADD DUP2 DUP2 LT PUSH8 0xFFFFFFFFFFFFFFFF DUP3 GT OR ISZERO PUSH2 0xB2E JUMPI PUSH2 0xB2D PUSH2 0xAD9 JUMP JUMPDEST JUMPDEST DUP1 PUSH1 0x40 MSTORE POP POP POP JUMP JUMPDEST PUSH0 PUSH2 0xB40 PUSH2 0x8C6 JUMP JUMPDEST SWAP1 POP PUSH2 0xB4C DUP3 DUP3 PUSH2 0xB06 JUMP JUMPDEST SWAP2 SWAP1 POP JUMP JUMPDEST PUSH0 PUSH8 0xFFFFFFFFFFFFFFFF DUP3 GT ISZERO PUSH2 0xB6B JUMPI PUSH2 0xB6A PUSH2 0xAD9 JUMP JUMPDEST JUMPDEST PUSH2 0xB74 DUP3 PUSH2 0x9F7 JUMP JUMPDEST SWAP1 POP PUSH1 0x20 DUP2 ADD SWAP1 POP SWAP2 SWAP1 POP JUMP JUMPDEST DUP3 DUP2 DUP4 CALLDATACOPY PUSH0 DUP4 DUP4 ADD MSTORE POP POP POP JUMP JUMPDEST PUSH0 PUSH2 0xBA1 PUSH2 0xB9C DUP5 PUSH2 0xB51 JUMP JUMPDEST PUSH2 0xB37 JUMP JUMPDEST SWAP1 POP DUP3 DUP2 MSTORE PUSH1 0x20 DUP2 ADD DUP5 DUP5 DUP5 ADD GT ISZERO PUSH2 0xBBD JUMPI PUSH2 0xBBC PUSH2 0xAD5 JUMP JUMPDEST JUMPDEST PUSH2 0xBC8 DUP5 DUP3 DUP6 PUSH2 0xB81 JUMP JUMPDEST POP SWAP4 SWAP3 POP POP POP JUMP JUMPDEST PUSH0 DUP3 PUSH1 0x1F DUP4 ADD SLT PUSH2 0xBE4 JUMPI PUSH2 0xBE3 PUSH2 0xAD1 JUMP JUMPDEST JUMPDEST DUP2 CALLDATALOAD PUSH2 0xBF4 DUP5 DUP3 PUSH1 0x20 DUP7 ADD PUSH2 0xB8F JUMP JUMPDEST SWAP2 POP POP SWAP3 SWAP2 POP POP JUMP JUMPDEST PUSH2 0xC06 DUP2 PUSH2 0xA3F JUMP JUMPDEST DUP2 EQ PUSH2 0xC10 JUMPI PUSH0 DUP1 REVERT JUMPDEST POP JUMP JUMPDEST PUSH0 DUP2 CALLDATALOAD SWAP1 POP PUSH2 0xC21 DUP2 PUSH2 0xBFD JUMP JUMPDEST SWAP3 SWAP2 POP POP JUMP JUMPDEST PUSH0 DUP1 PUSH0 PUSH1 0x60 DUP5 DUP7 SUB SLT ISZERO PUSH2 0xC3E JUMPI PUSH2 0xC3D PUSH2 0x8CF JUMP JUMPDEST JUMPDEST PUSH0 PUSH2 0xC4B DUP7 DUP3 DUP8 ADD PUSH2 0x8F6 JUMP JUMPDEST SWAP4 POP POP PUSH1 0x20 DUP5 ADD CALLDATALOAD PUSH8 0xFFFFFFFFFFFFFFFF DUP2 GT ISZERO PUSH2 0xC6C JUMPI PUSH2 0xC6B PUSH2 0x8D3 JUMP JUMPDEST JUMPDEST PUSH2 0xC78 DUP7 DUP3 DUP8 ADD PUSH2 0xBD0 JUMP JUMPDEST SWAP3 POP POP PUSH1 0x40 PUSH2 0xC89 DUP7 DUP3 DUP8 ADD PUSH2 0xC13 JUMP JUMPDEST SWAP2 POP POP SWAP3 POP SWAP3 POP SWAP3 JUMP JUMPDEST PUSH32 0x4F6E6C79206D616E616765722063616E2061636365737320746869732066756E PUSH0 DUP3 ADD MSTORE PUSH32 0x6374696F6E730000000000000000000000000000000000000000000000000000 PUSH1 0x20 DUP3 ADD MSTORE POP JUMP JUMPDEST PUSH0 PUSH2 0xCED PUSH1 0x26 DUP4 PUSH2 0x9BF JUMP JUMPDEST SWAP2 POP PUSH2 0xCF8 DUP3 PUSH2 0xC93 JUMP JUMPDEST PUSH1 0x40 DUP3 ADD SWAP1 POP SWAP2 SWAP1 POP JUMP JUMPDEST PUSH0 PUSH1 0x20 DUP3 ADD SWAP1 POP DUP2 DUP2 SUB PUSH0 DUP4 ADD MSTORE PUSH2 0xD1A DUP2 PUSH2 0xCE1 JUMP JUMPDEST SWAP1 POP SWAP2 SWAP1 POP JUMP JUMPDEST PUSH32 0x4E487B7100000000000000000000000000000000000000000000000000000000 PUSH0 MSTORE PUSH1 0x32 PUSH1 0x4 MSTORE PUSH1 0x24 PUSH0 REVERT JUMPDEST PUSH32 0x4E487B7100000000000000000000000000000000000000000000000000000000 PUSH0 MSTORE PUSH1 0x12 PUSH1 0x4 MSTORE PUSH1 0x24 PUSH0 REVERT JUMPDEST PUSH32 0x4E487B7100000000000000000000000000000000000000000000000000000000 PUSH0 MSTORE PUSH1 0x11 PUSH1 0x4 MSTORE PUSH1 0x24 PUSH0 REVERT JUMPDEST PUSH0 PUSH2 0xDB2 DUP3 PUSH2 0x8D7 JUMP JUMPDEST SWAP2 POP PUSH2 0xDBD DUP4 PUSH2 0x8D7 JUMP JUMPDEST SWAP3 POP DUP3 PUSH2 0xDCD JUMPI PUSH2 0xDCC PUSH2 0xD4E JUMP JUMPDEST JUMPDEST DUP3 DUP3 DIV SWAP1 POP SWAP3 SWAP2 POP POP JUMP JUMPDEST PUSH32 0x52657175657374206E65656473206D6F726520617070726F76616C7300000000 PUSH0 DUP3 ADD MSTORE POP JUMP JUMPDEST PUSH0 PUSH2 0xE0C PUSH1 0x1C DUP4 PUSH2 0x9BF JUMP JUMPDEST SWAP2 POP PUSH2 0xE17 DUP3 PUSH2 0xDD8 JUMP JUMPDEST PUSH1 0x20 DUP3 ADD SWAP1 POP SWAP2 SWAP1 POP JUMP JUMPDEST PUSH0 PUSH1 0x20 DUP3 ADD SWAP1 POP DUP2 DUP2 SUB PUSH0 DUP4 ADD MSTORE PUSH2 0xE39 DUP2 PUSH2 0xE00 JUMP JUMPDEST SWAP1 POP SWAP2 SWAP1 POP JUMP JUMPDEST PUSH32 0x5265717565737420686173206265656E20616C726561647920617070726F7665 PUSH0 DUP3 ADD MSTORE PUSH32 0x6400000000000000000000000000000000000000000000000000000000000000 PUSH1 0x20 DUP3 ADD MSTORE POP JUMP JUMPDEST PUSH0 PUSH2 0xE9A PUSH1 0x21 DUP4 PUSH2 0x9BF JUMP JUMPDEST SWAP2 POP PUSH2 0xEA5 DUP3 PUSH2 0xE40 JUMP JUMPDEST PUSH1 0x40 DUP3 ADD SWAP1 POP SWAP2 SWAP1 POP JUMP JUMPDEST PUSH0 PUSH1 0x20 DUP3 ADD SWAP1 POP DUP2 DUP2 SUB PUSH0 DUP4 ADD MSTORE PUSH2 0xEC7 DUP2 PUSH2 0xE8E JUMP JUMPDEST SWAP1 POP SWAP2 SWAP1 POP JUMP JUMPDEST PUSH32 0x4E487B7100000000000000000000000000000000000000000000000000000000 PUSH0 MSTORE PUSH1 0x22 PUSH1 0x4 MSTORE PUSH1 0x24 PUSH0 REVERT JUMPDEST PUSH0 PUSH1 0x2 DUP3 DIV SWAP1 POP PUSH1 0x1 DUP3 AND DUP1 PUSH2 0xF12 JUMPI PUSH1 0x7F DUP3 AND SWAP2 POP JUMPDEST PUSH1 0x20 DUP3 LT DUP2 SUB PUSH2 0xF25 JUMPI PUSH2 0xF24 PUSH2 0xECE JUMP JUMPDEST JUMPDEST POP SWAP2 SWAP1 POP JUMP JUMPDEST PUSH0 DUP2 SWAP1 POP DUP2 PUSH0 MSTORE PUSH1 0x20 PUSH0 KECCAK256 SWAP1 POP SWAP2 SWAP1 POP JUMP JUMPDEST PUSH0 PUSH1 0x20 PUSH1 0x1F DUP4 ADD DIV SWAP1 POP SWAP2 SWAP1 POP JUMP JUMPDEST PUSH0 DUP3 DUP3 SHL SWAP1 POP SWAP3 SWAP2 POP POP JUMP JUMPDEST PUSH0 PUSH1 0x8 DUP4 MUL PUSH2 0xF87 PUSH32 0xFFFFFFFFFFFFFFFFFFFFFFFFFFFFFFFFFFFFFFFFFFFFFFFFFFFFFFFFFFFFFFFF DUP3 PUSH2 0xF4C JUMP JUMPDEST PUSH2 0xF91 DUP7 DUP4 PUSH2 0xF4C JUMP JUMPDEST SWAP6 POP DUP1 NOT DUP5 AND SWAP4 POP DUP1 DUP7 AND DUP5 OR SWAP3 POP POP POP SWAP4 SWAP3 POP POP POP JUMP JUMPDEST PUSH0 DUP2 SWAP1 POP SWAP2 SWAP1 POP JUMP JUMPDEST PUSH0 PUSH2 0xFCC PUSH2 0xFC7 PUSH2 0xFC2 DUP5 PUSH2 0x8D7 JUMP JUMPDEST PUSH2 0xFA9 JUMP JUMPDEST PUSH2 0x8D7 JUMP JUMPDEST SWAP1 POP SWAP2 SWAP1 POP JUMP JUMPDEST PUSH0 DUP2 SWAP1 POP SWAP2 SWAP1 POP JUMP JUMPDEST PUSH2 0xFE5 DUP4 PUSH2 0xFB2 JUMP JUMPDEST PUSH2 0xFF9 PUSH2 0xFF1 DUP3 PUSH2 0xFD3 JUMP JUMPDEST DUP5 DUP5 SLOAD PUSH2 0xF58 JUMP JUMPDEST DUP3 SSTORE POP POP POP POP JUMP JUMPDEST PUSH0 SWAP1 JUMP JUMPDEST PUSH2 0x100D PUSH2 0x1001 JUMP JUMPDEST PUSH2 0x1018 DUP2 DUP5 DUP5 PUSH2 0xFDC JUMP JUMPDEST POP POP POP JUMP JUMPDEST JUMPDEST DUP2 DUP2 LT ISZERO PUSH2 0x103B JUMPI PUSH2 0x1030 PUSH0 DUP3 PUSH2 0x1005 JUMP JUMPDEST PUSH1 0x1 DUP2 ADD SWAP1 POP PUSH2 0x101E JUMP JUMPDEST POP POP JUMP JUMPDEST PUSH1 0x1F DUP3 GT ISZERO PUSH2 0x1080 JUMPI PUSH2 0x1051 DUP2 PUSH2 0xF2B JUMP JUMPDEST PUSH2 0x105A DUP5 PUSH2 0xF3D JUMP JUMPDEST DUP2 ADD PUSH1 0x20 DUP6 LT ISZERO PUSH2 0x1069 JUMPI DUP2 SWAP1 POP JUMPDEST PUSH2 0x107D PUSH2 0x1075 DUP6 PUSH2 0xF3D JUMP JUMPDEST DUP4 ADD DUP3 PUSH2 0x101D JUMP JUMPDEST POP POP JUMPDEST POP POP POP JUMP JUMPDEST PUSH0 DUP3 DUP3 SHR SWAP1 POP SWAP3 SWAP2 POP POP JUMP JUMPDEST PUSH0 PUSH2 0x10A0 PUSH0 NOT DUP5 PUSH1 0x8 MUL PUSH2 0x1085 JUMP JUMPDEST NOT DUP1 DUP4 AND SWAP2 POP POP SWAP3 SWAP2 POP POP JUMP JUMPDEST PUSH0 PUSH2 0x10B8 DUP4 DUP4 PUSH2 0x1091 JUMP JUMPDEST SWAP2 POP DUP3 PUSH1 0x2 MUL DUP3 OR SWAP1 POP SWAP3 SWAP2 POP POP JUMP JUMPDEST PUSH2 0x10D1 DUP3 PUSH2 0x9B5 JUMP JUMPDEST PUSH8 0xFFFFFFFFFFFFFFFF DUP2 GT ISZERO PUSH2 0x10EA JUMPI PUSH2 0x10E9 PUSH2 0xAD9 JUMP JUMPDEST JUMPDEST PUSH2 0x10F4 DUP3 SLOAD PUSH2 0xEFB JUMP JUMPDEST PUSH2 0x10FF DUP3 DUP3 DUP6 PUSH2 0x103F JUMP JUMPDEST PUSH0 PUSH1 0x20 SWAP1 POP PUSH1 0x1F DUP4 GT PUSH1 0x1 DUP2 EQ PUSH2 0x1130 JUMPI PUSH0 DUP5 ISZERO PUSH2 0x111E JUMPI DUP3 DUP8 ADD MLOAD SWAP1 POP JUMPDEST PUSH2 0x1128 DUP6 DUP3 PUSH2 0x10AD JUMP JUMPDEST DUP7 SSTORE POP PUSH2 0x118F JUMP JUMPDEST PUSH1 0x1F NOT DUP5 AND PUSH2 0x113E DUP7 PUSH2 0xF2B JUMP JUMPDEST PUSH0 JUMPDEST DUP3 DUP2 LT ISZERO PUSH2 0x1165 JUMPI DUP5 DUP10 ADD MLOAD DUP3 SSTORE PUSH1 0x1 DUP3 ADD SWAP2 POP PUSH1 0x20 DUP6 ADD SWAP5 POP PUSH1 0x20 DUP2 ADD SWAP1 POP PUSH2 0x1140 JUMP JUMPDEST DUP7 DUP4 LT ISZERO PUSH2 0x1182 JUMPI DUP5 DUP10 ADD MLOAD PUSH2 0x117E PUSH1 0x1F DUP10 AND DUP3 PUSH2 0x1091 JUMP JUMPDEST DUP4 SSTORE POP JUMPDEST PUSH1 0x1 PUSH1 0x2 DUP9 MUL ADD DUP9 SSTORE POP POP POP JUMPDEST POP POP POP POP POP POP JUMP JUMPDEST PUSH0 PUSH2 0x11A1 DUP3 PUSH2 0x8D7 JUMP JUMPDEST SWAP2 POP PUSH32 0xFFFFFFFFFFFFFFFFFFFFFFFFFFFFFFFFFFFFFFFFFFFFFFFFFFFFFFFFFFFFFFFF DUP3 SUB PUSH2 0x11D3 JUMPI PUSH2 0x11D2 PUSH2 0xD7B JUMP JUMPDEST JUMPDEST PUSH1 0x1 DUP3 ADD SWAP1 POP SWAP2 SWAP1 POP JUMP JUMPDEST PUSH32 0x4F6E6C7920436F6E7472696275746572732063616E20766F7465000000000000 PUSH0 DUP3 ADD MSTORE POP JUMP JUMPDEST PUSH0 PUSH2 0x1212 PUSH1 0x1A DUP4 PUSH2 0x9BF JUMP JUMPDEST SWAP2 POP PUSH2 0x121D DUP3 PUSH2 0x11DE JUMP JUMPDEST PUSH1 0x20 DUP3 ADD SWAP1 POP SWAP2 SWAP1 POP JUMP JUMPDEST PUSH0 PUSH1 0x20 DUP3 ADD SWAP1 POP DUP2 DUP2 SUB PUSH0 DUP4 ADD MSTORE PUSH2 0x123F DUP2 PUSH2 0x1206 JUMP JUMPDEST SWAP1 POP SWAP2 SWAP1 POP JUMP JUMPDEST PUSH32 0x596F75206861766520616C726561647920566F74656400000000000000000000 PUSH0 DUP3 ADD MSTORE POP JUMP JUMPDEST PUSH0 PUSH2 0x127A PUSH1 0x16 DUP4 PUSH2 0x9BF JUMP JUMPDEST SWAP2 POP PUSH2 0x1285 DUP3 PUSH2 0x1246 JUMP JUMPDEST PUSH1 0x20 DUP3 ADD SWAP1 POP SWAP2 SWAP1 POP JUMP JUMPDEST PUSH0 PUSH1 0x20 DUP3 ADD SWAP1 POP DUP2 DUP2 SUB PUSH0 DUP4 ADD MSTORE PUSH2 0x12A7 DUP2 PUSH2 0x126E JUMP JUMPDEST SWAP1 POP SWAP2 SWAP1 POP JUMP INVALID LOG2 PUSH5 0x6970667358 0x22 SLT KECCAK256 JUMP COINBASE ORIGIN JUMPDEST NUMBER 0x2B 0xF6 0xB0 0xE6 CALLDATALOAD GAS BLOCKHASH 0x5C SWAP7 PUSH1 0x20 0xAF 0xED 0xFC BLOCKHASH PUSH22 0x1050B7231B89286C73EA964736F6C63430008140033 LOG2 PUSH5 0x6970667358 0x22 SLT KECCAK256 0xD0 PUSH16 0x1288E62EC3706AF672ED78F5CCB863A6 DUP1 0x24 0xCC CREATE2 MSTORE 0xBA DUP8 0x23 MSIZE SLOAD SMOD DUP16 NOT JUMP PUSH5 0x736F6C6343 STOP ADDMOD EQ STOP CALLER "},"gasEstimates":{"creation":{"codeDepositCost":"1223600","executionCost":"1273","totalCost":"1224873"},"external":{"createNewCampaign(uint256)":"infinite","getCampaigns()":"infinite"}},"methodIdentifiers":{"createNewCampaign(uint256)":"66661cc5","getCampaigns()":"a6b03633"}},"storageLayout":{"storage":[{"astId":4,"contract":"Campaign.sol:CampaignFactory","label":"campaignAddresses","offset":0,"slot":"0","type":"t_array(t_address)dyn_storage"}],"types":{"t_address":{"encoding":"inplace","label":"address","numberOfBytes":"20"},"t_array(t_address)dyn_storage":{"base":"t_address","encoding":"dynamic_array","label":"address[]","numberOfBytes":"32"}}},"userdoc":{"kind":"user","methods":{},"version":1}}