{"abi":[{"inputs":[{"internalType":"uint256","name":"_minimumContribution","type":"uint256"},{"internalType":"address","name":"_sender","type":"address"}],"stateMutability":"nonpayable","type":"constructor"},{"inputs":[{"internalType":"uint256","name":"_index","type":"uint256"}],"name":"approveRequest","outputs":[],"stateMutability":"nonpayable","type":"function"},{"inputs":[],"name":"contribute","outputs":[],"stateMutability":"payable","type":"function"},{"inputs":[{"internalType":"uint256","name":"_index","type":"uint256"}],"name":"finalizeRequest","outputs":[],"stateMutability":"payable","type":"function"},{"inputs":[{"internalType":"uint256","name":"_index","type":"uint256"}],"name":"getApproveRequestCount","outputs":[{"internalType":"uint256","name":"","type":"uint256"}],"stateMutability":"view","type":"function"},{"inputs":[],"name":"getRequestsCount","outputs":[{"internalType":"uint256","name":"","type":"uint256"}],"stateMutability":"view","type":"function"},{"inputs":[],"name":"getSummary","outputs":[{"internalType":"uint256","name":"","type":"uint256"},{"internalType":"uint256","name":"","type":"uint256"},{"internalType":"uint256","name":"","type":"uint256"},{"internalType":"uint256","name":"","type":"uint256"},{"internalType":"address","name":"","type":"address"}],"stateMutability":"view","type":"function"},{"inputs":[],"name":"manager","outputs":[{"internalType":"address","name":"","type":"address"}],"stateMutability":"view","type":"function"},{"inputs":[],"name":"minimumContribution","outputs":[{"internalType":"uint256","name":"","type":"uint256"}],"stateMutability":"view","type":"function"},{"inputs":[],"name":"noOfContributors","outputs":[{"internalType":"uint256","name":"","type":"uint256"}],"stateMutability":"view","type":"function"},{"inputs":[{"internalType":"uint256","name":"_value","type":"uint256"},{"internalType":"string","name":"_description","type":"string"},{"internalType":"address payable","name":"_recipient","type":"address"}],"name":"request","outputs":[],"stateMutability":"nonpayable","type":"function"},{"inputs":[{"internalType":"uint256","name":"","type":"uint256"}],"name":"requests","outputs":[{"internalType":"string","name":"description","type":"string"},{"internalType":"address payable","name":"recipient","type":"address"},{"internalType":"uint256","name":"value","type":"uint256"},{"internalType":"bool","name":"isComplete","type":"bool"},{"internalType":"uint256","name":"approvalCount","type":"uint256"}],"stateMutability":"view","type":"function"}],"devdoc":{"kind":"dev","methods":{},"version":1},"evm":{"assembly":"    /* \"Campaign.sol\":448:3549  contract Campaign{... */\n  mstore(0x40, 0x80)\n    /* \"Campaign.sol\":559:560  0 */\n  0x00\n    /* \"Campaign.sol\":543:560  uint reqCount = 0 */\n  0x02\n  sstore\n    /* \"Campaign.sol\":638:639  0 */\n  0x00\n    /* \"Campaign.sol\":613:639  uint contributorsCount = 0 */\n  0x04\n  sstore\n    /* \"Campaign.sol\":907:1103  constructor(uint _minimumContribution, address _sender){... */\n  callvalue\n  dup1\n  iszero\n  tag_1\n  jumpi\n  0x00\n  dup1\n  revert\ntag_1:\n  pop\n  mload(0x40)\n  sub(codesize, bytecodeSize)\n  dup1\n  bytecodeSize\n  dup4\n  codecopy\n  dup2\n  dup2\n  add\n  0x40\n  mstore\n  dup2\n  add\n  swap1\n  tag_2\n  swap2\n  swap1\n  tag_3\n  jump\t// in\ntag_2:\n    /* \"Campaign.sol\":983:990  _sender */\n  dup1\n    /* \"Campaign.sol\":973:980  manager */\n  0x00\n  dup1\n    /* \"Campaign.sol\":973:990  manager = _sender */\n  0x0100\n  exp\n  dup2\n  sload\n  dup2\n  0xffffffffffffffffffffffffffffffffffffffff\n  mul\n  not\n  and\n  swap1\n  dup4\n  0xffffffffffffffffffffffffffffffffffffffff\n  and\n  mul\n  or\n  swap1\n  sstore\n  pop\n    /* \"Campaign.sol\":1046:1066  _minimumContribution */\n  dup2\n    /* \"Campaign.sol\":1024:1043  minimumContribution */\n  0x01\n    /* \"Campaign.sol\":1024:1066  minimumContribution = _minimumContribution */\n  dup2\n  swap1\n  sstore\n  pop\n    /* \"Campaign.sol\":907:1103  constructor(uint _minimumContribution, address _sender){... */\n  pop\n  pop\n    /* \"Campaign.sol\":448:3549  contract Campaign{... */\n  jump(tag_6)\n    /* \"#utility.yul\":88:205   */\ntag_8:\n    /* \"#utility.yul\":197:198   */\n  0x00\n    /* \"#utility.yul\":194:195   */\n  dup1\n    /* \"#utility.yul\":187:199   */\n  revert\n    /* \"#utility.yul\":334:411   */\ntag_10:\n    /* \"#utility.yul\":371:378   */\n  0x00\n    /* \"#utility.yul\":400:405   */\n  dup2\n    /* \"#utility.yul\":389:405   */\n  swap1\n  pop\n    /* \"#utility.yul\":334:411   */\n  swap2\n  swap1\n  pop\n  jump\t// out\n    /* \"#utility.yul\":417:539   */\ntag_11:\n    /* \"#utility.yul\":490:514   */\n  tag_23\n    /* \"#utility.yul\":508:513   */\n  dup2\n    /* \"#utility.yul\":490:514   */\n  tag_10\n  jump\t// in\ntag_23:\n    /* \"#utility.yul\":483:488   */\n  dup2\n    /* \"#utility.yul\":480:515   */\n  eq\n    /* \"#utility.yul\":470:533   */\n  tag_24\n  jumpi\n    /* \"#utility.yul\":529:530   */\n  0x00\n    /* \"#utility.yul\":526:527   */\n  dup1\n    /* \"#utility.yul\":519:531   */\n  revert\n    /* \"#utility.yul\":470:533   */\ntag_24:\n    /* \"#utility.yul\":417:539   */\n  pop\n  jump\t// out\n    /* \"#utility.yul\":545:688   */\ntag_12:\n    /* \"#utility.yul\":602:607   */\n  0x00\n    /* \"#utility.yul\":633:639   */\n  dup2\n    /* \"#utility.yul\":627:640   */\n  mload\n    /* \"#utility.yul\":618:640   */\n  swap1\n  pop\n    /* \"#utility.yul\":649:682   */\n  tag_26\n    /* \"#utility.yul\":676:681   */\n  dup2\n    /* \"#utility.yul\":649:682   */\n  tag_11\n  jump\t// in\ntag_26:\n    /* \"#utility.yul\":545:688   */\n  swap3\n  swap2\n  pop\n  pop\n  jump\t// out\n    /* \"#utility.yul\":694:820   */\ntag_13:\n    /* \"#utility.yul\":731:738   */\n  0x00\n    /* \"#utility.yul\":771:813   */\n  0xffffffffffffffffffffffffffffffffffffffff\n    /* \"#utility.yul\":764:769   */\n  dup3\n    /* \"#utility.yul\":760:814   */\n  and\n    /* \"#utility.yul\":749:814   */\n  swap1\n  pop\n    /* \"#utility.yul\":694:820   */\n  swap2\n  swap1\n  pop\n  jump\t// out\n    /* \"#utility.yul\":826:922   */\ntag_14:\n    /* \"#utility.yul\":863:870   */\n  0x00\n    /* \"#utility.yul\":892:916   */\n  tag_29\n    /* \"#utility.yul\":910:915   */\n  dup3\n    /* \"#utility.yul\":892:916   */\n  tag_13\n  jump\t// in\ntag_29:\n    /* \"#utility.yul\":881:916   */\n  swap1\n  pop\n    /* \"#utility.yul\":826:922   */\n  swap2\n  swap1\n  pop\n  jump\t// out\n    /* \"#utility.yul\":928:1050   */\ntag_15:\n    /* \"#utility.yul\":1001:1025   */\n  tag_31\n    /* \"#utility.yul\":1019:1024   */\n  dup2\n    /* \"#utility.yul\":1001:1025   */\n  tag_14\n  jump\t// in\ntag_31:\n    /* \"#utility.yul\":994:999   */\n  dup2\n    /* \"#utility.yul\":991:1026   */\n  eq\n    /* \"#utility.yul\":981:1044   */\n  tag_32\n  jumpi\n    /* \"#utility.yul\":1040:1041   */\n  0x00\n    /* \"#utility.yul\":1037:1038   */\n  dup1\n    /* \"#utility.yul\":1030:1042   */\n  revert\n    /* \"#utility.yul\":981:1044   */\ntag_32:\n    /* \"#utility.yul\":928:1050   */\n  pop\n  jump\t// out\n    /* \"#utility.yul\":1056:1199   */\ntag_16:\n    /* \"#utility.yul\":1113:1118   */\n  0x00\n    /* \"#utility.yul\":1144:1150   */\n  dup2\n    /* \"#utility.yul\":1138:1151   */\n  mload\n    /* \"#utility.yul\":1129:1151   */\n  swap1\n  pop\n    /* \"#utility.yul\":1160:1193   */\n  tag_34\n    /* \"#utility.yul\":1187:1192   */\n  dup2\n    /* \"#utility.yul\":1160:1193   */\n  tag_15\n  jump\t// in\ntag_34:\n    /* \"#utility.yul\":1056:1199   */\n  swap3\n  swap2\n  pop\n  pop\n  jump\t// out\n    /* \"#utility.yul\":1205:1712   */\ntag_3:\n    /* \"#utility.yul\":1284:1290   */\n  0x00\n    /* \"#utility.yul\":1292:1298   */\n  dup1\n    /* \"#utility.yul\":1341:1343   */\n  0x40\n    /* \"#utility.yul\":1329:1338   */\n  dup4\n    /* \"#utility.yul\":1320:1327   */\n  dup6\n    /* \"#utility.yul\":1316:1339   */\n  sub\n    /* \"#utility.yul\":1312:1344   */\n  slt\n    /* \"#utility.yul\":1309:1428   */\n  iszero\n  tag_36\n  jumpi\n    /* \"#utility.yul\":1347:1426   */\n  tag_37\n  tag_8\n  jump\t// in\ntag_37:\n    /* \"#utility.yul\":1309:1428   */\ntag_36:\n    /* \"#utility.yul\":1467:1468   */\n  0x00\n    /* \"#utility.yul\":1492:1556   */\n  tag_38\n    /* \"#utility.yul\":1548:1555   */\n  dup6\n    /* \"#utility.yul\":1539:1545   */\n  dup3\n    /* \"#utility.yul\":1528:1537   */\n  dup7\n    /* \"#utility.yul\":1524:1546   */\n  add\n    /* \"#utility.yul\":1492:1556   */\n  tag_12\n  jump\t// in\ntag_38:\n    /* \"#utility.yul\":1482:1556   */\n  swap3\n  pop\n    /* \"#utility.yul\":1438:1566   */\n  pop\n    /* \"#utility.yul\":1605:1607   */\n  0x20\n    /* \"#utility.yul\":1631:1695   */\n  tag_39\n    /* \"#utility.yul\":1687:1694   */\n  dup6\n    /* \"#utility.yul\":1678:1684   */\n  dup3\n    /* \"#utility.yul\":1667:1676   */\n  dup7\n    /* \"#utility.yul\":1663:1685   */\n  add\n    /* \"#utility.yul\":1631:1695   */\n  tag_16\n  jump\t// in\ntag_39:\n    /* \"#utility.yul\":1621:1695   */\n  swap2\n  pop\n    /* \"#utility.yul\":1576:1705   */\n  pop\n    /* \"#utility.yul\":1205:1712   */\n  swap3\n  pop\n  swap3\n  swap1\n  pop\n  jump\t// out\n    /* \"Campaign.sol\":448:3549  contract Campaign{... */\ntag_6:\n  dataSize(sub_0)\n  dup1\n  dataOffset(sub_0)\n  0x00\n  codecopy\n  0x00\n  return\nstop\n\nsub_0: assembly {\n        /* \"Campaign.sol\":448:3549  contract Campaign{... */\n      mstore(0x40, 0x80)\n      jumpi(tag_1, lt(calldatasize, 0x04))\n      shr(0xe0, calldataload(0x00))\n      dup1\n      0x81d12c58\n      gt\n      tag_13\n      jumpi\n      dup1\n      0x81d12c58\n      eq\n      tag_7\n      jumpi\n      dup1\n      0x8ec266f8\n      eq\n      tag_8\n      jumpi\n      dup1\n      0x921a5b5f\n      eq\n      tag_9\n      jumpi\n      dup1\n      0x937e09b1\n      eq\n      tag_10\n      jumpi\n      dup1\n      0xd7bb99ba\n      eq\n      tag_11\n      jumpi\n      dup1\n      0xd7d1bbdb\n      eq\n      tag_12\n      jumpi\n      jump(tag_1)\n    tag_13:\n      dup1\n      0x03441006\n      eq\n      tag_2\n      jumpi\n      dup1\n      0x3410452a\n      eq\n      tag_3\n      jumpi\n      dup1\n      0x4051ddac\n      eq\n      tag_4\n      jumpi\n      dup1\n      0x481c6a75\n      eq\n      tag_5\n      jumpi\n      dup1\n      0x4e260f6f\n      eq\n      tag_6\n      jumpi\n    tag_1:\n      0x00\n      dup1\n      revert\n        /* \"Campaign.sol\":2374:2888  function finalizeRequest(uint _index) public payable onlyManager {... */\n    tag_2:\n      tag_14\n      0x04\n      dup1\n      calldatasize\n      sub\n      dup2\n      add\n      swap1\n      tag_15\n      swap2\n      swap1\n      tag_16\n      jump\t// in\n    tag_15:\n      tag_17\n      jump\t// in\n    tag_14:\n      stop\n        /* \"Campaign.sol\":2896:2985  function getRequestsCount() public view returns(uint) {... */\n    tag_3:\n      callvalue\n      dup1\n      iszero\n      tag_18\n      jumpi\n      0x00\n      dup1\n      revert\n    tag_18:\n      pop\n      tag_19\n      tag_20\n      jump\t// in\n    tag_19:\n      mload(0x40)\n      tag_21\n      swap2\n      swap1\n      tag_22\n      jump\t// in\n    tag_21:\n      mload(0x40)\n      dup1\n      swap2\n      sub\n      swap1\n      return\n        /* \"Campaign.sol\":3271:3546  function getSummary() public view returns(uint, uint, uint, uint, address){... */\n    tag_4:\n      callvalue\n      dup1\n      iszero\n      tag_23\n      jumpi\n      0x00\n      dup1\n      revert\n    tag_23:\n      pop\n      tag_24\n      tag_25\n      jump\t// in\n    tag_24:\n      mload(0x40)\n      tag_26\n      swap6\n      swap5\n      swap4\n      swap3\n      swap2\n      swap1\n      tag_27\n      jump\t// in\n    tag_26:\n      mload(0x40)\n      dup1\n      swap2\n      sub\n      swap1\n      return\n        /* \"Campaign.sol\":474:496  address public manager */\n    tag_5:\n      callvalue\n      dup1\n      iszero\n      tag_28\n      jumpi\n      0x00\n      dup1\n      revert\n    tag_28:\n      pop\n      tag_29\n      tag_30\n      jump\t// in\n    tag_29:\n      mload(0x40)\n      tag_31\n      swap2\n      swap1\n      tag_32\n      jump\t// in\n    tag_31:\n      mload(0x40)\n      dup1\n      swap2\n      sub\n      swap1\n      return\n        /* \"Campaign.sol\":3166:3263  function noOfContributors() public view returns(uint){... */\n    tag_6:\n      callvalue\n      dup1\n      iszero\n      tag_33\n      jumpi\n      0x00\n      dup1\n      revert\n    tag_33:\n      pop\n      tag_34\n      tag_35\n      jump\t// in\n    tag_34:\n      mload(0x40)\n      tag_36\n      swap2\n      swap1\n      tag_22\n      jump\t// in\n    tag_36:\n      mload(0x40)\n      dup1\n      swap2\n      sub\n      swap1\n      return\n        /* \"Campaign.sol\":871:897  Request [] public requests */\n    tag_7:\n      callvalue\n      dup1\n      iszero\n      tag_37\n      jumpi\n      0x00\n      dup1\n      revert\n    tag_37:\n      pop\n      tag_38\n      0x04\n      dup1\n      calldatasize\n      sub\n      dup2\n      add\n      swap1\n      tag_39\n      swap2\n      swap1\n      tag_16\n      jump\t// in\n    tag_39:\n      tag_40\n      jump\t// in\n    tag_38:\n      mload(0x40)\n      tag_41\n      swap6\n      swap5\n      swap4\n      swap3\n      swap2\n      swap1\n      tag_42\n      jump\t// in\n    tag_41:\n      mload(0x40)\n      dup1\n      swap2\n      sub\n      swap1\n      return\n        /* \"Campaign.sol\":2993:3158  function getApproveRequestCount(uint _index) public view returns(uint){... */\n    tag_8:\n      callvalue\n      dup1\n      iszero\n      tag_43\n      jumpi\n      0x00\n      dup1\n      revert\n    tag_43:\n      pop\n      tag_44\n      0x04\n      dup1\n      calldatasize\n      sub\n      dup2\n      add\n      swap1\n      tag_45\n      swap2\n      swap1\n      tag_16\n      jump\t// in\n    tag_45:\n      tag_46\n      jump\t// in\n    tag_44:\n      mload(0x40)\n      tag_47\n      swap2\n      swap1\n      tag_22\n      jump\t// in\n    tag_47:\n      mload(0x40)\n      dup1\n      swap2\n      sub\n      swap1\n      return\n        /* \"Campaign.sol\":1587:1996  function request(uint _value, string memory _description, address payable _recipient) public onlyManager{... */\n    tag_9:\n      callvalue\n      dup1\n      iszero\n      tag_48\n      jumpi\n      0x00\n      dup1\n      revert\n    tag_48:\n      pop\n      tag_49\n      0x04\n      dup1\n      calldatasize\n      sub\n      dup2\n      add\n      swap1\n      tag_50\n      swap2\n      swap1\n      tag_51\n      jump\t// in\n    tag_50:\n      tag_52\n      jump\t// in\n    tag_49:\n      stop\n        /* \"Campaign.sol\":504:535  uint public minimumContribution */\n    tag_10:\n      callvalue\n      dup1\n      iszero\n      tag_53\n      jumpi\n      0x00\n      dup1\n      revert\n    tag_53:\n      pop\n      tag_54\n      tag_55\n      jump\t// in\n    tag_54:\n      mload(0x40)\n      tag_56\n      swap2\n      swap1\n      tag_22\n      jump\t// in\n    tag_56:\n      mload(0x40)\n      dup1\n      swap2\n      sub\n      swap1\n      return\n        /* \"Campaign.sol\":1264:1579  function contribute() public payable {... */\n    tag_11:\n      tag_57\n      tag_58\n      jump\t// in\n    tag_57:\n      stop\n        /* \"Campaign.sol\":2004:2351  function approveRequest(uint _index) public {... */\n    tag_12:\n      callvalue\n      dup1\n      iszero\n      tag_59\n      jumpi\n      0x00\n      dup1\n      revert\n    tag_59:\n      pop\n      tag_60\n      0x04\n      dup1\n      calldatasize\n      sub\n      dup2\n      add\n      swap1\n      tag_61\n      swap2\n      swap1\n      tag_16\n      jump\t// in\n    tag_61:\n      tag_62\n      jump\t// in\n    tag_60:\n      stop\n        /* \"Campaign.sol\":2374:2888  function finalizeRequest(uint _index) public payable onlyManager {... */\n    tag_17:\n        /* \"Campaign.sol\":1185:1192  manager */\n      0x00\n      dup1\n      sload\n      swap1\n      0x0100\n      exp\n      swap1\n      div\n      0xffffffffffffffffffffffffffffffffffffffff\n      and\n        /* \"Campaign.sol\":1171:1192  msg.sender == manager */\n      0xffffffffffffffffffffffffffffffffffffffff\n      and\n        /* \"Campaign.sol\":1171:1181  msg.sender */\n      caller\n        /* \"Campaign.sol\":1171:1192  msg.sender == manager */\n      0xffffffffffffffffffffffffffffffffffffffff\n      and\n      eq\n        /* \"Campaign.sol\":1163:1235  require(msg.sender == manager, \"Only manager can access this functions\") */\n      tag_64\n      jumpi\n      mload(0x40)\n      0x08c379a000000000000000000000000000000000000000000000000000000000\n      dup2\n      mstore\n      0x04\n      add\n      tag_65\n      swap1\n      tag_66\n      jump\t// in\n    tag_65:\n      mload(0x40)\n      dup1\n      swap2\n      sub\n      swap1\n      revert\n    tag_64:\n        /* \"Campaign.sol\":2450:2469  Request storage req */\n      0x00\n        /* \"Campaign.sol\":2472:2480  requests */\n      0x05\n        /* \"Campaign.sol\":2481:2487  _index */\n      dup3\n        /* \"Campaign.sol\":2472:2488  requests[_index] */\n      dup2\n      sload\n      dup2\n      lt\n      tag_68\n      jumpi\n      tag_69\n      tag_70\n      jump\t// in\n    tag_69:\n    tag_68:\n      swap1\n      0x00\n      mstore\n      keccak256(0x00, 0x20)\n      swap1\n      0x06\n      mul\n      add\n        /* \"Campaign.sol\":2450:2488  Request storage req = requests[_index] */\n      swap1\n      pop\n        /* \"Campaign.sol\":2546:2547  2 */\n      0x02\n        /* \"Campaign.sol\":2528:2545  contributorsCount */\n      sload(0x04)\n        /* \"Campaign.sol\":2528:2547  contributorsCount/2 */\n      tag_72\n      swap2\n      swap1\n      tag_73\n      jump\t// in\n    tag_72:\n        /* \"Campaign.sol\":2508:2511  req */\n      dup2\n        /* \"Campaign.sol\":2508:2525  req.approvalCount */\n      0x04\n      add\n      sload\n        /* \"Campaign.sol\":2508:2547  req.approvalCount > contributorsCount/2 */\n      gt\n        /* \"Campaign.sol\":2500:2580  require(req.approvalCount > contributorsCount/2, \"Request needs more approvals\") */\n      tag_74\n      jumpi\n      mload(0x40)\n      0x08c379a000000000000000000000000000000000000000000000000000000000\n      dup2\n      mstore\n      0x04\n      add\n      tag_75\n      swap1\n      tag_76\n      jump\t// in\n    tag_75:\n      mload(0x40)\n      dup1\n      swap2\n      sub\n      swap1\n      revert\n    tag_74:\n        /* \"Campaign.sol\":2649:2652  req */\n      dup1\n        /* \"Campaign.sol\":2649:2663  req.isComplete */\n      0x03\n      add\n      0x00\n      swap1\n      sload\n      swap1\n      0x0100\n      exp\n      swap1\n      div\n      0xff\n      and\n        /* \"Campaign.sol\":2648:2663  !req.isComplete */\n      iszero\n        /* \"Campaign.sol\":2640:2701  require(!req.isComplete, \"Request has been already approved\") */\n      tag_77\n      jumpi\n      mload(0x40)\n      0x08c379a000000000000000000000000000000000000000000000000000000000\n      dup2\n      mstore\n      0x04\n      add\n      tag_78\n      swap1\n      tag_79\n      jump\t// in\n    tag_78:\n      mload(0x40)\n      dup1\n      swap2\n      sub\n      swap1\n      revert\n    tag_77:\n        /* \"Campaign.sol\":2746:2749  req */\n      dup1\n        /* \"Campaign.sol\":2746:2759  req.recipient */\n      0x01\n      add\n      0x00\n      swap1\n      sload\n      swap1\n      0x0100\n      exp\n      swap1\n      div\n      0xffffffffffffffffffffffffffffffffffffffff\n      and\n        /* \"Campaign.sol\":2746:2768  req.recipient.transfer */\n      0xffffffffffffffffffffffffffffffffffffffff\n      and\n        /* \"Campaign.sol\":2746:2779  req.recipient.transfer(req.value) */\n      0x08fc\n        /* \"Campaign.sol\":2769:2772  req */\n      dup3\n        /* \"Campaign.sol\":2769:2778  req.value */\n      0x02\n      add\n      sload\n        /* \"Campaign.sol\":2746:2779  req.recipient.transfer(req.value) */\n      swap1\n      dup2\n      iszero\n      mul\n      swap1\n      mload(0x40)\n      0x00\n      mload(0x40)\n      dup1\n      dup4\n      sub\n      dup2\n      dup6\n      dup9\n      dup9\n      call\n      swap4\n      pop\n      pop\n      pop\n      pop\n      iszero\n      dup1\n      iszero\n      tag_81\n      jumpi\n      returndatasize\n      0x00\n      dup1\n      returndatacopy\n      revert(0x00, returndatasize)\n    tag_81:\n      pop\n        /* \"Campaign.sol\":2842:2846  true */\n      0x01\n        /* \"Campaign.sol\":2825:2828  req */\n      dup2\n        /* \"Campaign.sol\":2825:2839  req.isComplete */\n      0x03\n      add\n      0x00\n        /* \"Campaign.sol\":2825:2846  req.isComplete = true */\n      0x0100\n      exp\n      dup2\n      sload\n      dup2\n      0xff\n      mul\n      not\n      and\n      swap1\n      dup4\n      iszero\n      iszero\n      mul\n      or\n      swap1\n      sstore\n      pop\n        /* \"Campaign.sol\":2439:2888  {... */\n      pop\n        /* \"Campaign.sol\":2374:2888  function finalizeRequest(uint _index) public payable onlyManager {... */\n      pop\n      jump\t// out\n        /* \"Campaign.sol\":2896:2985  function getRequestsCount() public view returns(uint) {... */\n    tag_20:\n        /* \"Campaign.sol\":2944:2948  uint */\n      0x00\n        /* \"Campaign.sol\":2968:2976  reqCount */\n      sload(0x02)\n        /* \"Campaign.sol\":2961:2976  return reqCount */\n      swap1\n      pop\n        /* \"Campaign.sol\":2896:2985  function getRequestsCount() public view returns(uint) {... */\n      swap1\n      jump\t// out\n        /* \"Campaign.sol\":3271:3546  function getSummary() public view returns(uint, uint, uint, uint, address){... */\n    tag_25:\n        /* \"Campaign.sol\":3313:3317  uint */\n      0x00\n        /* \"Campaign.sol\":3319:3323  uint */\n      dup1\n        /* \"Campaign.sol\":3325:3329  uint */\n      0x00\n        /* \"Campaign.sol\":3331:3335  uint */\n      dup1\n        /* \"Campaign.sol\":3337:3344  address */\n      0x00\n        /* \"Campaign.sol\":3387:3406  minimumContribution */\n      sload(0x01)\n        /* \"Campaign.sol\":3422:3443  address(this).balance */\n      selfbalance\n        /* \"Campaign.sol\":3458:3466  requests */\n      0x05\n        /* \"Campaign.sol\":3458:3473  requests.length */\n      dup1\n      sload\n      swap1\n      pop\n        /* \"Campaign.sol\":3488:3505  contributorsCount */\n      sload(0x04)\n        /* \"Campaign.sol\":3520:3527  manager */\n      0x00\n      dup1\n      sload\n      swap1\n      0x0100\n      exp\n      swap1\n      div\n      0xffffffffffffffffffffffffffffffffffffffff\n      and\n        /* \"Campaign.sol\":3366:3538  return(... */\n      swap5\n      pop\n      swap5\n      pop\n      swap5\n      pop\n      swap5\n      pop\n      swap5\n      pop\n        /* \"Campaign.sol\":3271:3546  function getSummary() public view returns(uint, uint, uint, uint, address){... */\n      swap1\n      swap2\n      swap3\n      swap4\n      swap5\n      jump\t// out\n        /* \"Campaign.sol\":474:496  address public manager */\n    tag_30:\n      0x00\n      dup1\n      sload\n      swap1\n      0x0100\n      exp\n      swap1\n      div\n      0xffffffffffffffffffffffffffffffffffffffff\n      and\n      dup2\n      jump\t// out\n        /* \"Campaign.sol\":3166:3263  function noOfContributors() public view returns(uint){... */\n    tag_35:\n        /* \"Campaign.sol\":3214:3218  uint */\n      0x00\n        /* \"Campaign.sol\":3237:3254  contributorsCount */\n      sload(0x04)\n        /* \"Campaign.sol\":3230:3254  return contributorsCount */\n      swap1\n      pop\n        /* \"Campaign.sol\":3166:3263  function noOfContributors() public view returns(uint){... */\n      swap1\n      jump\t// out\n        /* \"Campaign.sol\":871:897  Request [] public requests */\n    tag_40:\n      0x05\n      dup2\n      dup2\n      sload\n      dup2\n      lt\n      tag_85\n      jumpi\n      0x00\n      dup1\n      revert\n    tag_85:\n      swap1\n      0x00\n      mstore\n      keccak256(0x00, 0x20)\n      swap1\n      0x06\n      mul\n      add\n      0x00\n      swap2\n      pop\n      swap1\n      pop\n      dup1\n      0x00\n      add\n      dup1\n      sload\n      tag_87\n      swap1\n      tag_88\n      jump\t// in\n    tag_87:\n      dup1\n      0x1f\n      add\n      0x20\n      dup1\n      swap2\n      div\n      mul\n      0x20\n      add\n      mload(0x40)\n      swap1\n      dup2\n      add\n      0x40\n      mstore\n      dup1\n      swap3\n      swap2\n      swap1\n      dup2\n      dup2\n      mstore\n      0x20\n      add\n      dup3\n      dup1\n      sload\n      tag_89\n      swap1\n      tag_88\n      jump\t// in\n    tag_89:\n      dup1\n      iszero\n      tag_90\n      jumpi\n      dup1\n      0x1f\n      lt\n      tag_91\n      jumpi\n      0x0100\n      dup1\n      dup4\n      sload\n      div\n      mul\n      dup4\n      mstore\n      swap2\n      0x20\n      add\n      swap2\n      jump(tag_90)\n    tag_91:\n      dup3\n      add\n      swap2\n      swap1\n      0x00\n      mstore\n      keccak256(0x00, 0x20)\n      swap1\n    tag_92:\n      dup2\n      sload\n      dup2\n      mstore\n      swap1\n      0x01\n      add\n      swap1\n      0x20\n      add\n      dup1\n      dup4\n      gt\n      tag_92\n      jumpi\n      dup3\n      swap1\n      sub\n      0x1f\n      and\n      dup3\n      add\n      swap2\n    tag_90:\n      pop\n      pop\n      pop\n      pop\n      pop\n      swap1\n      dup1\n      0x01\n      add\n      0x00\n      swap1\n      sload\n      swap1\n      0x0100\n      exp\n      swap1\n      div\n      0xffffffffffffffffffffffffffffffffffffffff\n      and\n      swap1\n      dup1\n      0x02\n      add\n      sload\n      swap1\n      dup1\n      0x03\n      add\n      0x00\n      swap1\n      sload\n      swap1\n      0x0100\n      exp\n      swap1\n      div\n      0xff\n      and\n      swap1\n      dup1\n      0x04\n      add\n      sload\n      swap1\n      pop\n      dup6\n      jump\t// out\n        /* \"Campaign.sol\":2993:3158  function getApproveRequestCount(uint _index) public view returns(uint){... */\n    tag_46:\n        /* \"Campaign.sol\":3058:3062  uint */\n      0x00\n        /* \"Campaign.sol\":3074:3093  Request storage req */\n      dup1\n        /* \"Campaign.sol\":3096:3104  requests */\n      0x05\n        /* \"Campaign.sol\":3105:3111  _index */\n      dup4\n        /* \"Campaign.sol\":3096:3112  requests[_index] */\n      dup2\n      sload\n      dup2\n      lt\n      tag_94\n      jumpi\n      tag_95\n      tag_70\n      jump\t// in\n    tag_95:\n    tag_94:\n      swap1\n      0x00\n      mstore\n      keccak256(0x00, 0x20)\n      swap1\n      0x06\n      mul\n      add\n        /* \"Campaign.sol\":3074:3112  Request storage req = requests[_index] */\n      swap1\n      pop\n        /* \"Campaign.sol\":3131:3134  req */\n      dup1\n        /* \"Campaign.sol\":3131:3148  req.approvalCount */\n      0x04\n      add\n      sload\n        /* \"Campaign.sol\":3124:3148  return req.approvalCount */\n      swap2\n      pop\n      pop\n        /* \"Campaign.sol\":2993:3158  function getApproveRequestCount(uint _index) public view returns(uint){... */\n      swap2\n      swap1\n      pop\n      jump\t// out\n        /* \"Campaign.sol\":1587:1996  function request(uint _value, string memory _description, address payable _recipient) public onlyManager{... */\n    tag_52:\n        /* \"Campaign.sol\":1185:1192  manager */\n      0x00\n      dup1\n      sload\n      swap1\n      0x0100\n      exp\n      swap1\n      div\n      0xffffffffffffffffffffffffffffffffffffffff\n      and\n        /* \"Campaign.sol\":1171:1192  msg.sender == manager */\n      0xffffffffffffffffffffffffffffffffffffffff\n      and\n        /* \"Campaign.sol\":1171:1181  msg.sender */\n      caller\n        /* \"Campaign.sol\":1171:1192  msg.sender == manager */\n      0xffffffffffffffffffffffffffffffffffffffff\n      and\n      eq\n        /* \"Campaign.sol\":1163:1235  require(msg.sender == manager, \"Only manager can access this functions\") */\n      tag_98\n      jumpi\n      mload(0x40)\n      0x08c379a000000000000000000000000000000000000000000000000000000000\n      dup2\n      mstore\n      0x04\n      add\n      tag_99\n      swap1\n      tag_66\n      jump\t// in\n    tag_99:\n      mload(0x40)\n      dup1\n      swap2\n      sub\n      swap1\n      revert\n    tag_98:\n        /* \"Campaign.sol\":1748:1765  Request storage r */\n      0x00\n        /* \"Campaign.sol\":1768:1776  requests */\n      0x05\n        /* \"Campaign.sol\":1768:1783  requests.push() */\n      0x01\n      dup2\n      0x01\n      dup2\n      sload\n      add\n      dup1\n      dup3\n      sstore\n      dup1\n      swap2\n      pop\n      pop\n      sub\n      swap1\n      0x00\n      mstore\n      keccak256(0x00, 0x20)\n      swap1\n      0x06\n      mul\n      add\n        /* \"Campaign.sol\":1748:1783  Request storage r = requests.push() */\n      swap1\n      pop\n        /* \"Campaign.sol\":1826:1838  _description */\n      dup3\n        /* \"Campaign.sol\":1810:1811  r */\n      dup2\n        /* \"Campaign.sol\":1810:1823  r.description */\n      0x00\n      add\n        /* \"Campaign.sol\":1810:1838  r.description = _description */\n      swap1\n      dup2\n      tag_102\n      swap2\n      swap1\n      tag_103\n      jump\t// in\n    tag_102:\n      pop\n        /* \"Campaign.sol\":1860:1866  _value */\n      dup4\n        /* \"Campaign.sol\":1850:1851  r */\n      dup2\n        /* \"Campaign.sol\":1850:1857  r.value */\n      0x02\n      add\n        /* \"Campaign.sol\":1850:1866  r.value = _value */\n      dup2\n      swap1\n      sstore\n      pop\n        /* \"Campaign.sol\":1892:1902  _recipient */\n      dup2\n        /* \"Campaign.sol\":1878:1879  r */\n      dup2\n        /* \"Campaign.sol\":1878:1889  r.recipient */\n      0x01\n      add\n      0x00\n        /* \"Campaign.sol\":1878:1902  r.recipient = _recipient */\n      0x0100\n      exp\n      dup2\n      sload\n      dup2\n      0xffffffffffffffffffffffffffffffffffffffff\n      mul\n      not\n      and\n      swap1\n      dup4\n      0xffffffffffffffffffffffffffffffffffffffff\n      and\n      mul\n      or\n      swap1\n      sstore\n      pop\n        /* \"Campaign.sol\":1929:1934  false */\n      0x00\n        /* \"Campaign.sol\":1914:1915  r */\n      dup2\n        /* \"Campaign.sol\":1914:1926  r.isComplete */\n      0x03\n      add\n      0x00\n        /* \"Campaign.sol\":1914:1934  r.isComplete = false */\n      0x0100\n      exp\n      dup2\n      sload\n      dup2\n      0xff\n      mul\n      not\n      and\n      swap1\n      dup4\n      iszero\n      iszero\n      mul\n      or\n      swap1\n      sstore\n      pop\n        /* \"Campaign.sol\":1964:1965  0 */\n      0x00\n        /* \"Campaign.sol\":1946:1947  r */\n      dup2\n        /* \"Campaign.sol\":1946:1961  r.approvalCount */\n      0x04\n      add\n        /* \"Campaign.sol\":1946:1965  r.approvalCount = 0 */\n      dup2\n      swap1\n      sstore\n      pop\n        /* \"Campaign.sol\":1977:1985  reqCount */\n      0x02\n      0x00\n        /* \"Campaign.sol\":1977:1987  reqCount++ */\n      dup2\n      sload\n      dup1\n      swap3\n      swap2\n      swap1\n      tag_104\n      swap1\n      tag_105\n      jump\t// in\n    tag_104:\n      swap2\n      swap1\n      pop\n      sstore\n      pop\n        /* \"Campaign.sol\":1691:1996  {... */\n      pop\n        /* \"Campaign.sol\":1587:1996  function request(uint _value, string memory _description, address payable _recipient) public onlyManager{... */\n      pop\n      pop\n      pop\n      jump\t// out\n        /* \"Campaign.sol\":504:535  uint public minimumContribution */\n    tag_55:\n      sload(0x01)\n      dup2\n      jump\t// out\n        /* \"Campaign.sol\":1264:1579  function contribute() public payable {... */\n    tag_58:\n        /* \"Campaign.sol\":1419:1438  minimumContribution */\n      sload(0x01)\n        /* \"Campaign.sol\":1406:1415  msg.value */\n      callvalue\n        /* \"Campaign.sol\":1406:1438  msg.value >= minimumContribution */\n      lt\n      iszero\n        /* \"Campaign.sol\":1398:1439  require(msg.value >= minimumContribution) */\n      tag_107\n      jumpi\n      0x00\n      dup1\n      revert\n    tag_107:\n        /* \"Campaign.sol\":1534:1539  false */\n      0x00\n        /* \"Campaign.sol\":1507:1519  contributors */\n      0x03\n        /* \"Campaign.sol\":1507:1531  contributors[msg.sender] */\n      0x00\n        /* \"Campaign.sol\":1520:1530  msg.sender */\n      caller\n        /* \"Campaign.sol\":1507:1531  contributors[msg.sender] */\n      0xffffffffffffffffffffffffffffffffffffffff\n      and\n      0xffffffffffffffffffffffffffffffffffffffff\n      and\n      dup2\n      mstore\n      0x20\n      add\n      swap1\n      dup2\n      mstore\n      0x20\n      add\n      0x00\n      keccak256\n      0x00\n        /* \"Campaign.sol\":1507:1539  contributors[msg.sender] = false */\n      0x0100\n      exp\n      dup2\n      sload\n      dup2\n      0xff\n      mul\n      not\n      and\n      swap1\n      dup4\n      iszero\n      iszero\n      mul\n      or\n      swap1\n      sstore\n      pop\n        /* \"Campaign.sol\":1551:1568  contributorsCount */\n      0x04\n      0x00\n        /* \"Campaign.sol\":1551:1570  contributorsCount++ */\n      dup2\n      sload\n      dup1\n      swap3\n      swap2\n      swap1\n      tag_108\n      swap1\n      tag_105\n      jump\t// in\n    tag_108:\n      swap2\n      swap1\n      pop\n      sstore\n      pop\n        /* \"Campaign.sol\":1264:1579  function contribute() public payable {... */\n      jump\t// out\n        /* \"Campaign.sol\":2004:2351  function approveRequest(uint _index) public {... */\n    tag_62:\n        /* \"Campaign.sol\":2070:2082  contributors */\n      0x03\n        /* \"Campaign.sol\":2070:2094  contributors[msg.sender] */\n      0x00\n        /* \"Campaign.sol\":2083:2093  msg.sender */\n      caller\n        /* \"Campaign.sol\":2070:2094  contributors[msg.sender] */\n      0xffffffffffffffffffffffffffffffffffffffff\n      and\n      0xffffffffffffffffffffffffffffffffffffffff\n      and\n      dup2\n      mstore\n      0x20\n      add\n      swap1\n      dup2\n      mstore\n      0x20\n      add\n      0x00\n      keccak256\n      0x00\n      swap1\n      sload\n      swap1\n      0x0100\n      exp\n      swap1\n      div\n      0xff\n      and\n        /* \"Campaign.sol\":2069:2094  !contributors[msg.sender] */\n      iszero\n        /* \"Campaign.sol\":2061:2125  require(!contributors[msg.sender], \"Only Contributers can vote\") */\n      tag_110\n      jumpi\n      mload(0x40)\n      0x08c379a000000000000000000000000000000000000000000000000000000000\n      dup2\n      mstore\n      0x04\n      add\n      tag_111\n      swap1\n      tag_112\n      jump\t// in\n    tag_111:\n      mload(0x40)\n      dup1\n      swap2\n      sub\n      swap1\n      revert\n    tag_110:\n        /* \"Campaign.sol\":2136:2155  Request storage req */\n      0x00\n        /* \"Campaign.sol\":2158:2166  requests */\n      0x05\n        /* \"Campaign.sol\":2167:2173  _index */\n      dup3\n        /* \"Campaign.sol\":2158:2174  requests[_index] */\n      dup2\n      sload\n      dup2\n      lt\n      tag_113\n      jumpi\n      tag_114\n      tag_70\n      jump\t// in\n    tag_114:\n    tag_113:\n      swap1\n      0x00\n      mstore\n      keccak256(0x00, 0x20)\n      swap1\n      0x06\n      mul\n      add\n        /* \"Campaign.sol\":2136:2174  Request storage req = requests[_index] */\n      swap1\n      pop\n        /* \"Campaign.sol\":2195:2198  req */\n      dup1\n        /* \"Campaign.sol\":2195:2208  req.approvals */\n      0x05\n      add\n        /* \"Campaign.sol\":2195:2220  req.approvals[msg.sender] */\n      0x00\n        /* \"Campaign.sol\":2209:2219  msg.sender */\n      caller\n        /* \"Campaign.sol\":2195:2220  req.approvals[msg.sender] */\n      0xffffffffffffffffffffffffffffffffffffffff\n      and\n      0xffffffffffffffffffffffffffffffffffffffff\n      and\n      dup2\n      mstore\n      0x20\n      add\n      swap1\n      dup2\n      mstore\n      0x20\n      add\n      0x00\n      keccak256\n      0x00\n      swap1\n      sload\n      swap1\n      0x0100\n      exp\n      swap1\n      div\n      0xff\n      and\n        /* \"Campaign.sol\":2194:2220  !req.approvals[msg.sender] */\n      iszero\n        /* \"Campaign.sol\":2186:2247  require(!req.approvals[msg.sender], \"You have already Voted\") */\n      tag_116\n      jumpi\n      mload(0x40)\n      0x08c379a000000000000000000000000000000000000000000000000000000000\n      dup2\n      mstore\n      0x04\n      add\n      tag_117\n      swap1\n      tag_118\n      jump\t// in\n    tag_117:\n      mload(0x40)\n      dup1\n      swap2\n      sub\n      swap1\n      revert\n    tag_116:\n        /* \"Campaign.sol\":2288:2292  true */\n      0x01\n        /* \"Campaign.sol\":2260:2263  req */\n      dup2\n        /* \"Campaign.sol\":2260:2273  req.approvals */\n      0x05\n      add\n        /* \"Campaign.sol\":2260:2285  req.approvals[msg.sender] */\n      0x00\n        /* \"Campaign.sol\":2274:2284  msg.sender */\n      caller\n        /* \"Campaign.sol\":2260:2285  req.approvals[msg.sender] */\n      0xffffffffffffffffffffffffffffffffffffffff\n      and\n      0xffffffffffffffffffffffffffffffffffffffff\n      and\n      dup2\n      mstore\n      0x20\n      add\n      swap1\n      dup2\n      mstore\n      0x20\n      add\n      0x00\n      keccak256\n      0x00\n        /* \"Campaign.sol\":2260:2292  req.approvals[msg.sender] = true */\n      0x0100\n      exp\n      dup2\n      sload\n      dup2\n      0xff\n      mul\n      not\n      and\n      swap1\n      dup4\n      iszero\n      iszero\n      mul\n      or\n      swap1\n      sstore\n      pop\n        /* \"Campaign.sol\":2323:2326  req */\n      dup1\n        /* \"Campaign.sol\":2323:2340  req.approvalCount */\n      0x04\n      add\n      0x00\n        /* \"Campaign.sol\":2323:2342  req.approvalCount++ */\n      dup2\n      sload\n      dup1\n      swap3\n      swap2\n      swap1\n      tag_119\n      swap1\n      tag_105\n      jump\t// in\n    tag_119:\n      swap2\n      swap1\n      pop\n      sstore\n      pop\n        /* \"Campaign.sol\":2048:2351  {... */\n      pop\n        /* \"Campaign.sol\":2004:2351  function approveRequest(uint _index) public {... */\n      pop\n      jump\t// out\n        /* \"#utility.yul\":7:82   */\n    tag_120:\n        /* \"#utility.yul\":40:46   */\n      0x00\n        /* \"#utility.yul\":73:75   */\n      0x40\n        /* \"#utility.yul\":67:76   */\n      mload\n        /* \"#utility.yul\":57:76   */\n      swap1\n      pop\n        /* \"#utility.yul\":7:82   */\n      swap1\n      jump\t// out\n        /* \"#utility.yul\":88:205   */\n    tag_121:\n        /* \"#utility.yul\":197:198   */\n      0x00\n        /* \"#utility.yul\":194:195   */\n      dup1\n        /* \"#utility.yul\":187:199   */\n      revert\n        /* \"#utility.yul\":211:328   */\n    tag_122:\n        /* \"#utility.yul\":320:321   */\n      0x00\n        /* \"#utility.yul\":317:318   */\n      dup1\n        /* \"#utility.yul\":310:322   */\n      revert\n        /* \"#utility.yul\":334:411   */\n    tag_123:\n        /* \"#utility.yul\":371:378   */\n      0x00\n        /* \"#utility.yul\":400:405   */\n      dup2\n        /* \"#utility.yul\":389:405   */\n      swap1\n      pop\n        /* \"#utility.yul\":334:411   */\n      swap2\n      swap1\n      pop\n      jump\t// out\n        /* \"#utility.yul\":417:539   */\n    tag_124:\n        /* \"#utility.yul\":490:514   */\n      tag_184\n        /* \"#utility.yul\":508:513   */\n      dup2\n        /* \"#utility.yul\":490:514   */\n      tag_123\n      jump\t// in\n    tag_184:\n        /* \"#utility.yul\":483:488   */\n      dup2\n        /* \"#utility.yul\":480:515   */\n      eq\n        /* \"#utility.yul\":470:533   */\n      tag_185\n      jumpi\n        /* \"#utility.yul\":529:530   */\n      0x00\n        /* \"#utility.yul\":526:527   */\n      dup1\n        /* \"#utility.yul\":519:531   */\n      revert\n        /* \"#utility.yul\":470:533   */\n    tag_185:\n        /* \"#utility.yul\":417:539   */\n      pop\n      jump\t// out\n        /* \"#utility.yul\":545:684   */\n    tag_125:\n        /* \"#utility.yul\":591:596   */\n      0x00\n        /* \"#utility.yul\":629:635   */\n      dup2\n        /* \"#utility.yul\":616:636   */\n      calldataload\n        /* \"#utility.yul\":607:636   */\n      swap1\n      pop\n        /* \"#utility.yul\":645:678   */\n      tag_187\n        /* \"#utility.yul\":672:677   */\n      dup2\n        /* \"#utility.yul\":645:678   */\n      tag_124\n      jump\t// in\n    tag_187:\n        /* \"#utility.yul\":545:684   */\n      swap3\n      swap2\n      pop\n      pop\n      jump\t// out\n        /* \"#utility.yul\":690:1019   */\n    tag_16:\n        /* \"#utility.yul\":749:755   */\n      0x00\n        /* \"#utility.yul\":798:800   */\n      0x20\n        /* \"#utility.yul\":786:795   */\n      dup3\n        /* \"#utility.yul\":777:784   */\n      dup5\n        /* \"#utility.yul\":773:796   */\n      sub\n        /* \"#utility.yul\":769:801   */\n      slt\n        /* \"#utility.yul\":766:885   */\n      iszero\n      tag_189\n      jumpi\n        /* \"#utility.yul\":804:883   */\n      tag_190\n      tag_121\n      jump\t// in\n    tag_190:\n        /* \"#utility.yul\":766:885   */\n    tag_189:\n        /* \"#utility.yul\":924:925   */\n      0x00\n        /* \"#utility.yul\":949:1002   */\n      tag_191\n        /* \"#utility.yul\":994:1001   */\n      dup5\n        /* \"#utility.yul\":985:991   */\n      dup3\n        /* \"#utility.yul\":974:983   */\n      dup6\n        /* \"#utility.yul\":970:992   */\n      add\n        /* \"#utility.yul\":949:1002   */\n      tag_125\n      jump\t// in\n    tag_191:\n        /* \"#utility.yul\":939:1002   */\n      swap2\n      pop\n        /* \"#utility.yul\":895:1012   */\n      pop\n        /* \"#utility.yul\":690:1019   */\n      swap3\n      swap2\n      pop\n      pop\n      jump\t// out\n        /* \"#utility.yul\":1025:1143   */\n    tag_126:\n        /* \"#utility.yul\":1112:1136   */\n      tag_193\n        /* \"#utility.yul\":1130:1135   */\n      dup2\n        /* \"#utility.yul\":1112:1136   */\n      tag_123\n      jump\t// in\n    tag_193:\n        /* \"#utility.yul\":1107:1110   */\n      dup3\n        /* \"#utility.yul\":1100:1137   */\n      mstore\n        /* \"#utility.yul\":1025:1143   */\n      pop\n      pop\n      jump\t// out\n        /* \"#utility.yul\":1149:1371   */\n    tag_22:\n        /* \"#utility.yul\":1242:1246   */\n      0x00\n        /* \"#utility.yul\":1280:1282   */\n      0x20\n        /* \"#utility.yul\":1269:1278   */\n      dup3\n        /* \"#utility.yul\":1265:1283   */\n      add\n        /* \"#utility.yul\":1257:1283   */\n      swap1\n      pop\n        /* \"#utility.yul\":1293:1364   */\n      tag_195\n        /* \"#utility.yul\":1361:1362   */\n      0x00\n        /* \"#utility.yul\":1350:1359   */\n      dup4\n        /* \"#utility.yul\":1346:1363   */\n      add\n        /* \"#utility.yul\":1337:1343   */\n      dup5\n        /* \"#utility.yul\":1293:1364   */\n      tag_126\n      jump\t// in\n    tag_195:\n        /* \"#utility.yul\":1149:1371   */\n      swap3\n      swap2\n      pop\n      pop\n      jump\t// out\n        /* \"#utility.yul\":1377:1503   */\n    tag_127:\n        /* \"#utility.yul\":1414:1421   */\n      0x00\n        /* \"#utility.yul\":1454:1496   */\n      0xffffffffffffffffffffffffffffffffffffffff\n        /* \"#utility.yul\":1447:1452   */\n      dup3\n        /* \"#utility.yul\":1443:1497   */\n      and\n        /* \"#utility.yul\":1432:1497   */\n      swap1\n      pop\n        /* \"#utility.yul\":1377:1503   */\n      swap2\n      swap1\n      pop\n      jump\t// out\n        /* \"#utility.yul\":1509:1605   */\n    tag_128:\n        /* \"#utility.yul\":1546:1553   */\n      0x00\n        /* \"#utility.yul\":1575:1599   */\n      tag_198\n        /* \"#utility.yul\":1593:1598   */\n      dup3\n        /* \"#utility.yul\":1575:1599   */\n      tag_127\n      jump\t// in\n    tag_198:\n        /* \"#utility.yul\":1564:1599   */\n      swap1\n      pop\n        /* \"#utility.yul\":1509:1605   */\n      swap2\n      swap1\n      pop\n      jump\t// out\n        /* \"#utility.yul\":1611:1729   */\n    tag_129:\n        /* \"#utility.yul\":1698:1722   */\n      tag_200\n        /* \"#utility.yul\":1716:1721   */\n      dup2\n        /* \"#utility.yul\":1698:1722   */\n      tag_128\n      jump\t// in\n    tag_200:\n        /* \"#utility.yul\":1693:1696   */\n      dup3\n        /* \"#utility.yul\":1686:1723   */\n      mstore\n        /* \"#utility.yul\":1611:1729   */\n      pop\n      pop\n      jump\t// out\n        /* \"#utility.yul\":1735:2399   */\n    tag_27:\n        /* \"#utility.yul\":1940:1944   */\n      0x00\n        /* \"#utility.yul\":1978:1981   */\n      0xa0\n        /* \"#utility.yul\":1967:1976   */\n      dup3\n        /* \"#utility.yul\":1963:1982   */\n      add\n        /* \"#utility.yul\":1955:1982   */\n      swap1\n      pop\n        /* \"#utility.yul\":1992:2063   */\n      tag_202\n        /* \"#utility.yul\":2060:2061   */\n      0x00\n        /* \"#utility.yul\":2049:2058   */\n      dup4\n        /* \"#utility.yul\":2045:2062   */\n      add\n        /* \"#utility.yul\":2036:2042   */\n      dup9\n        /* \"#utility.yul\":1992:2063   */\n      tag_126\n      jump\t// in\n    tag_202:\n        /* \"#utility.yul\":2073:2145   */\n      tag_203\n        /* \"#utility.yul\":2141:2143   */\n      0x20\n        /* \"#utility.yul\":2130:2139   */\n      dup4\n        /* \"#utility.yul\":2126:2144   */\n      add\n        /* \"#utility.yul\":2117:2123   */\n      dup8\n        /* \"#utility.yul\":2073:2145   */\n      tag_126\n      jump\t// in\n    tag_203:\n        /* \"#utility.yul\":2155:2227   */\n      tag_204\n        /* \"#utility.yul\":2223:2225   */\n      0x40\n        /* \"#utility.yul\":2212:2221   */\n      dup4\n        /* \"#utility.yul\":2208:2226   */\n      add\n        /* \"#utility.yul\":2199:2205   */\n      dup7\n        /* \"#utility.yul\":2155:2227   */\n      tag_126\n      jump\t// in\n    tag_204:\n        /* \"#utility.yul\":2237:2309   */\n      tag_205\n        /* \"#utility.yul\":2305:2307   */\n      0x60\n        /* \"#utility.yul\":2294:2303   */\n      dup4\n        /* \"#utility.yul\":2290:2308   */\n      add\n        /* \"#utility.yul\":2281:2287   */\n      dup6\n        /* \"#utility.yul\":2237:2309   */\n      tag_126\n      jump\t// in\n    tag_205:\n        /* \"#utility.yul\":2319:2392   */\n      tag_206\n        /* \"#utility.yul\":2387:2390   */\n      0x80\n        /* \"#utility.yul\":2376:2385   */\n      dup4\n        /* \"#utility.yul\":2372:2391   */\n      add\n        /* \"#utility.yul\":2363:2369   */\n      dup5\n        /* \"#utility.yul\":2319:2392   */\n      tag_129\n      jump\t// in\n    tag_206:\n        /* \"#utility.yul\":1735:2399   */\n      swap7\n      swap6\n      pop\n      pop\n      pop\n      pop\n      pop\n      pop\n      jump\t// out\n        /* \"#utility.yul\":2405:2627   */\n    tag_32:\n        /* \"#utility.yul\":2498:2502   */\n      0x00\n        /* \"#utility.yul\":2536:2538   */\n      0x20\n        /* \"#utility.yul\":2525:2534   */\n      dup3\n        /* \"#utility.yul\":2521:2539   */\n      add\n        /* \"#utility.yul\":2513:2539   */\n      swap1\n      pop\n        /* \"#utility.yul\":2549:2620   */\n      tag_208\n        /* \"#utility.yul\":2617:2618   */\n      0x00\n        /* \"#utility.yul\":2606:2615   */\n      dup4\n        /* \"#utility.yul\":2602:2619   */\n      add\n        /* \"#utility.yul\":2593:2599   */\n      dup5\n        /* \"#utility.yul\":2549:2620   */\n      tag_129\n      jump\t// in\n    tag_208:\n        /* \"#utility.yul\":2405:2627   */\n      swap3\n      swap2\n      pop\n      pop\n      jump\t// out\n        /* \"#utility.yul\":2633:2732   */\n    tag_130:\n        /* \"#utility.yul\":2685:2691   */\n      0x00\n        /* \"#utility.yul\":2719:2724   */\n      dup2\n        /* \"#utility.yul\":2713:2725   */\n      mload\n        /* \"#utility.yul\":2703:2725   */\n      swap1\n      pop\n        /* \"#utility.yul\":2633:2732   */\n      swap2\n      swap1\n      pop\n      jump\t// out\n        /* \"#utility.yul\":2738:2907   */\n    tag_131:\n        /* \"#utility.yul\":2822:2833   */\n      0x00\n        /* \"#utility.yul\":2856:2862   */\n      dup3\n        /* \"#utility.yul\":2851:2854   */\n      dup3\n        /* \"#utility.yul\":2844:2863   */\n      mstore\n        /* \"#utility.yul\":2896:2900   */\n      0x20\n        /* \"#utility.yul\":2891:2894   */\n      dup3\n        /* \"#utility.yul\":2887:2901   */\n      add\n        /* \"#utility.yul\":2872:2901   */\n      swap1\n      pop\n        /* \"#utility.yul\":2738:2907   */\n      swap3\n      swap2\n      pop\n      pop\n      jump\t// out\n        /* \"#utility.yul\":2913:3159   */\n    tag_132:\n        /* \"#utility.yul\":2994:2995   */\n      0x00\n        /* \"#utility.yul\":3004:3117   */\n    tag_212:\n        /* \"#utility.yul\":3018:3024   */\n      dup4\n        /* \"#utility.yul\":3015:3016   */\n      dup2\n        /* \"#utility.yul\":3012:3025   */\n      lt\n        /* \"#utility.yul\":3004:3117   */\n      iszero\n      tag_214\n      jumpi\n        /* \"#utility.yul\":3103:3104   */\n      dup1\n        /* \"#utility.yul\":3098:3101   */\n      dup3\n        /* \"#utility.yul\":3094:3105   */\n      add\n        /* \"#utility.yul\":3088:3106   */\n      mload\n        /* \"#utility.yul\":3084:3085   */\n      dup2\n        /* \"#utility.yul\":3079:3082   */\n      dup5\n        /* \"#utility.yul\":3075:3086   */\n      add\n        /* \"#utility.yul\":3068:3107   */\n      mstore\n        /* \"#utility.yul\":3040:3042   */\n      0x20\n        /* \"#utility.yul\":3037:3038   */\n      dup2\n        /* \"#utility.yul\":3033:3043   */\n      add\n        /* \"#utility.yul\":3028:3043   */\n      swap1\n      pop\n        /* \"#utility.yul\":3004:3117   */\n      jump(tag_212)\n    tag_214:\n        /* \"#utility.yul\":3151:3152   */\n      0x00\n        /* \"#utility.yul\":3142:3148   */\n      dup5\n        /* \"#utility.yul\":3137:3140   */\n      dup5\n        /* \"#utility.yul\":3133:3149   */\n      add\n        /* \"#utility.yul\":3126:3153   */\n      mstore\n        /* \"#utility.yul\":2975:3159   */\n      pop\n        /* \"#utility.yul\":2913:3159   */\n      pop\n      pop\n      pop\n      jump\t// out\n        /* \"#utility.yul\":3165:3267   */\n    tag_133:\n        /* \"#utility.yul\":3206:3212   */\n      0x00\n        /* \"#utility.yul\":3257:3259   */\n      0x1f\n        /* \"#utility.yul\":3253:3260   */\n      not\n        /* \"#utility.yul\":3248:3250   */\n      0x1f\n        /* \"#utility.yul\":3241:3246   */\n      dup4\n        /* \"#utility.yul\":3237:3251   */\n      add\n        /* \"#utility.yul\":3233:3261   */\n      and\n        /* \"#utility.yul\":3223:3261   */\n      swap1\n      pop\n        /* \"#utility.yul\":3165:3267   */\n      swap2\n      swap1\n      pop\n      jump\t// out\n        /* \"#utility.yul\":3273:3650   */\n    tag_134:\n        /* \"#utility.yul\":3361:3364   */\n      0x00\n        /* \"#utility.yul\":3389:3428   */\n      tag_217\n        /* \"#utility.yul\":3422:3427   */\n      dup3\n        /* \"#utility.yul\":3389:3428   */\n      tag_130\n      jump\t// in\n    tag_217:\n        /* \"#utility.yul\":3444:3515   */\n      tag_218\n        /* \"#utility.yul\":3508:3514   */\n      dup2\n        /* \"#utility.yul\":3503:3506   */\n      dup6\n        /* \"#utility.yul\":3444:3515   */\n      tag_131\n      jump\t// in\n    tag_218:\n        /* \"#utility.yul\":3437:3515   */\n      swap4\n      pop\n        /* \"#utility.yul\":3524:3589   */\n      tag_219\n        /* \"#utility.yul\":3582:3588   */\n      dup2\n        /* \"#utility.yul\":3577:3580   */\n      dup6\n        /* \"#utility.yul\":3570:3574   */\n      0x20\n        /* \"#utility.yul\":3563:3568   */\n      dup7\n        /* \"#utility.yul\":3559:3575   */\n      add\n        /* \"#utility.yul\":3524:3589   */\n      tag_132\n      jump\t// in\n    tag_219:\n        /* \"#utility.yul\":3614:3643   */\n      tag_220\n        /* \"#utility.yul\":3636:3642   */\n      dup2\n        /* \"#utility.yul\":3614:3643   */\n      tag_133\n      jump\t// in\n    tag_220:\n        /* \"#utility.yul\":3609:3612   */\n      dup5\n        /* \"#utility.yul\":3605:3644   */\n      add\n        /* \"#utility.yul\":3598:3644   */\n      swap2\n      pop\n        /* \"#utility.yul\":3365:3650   */\n      pop\n        /* \"#utility.yul\":3273:3650   */\n      swap3\n      swap2\n      pop\n      pop\n      jump\t// out\n        /* \"#utility.yul\":3656:3760   */\n    tag_135:\n        /* \"#utility.yul\":3701:3708   */\n      0x00\n        /* \"#utility.yul\":3730:3754   */\n      tag_222\n        /* \"#utility.yul\":3748:3753   */\n      dup3\n        /* \"#utility.yul\":3730:3754   */\n      tag_127\n      jump\t// in\n    tag_222:\n        /* \"#utility.yul\":3719:3754   */\n      swap1\n      pop\n        /* \"#utility.yul\":3656:3760   */\n      swap2\n      swap1\n      pop\n      jump\t// out\n        /* \"#utility.yul\":3766:3908   */\n    tag_136:\n        /* \"#utility.yul\":3869:3901   */\n      tag_224\n        /* \"#utility.yul\":3895:3900   */\n      dup2\n        /* \"#utility.yul\":3869:3901   */\n      tag_135\n      jump\t// in\n    tag_224:\n        /* \"#utility.yul\":3864:3867   */\n      dup3\n        /* \"#utility.yul\":3857:3902   */\n      mstore\n        /* \"#utility.yul\":3766:3908   */\n      pop\n      pop\n      jump\t// out\n        /* \"#utility.yul\":3914:4004   */\n    tag_137:\n        /* \"#utility.yul\":3948:3955   */\n      0x00\n        /* \"#utility.yul\":3991:3996   */\n      dup2\n        /* \"#utility.yul\":3984:3997   */\n      iszero\n        /* \"#utility.yul\":3977:3998   */\n      iszero\n        /* \"#utility.yul\":3966:3998   */\n      swap1\n      pop\n        /* \"#utility.yul\":3914:4004   */\n      swap2\n      swap1\n      pop\n      jump\t// out\n        /* \"#utility.yul\":4010:4119   */\n    tag_138:\n        /* \"#utility.yul\":4091:4112   */\n      tag_227\n        /* \"#utility.yul\":4106:4111   */\n      dup2\n        /* \"#utility.yul\":4091:4112   */\n      tag_137\n      jump\t// in\n    tag_227:\n        /* \"#utility.yul\":4086:4089   */\n      dup3\n        /* \"#utility.yul\":4079:4113   */\n      mstore\n        /* \"#utility.yul\":4010:4119   */\n      pop\n      pop\n      jump\t// out\n        /* \"#utility.yul\":4125:4900   */\n    tag_42:\n        /* \"#utility.yul\":4360:4364   */\n      0x00\n        /* \"#utility.yul\":4398:4401   */\n      0xa0\n        /* \"#utility.yul\":4387:4396   */\n      dup3\n        /* \"#utility.yul\":4383:4402   */\n      add\n        /* \"#utility.yul\":4375:4402   */\n      swap1\n      pop\n        /* \"#utility.yul\":4448:4457   */\n      dup2\n        /* \"#utility.yul\":4442:4446   */\n      dup2\n        /* \"#utility.yul\":4438:4458   */\n      sub\n        /* \"#utility.yul\":4434:4435   */\n      0x00\n        /* \"#utility.yul\":4423:4432   */\n      dup4\n        /* \"#utility.yul\":4419:4436   */\n      add\n        /* \"#utility.yul\":4412:4459   */\n      mstore\n        /* \"#utility.yul\":4476:4554   */\n      tag_229\n        /* \"#utility.yul\":4549:4553   */\n      dup2\n        /* \"#utility.yul\":4540:4546   */\n      dup9\n        /* \"#utility.yul\":4476:4554   */\n      tag_134\n      jump\t// in\n    tag_229:\n        /* \"#utility.yul\":4468:4554   */\n      swap1\n      pop\n        /* \"#utility.yul\":4564:4652   */\n      tag_230\n        /* \"#utility.yul\":4648:4650   */\n      0x20\n        /* \"#utility.yul\":4637:4646   */\n      dup4\n        /* \"#utility.yul\":4633:4651   */\n      add\n        /* \"#utility.yul\":4624:4630   */\n      dup8\n        /* \"#utility.yul\":4564:4652   */\n      tag_136\n      jump\t// in\n    tag_230:\n        /* \"#utility.yul\":4662:4734   */\n      tag_231\n        /* \"#utility.yul\":4730:4732   */\n      0x40\n        /* \"#utility.yul\":4719:4728   */\n      dup4\n        /* \"#utility.yul\":4715:4733   */\n      add\n        /* \"#utility.yul\":4706:4712   */\n      dup7\n        /* \"#utility.yul\":4662:4734   */\n      tag_126\n      jump\t// in\n    tag_231:\n        /* \"#utility.yul\":4744:4810   */\n      tag_232\n        /* \"#utility.yul\":4806:4808   */\n      0x60\n        /* \"#utility.yul\":4795:4804   */\n      dup4\n        /* \"#utility.yul\":4791:4809   */\n      add\n        /* \"#utility.yul\":4782:4788   */\n      dup6\n        /* \"#utility.yul\":4744:4810   */\n      tag_138\n      jump\t// in\n    tag_232:\n        /* \"#utility.yul\":4820:4893   */\n      tag_233\n        /* \"#utility.yul\":4888:4891   */\n      0x80\n        /* \"#utility.yul\":4877:4886   */\n      dup4\n        /* \"#utility.yul\":4873:4892   */\n      add\n        /* \"#utility.yul\":4864:4870   */\n      dup5\n        /* \"#utility.yul\":4820:4893   */\n      tag_126\n      jump\t// in\n    tag_233:\n        /* \"#utility.yul\":4125:4900   */\n      swap7\n      swap6\n      pop\n      pop\n      pop\n      pop\n      pop\n      pop\n      jump\t// out\n        /* \"#utility.yul\":4906:5023   */\n    tag_139:\n        /* \"#utility.yul\":5015:5016   */\n      0x00\n        /* \"#utility.yul\":5012:5013   */\n      dup1\n        /* \"#utility.yul\":5005:5017   */\n      revert\n        /* \"#utility.yul\":5029:5146   */\n    tag_140:\n        /* \"#utility.yul\":5138:5139   */\n      0x00\n        /* \"#utility.yul\":5135:5136   */\n      dup1\n        /* \"#utility.yul\":5128:5140   */\n      revert\n        /* \"#utility.yul\":5152:5332   */\n    tag_141:\n        /* \"#utility.yul\":5200:5277   */\n      0x4e487b7100000000000000000000000000000000000000000000000000000000\n        /* \"#utility.yul\":5197:5198   */\n      0x00\n        /* \"#utility.yul\":5190:5278   */\n      mstore\n        /* \"#utility.yul\":5297:5301   */\n      0x41\n        /* \"#utility.yul\":5294:5295   */\n      0x04\n        /* \"#utility.yul\":5287:5302   */\n      mstore\n        /* \"#utility.yul\":5321:5325   */\n      0x24\n        /* \"#utility.yul\":5318:5319   */\n      0x00\n        /* \"#utility.yul\":5311:5326   */\n      revert\n        /* \"#utility.yul\":5338:5619   */\n    tag_142:\n        /* \"#utility.yul\":5421:5448   */\n      tag_238\n        /* \"#utility.yul\":5443:5447   */\n      dup3\n        /* \"#utility.yul\":5421:5448   */\n      tag_133\n      jump\t// in\n    tag_238:\n        /* \"#utility.yul\":5413:5419   */\n      dup2\n        /* \"#utility.yul\":5409:5449   */\n      add\n        /* \"#utility.yul\":5551:5557   */\n      dup2\n        /* \"#utility.yul\":5539:5549   */\n      dup2\n        /* \"#utility.yul\":5536:5558   */\n      lt\n        /* \"#utility.yul\":5515:5533   */\n      0xffffffffffffffff\n        /* \"#utility.yul\":5503:5513   */\n      dup3\n        /* \"#utility.yul\":5500:5534   */\n      gt\n        /* \"#utility.yul\":5497:5559   */\n      or\n        /* \"#utility.yul\":5494:5582   */\n      iszero\n      tag_239\n      jumpi\n        /* \"#utility.yul\":5562:5580   */\n      tag_240\n      tag_141\n      jump\t// in\n    tag_240:\n        /* \"#utility.yul\":5494:5582   */\n    tag_239:\n        /* \"#utility.yul\":5602:5612   */\n      dup1\n        /* \"#utility.yul\":5598:5600   */\n      0x40\n        /* \"#utility.yul\":5591:5613   */\n      mstore\n        /* \"#utility.yul\":5381:5619   */\n      pop\n        /* \"#utility.yul\":5338:5619   */\n      pop\n      pop\n      jump\t// out\n        /* \"#utility.yul\":5625:5754   */\n    tag_143:\n        /* \"#utility.yul\":5659:5665   */\n      0x00\n        /* \"#utility.yul\":5686:5706   */\n      tag_242\n      tag_120\n      jump\t// in\n    tag_242:\n        /* \"#utility.yul\":5676:5706   */\n      swap1\n      pop\n        /* \"#utility.yul\":5715:5748   */\n      tag_243\n        /* \"#utility.yul\":5743:5747   */\n      dup3\n        /* \"#utility.yul\":5735:5741   */\n      dup3\n        /* \"#utility.yul\":5715:5748   */\n      tag_142\n      jump\t// in\n    tag_243:\n        /* \"#utility.yul\":5625:5754   */\n      swap2\n      swap1\n      pop\n      jump\t// out\n        /* \"#utility.yul\":5760:6068   */\n    tag_144:\n        /* \"#utility.yul\":5822:5826   */\n      0x00\n        /* \"#utility.yul\":5912:5930   */\n      0xffffffffffffffff\n        /* \"#utility.yul\":5904:5910   */\n      dup3\n        /* \"#utility.yul\":5901:5931   */\n      gt\n        /* \"#utility.yul\":5898:5954   */\n      iszero\n      tag_245\n      jumpi\n        /* \"#utility.yul\":5934:5952   */\n      tag_246\n      tag_141\n      jump\t// in\n    tag_246:\n        /* \"#utility.yul\":5898:5954   */\n    tag_245:\n        /* \"#utility.yul\":5972:6001   */\n      tag_247\n        /* \"#utility.yul\":5994:6000   */\n      dup3\n        /* \"#utility.yul\":5972:6001   */\n      tag_133\n      jump\t// in\n    tag_247:\n        /* \"#utility.yul\":5964:6001   */\n      swap1\n      pop\n        /* \"#utility.yul\":6056:6060   */\n      0x20\n        /* \"#utility.yul\":6050:6054   */\n      dup2\n        /* \"#utility.yul\":6046:6061   */\n      add\n        /* \"#utility.yul\":6038:6061   */\n      swap1\n      pop\n        /* \"#utility.yul\":5760:6068   */\n      swap2\n      swap1\n      pop\n      jump\t// out\n        /* \"#utility.yul\":6074:6220   */\n    tag_145:\n        /* \"#utility.yul\":6171:6177   */\n      dup3\n        /* \"#utility.yul\":6166:6169   */\n      dup2\n        /* \"#utility.yul\":6161:6164   */\n      dup4\n        /* \"#utility.yul\":6148:6178   */\n      calldatacopy\n        /* \"#utility.yul\":6212:6213   */\n      0x00\n        /* \"#utility.yul\":6203:6209   */\n      dup4\n        /* \"#utility.yul\":6198:6201   */\n      dup4\n        /* \"#utility.yul\":6194:6210   */\n      add\n        /* \"#utility.yul\":6187:6214   */\n      mstore\n        /* \"#utility.yul\":6074:6220   */\n      pop\n      pop\n      pop\n      jump\t// out\n        /* \"#utility.yul\":6226:6651   */\n    tag_146:\n        /* \"#utility.yul\":6304:6309   */\n      0x00\n        /* \"#utility.yul\":6329:6395   */\n      tag_250\n        /* \"#utility.yul\":6345:6394   */\n      tag_251\n        /* \"#utility.yul\":6387:6393   */\n      dup5\n        /* \"#utility.yul\":6345:6394   */\n      tag_144\n      jump\t// in\n    tag_251:\n        /* \"#utility.yul\":6329:6395   */\n      tag_143\n      jump\t// in\n    tag_250:\n        /* \"#utility.yul\":6320:6395   */\n      swap1\n      pop\n        /* \"#utility.yul\":6418:6424   */\n      dup3\n        /* \"#utility.yul\":6411:6416   */\n      dup2\n        /* \"#utility.yul\":6404:6425   */\n      mstore\n        /* \"#utility.yul\":6456:6460   */\n      0x20\n        /* \"#utility.yul\":6449:6454   */\n      dup2\n        /* \"#utility.yul\":6445:6461   */\n      add\n        /* \"#utility.yul\":6494:6497   */\n      dup5\n        /* \"#utility.yul\":6485:6491   */\n      dup5\n        /* \"#utility.yul\":6480:6483   */\n      dup5\n        /* \"#utility.yul\":6476:6492   */\n      add\n        /* \"#utility.yul\":6473:6498   */\n      gt\n        /* \"#utility.yul\":6470:6582   */\n      iszero\n      tag_252\n      jumpi\n        /* \"#utility.yul\":6501:6580   */\n      tag_253\n      tag_140\n      jump\t// in\n    tag_253:\n        /* \"#utility.yul\":6470:6582   */\n    tag_252:\n        /* \"#utility.yul\":6591:6645   */\n      tag_254\n        /* \"#utility.yul\":6638:6644   */\n      dup5\n        /* \"#utility.yul\":6633:6636   */\n      dup3\n        /* \"#utility.yul\":6628:6631   */\n      dup6\n        /* \"#utility.yul\":6591:6645   */\n      tag_145\n      jump\t// in\n    tag_254:\n        /* \"#utility.yul\":6310:6651   */\n      pop\n        /* \"#utility.yul\":6226:6651   */\n      swap4\n      swap3\n      pop\n      pop\n      pop\n      jump\t// out\n        /* \"#utility.yul\":6671:7011   */\n    tag_147:\n        /* \"#utility.yul\":6727:6732   */\n      0x00\n        /* \"#utility.yul\":6776:6779   */\n      dup3\n        /* \"#utility.yul\":6769:6773   */\n      0x1f\n        /* \"#utility.yul\":6761:6767   */\n      dup4\n        /* \"#utility.yul\":6757:6774   */\n      add\n        /* \"#utility.yul\":6753:6780   */\n      slt\n        /* \"#utility.yul\":6743:6865   */\n      tag_256\n      jumpi\n        /* \"#utility.yul\":6784:6863   */\n      tag_257\n      tag_139\n      jump\t// in\n    tag_257:\n        /* \"#utility.yul\":6743:6865   */\n    tag_256:\n        /* \"#utility.yul\":6901:6907   */\n      dup2\n        /* \"#utility.yul\":6888:6908   */\n      calldataload\n        /* \"#utility.yul\":6926:7005   */\n      tag_258\n        /* \"#utility.yul\":7001:7004   */\n      dup5\n        /* \"#utility.yul\":6993:6999   */\n      dup3\n        /* \"#utility.yul\":6986:6990   */\n      0x20\n        /* \"#utility.yul\":6978:6984   */\n      dup7\n        /* \"#utility.yul\":6974:6991   */\n      add\n        /* \"#utility.yul\":6926:7005   */\n      tag_146\n      jump\t// in\n    tag_258:\n        /* \"#utility.yul\":6917:7005   */\n      swap2\n      pop\n        /* \"#utility.yul\":6733:7011   */\n      pop\n        /* \"#utility.yul\":6671:7011   */\n      swap3\n      swap2\n      pop\n      pop\n      jump\t// out\n        /* \"#utility.yul\":7017:7155   */\n    tag_148:\n        /* \"#utility.yul\":7098:7130   */\n      tag_260\n        /* \"#utility.yul\":7124:7129   */\n      dup2\n        /* \"#utility.yul\":7098:7130   */\n      tag_135\n      jump\t// in\n    tag_260:\n        /* \"#utility.yul\":7091:7096   */\n      dup2\n        /* \"#utility.yul\":7088:7131   */\n      eq\n        /* \"#utility.yul\":7078:7149   */\n      tag_261\n      jumpi\n        /* \"#utility.yul\":7145:7146   */\n      0x00\n        /* \"#utility.yul\":7142:7143   */\n      dup1\n        /* \"#utility.yul\":7135:7147   */\n      revert\n        /* \"#utility.yul\":7078:7149   */\n    tag_261:\n        /* \"#utility.yul\":7017:7155   */\n      pop\n      jump\t// out\n        /* \"#utility.yul\":7161:7316   */\n    tag_149:\n        /* \"#utility.yul\":7215:7220   */\n      0x00\n        /* \"#utility.yul\":7253:7259   */\n      dup2\n        /* \"#utility.yul\":7240:7260   */\n      calldataload\n        /* \"#utility.yul\":7231:7260   */\n      swap1\n      pop\n        /* \"#utility.yul\":7269:7310   */\n      tag_263\n        /* \"#utility.yul\":7304:7309   */\n      dup2\n        /* \"#utility.yul\":7269:7310   */\n      tag_148\n      jump\t// in\n    tag_263:\n        /* \"#utility.yul\":7161:7316   */\n      swap3\n      swap2\n      pop\n      pop\n      jump\t// out\n        /* \"#utility.yul\":7322:8137   */\n    tag_51:\n        /* \"#utility.yul\":7417:7423   */\n      0x00\n        /* \"#utility.yul\":7425:7431   */\n      dup1\n        /* \"#utility.yul\":7433:7439   */\n      0x00\n        /* \"#utility.yul\":7482:7484   */\n      0x60\n        /* \"#utility.yul\":7470:7479   */\n      dup5\n        /* \"#utility.yul\":7461:7468   */\n      dup7\n        /* \"#utility.yul\":7457:7480   */\n      sub\n        /* \"#utility.yul\":7453:7485   */\n      slt\n        /* \"#utility.yul\":7450:7569   */\n      iszero\n      tag_265\n      jumpi\n        /* \"#utility.yul\":7488:7567   */\n      tag_266\n      tag_121\n      jump\t// in\n    tag_266:\n        /* \"#utility.yul\":7450:7569   */\n    tag_265:\n        /* \"#utility.yul\":7608:7609   */\n      0x00\n        /* \"#utility.yul\":7633:7686   */\n      tag_267\n        /* \"#utility.yul\":7678:7685   */\n      dup7\n        /* \"#utility.yul\":7669:7675   */\n      dup3\n        /* \"#utility.yul\":7658:7667   */\n      dup8\n        /* \"#utility.yul\":7654:7676   */\n      add\n        /* \"#utility.yul\":7633:7686   */\n      tag_125\n      jump\t// in\n    tag_267:\n        /* \"#utility.yul\":7623:7686   */\n      swap4\n      pop\n        /* \"#utility.yul\":7579:7696   */\n      pop\n        /* \"#utility.yul\":7763:7765   */\n      0x20\n        /* \"#utility.yul\":7752:7761   */\n      dup5\n        /* \"#utility.yul\":7748:7766   */\n      add\n        /* \"#utility.yul\":7735:7767   */\n      calldataload\n        /* \"#utility.yul\":7794:7812   */\n      0xffffffffffffffff\n        /* \"#utility.yul\":7786:7792   */\n      dup2\n        /* \"#utility.yul\":7783:7813   */\n      gt\n        /* \"#utility.yul\":7780:7897   */\n      iszero\n      tag_268\n      jumpi\n        /* \"#utility.yul\":7816:7895   */\n      tag_269\n      tag_122\n      jump\t// in\n    tag_269:\n        /* \"#utility.yul\":7780:7897   */\n    tag_268:\n        /* \"#utility.yul\":7921:7984   */\n      tag_270\n        /* \"#utility.yul\":7976:7983   */\n      dup7\n        /* \"#utility.yul\":7967:7973   */\n      dup3\n        /* \"#utility.yul\":7956:7965   */\n      dup8\n        /* \"#utility.yul\":7952:7974   */\n      add\n        /* \"#utility.yul\":7921:7984   */\n      tag_147\n      jump\t// in\n    tag_270:\n        /* \"#utility.yul\":7911:7984   */\n      swap3\n      pop\n        /* \"#utility.yul\":7706:7994   */\n      pop\n        /* \"#utility.yul\":8033:8035   */\n      0x40\n        /* \"#utility.yul\":8059:8120   */\n      tag_271\n        /* \"#utility.yul\":8112:8119   */\n      dup7\n        /* \"#utility.yul\":8103:8109   */\n      dup3\n        /* \"#utility.yul\":8092:8101   */\n      dup8\n        /* \"#utility.yul\":8088:8110   */\n      add\n        /* \"#utility.yul\":8059:8120   */\n      tag_149\n      jump\t// in\n    tag_271:\n        /* \"#utility.yul\":8049:8120   */\n      swap2\n      pop\n        /* \"#utility.yul\":8004:8130   */\n      pop\n        /* \"#utility.yul\":7322:8137   */\n      swap3\n      pop\n      swap3\n      pop\n      swap3\n      jump\t// out\n        /* \"#utility.yul\":8143:8368   */\n    tag_150:\n        /* \"#utility.yul\":8283:8317   */\n      0x4f6e6c79206d616e616765722063616e2061636365737320746869732066756e\n        /* \"#utility.yul\":8279:8280   */\n      0x00\n        /* \"#utility.yul\":8271:8277   */\n      dup3\n        /* \"#utility.yul\":8267:8281   */\n      add\n        /* \"#utility.yul\":8260:8318   */\n      mstore\n        /* \"#utility.yul\":8352:8360   */\n      0x6374696f6e730000000000000000000000000000000000000000000000000000\n        /* \"#utility.yul\":8347:8349   */\n      0x20\n        /* \"#utility.yul\":8339:8345   */\n      dup3\n        /* \"#utility.yul\":8335:8350   */\n      add\n        /* \"#utility.yul\":8328:8361   */\n      mstore\n        /* \"#utility.yul\":8143:8368   */\n      pop\n      jump\t// out\n        /* \"#utility.yul\":8374:8740   */\n    tag_151:\n        /* \"#utility.yul\":8516:8519   */\n      0x00\n        /* \"#utility.yul\":8537:8604   */\n      tag_274\n        /* \"#utility.yul\":8601:8603   */\n      0x26\n        /* \"#utility.yul\":8596:8599   */\n      dup4\n        /* \"#utility.yul\":8537:8604   */\n      tag_131\n      jump\t// in\n    tag_274:\n        /* \"#utility.yul\":8530:8604   */\n      swap2\n      pop\n        /* \"#utility.yul\":8613:8706   */\n      tag_275\n        /* \"#utility.yul\":8702:8705   */\n      dup3\n        /* \"#utility.yul\":8613:8706   */\n      tag_150\n      jump\t// in\n    tag_275:\n        /* \"#utility.yul\":8731:8733   */\n      0x40\n        /* \"#utility.yul\":8726:8729   */\n      dup3\n        /* \"#utility.yul\":8722:8734   */\n      add\n        /* \"#utility.yul\":8715:8734   */\n      swap1\n      pop\n        /* \"#utility.yul\":8374:8740   */\n      swap2\n      swap1\n      pop\n      jump\t// out\n        /* \"#utility.yul\":8746:9165   */\n    tag_66:\n        /* \"#utility.yul\":8912:8916   */\n      0x00\n        /* \"#utility.yul\":8950:8952   */\n      0x20\n        /* \"#utility.yul\":8939:8948   */\n      dup3\n        /* \"#utility.yul\":8935:8953   */\n      add\n        /* \"#utility.yul\":8927:8953   */\n      swap1\n      pop\n        /* \"#utility.yul\":8999:9008   */\n      dup2\n        /* \"#utility.yul\":8993:8997   */\n      dup2\n        /* \"#utility.yul\":8989:9009   */\n      sub\n        /* \"#utility.yul\":8985:8986   */\n      0x00\n        /* \"#utility.yul\":8974:8983   */\n      dup4\n        /* \"#utility.yul\":8970:8987   */\n      add\n        /* \"#utility.yul\":8963:9010   */\n      mstore\n        /* \"#utility.yul\":9027:9158   */\n      tag_277\n        /* \"#utility.yul\":9153:9157   */\n      dup2\n        /* \"#utility.yul\":9027:9158   */\n      tag_151\n      jump\t// in\n    tag_277:\n        /* \"#utility.yul\":9019:9158   */\n      swap1\n      pop\n        /* \"#utility.yul\":8746:9165   */\n      swap2\n      swap1\n      pop\n      jump\t// out\n        /* \"#utility.yul\":9171:9351   */\n    tag_70:\n        /* \"#utility.yul\":9219:9296   */\n      0x4e487b7100000000000000000000000000000000000000000000000000000000\n        /* \"#utility.yul\":9216:9217   */\n      0x00\n        /* \"#utility.yul\":9209:9297   */\n      mstore\n        /* \"#utility.yul\":9316:9320   */\n      0x32\n        /* \"#utility.yul\":9313:9314   */\n      0x04\n        /* \"#utility.yul\":9306:9321   */\n      mstore\n        /* \"#utility.yul\":9340:9344   */\n      0x24\n        /* \"#utility.yul\":9337:9338   */\n      0x00\n        /* \"#utility.yul\":9330:9345   */\n      revert\n        /* \"#utility.yul\":9357:9537   */\n    tag_152:\n        /* \"#utility.yul\":9405:9482   */\n      0x4e487b7100000000000000000000000000000000000000000000000000000000\n        /* \"#utility.yul\":9402:9403   */\n      0x00\n        /* \"#utility.yul\":9395:9483   */\n      mstore\n        /* \"#utility.yul\":9502:9506   */\n      0x12\n        /* \"#utility.yul\":9499:9500   */\n      0x04\n        /* \"#utility.yul\":9492:9507   */\n      mstore\n        /* \"#utility.yul\":9526:9530   */\n      0x24\n        /* \"#utility.yul\":9523:9524   */\n      0x00\n        /* \"#utility.yul\":9516:9531   */\n      revert\n        /* \"#utility.yul\":9543:9723   */\n    tag_153:\n        /* \"#utility.yul\":9591:9668   */\n      0x4e487b7100000000000000000000000000000000000000000000000000000000\n        /* \"#utility.yul\":9588:9589   */\n      0x00\n        /* \"#utility.yul\":9581:9669   */\n      mstore\n        /* \"#utility.yul\":9688:9692   */\n      0x11\n        /* \"#utility.yul\":9685:9686   */\n      0x04\n        /* \"#utility.yul\":9678:9693   */\n      mstore\n        /* \"#utility.yul\":9712:9716   */\n      0x24\n        /* \"#utility.yul\":9709:9710   */\n      0x00\n        /* \"#utility.yul\":9702:9717   */\n      revert\n        /* \"#utility.yul\":9729:9914   */\n    tag_73:\n        /* \"#utility.yul\":9769:9770   */\n      0x00\n        /* \"#utility.yul\":9786:9806   */\n      tag_282\n        /* \"#utility.yul\":9804:9805   */\n      dup3\n        /* \"#utility.yul\":9786:9806   */\n      tag_123\n      jump\t// in\n    tag_282:\n        /* \"#utility.yul\":9781:9806   */\n      swap2\n      pop\n        /* \"#utility.yul\":9820:9840   */\n      tag_283\n        /* \"#utility.yul\":9838:9839   */\n      dup4\n        /* \"#utility.yul\":9820:9840   */\n      tag_123\n      jump\t// in\n    tag_283:\n        /* \"#utility.yul\":9815:9840   */\n      swap3\n      pop\n        /* \"#utility.yul\":9859:9860   */\n      dup3\n        /* \"#utility.yul\":9849:9884   */\n      tag_284\n      jumpi\n        /* \"#utility.yul\":9864:9882   */\n      tag_285\n      tag_152\n      jump\t// in\n    tag_285:\n        /* \"#utility.yul\":9849:9884   */\n    tag_284:\n        /* \"#utility.yul\":9906:9907   */\n      dup3\n        /* \"#utility.yul\":9903:9904   */\n      dup3\n        /* \"#utility.yul\":9899:9908   */\n      div\n        /* \"#utility.yul\":9894:9908   */\n      swap1\n      pop\n        /* \"#utility.yul\":9729:9914   */\n      swap3\n      swap2\n      pop\n      pop\n      jump\t// out\n        /* \"#utility.yul\":9920:10098   */\n    tag_154:\n        /* \"#utility.yul\":10060:10090   */\n      0x52657175657374206e65656473206d6f726520617070726f76616c7300000000\n        /* \"#utility.yul\":10056:10057   */\n      0x00\n        /* \"#utility.yul\":10048:10054   */\n      dup3\n        /* \"#utility.yul\":10044:10058   */\n      add\n        /* \"#utility.yul\":10037:10091   */\n      mstore\n        /* \"#utility.yul\":9920:10098   */\n      pop\n      jump\t// out\n        /* \"#utility.yul\":10104:10470   */\n    tag_155:\n        /* \"#utility.yul\":10246:10249   */\n      0x00\n        /* \"#utility.yul\":10267:10334   */\n      tag_288\n        /* \"#utility.yul\":10331:10333   */\n      0x1c\n        /* \"#utility.yul\":10326:10329   */\n      dup4\n        /* \"#utility.yul\":10267:10334   */\n      tag_131\n      jump\t// in\n    tag_288:\n        /* \"#utility.yul\":10260:10334   */\n      swap2\n      pop\n        /* \"#utility.yul\":10343:10436   */\n      tag_289\n        /* \"#utility.yul\":10432:10435   */\n      dup3\n        /* \"#utility.yul\":10343:10436   */\n      tag_154\n      jump\t// in\n    tag_289:\n        /* \"#utility.yul\":10461:10463   */\n      0x20\n        /* \"#utility.yul\":10456:10459   */\n      dup3\n        /* \"#utility.yul\":10452:10464   */\n      add\n        /* \"#utility.yul\":10445:10464   */\n      swap1\n      pop\n        /* \"#utility.yul\":10104:10470   */\n      swap2\n      swap1\n      pop\n      jump\t// out\n        /* \"#utility.yul\":10476:10895   */\n    tag_76:\n        /* \"#utility.yul\":10642:10646   */\n      0x00\n        /* \"#utility.yul\":10680:10682   */\n      0x20\n        /* \"#utility.yul\":10669:10678   */\n      dup3\n        /* \"#utility.yul\":10665:10683   */\n      add\n        /* \"#utility.yul\":10657:10683   */\n      swap1\n      pop\n        /* \"#utility.yul\":10729:10738   */\n      dup2\n        /* \"#utility.yul\":10723:10727   */\n      dup2\n        /* \"#utility.yul\":10719:10739   */\n      sub\n        /* \"#utility.yul\":10715:10716   */\n      0x00\n        /* \"#utility.yul\":10704:10713   */\n      dup4\n        /* \"#utility.yul\":10700:10717   */\n      add\n        /* \"#utility.yul\":10693:10740   */\n      mstore\n        /* \"#utility.yul\":10757:10888   */\n      tag_291\n        /* \"#utility.yul\":10883:10887   */\n      dup2\n        /* \"#utility.yul\":10757:10888   */\n      tag_155\n      jump\t// in\n    tag_291:\n        /* \"#utility.yul\":10749:10888   */\n      swap1\n      pop\n        /* \"#utility.yul\":10476:10895   */\n      swap2\n      swap1\n      pop\n      jump\t// out\n        /* \"#utility.yul\":10901:11121   */\n    tag_156:\n        /* \"#utility.yul\":11041:11075   */\n      0x5265717565737420686173206265656e20616c726561647920617070726f7665\n        /* \"#utility.yul\":11037:11038   */\n      0x00\n        /* \"#utility.yul\":11029:11035   */\n      dup3\n        /* \"#utility.yul\":11025:11039   */\n      add\n        /* \"#utility.yul\":11018:11076   */\n      mstore\n        /* \"#utility.yul\":11110:11113   */\n      0x6400000000000000000000000000000000000000000000000000000000000000\n        /* \"#utility.yul\":11105:11107   */\n      0x20\n        /* \"#utility.yul\":11097:11103   */\n      dup3\n        /* \"#utility.yul\":11093:11108   */\n      add\n        /* \"#utility.yul\":11086:11114   */\n      mstore\n        /* \"#utility.yul\":10901:11121   */\n      pop\n      jump\t// out\n        /* \"#utility.yul\":11127:11493   */\n    tag_157:\n        /* \"#utility.yul\":11269:11272   */\n      0x00\n        /* \"#utility.yul\":11290:11357   */\n      tag_294\n        /* \"#utility.yul\":11354:11356   */\n      0x21\n        /* \"#utility.yul\":11349:11352   */\n      dup4\n        /* \"#utility.yul\":11290:11357   */\n      tag_131\n      jump\t// in\n    tag_294:\n        /* \"#utility.yul\":11283:11357   */\n      swap2\n      pop\n        /* \"#utility.yul\":11366:11459   */\n      tag_295\n        /* \"#utility.yul\":11455:11458   */\n      dup3\n        /* \"#utility.yul\":11366:11459   */\n      tag_156\n      jump\t// in\n    tag_295:\n        /* \"#utility.yul\":11484:11486   */\n      0x40\n        /* \"#utility.yul\":11479:11482   */\n      dup3\n        /* \"#utility.yul\":11475:11487   */\n      add\n        /* \"#utility.yul\":11468:11487   */\n      swap1\n      pop\n        /* \"#utility.yul\":11127:11493   */\n      swap2\n      swap1\n      pop\n      jump\t// out\n        /* \"#utility.yul\":11499:11918   */\n    tag_79:\n        /* \"#utility.yul\":11665:11669   */\n      0x00\n        /* \"#utility.yul\":11703:11705   */\n      0x20\n        /* \"#utility.yul\":11692:11701   */\n      dup3\n        /* \"#utility.yul\":11688:11706   */\n      add\n        /* \"#utility.yul\":11680:11706   */\n      swap1\n      pop\n        /* \"#utility.yul\":11752:11761   */\n      dup2\n        /* \"#utility.yul\":11746:11750   */\n      dup2\n        /* \"#utility.yul\":11742:11762   */\n      sub\n        /* \"#utility.yul\":11738:11739   */\n      0x00\n        /* \"#utility.yul\":11727:11736   */\n      dup4\n        /* \"#utility.yul\":11723:11740   */\n      add\n        /* \"#utility.yul\":11716:11763   */\n      mstore\n        /* \"#utility.yul\":11780:11911   */\n      tag_297\n        /* \"#utility.yul\":11906:11910   */\n      dup2\n        /* \"#utility.yul\":11780:11911   */\n      tag_157\n      jump\t// in\n    tag_297:\n        /* \"#utility.yul\":11772:11911   */\n      swap1\n      pop\n        /* \"#utility.yul\":11499:11918   */\n      swap2\n      swap1\n      pop\n      jump\t// out\n        /* \"#utility.yul\":11924:12104   */\n    tag_158:\n        /* \"#utility.yul\":11972:12049   */\n      0x4e487b7100000000000000000000000000000000000000000000000000000000\n        /* \"#utility.yul\":11969:11970   */\n      0x00\n        /* \"#utility.yul\":11962:12050   */\n      mstore\n        /* \"#utility.yul\":12069:12073   */\n      0x22\n        /* \"#utility.yul\":12066:12067   */\n      0x04\n        /* \"#utility.yul\":12059:12074   */\n      mstore\n        /* \"#utility.yul\":12093:12097   */\n      0x24\n        /* \"#utility.yul\":12090:12091   */\n      0x00\n        /* \"#utility.yul\":12083:12098   */\n      revert\n        /* \"#utility.yul\":12110:12430   */\n    tag_88:\n        /* \"#utility.yul\":12154:12160   */\n      0x00\n        /* \"#utility.yul\":12191:12192   */\n      0x02\n        /* \"#utility.yul\":12185:12189   */\n      dup3\n        /* \"#utility.yul\":12181:12193   */\n      div\n        /* \"#utility.yul\":12171:12193   */\n      swap1\n      pop\n        /* \"#utility.yul\":12238:12239   */\n      0x01\n        /* \"#utility.yul\":12232:12236   */\n      dup3\n        /* \"#utility.yul\":12228:12240   */\n      and\n        /* \"#utility.yul\":12259:12277   */\n      dup1\n        /* \"#utility.yul\":12249:12330   */\n      tag_300\n      jumpi\n        /* \"#utility.yul\":12315:12319   */\n      0x7f\n        /* \"#utility.yul\":12307:12313   */\n      dup3\n        /* \"#utility.yul\":12303:12320   */\n      and\n        /* \"#utility.yul\":12293:12320   */\n      swap2\n      pop\n        /* \"#utility.yul\":12249:12330   */\n    tag_300:\n        /* \"#utility.yul\":12377:12379   */\n      0x20\n        /* \"#utility.yul\":12369:12375   */\n      dup3\n        /* \"#utility.yul\":12366:12380   */\n      lt\n        /* \"#utility.yul\":12346:12364   */\n      dup2\n        /* \"#utility.yul\":12343:12381   */\n      sub\n        /* \"#utility.yul\":12340:12424   */\n      tag_301\n      jumpi\n        /* \"#utility.yul\":12396:12414   */\n      tag_302\n      tag_158\n      jump\t// in\n    tag_302:\n        /* \"#utility.yul\":12340:12424   */\n    tag_301:\n        /* \"#utility.yul\":12161:12430   */\n      pop\n        /* \"#utility.yul\":12110:12430   */\n      swap2\n      swap1\n      pop\n      jump\t// out\n        /* \"#utility.yul\":12436:12577   */\n    tag_159:\n        /* \"#utility.yul\":12485:12489   */\n      0x00\n        /* \"#utility.yul\":12508:12511   */\n      dup2\n        /* \"#utility.yul\":12500:12511   */\n      swap1\n      pop\n        /* \"#utility.yul\":12531:12534   */\n      dup2\n        /* \"#utility.yul\":12528:12529   */\n      0x00\n        /* \"#utility.yul\":12521:12535   */\n      mstore\n        /* \"#utility.yul\":12565:12569   */\n      0x20\n        /* \"#utility.yul\":12562:12563   */\n      0x00\n        /* \"#utility.yul\":12552:12570   */\n      keccak256\n        /* \"#utility.yul\":12544:12570   */\n      swap1\n      pop\n        /* \"#utility.yul\":12436:12577   */\n      swap2\n      swap1\n      pop\n      jump\t// out\n        /* \"#utility.yul\":12583:12676   */\n    tag_160:\n        /* \"#utility.yul\":12620:12626   */\n      0x00\n        /* \"#utility.yul\":12667:12669   */\n      0x20\n        /* \"#utility.yul\":12662:12664   */\n      0x1f\n        /* \"#utility.yul\":12655:12660   */\n      dup4\n        /* \"#utility.yul\":12651:12665   */\n      add\n        /* \"#utility.yul\":12647:12670   */\n      div\n        /* \"#utility.yul\":12637:12670   */\n      swap1\n      pop\n        /* \"#utility.yul\":12583:12676   */\n      swap2\n      swap1\n      pop\n      jump\t// out\n        /* \"#utility.yul\":12682:12789   */\n    tag_161:\n        /* \"#utility.yul\":12726:12734   */\n      0x00\n        /* \"#utility.yul\":12776:12781   */\n      dup3\n        /* \"#utility.yul\":12770:12774   */\n      dup3\n        /* \"#utility.yul\":12766:12782   */\n      shl\n        /* \"#utility.yul\":12745:12782   */\n      swap1\n      pop\n        /* \"#utility.yul\":12682:12789   */\n      swap3\n      swap2\n      pop\n      pop\n      jump\t// out\n        /* \"#utility.yul\":12795:13188   */\n    tag_162:\n        /* \"#utility.yul\":12864:12870   */\n      0x00\n        /* \"#utility.yul\":12914:12915   */\n      0x08\n        /* \"#utility.yul\":12902:12912   */\n      dup4\n        /* \"#utility.yul\":12898:12916   */\n      mul\n        /* \"#utility.yul\":12937:13034   */\n      tag_307\n        /* \"#utility.yul\":12967:13033   */\n      0xffffffffffffffffffffffffffffffffffffffffffffffffffffffffffffffff\n        /* \"#utility.yul\":12956:12965   */\n      dup3\n        /* \"#utility.yul\":12937:13034   */\n      tag_161\n      jump\t// in\n    tag_307:\n        /* \"#utility.yul\":13055:13094   */\n      tag_308\n        /* \"#utility.yul\":13085:13093   */\n      dup7\n        /* \"#utility.yul\":13074:13083   */\n      dup4\n        /* \"#utility.yul\":13055:13094   */\n      tag_161\n      jump\t// in\n    tag_308:\n        /* \"#utility.yul\":13043:13094   */\n      swap6\n      pop\n        /* \"#utility.yul\":13127:13131   */\n      dup1\n        /* \"#utility.yul\":13123:13132   */\n      not\n        /* \"#utility.yul\":13116:13121   */\n      dup5\n        /* \"#utility.yul\":13112:13133   */\n      and\n        /* \"#utility.yul\":13103:13133   */\n      swap4\n      pop\n        /* \"#utility.yul\":13176:13180   */\n      dup1\n        /* \"#utility.yul\":13166:13174   */\n      dup7\n        /* \"#utility.yul\":13162:13181   */\n      and\n        /* \"#utility.yul\":13155:13160   */\n      dup5\n        /* \"#utility.yul\":13152:13182   */\n      or\n        /* \"#utility.yul\":13142:13182   */\n      swap3\n      pop\n        /* \"#utility.yul\":12871:13188   */\n      pop\n      pop\n        /* \"#utility.yul\":12795:13188   */\n      swap4\n      swap3\n      pop\n      pop\n      pop\n      jump\t// out\n        /* \"#utility.yul\":13194:13254   */\n    tag_163:\n        /* \"#utility.yul\":13222:13225   */\n      0x00\n        /* \"#utility.yul\":13243:13248   */\n      dup2\n        /* \"#utility.yul\":13236:13248   */\n      swap1\n      pop\n        /* \"#utility.yul\":13194:13254   */\n      swap2\n      swap1\n      pop\n      jump\t// out\n        /* \"#utility.yul\":13260:13402   */\n    tag_164:\n        /* \"#utility.yul\":13310:13319   */\n      0x00\n        /* \"#utility.yul\":13343:13396   */\n      tag_311\n        /* \"#utility.yul\":13361:13395   */\n      tag_312\n        /* \"#utility.yul\":13370:13394   */\n      tag_313\n        /* \"#utility.yul\":13388:13393   */\n      dup5\n        /* \"#utility.yul\":13370:13394   */\n      tag_123\n      jump\t// in\n    tag_313:\n        /* \"#utility.yul\":13361:13395   */\n      tag_163\n      jump\t// in\n    tag_312:\n        /* \"#utility.yul\":13343:13396   */\n      tag_123\n      jump\t// in\n    tag_311:\n        /* \"#utility.yul\":13330:13396   */\n      swap1\n      pop\n        /* \"#utility.yul\":13260:13402   */\n      swap2\n      swap1\n      pop\n      jump\t// out\n        /* \"#utility.yul\":13408:13483   */\n    tag_165:\n        /* \"#utility.yul\":13451:13454   */\n      0x00\n        /* \"#utility.yul\":13472:13477   */\n      dup2\n        /* \"#utility.yul\":13465:13477   */\n      swap1\n      pop\n        /* \"#utility.yul\":13408:13483   */\n      swap2\n      swap1\n      pop\n      jump\t// out\n        /* \"#utility.yul\":13489:13758   */\n    tag_166:\n        /* \"#utility.yul\":13599:13638   */\n      tag_316\n        /* \"#utility.yul\":13630:13637   */\n      dup4\n        /* \"#utility.yul\":13599:13638   */\n      tag_164\n      jump\t// in\n    tag_316:\n        /* \"#utility.yul\":13660:13751   */\n      tag_317\n        /* \"#utility.yul\":13709:13750   */\n      tag_318\n        /* \"#utility.yul\":13733:13749   */\n      dup3\n        /* \"#utility.yul\":13709:13750   */\n      tag_165\n      jump\t// in\n    tag_318:\n        /* \"#utility.yul\":13701:13707   */\n      dup5\n        /* \"#utility.yul\":13694:13698   */\n      dup5\n        /* \"#utility.yul\":13688:13699   */\n      sload\n        /* \"#utility.yul\":13660:13751   */\n      tag_162\n      jump\t// in\n    tag_317:\n        /* \"#utility.yul\":13654:13658   */\n      dup3\n        /* \"#utility.yul\":13647:13752   */\n      sstore\n        /* \"#utility.yul\":13565:13758   */\n      pop\n        /* \"#utility.yul\":13489:13758   */\n      pop\n      pop\n      pop\n      jump\t// out\n        /* \"#utility.yul\":13764:13837   */\n    tag_167:\n        /* \"#utility.yul\":13809:13812   */\n      0x00\n        /* \"#utility.yul\":13764:13837   */\n      swap1\n      jump\t// out\n        /* \"#utility.yul\":13843:14032   */\n    tag_168:\n        /* \"#utility.yul\":13920:13952   */\n      tag_321\n      tag_167\n      jump\t// in\n    tag_321:\n        /* \"#utility.yul\":13961:14026   */\n      tag_322\n        /* \"#utility.yul\":14019:14025   */\n      dup2\n        /* \"#utility.yul\":14011:14017   */\n      dup5\n        /* \"#utility.yul\":14005:14009   */\n      dup5\n        /* \"#utility.yul\":13961:14026   */\n      tag_166\n      jump\t// in\n    tag_322:\n        /* \"#utility.yul\":13896:14032   */\n      pop\n        /* \"#utility.yul\":13843:14032   */\n      pop\n      pop\n      jump\t// out\n        /* \"#utility.yul\":14038:14224   */\n    tag_169:\n        /* \"#utility.yul\":14098:14218   */\n    tag_324:\n        /* \"#utility.yul\":14115:14118   */\n      dup2\n        /* \"#utility.yul\":14108:14113   */\n      dup2\n        /* \"#utility.yul\":14105:14119   */\n      lt\n        /* \"#utility.yul\":14098:14218   */\n      iszero\n      tag_326\n      jumpi\n        /* \"#utility.yul\":14169:14208   */\n      tag_327\n        /* \"#utility.yul\":14206:14207   */\n      0x00\n        /* \"#utility.yul\":14199:14204   */\n      dup3\n        /* \"#utility.yul\":14169:14208   */\n      tag_168\n      jump\t// in\n    tag_327:\n        /* \"#utility.yul\":14142:14143   */\n      0x01\n        /* \"#utility.yul\":14135:14140   */\n      dup2\n        /* \"#utility.yul\":14131:14144   */\n      add\n        /* \"#utility.yul\":14122:14144   */\n      swap1\n      pop\n        /* \"#utility.yul\":14098:14218   */\n      jump(tag_324)\n    tag_326:\n        /* \"#utility.yul\":14038:14224   */\n      pop\n      pop\n      jump\t// out\n        /* \"#utility.yul\":14230:14773   */\n    tag_170:\n        /* \"#utility.yul\":14331:14333   */\n      0x1f\n        /* \"#utility.yul\":14326:14329   */\n      dup3\n        /* \"#utility.yul\":14323:14334   */\n      gt\n        /* \"#utility.yul\":14320:14766   */\n      iszero\n      tag_329\n      jumpi\n        /* \"#utility.yul\":14365:14403   */\n      tag_330\n        /* \"#utility.yul\":14397:14402   */\n      dup2\n        /* \"#utility.yul\":14365:14403   */\n      tag_159\n      jump\t// in\n    tag_330:\n        /* \"#utility.yul\":14449:14478   */\n      tag_331\n        /* \"#utility.yul\":14467:14477   */\n      dup5\n        /* \"#utility.yul\":14449:14478   */\n      tag_160\n      jump\t// in\n    tag_331:\n        /* \"#utility.yul\":14439:14447   */\n      dup2\n        /* \"#utility.yul\":14435:14479   */\n      add\n        /* \"#utility.yul\":14632:14634   */\n      0x20\n        /* \"#utility.yul\":14620:14630   */\n      dup6\n        /* \"#utility.yul\":14617:14635   */\n      lt\n        /* \"#utility.yul\":14614:14663   */\n      iszero\n      tag_332\n      jumpi\n        /* \"#utility.yul\":14653:14661   */\n      dup2\n        /* \"#utility.yul\":14638:14661   */\n      swap1\n      pop\n        /* \"#utility.yul\":14614:14663   */\n    tag_332:\n        /* \"#utility.yul\":14676:14756   */\n      tag_333\n        /* \"#utility.yul\":14732:14754   */\n      tag_334\n        /* \"#utility.yul\":14750:14753   */\n      dup6\n        /* \"#utility.yul\":14732:14754   */\n      tag_160\n      jump\t// in\n    tag_334:\n        /* \"#utility.yul\":14722:14730   */\n      dup4\n        /* \"#utility.yul\":14718:14755   */\n      add\n        /* \"#utility.yul\":14705:14716   */\n      dup3\n        /* \"#utility.yul\":14676:14756   */\n      tag_169\n      jump\t// in\n    tag_333:\n        /* \"#utility.yul\":14335:14766   */\n      pop\n      pop\n        /* \"#utility.yul\":14320:14766   */\n    tag_329:\n        /* \"#utility.yul\":14230:14773   */\n      pop\n      pop\n      pop\n      jump\t// out\n        /* \"#utility.yul\":14779:14896   */\n    tag_171:\n        /* \"#utility.yul\":14833:14841   */\n      0x00\n        /* \"#utility.yul\":14883:14888   */\n      dup3\n        /* \"#utility.yul\":14877:14881   */\n      dup3\n        /* \"#utility.yul\":14873:14889   */\n      shr\n        /* \"#utility.yul\":14852:14889   */\n      swap1\n      pop\n        /* \"#utility.yul\":14779:14896   */\n      swap3\n      swap2\n      pop\n      pop\n      jump\t// out\n        /* \"#utility.yul\":14902:15071   */\n    tag_172:\n        /* \"#utility.yul\":14946:14952   */\n      0x00\n        /* \"#utility.yul\":14979:15030   */\n      tag_337\n        /* \"#utility.yul\":15027:15028   */\n      0x00\n        /* \"#utility.yul\":15023:15029   */\n      not\n        /* \"#utility.yul\":15015:15020   */\n      dup5\n        /* \"#utility.yul\":15012:15013   */\n      0x08\n        /* \"#utility.yul\":15008:15021   */\n      mul\n        /* \"#utility.yul\":14979:15030   */\n      tag_171\n      jump\t// in\n    tag_337:\n        /* \"#utility.yul\":14975:15031   */\n      not\n        /* \"#utility.yul\":15060:15064   */\n      dup1\n        /* \"#utility.yul\":15054:15058   */\n      dup4\n        /* \"#utility.yul\":15050:15065   */\n      and\n        /* \"#utility.yul\":15040:15065   */\n      swap2\n      pop\n        /* \"#utility.yul\":14953:15071   */\n      pop\n        /* \"#utility.yul\":14902:15071   */\n      swap3\n      swap2\n      pop\n      pop\n      jump\t// out\n        /* \"#utility.yul\":15076:15371   */\n    tag_173:\n        /* \"#utility.yul\":15152:15156   */\n      0x00\n        /* \"#utility.yul\":15298:15327   */\n      tag_339\n        /* \"#utility.yul\":15323:15326   */\n      dup4\n        /* \"#utility.yul\":15317:15321   */\n      dup4\n        /* \"#utility.yul\":15298:15327   */\n      tag_172\n      jump\t// in\n    tag_339:\n        /* \"#utility.yul\":15290:15327   */\n      swap2\n      pop\n        /* \"#utility.yul\":15360:15363   */\n      dup3\n        /* \"#utility.yul\":15357:15358   */\n      0x02\n        /* \"#utility.yul\":15353:15364   */\n      mul\n        /* \"#utility.yul\":15347:15351   */\n      dup3\n        /* \"#utility.yul\":15344:15365   */\n      or\n        /* \"#utility.yul\":15336:15365   */\n      swap1\n      pop\n        /* \"#utility.yul\":15076:15371   */\n      swap3\n      swap2\n      pop\n      pop\n      jump\t// out\n        /* \"#utility.yul\":15376:16771   */\n    tag_103:\n        /* \"#utility.yul\":15493:15530   */\n      tag_341\n        /* \"#utility.yul\":15526:15529   */\n      dup3\n        /* \"#utility.yul\":15493:15530   */\n      tag_130\n      jump\t// in\n    tag_341:\n        /* \"#utility.yul\":15595:15613   */\n      0xffffffffffffffff\n        /* \"#utility.yul\":15587:15593   */\n      dup2\n        /* \"#utility.yul\":15584:15614   */\n      gt\n        /* \"#utility.yul\":15581:15637   */\n      iszero\n      tag_342\n      jumpi\n        /* \"#utility.yul\":15617:15635   */\n      tag_343\n      tag_141\n      jump\t// in\n    tag_343:\n        /* \"#utility.yul\":15581:15637   */\n    tag_342:\n        /* \"#utility.yul\":15661:15699   */\n      tag_344\n        /* \"#utility.yul\":15693:15697   */\n      dup3\n        /* \"#utility.yul\":15687:15698   */\n      sload\n        /* \"#utility.yul\":15661:15699   */\n      tag_88\n      jump\t// in\n    tag_344:\n        /* \"#utility.yul\":15746:15813   */\n      tag_345\n        /* \"#utility.yul\":15806:15812   */\n      dup3\n        /* \"#utility.yul\":15798:15804   */\n      dup3\n        /* \"#utility.yul\":15792:15796   */\n      dup6\n        /* \"#utility.yul\":15746:15813   */\n      tag_170\n      jump\t// in\n    tag_345:\n        /* \"#utility.yul\":15840:15841   */\n      0x00\n        /* \"#utility.yul\":15864:15868   */\n      0x20\n        /* \"#utility.yul\":15851:15868   */\n      swap1\n      pop\n        /* \"#utility.yul\":15896:15898   */\n      0x1f\n        /* \"#utility.yul\":15888:15894   */\n      dup4\n        /* \"#utility.yul\":15885:15899   */\n      gt\n        /* \"#utility.yul\":15913:15914   */\n      0x01\n        /* \"#utility.yul\":15908:16526   */\n      dup2\n      eq\n      tag_347\n      jumpi\n        /* \"#utility.yul\":16570:16571   */\n      0x00\n        /* \"#utility.yul\":16587:16593   */\n      dup5\n        /* \"#utility.yul\":16584:16661   */\n      iszero\n      tag_348\n      jumpi\n        /* \"#utility.yul\":16636:16645   */\n      dup3\n        /* \"#utility.yul\":16631:16634   */\n      dup8\n        /* \"#utility.yul\":16627:16646   */\n      add\n        /* \"#utility.yul\":16621:16647   */\n      mload\n        /* \"#utility.yul\":16612:16647   */\n      swap1\n      pop\n        /* \"#utility.yul\":16584:16661   */\n    tag_348:\n        /* \"#utility.yul\":16687:16754   */\n      tag_349\n        /* \"#utility.yul\":16747:16753   */\n      dup6\n        /* \"#utility.yul\":16740:16745   */\n      dup3\n        /* \"#utility.yul\":16687:16754   */\n      tag_173\n      jump\t// in\n    tag_349:\n        /* \"#utility.yul\":16681:16685   */\n      dup7\n        /* \"#utility.yul\":16674:16755   */\n      sstore\n        /* \"#utility.yul\":16543:16765   */\n      pop\n        /* \"#utility.yul\":15878:16765   */\n      jump(tag_346)\n        /* \"#utility.yul\":15908:16526   */\n    tag_347:\n        /* \"#utility.yul\":15960:15964   */\n      0x1f\n        /* \"#utility.yul\":15956:15965   */\n      not\n        /* \"#utility.yul\":15948:15954   */\n      dup5\n        /* \"#utility.yul\":15944:15966   */\n      and\n        /* \"#utility.yul\":15994:16031   */\n      tag_350\n        /* \"#utility.yul\":16026:16030   */\n      dup7\n        /* \"#utility.yul\":15994:16031   */\n      tag_159\n      jump\t// in\n    tag_350:\n        /* \"#utility.yul\":16053:16054   */\n      0x00\n        /* \"#utility.yul\":16067:16275   */\n    tag_351:\n        /* \"#utility.yul\":16081:16088   */\n      dup3\n        /* \"#utility.yul\":16078:16079   */\n      dup2\n        /* \"#utility.yul\":16075:16089   */\n      lt\n        /* \"#utility.yul\":16067:16275   */\n      iszero\n      tag_353\n      jumpi\n        /* \"#utility.yul\":16160:16169   */\n      dup5\n        /* \"#utility.yul\":16155:16158   */\n      dup10\n        /* \"#utility.yul\":16151:16170   */\n      add\n        /* \"#utility.yul\":16145:16171   */\n      mload\n        /* \"#utility.yul\":16137:16143   */\n      dup3\n        /* \"#utility.yul\":16130:16172   */\n      sstore\n        /* \"#utility.yul\":16211:16212   */\n      0x01\n        /* \"#utility.yul\":16203:16209   */\n      dup3\n        /* \"#utility.yul\":16199:16213   */\n      add\n        /* \"#utility.yul\":16189:16213   */\n      swap2\n      pop\n        /* \"#utility.yul\":16258:16260   */\n      0x20\n        /* \"#utility.yul\":16247:16256   */\n      dup6\n        /* \"#utility.yul\":16243:16261   */\n      add\n        /* \"#utility.yul\":16230:16261   */\n      swap5\n      pop\n        /* \"#utility.yul\":16104:16108   */\n      0x20\n        /* \"#utility.yul\":16101:16102   */\n      dup2\n        /* \"#utility.yul\":16097:16109   */\n      add\n        /* \"#utility.yul\":16092:16109   */\n      swap1\n      pop\n        /* \"#utility.yul\":16067:16275   */\n      jump(tag_351)\n    tag_353:\n        /* \"#utility.yul\":16303:16309   */\n      dup7\n        /* \"#utility.yul\":16294:16301   */\n      dup4\n        /* \"#utility.yul\":16291:16310   */\n      lt\n        /* \"#utility.yul\":16288:16467   */\n      iszero\n      tag_354\n      jumpi\n        /* \"#utility.yul\":16361:16370   */\n      dup5\n        /* \"#utility.yul\":16356:16359   */\n      dup10\n        /* \"#utility.yul\":16352:16371   */\n      add\n        /* \"#utility.yul\":16346:16372   */\n      mload\n        /* \"#utility.yul\":16404:16452   */\n      tag_355\n        /* \"#utility.yul\":16446:16450   */\n      0x1f\n        /* \"#utility.yul\":16438:16444   */\n      dup10\n        /* \"#utility.yul\":16434:16451   */\n      and\n        /* \"#utility.yul\":16423:16432   */\n      dup3\n        /* \"#utility.yul\":16404:16452   */\n      tag_172\n      jump\t// in\n    tag_355:\n        /* \"#utility.yul\":16396:16402   */\n      dup4\n        /* \"#utility.yul\":16389:16453   */\n      sstore\n        /* \"#utility.yul\":16311:16467   */\n      pop\n        /* \"#utility.yul\":16288:16467   */\n    tag_354:\n        /* \"#utility.yul\":16513:16514   */\n      0x01\n        /* \"#utility.yul\":16509:16510   */\n      0x02\n        /* \"#utility.yul\":16501:16507   */\n      dup9\n        /* \"#utility.yul\":16497:16511   */\n      mul\n        /* \"#utility.yul\":16493:16515   */\n      add\n        /* \"#utility.yul\":16487:16491   */\n      dup9\n        /* \"#utility.yul\":16480:16516   */\n      sstore\n        /* \"#utility.yul\":15915:16526   */\n      pop\n      pop\n      pop\n        /* \"#utility.yul\":15878:16765   */\n    tag_346:\n      pop\n        /* \"#utility.yul\":15468:16771   */\n      pop\n      pop\n      pop\n        /* \"#utility.yul\":15376:16771   */\n      pop\n      pop\n      jump\t// out\n        /* \"#utility.yul\":16777:17010   */\n    tag_105:\n        /* \"#utility.yul\":16816:16819   */\n      0x00\n        /* \"#utility.yul\":16839:16863   */\n      tag_357\n        /* \"#utility.yul\":16857:16862   */\n      dup3\n        /* \"#utility.yul\":16839:16863   */\n      tag_123\n      jump\t// in\n    tag_357:\n        /* \"#utility.yul\":16830:16863   */\n      swap2\n      pop\n        /* \"#utility.yul\":16885:16951   */\n      0xffffffffffffffffffffffffffffffffffffffffffffffffffffffffffffffff\n        /* \"#utility.yul\":16878:16883   */\n      dup3\n        /* \"#utility.yul\":16875:16952   */\n      sub\n        /* \"#utility.yul\":16872:16975   */\n      tag_358\n      jumpi\n        /* \"#utility.yul\":16955:16973   */\n      tag_359\n      tag_153\n      jump\t// in\n    tag_359:\n        /* \"#utility.yul\":16872:16975   */\n    tag_358:\n        /* \"#utility.yul\":17002:17003   */\n      0x01\n        /* \"#utility.yul\":16995:17000   */\n      dup3\n        /* \"#utility.yul\":16991:17004   */\n      add\n        /* \"#utility.yul\":16984:17004   */\n      swap1\n      pop\n        /* \"#utility.yul\":16777:17010   */\n      swap2\n      swap1\n      pop\n      jump\t// out\n        /* \"#utility.yul\":17016:17192   */\n    tag_174:\n        /* \"#utility.yul\":17156:17184   */\n      0x4f6e6c7920436f6e7472696275746572732063616e20766f7465000000000000\n        /* \"#utility.yul\":17152:17153   */\n      0x00\n        /* \"#utility.yul\":17144:17150   */\n      dup3\n        /* \"#utility.yul\":17140:17154   */\n      add\n        /* \"#utility.yul\":17133:17185   */\n      mstore\n        /* \"#utility.yul\":17016:17192   */\n      pop\n      jump\t// out\n        /* \"#utility.yul\":17198:17564   */\n    tag_175:\n        /* \"#utility.yul\":17340:17343   */\n      0x00\n        /* \"#utility.yul\":17361:17428   */\n      tag_362\n        /* \"#utility.yul\":17425:17427   */\n      0x1a\n        /* \"#utility.yul\":17420:17423   */\n      dup4\n        /* \"#utility.yul\":17361:17428   */\n      tag_131\n      jump\t// in\n    tag_362:\n        /* \"#utility.yul\":17354:17428   */\n      swap2\n      pop\n        /* \"#utility.yul\":17437:17530   */\n      tag_363\n        /* \"#utility.yul\":17526:17529   */\n      dup3\n        /* \"#utility.yul\":17437:17530   */\n      tag_174\n      jump\t// in\n    tag_363:\n        /* \"#utility.yul\":17555:17557   */\n      0x20\n        /* \"#utility.yul\":17550:17553   */\n      dup3\n        /* \"#utility.yul\":17546:17558   */\n      add\n        /* \"#utility.yul\":17539:17558   */\n      swap1\n      pop\n        /* \"#utility.yul\":17198:17564   */\n      swap2\n      swap1\n      pop\n      jump\t// out\n        /* \"#utility.yul\":17570:17989   */\n    tag_112:\n        /* \"#utility.yul\":17736:17740   */\n      0x00\n        /* \"#utility.yul\":17774:17776   */\n      0x20\n        /* \"#utility.yul\":17763:17772   */\n      dup3\n        /* \"#utility.yul\":17759:17777   */\n      add\n        /* \"#utility.yul\":17751:17777   */\n      swap1\n      pop\n        /* \"#utility.yul\":17823:17832   */\n      dup2\n        /* \"#utility.yul\":17817:17821   */\n      dup2\n        /* \"#utility.yul\":17813:17833   */\n      sub\n        /* \"#utility.yul\":17809:17810   */\n      0x00\n        /* \"#utility.yul\":17798:17807   */\n      dup4\n        /* \"#utility.yul\":17794:17811   */\n      add\n        /* \"#utility.yul\":17787:17834   */\n      mstore\n        /* \"#utility.yul\":17851:17982   */\n      tag_365\n        /* \"#utility.yul\":17977:17981   */\n      dup2\n        /* \"#utility.yul\":17851:17982   */\n      tag_175\n      jump\t// in\n    tag_365:\n        /* \"#utility.yul\":17843:17982   */\n      swap1\n      pop\n        /* \"#utility.yul\":17570:17989   */\n      swap2\n      swap1\n      pop\n      jump\t// out\n        /* \"#utility.yul\":17995:18167   */\n    tag_176:\n        /* \"#utility.yul\":18135:18159   */\n      0x596f75206861766520616c726561647920566f74656400000000000000000000\n        /* \"#utility.yul\":18131:18132   */\n      0x00\n        /* \"#utility.yul\":18123:18129   */\n      dup3\n        /* \"#utility.yul\":18119:18133   */\n      add\n        /* \"#utility.yul\":18112:18160   */\n      mstore\n        /* \"#utility.yul\":17995:18167   */\n      pop\n      jump\t// out\n        /* \"#utility.yul\":18173:18539   */\n    tag_177:\n        /* \"#utility.yul\":18315:18318   */\n      0x00\n        /* \"#utility.yul\":18336:18403   */\n      tag_368\n        /* \"#utility.yul\":18400:18402   */\n      0x16\n        /* \"#utility.yul\":18395:18398   */\n      dup4\n        /* \"#utility.yul\":18336:18403   */\n      tag_131\n      jump\t// in\n    tag_368:\n        /* \"#utility.yul\":18329:18403   */\n      swap2\n      pop\n        /* \"#utility.yul\":18412:18505   */\n      tag_369\n        /* \"#utility.yul\":18501:18504   */\n      dup3\n        /* \"#utility.yul\":18412:18505   */\n      tag_176\n      jump\t// in\n    tag_369:\n        /* \"#utility.yul\":18530:18532   */\n      0x20\n        /* \"#utility.yul\":18525:18528   */\n      dup3\n        /* \"#utility.yul\":18521:18533   */\n      add\n        /* \"#utility.yul\":18514:18533   */\n      swap1\n      pop\n        /* \"#utility.yul\":18173:18539   */\n      swap2\n      swap1\n      pop\n      jump\t// out\n        /* \"#utility.yul\":18545:18964   */\n    tag_118:\n        /* \"#utility.yul\":18711:18715   */\n      0x00\n        /* \"#utility.yul\":18749:18751   */\n      0x20\n        /* \"#utility.yul\":18738:18747   */\n      dup3\n        /* \"#utility.yul\":18734:18752   */\n      add\n        /* \"#utility.yul\":18726:18752   */\n      swap1\n      pop\n        /* \"#utility.yul\":18798:18807   */\n      dup2\n        /* \"#utility.yul\":18792:18796   */\n      dup2\n        /* \"#utility.yul\":18788:18808   */\n      sub\n        /* \"#utility.yul\":18784:18785   */\n      0x00\n        /* \"#utility.yul\":18773:18782   */\n      dup4\n        /* \"#utility.yul\":18769:18786   */\n      add\n        /* \"#utility.yul\":18762:18809   */\n      mstore\n        /* \"#utility.yul\":18826:18957   */\n      tag_371\n        /* \"#utility.yul\":18952:18956   */\n      dup2\n        /* \"#utility.yul\":18826:18957   */\n      tag_177\n      jump\t// in\n    tag_371:\n        /* \"#utility.yul\":18818:18957   */\n      swap1\n      pop\n        /* \"#utility.yul\":18545:18964   */\n      swap2\n      swap1\n      pop\n      jump\t// out\n\n    auxdata: 0xa264697066735822122010d041d5dcc3b91902ca4514f36abceaa47419363ab46977651dca03d7f1940d64736f6c63430008140033\n}\n","bytecode":{"linkReferences":{},"object":"60806040525f6002555f60045534801562000018575f80fd5b50604051620015463803806200154683398181016040528101906200003e919062000129565b805f806101000a81548173ffffffffffffffffffffffffffffffffffffffff021916908373ffffffffffffffffffffffffffffffffffffffff1602179055508160018190555050506200016e565b5f80fd5b5f819050919050565b620000a48162000090565b8114620000af575f80fd5b50565b5f81519050620000c28162000099565b92915050565b5f73ffffffffffffffffffffffffffffffffffffffff82169050919050565b5f620000f382620000c8565b9050919050565b6200010581620000e7565b811462000110575f80fd5b50565b5f815190506200012381620000fa565b92915050565b5f80604083850312156200014257620001416200008c565b5b5f6200015185828601620000b2565b9250506020620001648582860162000113565b9150509250929050565b6113ca806200017c5f395ff3fe60806040526004361061009b575f3560e01c806381d12c581161006357806381d12c58146101675780638ec266f8146101a7578063921a5b5f146101e3578063937e09b11461020b578063d7bb99ba14610235578063d7d1bbdb1461023f5761009b565b8063034410061461009f5780633410452a146100bb5780634051ddac146100e5578063481c6a75146101135780634e260f6f1461013d575b5f80fd5b6100b960048036038101906100b4919061099f565b610267565b005b3480156100c6575f80fd5b506100cf610447565b6040516100dc91906109d9565b60405180910390f35b3480156100f0575f80fd5b506100f9610450565b60405161010a959493929190610a31565b60405180910390f35b34801561011e575f80fd5b50610127610493565b6040516101349190610a82565b60405180910390f35b348015610148575f80fd5b506101516104b6565b60405161015e91906109d9565b60405180910390f35b348015610172575f80fd5b5061018d6004803603810190610188919061099f565b6104bf565b60405161019e959493929190610b5f565b60405180910390f35b3480156101b2575f80fd5b506101cd60048036038101906101c8919061099f565b6105b1565b6040516101da91906109d9565b60405180910390f35b3480156101ee575f80fd5b5061020960048036038101906102049190610d0d565b6105e2565b005b348015610216575f80fd5b5061021f61072d565b60405161022c91906109d9565b60405180910390f35b61023d610733565b005b34801561024a575f80fd5b506102656004803603810190610260919061099f565b6107ae565b005b5f8054906101000a900473ffffffffffffffffffffffffffffffffffffffff1673ffffffffffffffffffffffffffffffffffffffff163373ffffffffffffffffffffffffffffffffffffffff16146102f4576040517f08c379a00000000000000000000000000000000000000000000000000000000081526004016102eb90610de9565b60405180910390fd5b5f6005828154811061030957610308610e07565b5b905f5260205f209060060201905060026004546103269190610e8e565b81600401541161036b576040517f08c379a000000000000000000000000000000000000000000000000000000000815260040161036290610f08565b60405180910390fd5b806003015f9054906101000a900460ff16156103bc576040517f08c379a00000000000000000000000000000000000000000000000000000000081526004016103b390610f96565b60405180910390fd5b806001015f9054906101000a900473ffffffffffffffffffffffffffffffffffffffff1673ffffffffffffffffffffffffffffffffffffffff166108fc826002015490811502906040515f60405180830381858888f19350505050158015610426573d5f803e3d5ffd5b506001816003015f6101000a81548160ff0219169083151502179055505050565b5f600254905090565b5f805f805f600154476005805490506004545f8054906101000a900473ffffffffffffffffffffffffffffffffffffffff16945094509450945094509091929394565b5f8054906101000a900473ffffffffffffffffffffffffffffffffffffffff1681565b5f600454905090565b600581815481106104ce575f80fd5b905f5260205f2090600602015f91509050805f0180546104ed90610fe1565b80601f016020809104026020016040519081016040528092919081815260200182805461051990610fe1565b80156105645780601f1061053b57610100808354040283529160200191610564565b820191905f5260205f20905b81548152906001019060200180831161054757829003601f168201915b505050505090806001015f9054906101000a900473ffffffffffffffffffffffffffffffffffffffff1690806002015490806003015f9054906101000a900460ff16908060040154905085565b5f80600583815481106105c7576105c6610e07565b5b905f5260205f20906006020190508060040154915050919050565b5f8054906101000a900473ffffffffffffffffffffffffffffffffffffffff1673ffffffffffffffffffffffffffffffffffffffff163373ffffffffffffffffffffffffffffffffffffffff161461066f576040517f08c379a000000000000000000000000000000000000000000000000000000000815260040161066690610de9565b60405180910390fd5b5f600560018160018154018082558091505003905f5260205f209060060201905082815f0190816106a091906111ae565b5083816002018190555081816001015f6101000a81548173ffffffffffffffffffffffffffffffffffffffff021916908373ffffffffffffffffffffffffffffffffffffffff1602179055505f816003015f6101000a81548160ff0219169083151502179055505f816004018190555060025f8154809291906107229061127d565b919050555050505050565b60015481565b600154341015610741575f80fd5b5f60035f3373ffffffffffffffffffffffffffffffffffffffff1673ffffffffffffffffffffffffffffffffffffffff1681526020019081526020015f205f6101000a81548160ff02191690831515021790555060045f8154809291906107a79061127d565b9190505550565b60035f3373ffffffffffffffffffffffffffffffffffffffff1673ffffffffffffffffffffffffffffffffffffffff1681526020019081526020015f205f9054906101000a900460ff1615610838576040517f08c379a000000000000000000000000000000000000000000000000000000000815260040161082f9061130e565b60405180910390fd5b5f6005828154811061084d5761084c610e07565b5b905f5260205f2090600602019050806005015f3373ffffffffffffffffffffffffffffffffffffffff1673ffffffffffffffffffffffffffffffffffffffff1681526020019081526020015f205f9054906101000a900460ff16156108e7576040517f08c379a00000000000000000000000000000000000000000000000000000000081526004016108de90611376565b60405180910390fd5b6001816005015f3373ffffffffffffffffffffffffffffffffffffffff1673ffffffffffffffffffffffffffffffffffffffff1681526020019081526020015f205f6101000a81548160ff021916908315150217905550806004015f8154809291906109529061127d565b91905055505050565b5f604051905090565b5f80fd5b5f80fd5b5f819050919050565b61097e8161096c565b8114610988575f80fd5b50565b5f8135905061099981610975565b92915050565b5f602082840312156109b4576109b3610964565b5b5f6109c18482850161098b565b91505092915050565b6109d38161096c565b82525050565b5f6020820190506109ec5f8301846109ca565b92915050565b5f73ffffffffffffffffffffffffffffffffffffffff82169050919050565b5f610a1b826109f2565b9050919050565b610a2b81610a11565b82525050565b5f60a082019050610a445f8301886109ca565b610a5160208301876109ca565b610a5e60408301866109ca565b610a6b60608301856109ca565b610a786080830184610a22565b9695505050505050565b5f602082019050610a955f830184610a22565b92915050565b5f81519050919050565b5f82825260208201905092915050565b5f5b83811015610ad2578082015181840152602081019050610ab7565b5f8484015250505050565b5f601f19601f8301169050919050565b5f610af782610a9b565b610b018185610aa5565b9350610b11818560208601610ab5565b610b1a81610add565b840191505092915050565b5f610b2f826109f2565b9050919050565b610b3f81610b25565b82525050565b5f8115159050919050565b610b5981610b45565b82525050565b5f60a0820190508181035f830152610b778188610aed565b9050610b866020830187610b36565b610b9360408301866109ca565b610ba06060830185610b50565b610bad60808301846109ca565b9695505050505050565b5f80fd5b5f80fd5b7f4e487b71000000000000000000000000000000000000000000000000000000005f52604160045260245ffd5b610bf582610add565b810181811067ffffffffffffffff82111715610c1457610c13610bbf565b5b80604052505050565b5f610c2661095b565b9050610c328282610bec565b919050565b5f67ffffffffffffffff821115610c5157610c50610bbf565b5b610c5a82610add565b9050602081019050919050565b828183375f83830152505050565b5f610c87610c8284610c37565b610c1d565b905082815260208101848484011115610ca357610ca2610bbb565b5b610cae848285610c67565b509392505050565b5f82601f830112610cca57610cc9610bb7565b5b8135610cda848260208601610c75565b91505092915050565b610cec81610b25565b8114610cf6575f80fd5b50565b5f81359050610d0781610ce3565b92915050565b5f805f60608486031215610d2457610d23610964565b5b5f610d318682870161098b565b935050602084013567ffffffffffffffff811115610d5257610d51610968565b5b610d5e86828701610cb6565b9250506040610d6f86828701610cf9565b9150509250925092565b7f4f6e6c79206d616e616765722063616e2061636365737320746869732066756e5f8201527f6374696f6e730000000000000000000000000000000000000000000000000000602082015250565b5f610dd3602683610aa5565b9150610dde82610d79565b604082019050919050565b5f6020820190508181035f830152610e0081610dc7565b9050919050565b7f4e487b71000000000000000000000000000000000000000000000000000000005f52603260045260245ffd5b7f4e487b71000000000000000000000000000000000000000000000000000000005f52601260045260245ffd5b7f4e487b71000000000000000000000000000000000000000000000000000000005f52601160045260245ffd5b5f610e988261096c565b9150610ea38361096c565b925082610eb357610eb2610e34565b5b828204905092915050565b7f52657175657374206e65656473206d6f726520617070726f76616c73000000005f82015250565b5f610ef2601c83610aa5565b9150610efd82610ebe565b602082019050919050565b5f6020820190508181035f830152610f1f81610ee6565b9050919050565b7f5265717565737420686173206265656e20616c726561647920617070726f76655f8201527f6400000000000000000000000000000000000000000000000000000000000000602082015250565b5f610f80602183610aa5565b9150610f8b82610f26565b604082019050919050565b5f6020820190508181035f830152610fad81610f74565b9050919050565b7f4e487b71000000000000000000000000000000000000000000000000000000005f52602260045260245ffd5b5f6002820490506001821680610ff857607f821691505b60208210810361100b5761100a610fb4565b5b50919050565b5f819050815f5260205f209050919050565b5f6020601f8301049050919050565b5f82821b905092915050565b5f6008830261106d7fffffffffffffffffffffffffffffffffffffffffffffffffffffffffffffffff82611032565b6110778683611032565b95508019841693508086168417925050509392505050565b5f819050919050565b5f6110b26110ad6110a88461096c565b61108f565b61096c565b9050919050565b5f819050919050565b6110cb83611098565b6110df6110d7826110b9565b84845461103e565b825550505050565b5f90565b6110f36110e7565b6110fe8184846110c2565b505050565b5b81811015611121576111165f826110eb565b600181019050611104565b5050565b601f8211156111665761113781611011565b61114084611023565b8101602085101561114f578190505b61116361115b85611023565b830182611103565b50505b505050565b5f82821c905092915050565b5f6111865f198460080261116b565b1980831691505092915050565b5f61119e8383611177565b9150826002028217905092915050565b6111b782610a9b565b67ffffffffffffffff8111156111d0576111cf610bbf565b5b6111da8254610fe1565b6111e5828285611125565b5f60209050601f831160018114611216575f8415611204578287015190505b61120e8582611193565b865550611275565b601f19841661122486611011565b5f5b8281101561124b57848901518255600182019150602085019450602081019050611226565b868310156112685784890151611264601f891682611177565b8355505b6001600288020188555050505b505050505050565b5f6112878261096c565b91507fffffffffffffffffffffffffffffffffffffffffffffffffffffffffffffffff82036112b9576112b8610e61565b5b600182019050919050565b7f4f6e6c7920436f6e7472696275746572732063616e20766f74650000000000005f82015250565b5f6112f8601a83610aa5565b9150611303826112c4565b602082019050919050565b5f6020820190508181035f830152611325816112ec565b9050919050565b7f596f75206861766520616c726561647920566f746564000000000000000000005f82015250565b5f611360601683610aa5565b915061136b8261132c565b602082019050919050565b5f6020820190508181035f83015261138d81611354565b905091905056fea264697066735822122010d041d5dcc3b91902ca4514f36abceaa47419363ab46977651dca03d7f1940d64736f6c63430008140033","opcodes":"PUSH1 0x80 PUSH1 0x40 MSTORE PUSH0 PUSH1 0x2 SSTORE PUSH0 PUSH1 0x4 SSTORE CALLVALUE DUP1 ISZERO PUSH3 0x18 JUMPI PUSH0 DUP1 REVERT JUMPDEST POP PUSH1 0x40 MLOAD PUSH3 0x1546 CODESIZE SUB DUP1 PUSH3 0x1546 DUP4 CODECOPY DUP2 DUP2 ADD PUSH1 0x40 MSTORE DUP2 ADD SWAP1 PUSH3 0x3E SWAP2 SWAP1 PUSH3 0x129 JUMP JUMPDEST DUP1 PUSH0 DUP1 PUSH2 0x100 EXP DUP2 SLOAD DUP2 PUSH20 0xFFFFFFFFFFFFFFFFFFFFFFFFFFFFFFFFFFFFFFFF MUL NOT AND SWAP1 DUP4 PUSH20 0xFFFFFFFFFFFFFFFFFFFFFFFFFFFFFFFFFFFFFFFF AND MUL OR SWAP1 SSTORE POP DUP2 PUSH1 0x1 DUP2 SWAP1 SSTORE POP POP POP PUSH3 0x16E JUMP JUMPDEST PUSH0 DUP1 REVERT JUMPDEST PUSH0 DUP2 SWAP1 POP SWAP2 SWAP1 POP JUMP JUMPDEST PUSH3 0xA4 DUP2 PUSH3 0x90 JUMP JUMPDEST DUP2 EQ PUSH3 0xAF JUMPI PUSH0 DUP1 REVERT JUMPDEST POP JUMP JUMPDEST PUSH0 DUP2 MLOAD SWAP1 POP PUSH3 0xC2 DUP2 PUSH3 0x99 JUMP JUMPDEST SWAP3 SWAP2 POP POP JUMP JUMPDEST PUSH0 PUSH20 0xFFFFFFFFFFFFFFFFFFFFFFFFFFFFFFFFFFFFFFFF DUP3 AND SWAP1 POP SWAP2 SWAP1 POP JUMP JUMPDEST PUSH0 PUSH3 0xF3 DUP3 PUSH3 0xC8 JUMP JUMPDEST SWAP1 POP SWAP2 SWAP1 POP JUMP JUMPDEST PUSH3 0x105 DUP2 PUSH3 0xE7 JUMP JUMPDEST DUP2 EQ PUSH3 0x110 JUMPI PUSH0 DUP1 REVERT JUMPDEST POP JUMP JUMPDEST PUSH0 DUP2 MLOAD SWAP1 POP PUSH3 0x123 DUP2 PUSH3 0xFA JUMP JUMPDEST SWAP3 SWAP2 POP POP JUMP JUMPDEST PUSH0 DUP1 PUSH1 0x40 DUP4 DUP6 SUB SLT ISZERO PUSH3 0x142 JUMPI PUSH3 0x141 PUSH3 0x8C JUMP JUMPDEST JUMPDEST PUSH0 PUSH3 0x151 DUP6 DUP3 DUP7 ADD PUSH3 0xB2 JUMP JUMPDEST SWAP3 POP POP PUSH1 0x20 PUSH3 0x164 DUP6 DUP3 DUP7 ADD PUSH3 0x113 JUMP JUMPDEST SWAP2 POP POP SWAP3 POP SWAP3 SWAP1 POP JUMP JUMPDEST PUSH2 0x13CA DUP1 PUSH3 0x17C PUSH0 CODECOPY PUSH0 RETURN INVALID PUSH1 0x80 PUSH1 0x40 MSTORE PUSH1 0x4 CALLDATASIZE LT PUSH2 0x9B JUMPI PUSH0 CALLDATALOAD PUSH1 0xE0 SHR DUP1 PUSH4 0x81D12C58 GT PUSH2 0x63 JUMPI DUP1 PUSH4 0x81D12C58 EQ PUSH2 0x167 JUMPI DUP1 PUSH4 0x8EC266F8 EQ PUSH2 0x1A7 JUMPI DUP1 PUSH4 0x921A5B5F EQ PUSH2 0x1E3 JUMPI DUP1 PUSH4 0x937E09B1 EQ PUSH2 0x20B JUMPI DUP1 PUSH4 0xD7BB99BA EQ PUSH2 0x235 JUMPI DUP1 PUSH4 0xD7D1BBDB EQ PUSH2 0x23F JUMPI PUSH2 0x9B JUMP JUMPDEST DUP1 PUSH4 0x3441006 EQ PUSH2 0x9F JUMPI DUP1 PUSH4 0x3410452A EQ PUSH2 0xBB JUMPI DUP1 PUSH4 0x4051DDAC EQ PUSH2 0xE5 JUMPI DUP1 PUSH4 0x481C6A75 EQ PUSH2 0x113 JUMPI DUP1 PUSH4 0x4E260F6F EQ PUSH2 0x13D JUMPI JUMPDEST PUSH0 DUP1 REVERT JUMPDEST PUSH2 0xB9 PUSH1 0x4 DUP1 CALLDATASIZE SUB DUP2 ADD SWAP1 PUSH2 0xB4 SWAP2 SWAP1 PUSH2 0x99F JUMP JUMPDEST PUSH2 0x267 JUMP JUMPDEST STOP JUMPDEST CALLVALUE DUP1 ISZERO PUSH2 0xC6 JUMPI PUSH0 DUP1 REVERT JUMPDEST POP PUSH2 0xCF PUSH2 0x447 JUMP JUMPDEST PUSH1 0x40 MLOAD PUSH2 0xDC SWAP2 SWAP1 PUSH2 0x9D9 JUMP JUMPDEST PUSH1 0x40 MLOAD DUP1 SWAP2 SUB SWAP1 RETURN JUMPDEST CALLVALUE DUP1 ISZERO PUSH2 0xF0 JUMPI PUSH0 DUP1 REVERT JUMPDEST POP PUSH2 0xF9 PUSH2 0x450 JUMP JUMPDEST PUSH1 0x40 MLOAD PUSH2 0x10A SWAP6 SWAP5 SWAP4 SWAP3 SWAP2 SWAP1 PUSH2 0xA31 JUMP JUMPDEST PUSH1 0x40 MLOAD DUP1 SWAP2 SUB SWAP1 RETURN JUMPDEST CALLVALUE DUP1 ISZERO PUSH2 0x11E JUMPI PUSH0 DUP1 REVERT JUMPDEST POP PUSH2 0x127 PUSH2 0x493 JUMP JUMPDEST PUSH1 0x40 MLOAD PUSH2 0x134 SWAP2 SWAP1 PUSH2 0xA82 JUMP JUMPDEST PUSH1 0x40 MLOAD DUP1 SWAP2 SUB SWAP1 RETURN JUMPDEST CALLVALUE DUP1 ISZERO PUSH2 0x148 JUMPI PUSH0 DUP1 REVERT JUMPDEST POP PUSH2 0x151 PUSH2 0x4B6 JUMP JUMPDEST PUSH1 0x40 MLOAD PUSH2 0x15E SWAP2 SWAP1 PUSH2 0x9D9 JUMP JUMPDEST PUSH1 0x40 MLOAD DUP1 SWAP2 SUB SWAP1 RETURN JUMPDEST CALLVALUE DUP1 ISZERO PUSH2 0x172 JUMPI PUSH0 DUP1 REVERT JUMPDEST POP PUSH2 0x18D PUSH1 0x4 DUP1 CALLDATASIZE SUB DUP2 ADD SWAP1 PUSH2 0x188 SWAP2 SWAP1 PUSH2 0x99F JUMP JUMPDEST PUSH2 0x4BF JUMP JUMPDEST PUSH1 0x40 MLOAD PUSH2 0x19E SWAP6 SWAP5 SWAP4 SWAP3 SWAP2 SWAP1 PUSH2 0xB5F JUMP JUMPDEST PUSH1 0x40 MLOAD DUP1 SWAP2 SUB SWAP1 RETURN JUMPDEST CALLVALUE DUP1 ISZERO PUSH2 0x1B2 JUMPI PUSH0 DUP1 REVERT JUMPDEST POP PUSH2 0x1CD PUSH1 0x4 DUP1 CALLDATASIZE SUB DUP2 ADD SWAP1 PUSH2 0x1C8 SWAP2 SWAP1 PUSH2 0x99F JUMP JUMPDEST PUSH2 0x5B1 JUMP JUMPDEST PUSH1 0x40 MLOAD PUSH2 0x1DA SWAP2 SWAP1 PUSH2 0x9D9 JUMP JUMPDEST PUSH1 0x40 MLOAD DUP1 SWAP2 SUB SWAP1 RETURN JUMPDEST CALLVALUE DUP1 ISZERO PUSH2 0x1EE JUMPI PUSH0 DUP1 REVERT JUMPDEST POP PUSH2 0x209 PUSH1 0x4 DUP1 CALLDATASIZE SUB DUP2 ADD SWAP1 PUSH2 0x204 SWAP2 SWAP1 PUSH2 0xD0D JUMP JUMPDEST PUSH2 0x5E2 JUMP JUMPDEST STOP JUMPDEST CALLVALUE DUP1 ISZERO PUSH2 0x216 JUMPI PUSH0 DUP1 REVERT JUMPDEST POP PUSH2 0x21F PUSH2 0x72D JUMP JUMPDEST PUSH1 0x40 MLOAD PUSH2 0x22C SWAP2 SWAP1 PUSH2 0x9D9 JUMP JUMPDEST PUSH1 0x40 MLOAD DUP1 SWAP2 SUB SWAP1 RETURN JUMPDEST PUSH2 0x23D PUSH2 0x733 JUMP JUMPDEST STOP JUMPDEST CALLVALUE DUP1 ISZERO PUSH2 0x24A JUMPI PUSH0 DUP1 REVERT JUMPDEST POP PUSH2 0x265 PUSH1 0x4 DUP1 CALLDATASIZE SUB DUP2 ADD SWAP1 PUSH2 0x260 SWAP2 SWAP1 PUSH2 0x99F JUMP JUMPDEST PUSH2 0x7AE JUMP JUMPDEST STOP JUMPDEST PUSH0 DUP1 SLOAD SWAP1 PUSH2 0x100 EXP SWAP1 DIV PUSH20 0xFFFFFFFFFFFFFFFFFFFFFFFFFFFFFFFFFFFFFFFF AND PUSH20 0xFFFFFFFFFFFFFFFFFFFFFFFFFFFFFFFFFFFFFFFF AND CALLER PUSH20 0xFFFFFFFFFFFFFFFFFFFFFFFFFFFFFFFFFFFFFFFF AND EQ PUSH2 0x2F4 JUMPI PUSH1 0x40 MLOAD PUSH32 0x8C379A000000000000000000000000000000000000000000000000000000000 DUP2 MSTORE PUSH1 0x4 ADD PUSH2 0x2EB SWAP1 PUSH2 0xDE9 JUMP JUMPDEST PUSH1 0x40 MLOAD DUP1 SWAP2 SUB SWAP1 REVERT JUMPDEST PUSH0 PUSH1 0x5 DUP3 DUP2 SLOAD DUP2 LT PUSH2 0x309 JUMPI PUSH2 0x308 PUSH2 0xE07 JUMP JUMPDEST JUMPDEST SWAP1 PUSH0 MSTORE PUSH1 0x20 PUSH0 KECCAK256 SWAP1 PUSH1 0x6 MUL ADD SWAP1 POP PUSH1 0x2 PUSH1 0x4 SLOAD PUSH2 0x326 SWAP2 SWAP1 PUSH2 0xE8E JUMP JUMPDEST DUP2 PUSH1 0x4 ADD SLOAD GT PUSH2 0x36B JUMPI PUSH1 0x40 MLOAD PUSH32 0x8C379A000000000000000000000000000000000000000000000000000000000 DUP2 MSTORE PUSH1 0x4 ADD PUSH2 0x362 SWAP1 PUSH2 0xF08 JUMP JUMPDEST PUSH1 0x40 MLOAD DUP1 SWAP2 SUB SWAP1 REVERT JUMPDEST DUP1 PUSH1 0x3 ADD PUSH0 SWAP1 SLOAD SWAP1 PUSH2 0x100 EXP SWAP1 DIV PUSH1 0xFF AND ISZERO PUSH2 0x3BC JUMPI PUSH1 0x40 MLOAD PUSH32 0x8C379A000000000000000000000000000000000000000000000000000000000 DUP2 MSTORE PUSH1 0x4 ADD PUSH2 0x3B3 SWAP1 PUSH2 0xF96 JUMP JUMPDEST PUSH1 0x40 MLOAD DUP1 SWAP2 SUB SWAP1 REVERT JUMPDEST DUP1 PUSH1 0x1 ADD PUSH0 SWAP1 SLOAD SWAP1 PUSH2 0x100 EXP SWAP1 DIV PUSH20 0xFFFFFFFFFFFFFFFFFFFFFFFFFFFFFFFFFFFFFFFF AND PUSH20 0xFFFFFFFFFFFFFFFFFFFFFFFFFFFFFFFFFFFFFFFF AND PUSH2 0x8FC DUP3 PUSH1 0x2 ADD SLOAD SWAP1 DUP2 ISZERO MUL SWAP1 PUSH1 0x40 MLOAD PUSH0 PUSH1 0x40 MLOAD DUP1 DUP4 SUB DUP2 DUP6 DUP9 DUP9 CALL SWAP4 POP POP POP POP ISZERO DUP1 ISZERO PUSH2 0x426 JUMPI RETURNDATASIZE PUSH0 DUP1 RETURNDATACOPY RETURNDATASIZE PUSH0 REVERT JUMPDEST POP PUSH1 0x1 DUP2 PUSH1 0x3 ADD PUSH0 PUSH2 0x100 EXP DUP2 SLOAD DUP2 PUSH1 0xFF MUL NOT AND SWAP1 DUP4 ISZERO ISZERO MUL OR SWAP1 SSTORE POP POP POP JUMP JUMPDEST PUSH0 PUSH1 0x2 SLOAD SWAP1 POP SWAP1 JUMP JUMPDEST PUSH0 DUP1 PUSH0 DUP1 PUSH0 PUSH1 0x1 SLOAD SELFBALANCE PUSH1 0x5 DUP1 SLOAD SWAP1 POP PUSH1 0x4 SLOAD PUSH0 DUP1 SLOAD SWAP1 PUSH2 0x100 EXP SWAP1 DIV PUSH20 0xFFFFFFFFFFFFFFFFFFFFFFFFFFFFFFFFFFFFFFFF AND SWAP5 POP SWAP5 POP SWAP5 POP SWAP5 POP SWAP5 POP SWAP1 SWAP2 SWAP3 SWAP4 SWAP5 JUMP JUMPDEST PUSH0 DUP1 SLOAD SWAP1 PUSH2 0x100 EXP SWAP1 DIV PUSH20 0xFFFFFFFFFFFFFFFFFFFFFFFFFFFFFFFFFFFFFFFF AND DUP2 JUMP JUMPDEST PUSH0 PUSH1 0x4 SLOAD SWAP1 POP SWAP1 JUMP JUMPDEST PUSH1 0x5 DUP2 DUP2 SLOAD DUP2 LT PUSH2 0x4CE JUMPI PUSH0 DUP1 REVERT JUMPDEST SWAP1 PUSH0 MSTORE PUSH1 0x20 PUSH0 KECCAK256 SWAP1 PUSH1 0x6 MUL ADD PUSH0 SWAP2 POP SWAP1 POP DUP1 PUSH0 ADD DUP1 SLOAD PUSH2 0x4ED SWAP1 PUSH2 0xFE1 JUMP JUMPDEST DUP1 PUSH1 0x1F ADD PUSH1 0x20 DUP1 SWAP2 DIV MUL PUSH1 0x20 ADD PUSH1 0x40 MLOAD SWAP1 DUP2 ADD PUSH1 0x40 MSTORE DUP1 SWAP3 SWAP2 SWAP1 DUP2 DUP2 MSTORE PUSH1 0x20 ADD DUP3 DUP1 SLOAD PUSH2 0x519 SWAP1 PUSH2 0xFE1 JUMP JUMPDEST DUP1 ISZERO PUSH2 0x564 JUMPI DUP1 PUSH1 0x1F LT PUSH2 0x53B JUMPI PUSH2 0x100 DUP1 DUP4 SLOAD DIV MUL DUP4 MSTORE SWAP2 PUSH1 0x20 ADD SWAP2 PUSH2 0x564 JUMP JUMPDEST DUP3 ADD SWAP2 SWAP1 PUSH0 MSTORE PUSH1 0x20 PUSH0 KECCAK256 SWAP1 JUMPDEST DUP2 SLOAD DUP2 MSTORE SWAP1 PUSH1 0x1 ADD SWAP1 PUSH1 0x20 ADD DUP1 DUP4 GT PUSH2 0x547 JUMPI DUP3 SWAP1 SUB PUSH1 0x1F AND DUP3 ADD SWAP2 JUMPDEST POP POP POP POP POP SWAP1 DUP1 PUSH1 0x1 ADD PUSH0 SWAP1 SLOAD SWAP1 PUSH2 0x100 EXP SWAP1 DIV PUSH20 0xFFFFFFFFFFFFFFFFFFFFFFFFFFFFFFFFFFFFFFFF AND SWAP1 DUP1 PUSH1 0x2 ADD SLOAD SWAP1 DUP1 PUSH1 0x3 ADD PUSH0 SWAP1 SLOAD SWAP1 PUSH2 0x100 EXP SWAP1 DIV PUSH1 0xFF AND SWAP1 DUP1 PUSH1 0x4 ADD SLOAD SWAP1 POP DUP6 JUMP JUMPDEST PUSH0 DUP1 PUSH1 0x5 DUP4 DUP2 SLOAD DUP2 LT PUSH2 0x5C7 JUMPI PUSH2 0x5C6 PUSH2 0xE07 JUMP JUMPDEST JUMPDEST SWAP1 PUSH0 MSTORE PUSH1 0x20 PUSH0 KECCAK256 SWAP1 PUSH1 0x6 MUL ADD SWAP1 POP DUP1 PUSH1 0x4 ADD SLOAD SWAP2 POP POP SWAP2 SWAP1 POP JUMP JUMPDEST PUSH0 DUP1 SLOAD SWAP1 PUSH2 0x100 EXP SWAP1 DIV PUSH20 0xFFFFFFFFFFFFFFFFFFFFFFFFFFFFFFFFFFFFFFFF AND PUSH20 0xFFFFFFFFFFFFFFFFFFFFFFFFFFFFFFFFFFFFFFFF AND CALLER PUSH20 0xFFFFFFFFFFFFFFFFFFFFFFFFFFFFFFFFFFFFFFFF AND EQ PUSH2 0x66F JUMPI PUSH1 0x40 MLOAD PUSH32 0x8C379A000000000000000000000000000000000000000000000000000000000 DUP2 MSTORE PUSH1 0x4 ADD PUSH2 0x666 SWAP1 PUSH2 0xDE9 JUMP JUMPDEST PUSH1 0x40 MLOAD DUP1 SWAP2 SUB SWAP1 REVERT JUMPDEST PUSH0 PUSH1 0x5 PUSH1 0x1 DUP2 PUSH1 0x1 DUP2 SLOAD ADD DUP1 DUP3 SSTORE DUP1 SWAP2 POP POP SUB SWAP1 PUSH0 MSTORE PUSH1 0x20 PUSH0 KECCAK256 SWAP1 PUSH1 0x6 MUL ADD SWAP1 POP DUP3 DUP2 PUSH0 ADD SWAP1 DUP2 PUSH2 0x6A0 SWAP2 SWAP1 PUSH2 0x11AE JUMP JUMPDEST POP DUP4 DUP2 PUSH1 0x2 ADD DUP2 SWAP1 SSTORE POP DUP2 DUP2 PUSH1 0x1 ADD PUSH0 PUSH2 0x100 EXP DUP2 SLOAD DUP2 PUSH20 0xFFFFFFFFFFFFFFFFFFFFFFFFFFFFFFFFFFFFFFFF MUL NOT AND SWAP1 DUP4 PUSH20 0xFFFFFFFFFFFFFFFFFFFFFFFFFFFFFFFFFFFFFFFF AND MUL OR SWAP1 SSTORE POP PUSH0 DUP2 PUSH1 0x3 ADD PUSH0 PUSH2 0x100 EXP DUP2 SLOAD DUP2 PUSH1 0xFF MUL NOT AND SWAP1 DUP4 ISZERO ISZERO MUL OR SWAP1 SSTORE POP PUSH0 DUP2 PUSH1 0x4 ADD DUP2 SWAP1 SSTORE POP PUSH1 0x2 PUSH0 DUP2 SLOAD DUP1 SWAP3 SWAP2 SWAP1 PUSH2 0x722 SWAP1 PUSH2 0x127D JUMP JUMPDEST SWAP2 SWAP1 POP SSTORE POP POP POP POP POP JUMP JUMPDEST PUSH1 0x1 SLOAD DUP2 JUMP JUMPDEST PUSH1 0x1 SLOAD CALLVALUE LT ISZERO PUSH2 0x741 JUMPI PUSH0 DUP1 REVERT JUMPDEST PUSH0 PUSH1 0x3 PUSH0 CALLER PUSH20 0xFFFFFFFFFFFFFFFFFFFFFFFFFFFFFFFFFFFFFFFF AND PUSH20 0xFFFFFFFFFFFFFFFFFFFFFFFFFFFFFFFFFFFFFFFF AND DUP2 MSTORE PUSH1 0x20 ADD SWAP1 DUP2 MSTORE PUSH1 0x20 ADD PUSH0 KECCAK256 PUSH0 PUSH2 0x100 EXP DUP2 SLOAD DUP2 PUSH1 0xFF MUL NOT AND SWAP1 DUP4 ISZERO ISZERO MUL OR SWAP1 SSTORE POP PUSH1 0x4 PUSH0 DUP2 SLOAD DUP1 SWAP3 SWAP2 SWAP1 PUSH2 0x7A7 SWAP1 PUSH2 0x127D JUMP JUMPDEST SWAP2 SWAP1 POP SSTORE POP JUMP JUMPDEST PUSH1 0x3 PUSH0 CALLER PUSH20 0xFFFFFFFFFFFFFFFFFFFFFFFFFFFFFFFFFFFFFFFF AND PUSH20 0xFFFFFFFFFFFFFFFFFFFFFFFFFFFFFFFFFFFFFFFF AND DUP2 MSTORE PUSH1 0x20 ADD SWAP1 DUP2 MSTORE PUSH1 0x20 ADD PUSH0 KECCAK256 PUSH0 SWAP1 SLOAD SWAP1 PUSH2 0x100 EXP SWAP1 DIV PUSH1 0xFF AND ISZERO PUSH2 0x838 JUMPI PUSH1 0x40 MLOAD PUSH32 0x8C379A000000000000000000000000000000000000000000000000000000000 DUP2 MSTORE PUSH1 0x4 ADD PUSH2 0x82F SWAP1 PUSH2 0x130E JUMP JUMPDEST PUSH1 0x40 MLOAD DUP1 SWAP2 SUB SWAP1 REVERT JUMPDEST PUSH0 PUSH1 0x5 DUP3 DUP2 SLOAD DUP2 LT PUSH2 0x84D JUMPI PUSH2 0x84C PUSH2 0xE07 JUMP JUMPDEST JUMPDEST SWAP1 PUSH0 MSTORE PUSH1 0x20 PUSH0 KECCAK256 SWAP1 PUSH1 0x6 MUL ADD SWAP1 POP DUP1 PUSH1 0x5 ADD PUSH0 CALLER PUSH20 0xFFFFFFFFFFFFFFFFFFFFFFFFFFFFFFFFFFFFFFFF AND PUSH20 0xFFFFFFFFFFFFFFFFFFFFFFFFFFFFFFFFFFFFFFFF AND DUP2 MSTORE PUSH1 0x20 ADD SWAP1 DUP2 MSTORE PUSH1 0x20 ADD PUSH0 KECCAK256 PUSH0 SWAP1 SLOAD SWAP1 PUSH2 0x100 EXP SWAP1 DIV PUSH1 0xFF AND ISZERO PUSH2 0x8E7 JUMPI PUSH1 0x40 MLOAD PUSH32 0x8C379A000000000000000000000000000000000000000000000000000000000 DUP2 MSTORE PUSH1 0x4 ADD PUSH2 0x8DE SWAP1 PUSH2 0x1376 JUMP JUMPDEST PUSH1 0x40 MLOAD DUP1 SWAP2 SUB SWAP1 REVERT JUMPDEST PUSH1 0x1 DUP2 PUSH1 0x5 ADD PUSH0 CALLER PUSH20 0xFFFFFFFFFFFFFFFFFFFFFFFFFFFFFFFFFFFFFFFF AND PUSH20 0xFFFFFFFFFFFFFFFFFFFFFFFFFFFFFFFFFFFFFFFF AND DUP2 MSTORE PUSH1 0x20 ADD SWAP1 DUP2 MSTORE PUSH1 0x20 ADD PUSH0 KECCAK256 PUSH0 PUSH2 0x100 EXP DUP2 SLOAD DUP2 PUSH1 0xFF MUL NOT AND SWAP1 DUP4 ISZERO ISZERO MUL OR SWAP1 SSTORE POP DUP1 PUSH1 0x4 ADD PUSH0 DUP2 SLOAD DUP1 SWAP3 SWAP2 SWAP1 PUSH2 0x952 SWAP1 PUSH2 0x127D JUMP JUMPDEST SWAP2 SWAP1 POP SSTORE POP POP POP JUMP JUMPDEST PUSH0 PUSH1 0x40 MLOAD SWAP1 POP SWAP1 JUMP JUMPDEST PUSH0 DUP1 REVERT JUMPDEST PUSH0 DUP1 REVERT JUMPDEST PUSH0 DUP2 SWAP1 POP SWAP2 SWAP1 POP JUMP JUMPDEST PUSH2 0x97E DUP2 PUSH2 0x96C JUMP JUMPDEST DUP2 EQ PUSH2 0x988 JUMPI PUSH0 DUP1 REVERT JUMPDEST POP JUMP JUMPDEST PUSH0 DUP2 CALLDATALOAD SWAP1 POP PUSH2 0x999 DUP2 PUSH2 0x975 JUMP JUMPDEST SWAP3 SWAP2 POP POP JUMP JUMPDEST PUSH0 PUSH1 0x20 DUP3 DUP5 SUB SLT ISZERO PUSH2 0x9B4 JUMPI PUSH2 0x9B3 PUSH2 0x964 JUMP JUMPDEST JUMPDEST PUSH0 PUSH2 0x9C1 DUP5 DUP3 DUP6 ADD PUSH2 0x98B JUMP JUMPDEST SWAP2 POP POP SWAP3 SWAP2 POP POP JUMP JUMPDEST PUSH2 0x9D3 DUP2 PUSH2 0x96C JUMP JUMPDEST DUP3 MSTORE POP POP JUMP JUMPDEST PUSH0 PUSH1 0x20 DUP3 ADD SWAP1 POP PUSH2 0x9EC PUSH0 DUP4 ADD DUP5 PUSH2 0x9CA JUMP JUMPDEST SWAP3 SWAP2 POP POP JUMP JUMPDEST PUSH0 PUSH20 0xFFFFFFFFFFFFFFFFFFFFFFFFFFFFFFFFFFFFFFFF DUP3 AND SWAP1 POP SWAP2 SWAP1 POP JUMP JUMPDEST PUSH0 PUSH2 0xA1B DUP3 PUSH2 0x9F2 JUMP JUMPDEST SWAP1 POP SWAP2 SWAP1 POP JUMP JUMPDEST PUSH2 0xA2B DUP2 PUSH2 0xA11 JUMP JUMPDEST DUP3 MSTORE POP POP JUMP JUMPDEST PUSH0 PUSH1 0xA0 DUP3 ADD SWAP1 POP PUSH2 0xA44 PUSH0 DUP4 ADD DUP9 PUSH2 0x9CA JUMP JUMPDEST PUSH2 0xA51 PUSH1 0x20 DUP4 ADD DUP8 PUSH2 0x9CA JUMP JUMPDEST PUSH2 0xA5E PUSH1 0x40 DUP4 ADD DUP7 PUSH2 0x9CA JUMP JUMPDEST PUSH2 0xA6B PUSH1 0x60 DUP4 ADD DUP6 PUSH2 0x9CA JUMP JUMPDEST PUSH2 0xA78 PUSH1 0x80 DUP4 ADD DUP5 PUSH2 0xA22 JUMP JUMPDEST SWAP7 SWAP6 POP POP POP POP POP POP JUMP JUMPDEST PUSH0 PUSH1 0x20 DUP3 ADD SWAP1 POP PUSH2 0xA95 PUSH0 DUP4 ADD DUP5 PUSH2 0xA22 JUMP JUMPDEST SWAP3 SWAP2 POP POP JUMP JUMPDEST PUSH0 DUP2 MLOAD SWAP1 POP SWAP2 SWAP1 POP JUMP JUMPDEST PUSH0 DUP3 DUP3 MSTORE PUSH1 0x20 DUP3 ADD SWAP1 POP SWAP3 SWAP2 POP POP JUMP JUMPDEST PUSH0 JUMPDEST DUP4 DUP2 LT ISZERO PUSH2 0xAD2 JUMPI DUP1 DUP3 ADD MLOAD DUP2 DUP5 ADD MSTORE PUSH1 0x20 DUP2 ADD SWAP1 POP PUSH2 0xAB7 JUMP JUMPDEST PUSH0 DUP5 DUP5 ADD MSTORE POP POP POP POP JUMP JUMPDEST PUSH0 PUSH1 0x1F NOT PUSH1 0x1F DUP4 ADD AND SWAP1 POP SWAP2 SWAP1 POP JUMP JUMPDEST PUSH0 PUSH2 0xAF7 DUP3 PUSH2 0xA9B JUMP JUMPDEST PUSH2 0xB01 DUP2 DUP6 PUSH2 0xAA5 JUMP JUMPDEST SWAP4 POP PUSH2 0xB11 DUP2 DUP6 PUSH1 0x20 DUP7 ADD PUSH2 0xAB5 JUMP JUMPDEST PUSH2 0xB1A DUP2 PUSH2 0xADD JUMP JUMPDEST DUP5 ADD SWAP2 POP POP SWAP3 SWAP2 POP POP JUMP JUMPDEST PUSH0 PUSH2 0xB2F DUP3 PUSH2 0x9F2 JUMP JUMPDEST SWAP1 POP SWAP2 SWAP1 POP JUMP JUMPDEST PUSH2 0xB3F DUP2 PUSH2 0xB25 JUMP JUMPDEST DUP3 MSTORE POP POP JUMP JUMPDEST PUSH0 DUP2 ISZERO ISZERO SWAP1 POP SWAP2 SWAP1 POP JUMP JUMPDEST PUSH2 0xB59 DUP2 PUSH2 0xB45 JUMP JUMPDEST DUP3 MSTORE POP POP JUMP JUMPDEST PUSH0 PUSH1 0xA0 DUP3 ADD SWAP1 POP DUP2 DUP2 SUB PUSH0 DUP4 ADD MSTORE PUSH2 0xB77 DUP2 DUP9 PUSH2 0xAED JUMP JUMPDEST SWAP1 POP PUSH2 0xB86 PUSH1 0x20 DUP4 ADD DUP8 PUSH2 0xB36 JUMP JUMPDEST PUSH2 0xB93 PUSH1 0x40 DUP4 ADD DUP7 PUSH2 0x9CA JUMP JUMPDEST PUSH2 0xBA0 PUSH1 0x60 DUP4 ADD DUP6 PUSH2 0xB50 JUMP JUMPDEST PUSH2 0xBAD PUSH1 0x80 DUP4 ADD DUP5 PUSH2 0x9CA JUMP JUMPDEST SWAP7 SWAP6 POP POP POP POP POP POP JUMP JUMPDEST PUSH0 DUP1 REVERT JUMPDEST PUSH0 DUP1 REVERT JUMPDEST PUSH32 0x4E487B7100000000000000000000000000000000000000000000000000000000 PUSH0 MSTORE PUSH1 0x41 PUSH1 0x4 MSTORE PUSH1 0x24 PUSH0 REVERT JUMPDEST PUSH2 0xBF5 DUP3 PUSH2 0xADD JUMP JUMPDEST DUP2 ADD DUP2 DUP2 LT PUSH8 0xFFFFFFFFFFFFFFFF DUP3 GT OR ISZERO PUSH2 0xC14 JUMPI PUSH2 0xC13 PUSH2 0xBBF JUMP JUMPDEST JUMPDEST DUP1 PUSH1 0x40 MSTORE POP POP POP JUMP JUMPDEST PUSH0 PUSH2 0xC26 PUSH2 0x95B JUMP JUMPDEST SWAP1 POP PUSH2 0xC32 DUP3 DUP3 PUSH2 0xBEC JUMP JUMPDEST SWAP2 SWAP1 POP JUMP JUMPDEST PUSH0 PUSH8 0xFFFFFFFFFFFFFFFF DUP3 GT ISZERO PUSH2 0xC51 JUMPI PUSH2 0xC50 PUSH2 0xBBF JUMP JUMPDEST JUMPDEST PUSH2 0xC5A DUP3 PUSH2 0xADD JUMP JUMPDEST SWAP1 POP PUSH1 0x20 DUP2 ADD SWAP1 POP SWAP2 SWAP1 POP JUMP JUMPDEST DUP3 DUP2 DUP4 CALLDATACOPY PUSH0 DUP4 DUP4 ADD MSTORE POP POP POP JUMP JUMPDEST PUSH0 PUSH2 0xC87 PUSH2 0xC82 DUP5 PUSH2 0xC37 JUMP JUMPDEST PUSH2 0xC1D JUMP JUMPDEST SWAP1 POP DUP3 DUP2 MSTORE PUSH1 0x20 DUP2 ADD DUP5 DUP5 DUP5 ADD GT ISZERO PUSH2 0xCA3 JUMPI PUSH2 0xCA2 PUSH2 0xBBB JUMP JUMPDEST JUMPDEST PUSH2 0xCAE DUP5 DUP3 DUP6 PUSH2 0xC67 JUMP JUMPDEST POP SWAP4 SWAP3 POP POP POP JUMP JUMPDEST PUSH0 DUP3 PUSH1 0x1F DUP4 ADD SLT PUSH2 0xCCA JUMPI PUSH2 0xCC9 PUSH2 0xBB7 JUMP JUMPDEST JUMPDEST DUP2 CALLDATALOAD PUSH2 0xCDA DUP5 DUP3 PUSH1 0x20 DUP7 ADD PUSH2 0xC75 JUMP JUMPDEST SWAP2 POP POP SWAP3 SWAP2 POP POP JUMP JUMPDEST PUSH2 0xCEC DUP2 PUSH2 0xB25 JUMP JUMPDEST DUP2 EQ PUSH2 0xCF6 JUMPI PUSH0 DUP1 REVERT JUMPDEST POP JUMP JUMPDEST PUSH0 DUP2 CALLDATALOAD SWAP1 POP PUSH2 0xD07 DUP2 PUSH2 0xCE3 JUMP JUMPDEST SWAP3 SWAP2 POP POP JUMP JUMPDEST PUSH0 DUP1 PUSH0 PUSH1 0x60 DUP5 DUP7 SUB SLT ISZERO PUSH2 0xD24 JUMPI PUSH2 0xD23 PUSH2 0x964 JUMP JUMPDEST JUMPDEST PUSH0 PUSH2 0xD31 DUP7 DUP3 DUP8 ADD PUSH2 0x98B JUMP JUMPDEST SWAP4 POP POP PUSH1 0x20 DUP5 ADD CALLDATALOAD PUSH8 0xFFFFFFFFFFFFFFFF DUP2 GT ISZERO PUSH2 0xD52 JUMPI PUSH2 0xD51 PUSH2 0x968 JUMP JUMPDEST JUMPDEST PUSH2 0xD5E DUP7 DUP3 DUP8 ADD PUSH2 0xCB6 JUMP JUMPDEST SWAP3 POP POP PUSH1 0x40 PUSH2 0xD6F DUP7 DUP3 DUP8 ADD PUSH2 0xCF9 JUMP JUMPDEST SWAP2 POP POP SWAP3 POP SWAP3 POP SWAP3 JUMP JUMPDEST PUSH32 0x4F6E6C79206D616E616765722063616E2061636365737320746869732066756E PUSH0 DUP3 ADD MSTORE PUSH32 0x6374696F6E730000000000000000000000000000000000000000000000000000 PUSH1 0x20 DUP3 ADD MSTORE POP JUMP JUMPDEST PUSH0 PUSH2 0xDD3 PUSH1 0x26 DUP4 PUSH2 0xAA5 JUMP JUMPDEST SWAP2 POP PUSH2 0xDDE DUP3 PUSH2 0xD79 JUMP JUMPDEST PUSH1 0x40 DUP3 ADD SWAP1 POP SWAP2 SWAP1 POP JUMP JUMPDEST PUSH0 PUSH1 0x20 DUP3 ADD SWAP1 POP DUP2 DUP2 SUB PUSH0 DUP4 ADD MSTORE PUSH2 0xE00 DUP2 PUSH2 0xDC7 JUMP JUMPDEST SWAP1 POP SWAP2 SWAP1 POP JUMP JUMPDEST PUSH32 0x4E487B7100000000000000000000000000000000000000000000000000000000 PUSH0 MSTORE PUSH1 0x32 PUSH1 0x4 MSTORE PUSH1 0x24 PUSH0 REVERT JUMPDEST PUSH32 0x4E487B7100000000000000000000000000000000000000000000000000000000 PUSH0 MSTORE PUSH1 0x12 PUSH1 0x4 MSTORE PUSH1 0x24 PUSH0 REVERT JUMPDEST PUSH32 0x4E487B7100000000000000000000000000000000000000000000000000000000 PUSH0 MSTORE PUSH1 0x11 PUSH1 0x4 MSTORE PUSH1 0x24 PUSH0 REVERT JUMPDEST PUSH0 PUSH2 0xE98 DUP3 PUSH2 0x96C JUMP JUMPDEST SWAP2 POP PUSH2 0xEA3 DUP4 PUSH2 0x96C JUMP JUMPDEST SWAP3 POP DUP3 PUSH2 0xEB3 JUMPI PUSH2 0xEB2 PUSH2 0xE34 JUMP JUMPDEST JUMPDEST DUP3 DUP3 DIV SWAP1 POP SWAP3 SWAP2 POP POP JUMP JUMPDEST PUSH32 0x52657175657374206E65656473206D6F726520617070726F76616C7300000000 PUSH0 DUP3 ADD MSTORE POP JUMP JUMPDEST PUSH0 PUSH2 0xEF2 PUSH1 0x1C DUP4 PUSH2 0xAA5 JUMP JUMPDEST SWAP2 POP PUSH2 0xEFD DUP3 PUSH2 0xEBE JUMP JUMPDEST PUSH1 0x20 DUP3 ADD SWAP1 POP SWAP2 SWAP1 POP JUMP JUMPDEST PUSH0 PUSH1 0x20 DUP3 ADD SWAP1 POP DUP2 DUP2 SUB PUSH0 DUP4 ADD MSTORE PUSH2 0xF1F DUP2 PUSH2 0xEE6 JUMP JUMPDEST SWAP1 POP SWAP2 SWAP1 POP JUMP JUMPDEST PUSH32 0x5265717565737420686173206265656E20616C726561647920617070726F7665 PUSH0 DUP3 ADD MSTORE PUSH32 0x6400000000000000000000000000000000000000000000000000000000000000 PUSH1 0x20 DUP3 ADD MSTORE POP JUMP JUMPDEST PUSH0 PUSH2 0xF80 PUSH1 0x21 DUP4 PUSH2 0xAA5 JUMP JUMPDEST SWAP2 POP PUSH2 0xF8B DUP3 PUSH2 0xF26 JUMP JUMPDEST PUSH1 0x40 DUP3 ADD SWAP1 POP SWAP2 SWAP1 POP JUMP JUMPDEST PUSH0 PUSH1 0x20 DUP3 ADD SWAP1 POP DUP2 DUP2 SUB PUSH0 DUP4 ADD MSTORE PUSH2 0xFAD DUP2 PUSH2 0xF74 JUMP JUMPDEST SWAP1 POP SWAP2 SWAP1 POP JUMP JUMPDEST PUSH32 0x4E487B7100000000000000000000000000000000000000000000000000000000 PUSH0 MSTORE PUSH1 0x22 PUSH1 0x4 MSTORE PUSH1 0x24 PUSH0 REVERT JUMPDEST PUSH0 PUSH1 0x2 DUP3 DIV SWAP1 POP PUSH1 0x1 DUP3 AND DUP1 PUSH2 0xFF8 JUMPI PUSH1 0x7F DUP3 AND SWAP2 POP JUMPDEST PUSH1 0x20 DUP3 LT DUP2 SUB PUSH2 0x100B JUMPI PUSH2 0x100A PUSH2 0xFB4 JUMP JUMPDEST JUMPDEST POP SWAP2 SWAP1 POP JUMP JUMPDEST PUSH0 DUP2 SWAP1 POP DUP2 PUSH0 MSTORE PUSH1 0x20 PUSH0 KECCAK256 SWAP1 POP SWAP2 SWAP1 POP JUMP JUMPDEST PUSH0 PUSH1 0x20 PUSH1 0x1F DUP4 ADD DIV SWAP1 POP SWAP2 SWAP1 POP JUMP JUMPDEST PUSH0 DUP3 DUP3 SHL SWAP1 POP SWAP3 SWAP2 POP POP JUMP JUMPDEST PUSH0 PUSH1 0x8 DUP4 MUL PUSH2 0x106D PUSH32 0xFFFFFFFFFFFFFFFFFFFFFFFFFFFFFFFFFFFFFFFFFFFFFFFFFFFFFFFFFFFFFFFF DUP3 PUSH2 0x1032 JUMP JUMPDEST PUSH2 0x1077 DUP7 DUP4 PUSH2 0x1032 JUMP JUMPDEST SWAP6 POP DUP1 NOT DUP5 AND SWAP4 POP DUP1 DUP7 AND DUP5 OR SWAP3 POP POP POP SWAP4 SWAP3 POP POP POP JUMP JUMPDEST PUSH0 DUP2 SWAP1 POP SWAP2 SWAP1 POP JUMP JUMPDEST PUSH0 PUSH2 0x10B2 PUSH2 0x10AD PUSH2 0x10A8 DUP5 PUSH2 0x96C JUMP JUMPDEST PUSH2 0x108F JUMP JUMPDEST PUSH2 0x96C JUMP JUMPDEST SWAP1 POP SWAP2 SWAP1 POP JUMP JUMPDEST PUSH0 DUP2 SWAP1 POP SWAP2 SWAP1 POP JUMP JUMPDEST PUSH2 0x10CB DUP4 PUSH2 0x1098 JUMP JUMPDEST PUSH2 0x10DF PUSH2 0x10D7 DUP3 PUSH2 0x10B9 JUMP JUMPDEST DUP5 DUP5 SLOAD PUSH2 0x103E JUMP JUMPDEST DUP3 SSTORE POP POP POP POP JUMP JUMPDEST PUSH0 SWAP1 JUMP JUMPDEST PUSH2 0x10F3 PUSH2 0x10E7 JUMP JUMPDEST PUSH2 0x10FE DUP2 DUP5 DUP5 PUSH2 0x10C2 JUMP JUMPDEST POP POP POP JUMP JUMPDEST JUMPDEST DUP2 DUP2 LT ISZERO PUSH2 0x1121 JUMPI PUSH2 0x1116 PUSH0 DUP3 PUSH2 0x10EB JUMP JUMPDEST PUSH1 0x1 DUP2 ADD SWAP1 POP PUSH2 0x1104 JUMP JUMPDEST POP POP JUMP JUMPDEST PUSH1 0x1F DUP3 GT ISZERO PUSH2 0x1166 JUMPI PUSH2 0x1137 DUP2 PUSH2 0x1011 JUMP JUMPDEST PUSH2 0x1140 DUP5 PUSH2 0x1023 JUMP JUMPDEST DUP2 ADD PUSH1 0x20 DUP6 LT ISZERO PUSH2 0x114F JUMPI DUP2 SWAP1 POP JUMPDEST PUSH2 0x1163 PUSH2 0x115B DUP6 PUSH2 0x1023 JUMP JUMPDEST DUP4 ADD DUP3 PUSH2 0x1103 JUMP JUMPDEST POP POP JUMPDEST POP POP POP JUMP JUMPDEST PUSH0 DUP3 DUP3 SHR SWAP1 POP SWAP3 SWAP2 POP POP JUMP JUMPDEST PUSH0 PUSH2 0x1186 PUSH0 NOT DUP5 PUSH1 0x8 MUL PUSH2 0x116B JUMP JUMPDEST NOT DUP1 DUP4 AND SWAP2 POP POP SWAP3 SWAP2 POP POP JUMP JUMPDEST PUSH0 PUSH2 0x119E DUP4 DUP4 PUSH2 0x1177 JUMP JUMPDEST SWAP2 POP DUP3 PUSH1 0x2 MUL DUP3 OR SWAP1 POP SWAP3 SWAP2 POP POP JUMP JUMPDEST PUSH2 0x11B7 DUP3 PUSH2 0xA9B JUMP JUMPDEST PUSH8 0xFFFFFFFFFFFFFFFF DUP2 GT ISZERO PUSH2 0x11D0 JUMPI PUSH2 0x11CF PUSH2 0xBBF JUMP JUMPDEST JUMPDEST PUSH2 0x11DA DUP3 SLOAD PUSH2 0xFE1 JUMP JUMPDEST PUSH2 0x11E5 DUP3 DUP3 DUP6 PUSH2 0x1125 JUMP JUMPDEST PUSH0 PUSH1 0x20 SWAP1 POP PUSH1 0x1F DUP4 GT PUSH1 0x1 DUP2 EQ PUSH2 0x1216 JUMPI PUSH0 DUP5 ISZERO PUSH2 0x1204 JUMPI DUP3 DUP8 ADD MLOAD SWAP1 POP JUMPDEST PUSH2 0x120E DUP6 DUP3 PUSH2 0x1193 JUMP JUMPDEST DUP7 SSTORE POP PUSH2 0x1275 JUMP JUMPDEST PUSH1 0x1F NOT DUP5 AND PUSH2 0x1224 DUP7 PUSH2 0x1011 JUMP JUMPDEST PUSH0 JUMPDEST DUP3 DUP2 LT ISZERO PUSH2 0x124B JUMPI DUP5 DUP10 ADD MLOAD DUP3 SSTORE PUSH1 0x1 DUP3 ADD SWAP2 POP PUSH1 0x20 DUP6 ADD SWAP5 POP PUSH1 0x20 DUP2 ADD SWAP1 POP PUSH2 0x1226 JUMP JUMPDEST DUP7 DUP4 LT ISZERO PUSH2 0x1268 JUMPI DUP5 DUP10 ADD MLOAD PUSH2 0x1264 PUSH1 0x1F DUP10 AND DUP3 PUSH2 0x1177 JUMP JUMPDEST DUP4 SSTORE POP JUMPDEST PUSH1 0x1 PUSH1 0x2 DUP9 MUL ADD DUP9 SSTORE POP POP POP JUMPDEST POP POP POP POP POP POP JUMP JUMPDEST PUSH0 PUSH2 0x1287 DUP3 PUSH2 0x96C JUMP JUMPDEST SWAP2 POP PUSH32 0xFFFFFFFFFFFFFFFFFFFFFFFFFFFFFFFFFFFFFFFFFFFFFFFFFFFFFFFFFFFFFFFF DUP3 SUB PUSH2 0x12B9 JUMPI PUSH2 0x12B8 PUSH2 0xE61 JUMP JUMPDEST JUMPDEST PUSH1 0x1 DUP3 ADD SWAP1 POP SWAP2 SWAP1 POP JUMP JUMPDEST PUSH32 0x4F6E6C7920436F6E7472696275746572732063616E20766F7465000000000000 PUSH0 DUP3 ADD MSTORE POP JUMP JUMPDEST PUSH0 PUSH2 0x12F8 PUSH1 0x1A DUP4 PUSH2 0xAA5 JUMP JUMPDEST SWAP2 POP PUSH2 0x1303 DUP3 PUSH2 0x12C4 JUMP JUMPDEST PUSH1 0x20 DUP3 ADD SWAP1 POP SWAP2 SWAP1 POP JUMP JUMPDEST PUSH0 PUSH1 0x20 DUP3 ADD SWAP1 POP DUP2 DUP2 SUB PUSH0 DUP4 ADD MSTORE PUSH2 0x1325 DUP2 PUSH2 0x12EC JUMP JUMPDEST SWAP1 POP SWAP2 SWAP1 POP JUMP JUMPDEST PUSH32 0x596F75206861766520616C726561647920566F74656400000000000000000000 PUSH0 DUP3 ADD MSTORE POP JUMP JUMPDEST PUSH0 PUSH2 0x1360 PUSH1 0x16 DUP4 PUSH2 0xAA5 JUMP JUMPDEST SWAP2 POP PUSH2 0x136B DUP3 PUSH2 0x132C JUMP JUMPDEST PUSH1 0x20 DUP3 ADD SWAP1 POP SWAP2 SWAP1 POP JUMP JUMPDEST PUSH0 PUSH1 0x20 DUP3 ADD SWAP1 POP DUP2 DUP2 SUB PUSH0 DUP4 ADD MSTORE PUSH2 0x138D DUP2 PUSH2 0x1354 JUMP JUMPDEST SWAP1 POP SWAP2 SWAP1 POP JUMP INVALID LOG2 PUSH5 0x6970667358 0x22 SLT KECCAK256 LT 0xD0 COINBASE 0xD5 0xDC 0xC3 0xB9 NOT MUL 0xCA GASLIMIT EQ RETURN PUSH11 0xBCEAA47419363AB4697765 SAR 0xCA SUB 0xD7 CALL SWAP5 0xD PUSH5 0x736F6C6343 STOP ADDMOD EQ STOP CALLER "},"gasEstimates":{"creation":{"codeDepositCost":"1013200","executionCost":"infinite","totalCost":"infinite"},"external":{"approveRequest(uint256)":"infinite","contribute()":"51038","finalizeRequest(uint256)":"infinite","getApproveRequestCount(uint256)":"infinite","getRequestsCount()":"2455","getSummary()":"infinite","manager()":"2572","minimumContribution()":"2491","noOfContributors()":"2521","request(uint256,string,address)":"infinite","requests(uint256)":"infinite"}},"methodIdentifiers":{"approveRequest(uint256)":"d7d1bbdb","contribute()":"d7bb99ba","finalizeRequest(uint256)":"03441006","getApproveRequestCount(uint256)":"8ec266f8","getRequestsCount()":"3410452a","getSummary()":"4051ddac","manager()":"481c6a75","minimumContribution()":"937e09b1","noOfContributors()":"4e260f6f","request(uint256,string,address)":"921a5b5f","requests(uint256)":"81d12c58"}},"storageLayout":{"storage":[{"astId":42,"contract":"Campaign.sol:Campaign","label":"manager","offset":0,"slot":"0","type":"t_address"},{"astId":44,"contract":"Campaign.sol:Campaign","label":"minimumContribution","offset":0,"slot":"1","type":"t_uint256"},{"astId":47,"contract":"Campaign.sol:Campaign","label":"reqCount","offset":0,"slot":"2","type":"t_uint256"},{"astId":51,"contract":"Campaign.sol:Campaign","label":"contributors","offset":0,"slot":"3","type":"t_mapping(t_address,t_bool)"},{"astId":54,"contract":"Campaign.sol:Campaign","label":"contributorsCount","offset":0,"slot":"4","type":"t_uint256"},{"astId":73,"contract":"Campaign.sol:Campaign","label":"requests","offset":0,"slot":"5","type":"t_array(t_struct(Request)69_storage)dyn_storage"}],"types":{"t_address":{"encoding":"inplace","label":"address","numberOfBytes":"20"},"t_address_payable":{"encoding":"inplace","label":"address payable","numberOfBytes":"20"},"t_array(t_struct(Request)69_storage)dyn_storage":{"base":"t_struct(Request)69_storage","encoding":"dynamic_array","label":"struct Campaign.Request[]","numberOfBytes":"32"},"t_bool":{"encoding":"inplace","label":"bool","numberOfBytes":"1"},"t_mapping(t_address,t_bool)":{"encoding":"mapping","key":"t_address","label":"mapping(address => bool)","numberOfBytes":"32","value":"t_bool"},"t_string_storage":{"encoding":"bytes","label":"string","numberOfBytes":"32"},"t_struct(Request)69_storage":{"encoding":"inplace","label":"struct Campaign.Request","members":[{"astId":56,"contract":"Campaign.sol:Campaign","label":"description","offset":0,"slot":"0","type":"t_string_storage"},{"astId":58,"contract":"Campaign.sol:Campaign","label":"recipient","offset":0,"slot":"1","type":"t_address_payable"},{"astId":60,"contract":"Campaign.sol:Campaign","label":"value","offset":0,"slot":"2","type":"t_uint256"},{"astId":62,"contract":"Campaign.sol:Campaign","label":"isComplete","offset":0,"slot":"3","type":"t_bool"},{"astId":64,"contract":"Campaign.sol:Campaign","label":"approvalCount","offset":0,"slot":"4","type":"t_uint256"},{"astId":68,"contract":"Campaign.sol:Campaign","label":"approvals","offset":0,"slot":"5","type":"t_mapping(t_address,t_bool)"}],"numberOfBytes":"192"},"t_uint256":{"encoding":"inplace","label":"uint256","numberOfBytes":"32"}}},"userdoc":{"kind":"user","methods":{},"version":1}}