{
  "_format": "hh-sol-artifact-1",
  "contractName": "QsToken",
  "sourceName": "contracts/QS-token.sol",
  "abi": [
    {
      "inputs": [
        {
          "internalType": "uint256",
          "name": "_initialSupply",
          "type": "uint256"
        }
      ],
      "stateMutability": "nonpayable",
      "type": "constructor"
    },
    {
      "anonymous": false,
      "inputs": [
        {
          "indexed": true,
          "internalType": "address",
          "name": "owner",
          "type": "address"
        },
        {
          "indexed": true,
          "internalType": "address",
          "name": "spender",
          "type": "address"
        },
        {
          "indexed": false,
          "internalType": "uint256",
          "name": "value",
          "type": "uint256"
        }
      ],
      "name": "Approval",
      "type": "event"
    },
    {
      "anonymous": false,
      "inputs": [
        {
          "indexed": true,
          "internalType": "address",
          "name": "from",
          "type": "address"
        },
        {
          "indexed": true,
          "internalType": "address",
          "name": "to",
          "type": "address"
        },
        {
          "indexed": false,
          "internalType": "uint256",
          "name": "value",
          "type": "uint256"
        }
      ],
      "name": "Transfer",
      "type": "event"
    },
    {
      "inputs": [
        {
          "internalType": "address",
          "name": "owner",
          "type": "address"
        },
        {
          "internalType": "address",
          "name": "spender",
          "type": "address"
        }
      ],
      "name": "allowance",
      "outputs": [
        {
          "internalType": "uint256",
          "name": "",
          "type": "uint256"
        }
      ],
      "stateMutability": "view",
      "type": "function"
    },
    {
      "inputs": [
        {
          "internalType": "address",
          "name": "spender",
          "type": "address"
        },
        {
          "internalType": "uint256",
          "name": "amount",
          "type": "uint256"
        }
      ],
      "name": "approve",
      "outputs": [
        {
          "internalType": "bool",
          "name": "",
          "type": "bool"
        }
      ],
      "stateMutability": "nonpayable",
      "type": "function"
    },
    {
      "inputs": [
        {
          "internalType": "address",
          "name": "account",
          "type": "address"
        }
      ],
      "name": "balanceOf",
      "outputs": [
        {
          "internalType": "uint256",
          "name": "",
          "type": "uint256"
        }
      ],
      "stateMutability": "view",
      "type": "function"
    },
    {
      "inputs": [],
      "name": "decimals",
      "outputs": [
        {
          "internalType": "uint8",
          "name": "",
          "type": "uint8"
        }
      ],
      "stateMutability": "view",
      "type": "function"
    },
    {
      "inputs": [
        {
          "internalType": "address",
          "name": "spender",
          "type": "address"
        },
        {
          "internalType": "uint256",
          "name": "subtractedValue",
          "type": "uint256"
        }
      ],
      "name": "decreaseAllowance",
      "outputs": [
        {
          "internalType": "bool",
          "name": "",
          "type": "bool"
        }
      ],
      "stateMutability": "nonpayable",
      "type": "function"
    },
    {
      "inputs": [
        {
          "internalType": "address",
          "name": "spender",
          "type": "address"
        },
        {
          "internalType": "uint256",
          "name": "addedValue",
          "type": "uint256"
        }
      ],
      "name": "increaseAllowance",
      "outputs": [
        {
          "internalType": "bool",
          "name": "",
          "type": "bool"
        }
      ],
      "stateMutability": "nonpayable",
      "type": "function"
    },
    {
      "inputs": [],
      "name": "name",
      "outputs": [
        {
          "internalType": "string",
          "name": "",
          "type": "string"
        }
      ],
      "stateMutability": "view",
      "type": "function"
    },
    {
      "inputs": [],
      "name": "owner",
      "outputs": [
        {
          "internalType": "address",
          "name": "",
          "type": "address"
        }
      ],
      "stateMutability": "view",
      "type": "function"
    },
    {
      "inputs": [],
      "name": "symbol",
      "outputs": [
        {
          "internalType": "string",
          "name": "",
          "type": "string"
        }
      ],
      "stateMutability": "view",
      "type": "function"
    },
    {
      "inputs": [],
      "name": "tokenName",
      "outputs": [
        {
          "internalType": "string",
          "name": "",
          "type": "string"
        }
      ],
      "stateMutability": "view",
      "type": "function"
    },
    {
      "inputs": [],
      "name": "tokenSymbol",
      "outputs": [
        {
          "internalType": "string",
          "name": "",
          "type": "string"
        }
      ],
      "stateMutability": "view",
      "type": "function"
    },
    {
      "inputs": [],
      "name": "totalSupply",
      "outputs": [
        {
          "internalType": "uint256",
          "name": "",
          "type": "uint256"
        }
      ],
      "stateMutability": "view",
      "type": "function"
    },
    {
      "inputs": [
        {
          "internalType": "address",
          "name": "to",
          "type": "address"
        },
        {
          "internalType": "uint256",
          "name": "amount",
          "type": "uint256"
        }
      ],
      "name": "transfer",
      "outputs": [
        {
          "internalType": "bool",
          "name": "",
          "type": "bool"
        }
      ],
      "stateMutability": "nonpayable",
      "type": "function"
    },
    {
      "inputs": [
        {
          "internalType": "address",
          "name": "from",
          "type": "address"
        },
        {
          "internalType": "address",
          "name": "to",
          "type": "address"
        },
        {
          "internalType": "uint256",
          "name": "amount",
          "type": "uint256"
        }
      ],
      "name": "transferFrom",
      "outputs": [
        {
          "internalType": "bool",
          "name": "",
          "type": "bool"
        }
      ],
      "stateMutability": "nonpayable",
      "type": "function"
    }
  ],
  "bytecode": "0x60806040526040518060400160405280600f81526020017f5173657276696365732d746f6b656e0000000000000000000000000000000000815250600590816200004a91906200065c565b506040518060400160405280600281526020017f5153000000000000000000000000000000000000000000000000000000000000815250600690816200009191906200065c565b503480156200009f57600080fd5b5060405162001d0c38038062001d0c8339818101604052810190620000c5919062000779565b60058054620000d4906200044b565b80601f016020809104026020016040519081016040528092919081815260200182805462000102906200044b565b8015620001535780601f10620001275761010080835404028352916020019162000153565b820191906000526020600020905b8154815290600101906020018083116200013557829003601f168201915b50505050506006805462000167906200044b565b80601f016020809104026020016040519081016040528092919081815260200182805462000195906200044b565b8015620001e65780601f10620001ba57610100808354040283529160200191620001e6565b820191906000526020600020905b815481529060010190602001808311620001c857829003601f168201915b50505050508160039081620001fc91906200065c565b5080600490816200020e91906200065c565b5050506200022333826200026b60201b60201c565b33600760006101000a81548173ffffffffffffffffffffffffffffffffffffffff021916908373ffffffffffffffffffffffffffffffffffffffff16021790555050620008c6565b600073ffffffffffffffffffffffffffffffffffffffff168273ffffffffffffffffffffffffffffffffffffffff1603620002dd576040517f08c379a0000000000000000000000000000000000000000000000000000000008152600401620002d4906200080c565b60405180910390fd5b620002f160008383620003d860201b60201c565b80600260008282546200030591906200085d565b92505081905550806000808473ffffffffffffffffffffffffffffffffffffffff1673ffffffffffffffffffffffffffffffffffffffff168152602001908152602001600020600082825401925050819055508173ffffffffffffffffffffffffffffffffffffffff16600073ffffffffffffffffffffffffffffffffffffffff167fddf252ad1be2c89b69c2b068fc378daa952ba7f163c4a11628f55a4df523b3ef83604051620003b89190620008a9565b60405180910390a3620003d460008383620003dd60201b60201c565b5050565b505050565b505050565b600081519050919050565b7f4e487b7100000000000000000000000000000000000000000000000000000000600052604160045260246000fd5b7f4e487b7100000000000000000000000000000000000000000000000000000000600052602260045260246000fd5b600060028204905060018216806200046457607f821691505b6020821081036200047a57620004796200041c565b5b50919050565b60008190508160005260206000209050919050565b60006020601f8301049050919050565b600082821b905092915050565b600060088302620004e47fffffffffffffffffffffffffffffffffffffffffffffffffffffffffffffffff82620004a5565b620004f08683620004a5565b95508019841693508086168417925050509392505050565b6000819050919050565b6000819050919050565b60006200053d62000537620005318462000508565b62000512565b62000508565b9050919050565b6000819050919050565b62000559836200051c565b62000571620005688262000544565b848454620004b2565b825550505050565b600090565b6200058862000579565b620005958184846200054e565b505050565b5b81811015620005bd57620005b16000826200057e565b6001810190506200059b565b5050565b601f8211156200060c57620005d68162000480565b620005e18462000495565b81016020851015620005f1578190505b62000609620006008562000495565b8301826200059a565b50505b505050565b600082821c905092915050565b6000620006316000198460080262000611565b1980831691505092915050565b60006200064c83836200061e565b9150826002028217905092915050565b6200066782620003e2565b67ffffffffffffffff811115620006835762000682620003ed565b5b6200068f82546200044b565b6200069c828285620005c1565b600060209050601f831160018114620006d45760008415620006bf578287015190505b620006cb85826200063e565b8655506200073b565b601f198416620006e48662000480565b60005b828110156200070e57848901518255600182019150602085019450602081019050620006e7565b868310156200072e57848901516200072a601f8916826200061e565b8355505b6001600288020188555050505b505050505050565b600080fd5b620007538162000508565b81146200075f57600080fd5b50565b600081519050620007738162000748565b92915050565b60006020828403121562000792576200079162000743565b5b6000620007a28482850162000762565b91505092915050565b600082825260208201905092915050565b7f45524332303a206d696e7420746f20746865207a65726f206164647265737300600082015250565b6000620007f4601f83620007ab565b91506200080182620007bc565b602082019050919050565b600060208201905081810360008301526200082781620007e5565b9050919050565b7f4e487b7100000000000000000000000000000000000000000000000000000000600052601160045260246000fd5b60006200086a8262000508565b9150620008778362000508565b92508282019050808211156200089257620008916200082e565b5b92915050565b620008a38162000508565b82525050565b6000602082019050620008c0600083018462000898565b92915050565b61143680620008d66000396000f3fe608060405234801561001057600080fd5b50600436106100ea5760003560e01c806370a082311161008c57806395d89b411161006657806395d89b4114610263578063a457c2d714610281578063a9059cbb146102b1578063dd62ed3e146102e1576100ea565b806370a08231146101f75780637b61c320146102275780638da5cb5b14610245576100ea565b806323b872dd116100c857806323b872dd1461015b578063313ce5671461018b57806339509351146101a95780636c02a931146101d9576100ea565b806306fdde03146100ef578063095ea7b31461010d57806318160ddd1461013d575b600080fd5b6100f7610311565b6040516101049190610ce9565b60405180910390f35b61012760048036038101906101229190610da4565b6103a3565b6040516101349190610dff565b60405180910390f35b6101456103c6565b6040516101529190610e29565b60405180910390f35b61017560048036038101906101709190610e44565b6103d0565b6040516101829190610dff565b60405180910390f35b6101936103ff565b6040516101a09190610eb3565b60405180910390f35b6101c360048036038101906101be9190610da4565b610408565b6040516101d09190610dff565b60405180910390f35b6101e161043f565b6040516101ee9190610ce9565b60405180910390f35b610211600480360381019061020c9190610ece565b6104cd565b60405161021e9190610e29565b60405180910390f35b61022f610515565b60405161023c9190610ce9565b60405180910390f35b61024d6105a3565b60405161025a9190610f0a565b60405180910390f35b61026b6105c9565b6040516102789190610ce9565b60405180910390f35b61029b60048036038101906102969190610da4565b61065b565b6040516102a89190610dff565b60405180910390f35b6102cb60048036038101906102c69190610da4565b6106d2565b6040516102d89190610dff565b60405180910390f35b6102fb60048036038101906102f69190610f25565b6106f5565b6040516103089190610e29565b60405180910390f35b60606003805461032090610f94565b80601f016020809104026020016040519081016040528092919081815260200182805461034c90610f94565b80156103995780601f1061036e57610100808354040283529160200191610399565b820191906000526020600020905b81548152906001019060200180831161037c57829003601f168201915b5050505050905090565b6000806103ae61077c565b90506103bb818585610784565b600191505092915050565b6000600254905090565b6000806103db61077c565b90506103e885828561094d565b6103f38585856109d9565b60019150509392505050565b60006004905090565b60008061041361077c565b905061043481858561042585896106f5565b61042f9190610ff4565b610784565b600191505092915050565b6005805461044c90610f94565b80601f016020809104026020016040519081016040528092919081815260200182805461047890610f94565b80156104c55780601f1061049a576101008083540402835291602001916104c5565b820191906000526020600020905b8154815290600101906020018083116104a857829003601f168201915b505050505081565b60008060008373ffffffffffffffffffffffffffffffffffffffff1673ffffffffffffffffffffffffffffffffffffffff168152602001908152602001600020549050919050565b6006805461052290610f94565b80601f016020809104026020016040519081016040528092919081815260200182805461054e90610f94565b801561059b5780601f106105705761010080835404028352916020019161059b565b820191906000526020600020905b81548152906001019060200180831161057e57829003601f168201915b505050505081565b600760009054906101000a900473ffffffffffffffffffffffffffffffffffffffff1681565b6060600480546105d890610f94565b80601f016020809104026020016040519081016040528092919081815260200182805461060490610f94565b80156106515780601f1061062657610100808354040283529160200191610651565b820191906000526020600020905b81548152906001019060200180831161063457829003601f168201915b5050505050905090565b60008061066661077c565b9050600061067482866106f5565b9050838110156106b9576040517f08c379a00000000000000000000000000000000000000000000000000000000081526004016106b09061109a565b60405180910390fd5b6106c68286868403610784565b60019250505092915050565b6000806106dd61077c565b90506106ea8185856109d9565b600191505092915050565b6000600160008473ffffffffffffffffffffffffffffffffffffffff1673ffffffffffffffffffffffffffffffffffffffff16815260200190815260200160002060008373ffffffffffffffffffffffffffffffffffffffff1673ffffffffffffffffffffffffffffffffffffffff16815260200190815260200160002054905092915050565b600033905090565b600073ffffffffffffffffffffffffffffffffffffffff168373ffffffffffffffffffffffffffffffffffffffff16036107f3576040517f08c379a00000000000000000000000000000000000000000000000000000000081526004016107ea9061112c565b60405180910390fd5b600073ffffffffffffffffffffffffffffffffffffffff168273ffffffffffffffffffffffffffffffffffffffff1603610862576040517f08c379a0000000000000000000000000000000000000000000000000000000008152600401610859906111be565b60405180910390fd5b80600160008573ffffffffffffffffffffffffffffffffffffffff1673ffffffffffffffffffffffffffffffffffffffff16815260200190815260200160002060008473ffffffffffffffffffffffffffffffffffffffff1673ffffffffffffffffffffffffffffffffffffffff168152602001908152602001600020819055508173ffffffffffffffffffffffffffffffffffffffff168373ffffffffffffffffffffffffffffffffffffffff167f8c5be1e5ebec7d5bd14f71427d1e84f3dd0314c0f7b2291e5b200ac8c7c3b925836040516109409190610e29565b60405180910390a3505050565b600061095984846106f5565b90507fffffffffffffffffffffffffffffffffffffffffffffffffffffffffffffffff81146109d357818110156109c5576040517f08c379a00000000000000000000000000000000000000000000000000000000081526004016109bc9061122a565b60405180910390fd5b6109d28484848403610784565b5b50505050565b600073ffffffffffffffffffffffffffffffffffffffff168373ffffffffffffffffffffffffffffffffffffffff1603610a48576040517f08c379a0000000000000000000000000000000000000000000000000000000008152600401610a3f906112bc565b60405180910390fd5b600073ffffffffffffffffffffffffffffffffffffffff168273ffffffffffffffffffffffffffffffffffffffff1603610ab7576040517f08c379a0000000000000000000000000000000000000000000000000000000008152600401610aae9061134e565b60405180910390fd5b610ac2838383610c4f565b60008060008573ffffffffffffffffffffffffffffffffffffffff1673ffffffffffffffffffffffffffffffffffffffff16815260200190815260200160002054905081811015610b48576040517f08c379a0000000000000000000000000000000000000000000000000000000008152600401610b3f906113e0565b60405180910390fd5b8181036000808673ffffffffffffffffffffffffffffffffffffffff1673ffffffffffffffffffffffffffffffffffffffff16815260200190815260200160002081905550816000808573ffffffffffffffffffffffffffffffffffffffff1673ffffffffffffffffffffffffffffffffffffffff168152602001908152602001600020600082825401925050819055508273ffffffffffffffffffffffffffffffffffffffff168473ffffffffffffffffffffffffffffffffffffffff167fddf252ad1be2c89b69c2b068fc378daa952ba7f163c4a11628f55a4df523b3ef84604051610c369190610e29565b60405180910390a3610c49848484610c54565b50505050565b505050565b505050565b600081519050919050565b600082825260208201905092915050565b60005b83811015610c93578082015181840152602081019050610c78565b60008484015250505050565b6000601f19601f8301169050919050565b6000610cbb82610c59565b610cc58185610c64565b9350610cd5818560208601610c75565b610cde81610c9f565b840191505092915050565b60006020820190508181036000830152610d038184610cb0565b905092915050565b600080fd5b600073ffffffffffffffffffffffffffffffffffffffff82169050919050565b6000610d3b82610d10565b9050919050565b610d4b81610d30565b8114610d5657600080fd5b50565b600081359050610d6881610d42565b92915050565b6000819050919050565b610d8181610d6e565b8114610d8c57600080fd5b50565b600081359050610d9e81610d78565b92915050565b60008060408385031215610dbb57610dba610d0b565b5b6000610dc985828601610d59565b9250506020610dda85828601610d8f565b9150509250929050565b60008115159050919050565b610df981610de4565b82525050565b6000602082019050610e146000830184610df0565b92915050565b610e2381610d6e565b82525050565b6000602082019050610e3e6000830184610e1a565b92915050565b600080600060608486031215610e5d57610e5c610d0b565b5b6000610e6b86828701610d59565b9350506020610e7c86828701610d59565b9250506040610e8d86828701610d8f565b9150509250925092565b600060ff82169050919050565b610ead81610e97565b82525050565b6000602082019050610ec86000830184610ea4565b92915050565b600060208284031215610ee457610ee3610d0b565b5b6000610ef284828501610d59565b91505092915050565b610f0481610d30565b82525050565b6000602082019050610f1f6000830184610efb565b92915050565b60008060408385031215610f3c57610f3b610d0b565b5b6000610f4a85828601610d59565b9250506020610f5b85828601610d59565b9150509250929050565b7f4e487b7100000000000000000000000000000000000000000000000000000000600052602260045260246000fd5b60006002820490506001821680610fac57607f821691505b602082108103610fbf57610fbe610f65565b5b50919050565b7f4e487b7100000000000000000000000000000000000000000000000000000000600052601160045260246000fd5b6000610fff82610d6e565b915061100a83610d6e565b925082820190508082111561102257611021610fc5565b5b92915050565b7f45524332303a2064656372656173656420616c6c6f77616e63652062656c6f7760008201527f207a65726f000000000000000000000000000000000000000000000000000000602082015250565b6000611084602583610c64565b915061108f82611028565b604082019050919050565b600060208201905081810360008301526110b381611077565b9050919050565b7f45524332303a20617070726f76652066726f6d20746865207a65726f2061646460008201527f7265737300000000000000000000000000000000000000000000000000000000602082015250565b6000611116602483610c64565b9150611121826110ba565b604082019050919050565b6000602082019050818103600083015261114581611109565b9050919050565b7f45524332303a20617070726f766520746f20746865207a65726f20616464726560008201527f7373000000000000000000000000000000000000000000000000000000000000602082015250565b60006111a8602283610c64565b91506111b38261114c565b604082019050919050565b600060208201905081810360008301526111d78161119b565b9050919050565b7f45524332303a20696e73756666696369656e7420616c6c6f77616e6365000000600082015250565b6000611214601d83610c64565b915061121f826111de565b602082019050919050565b6000602082019050818103600083015261124381611207565b9050919050565b7f45524332303a207472616e736665722066726f6d20746865207a65726f20616460008201527f6472657373000000000000000000000000000000000000000000000000000000602082015250565b60006112a6602583610c64565b91506112b18261124a565b604082019050919050565b600060208201905081810360008301526112d581611299565b9050919050565b7f45524332303a207472616e7366657220746f20746865207a65726f206164647260008201527f6573730000000000000000000000000000000000000000000000000000000000602082015250565b6000611338602383610c64565b9150611343826112dc565b604082019050919050565b600060208201905081810360008301526113678161132b565b9050919050565b7f45524332303a207472616e7366657220616d6f756e742065786365656473206260008201527f616c616e63650000000000000000000000000000000000000000000000000000602082015250565b60006113ca602683610c64565b91506113d58261136e565b604082019050919050565b600060208201905081810360008301526113f9816113bd565b905091905056fea2646970667358221220df2cbfbc5f180ab85e1105cb02d01f21926b4ba8b5acb5b4ce89242045eaf56764736f6c63430008130033",
  "linkReferences": {},
  "deployedLinkReferences": {}
}